{
  "contractName": "CatBase",
  "abi": [
    {
      "inputs": [
        {
          "internalType": "string",
          "name": "name",
          "type": "string"
        },
        {
          "internalType": "string",
          "name": "symbol",
          "type": "string"
        }
      ],
      "stateMutability": "nonpayable",
      "type": "constructor"
    },
    {
      "anonymous": false,
      "inputs": [
        {
          "indexed": true,
          "internalType": "address",
          "name": "owner",
          "type": "address"
        },
        {
          "indexed": true,
          "internalType": "address",
          "name": "spender",
          "type": "address"
        },
        {
          "indexed": false,
          "internalType": "uint256",
          "name": "value",
          "type": "uint256"
        }
      ],
      "name": "Approval",
      "type": "event"
    },
    {
      "anonymous": false,
      "inputs": [
        {
          "indexed": false,
          "internalType": "address",
          "name": "requester",
          "type": "address"
        },
        {
          "indexed": false,
          "internalType": "uint256",
          "name": "value",
          "type": "uint256"
        }
      ],
      "name": "EXCHANGE_ETH_TO_SCC",
      "type": "event"
    },
    {
      "anonymous": false,
      "inputs": [
        {
          "indexed": false,
          "internalType": "address",
          "name": "requester",
          "type": "address"
        },
        {
          "indexed": false,
          "internalType": "uint256",
          "name": "value",
          "type": "uint256"
        }
      ],
      "name": "EXCHANGE_SCC_TO_ETH",
      "type": "event"
    },
    {
      "anonymous": false,
      "inputs": [
        {
          "indexed": false,
          "internalType": "address",
          "name": "feeder",
          "type": "address"
        },
        {
          "indexed": false,
          "internalType": "uint32",
          "name": "beforeId",
          "type": "uint32"
        },
        {
          "indexed": false,
          "internalType": "uint32",
          "name": "afterId",
          "type": "uint32"
        }
      ],
      "name": "FeedCat",
      "type": "event"
    },
    {
      "anonymous": false,
      "inputs": [
        {
          "indexed": false,
          "internalType": "string",
          "name": "name",
          "type": "string"
        },
        {
          "indexed": false,
          "internalType": "uint32",
          "name": "kittyId",
          "type": "uint32"
        }
      ],
      "name": "NewCat",
      "type": "event"
    },
    {
      "anonymous": false,
      "inputs": [
        {
          "indexed": true,
          "internalType": "address",
          "name": "from",
          "type": "address"
        },
        {
          "indexed": true,
          "internalType": "address",
          "name": "to",
          "type": "address"
        },
        {
          "indexed": false,
          "internalType": "uint256",
          "name": "value",
          "type": "uint256"
        }
      ],
      "name": "Transfer",
      "type": "event"
    },
    {
      "inputs": [
        {
          "internalType": "uint256",
          "name": "value",
          "type": "uint256"
        }
      ],
      "name": "SSCtoEth",
      "outputs": [
        {
          "internalType": "bool",
          "name": "",
          "type": "bool"
        }
      ],
      "stateMutability": "payable",
      "type": "function",
      "payable": true
    },
    {
      "inputs": [
        {
          "internalType": "address",
          "name": "owner",
          "type": "address"
        },
        {
          "internalType": "address",
          "name": "spender",
          "type": "address"
        }
      ],
      "name": "allowance",
      "outputs": [
        {
          "internalType": "uint256",
          "name": "",
          "type": "uint256"
        }
      ],
      "stateMutability": "view",
      "type": "function",
      "constant": true
    },
    {
      "inputs": [
        {
          "internalType": "address",
          "name": "spender",
          "type": "address"
        },
        {
          "internalType": "uint256",
          "name": "amount",
          "type": "uint256"
        }
      ],
      "name": "approve",
      "outputs": [
        {
          "internalType": "bool",
          "name": "",
          "type": "bool"
        }
      ],
      "stateMutability": "nonpayable",
      "type": "function"
    },
    {
      "inputs": [
        {
          "internalType": "address",
          "name": "account",
          "type": "address"
        }
      ],
      "name": "balanceOf",
      "outputs": [
        {
          "internalType": "uint256",
          "name": "",
          "type": "uint256"
        }
      ],
      "stateMutability": "view",
      "type": "function",
      "constant": true
    },
    {
      "inputs": [],
      "name": "decimals",
      "outputs": [
        {
          "internalType": "uint8",
          "name": "",
          "type": "uint8"
        }
      ],
      "stateMutability": "view",
      "type": "function",
      "constant": true
    },
    {
      "inputs": [
        {
          "internalType": "address",
          "name": "spender",
          "type": "address"
        },
        {
          "internalType": "uint256",
          "name": "subtractedValue",
          "type": "uint256"
        }
      ],
      "name": "decreaseAllowance",
      "outputs": [
        {
          "internalType": "bool",
          "name": "",
          "type": "bool"
        }
      ],
      "stateMutability": "nonpayable",
      "type": "function"
    },
    {
      "inputs": [],
      "name": "ethToSSC",
      "outputs": [
        {
          "internalType": "bool",
          "name": "",
          "type": "bool"
        }
      ],
      "stateMutability": "payable",
      "type": "function",
      "payable": true
    },
    {
      "inputs": [],
      "name": "getOwner",
      "outputs": [
        {
          "internalType": "address payable",
          "name": "",
          "type": "address"
        }
      ],
      "stateMutability": "view",
      "type": "function",
      "constant": true
    },
    {
      "inputs": [
        {
          "internalType": "address",
          "name": "spender",
          "type": "address"
        },
        {
          "internalType": "uint256",
          "name": "addedValue",
          "type": "uint256"
        }
      ],
      "name": "increaseAllowance",
      "outputs": [
        {
          "internalType": "bool",
          "name": "",
          "type": "bool"
        }
      ],
      "stateMutability": "nonpayable",
      "type": "function"
    },
    {
      "inputs": [],
      "name": "name",
      "outputs": [
        {
          "internalType": "string",
          "name": "",
          "type": "string"
        }
      ],
      "stateMutability": "view",
      "type": "function",
      "constant": true
    },
    {
      "inputs": [],
      "name": "owner",
      "outputs": [
        {
          "internalType": "address payable",
          "name": "",
          "type": "address"
        }
      ],
      "stateMutability": "view",
      "type": "function",
      "constant": true
    },
    {
      "inputs": [],
      "name": "symbol",
      "outputs": [
        {
          "internalType": "string",
          "name": "",
          "type": "string"
        }
      ],
      "stateMutability": "view",
      "type": "function",
      "constant": true
    },
    {
      "inputs": [],
      "name": "totalSupply",
      "outputs": [
        {
          "internalType": "uint256",
          "name": "",
          "type": "uint256"
        }
      ],
      "stateMutability": "view",
      "type": "function",
      "constant": true
    },
    {
      "inputs": [
        {
          "internalType": "address",
          "name": "recipient",
          "type": "address"
        },
        {
          "internalType": "uint256",
          "name": "amount",
          "type": "uint256"
        }
      ],
      "name": "transfer",
      "outputs": [
        {
          "internalType": "bool",
          "name": "",
          "type": "bool"
        }
      ],
      "stateMutability": "nonpayable",
      "type": "function"
    },
    {
      "inputs": [
        {
          "internalType": "address",
          "name": "sender",
          "type": "address"
        },
        {
          "internalType": "address",
          "name": "recipient",
          "type": "address"
        },
        {
          "internalType": "uint256",
          "name": "amount",
          "type": "uint256"
        }
      ],
      "name": "transferFrom",
      "outputs": [
        {
          "internalType": "bool",
          "name": "",
          "type": "bool"
        }
      ],
      "stateMutability": "nonpayable",
      "type": "function"
    },
    {
      "inputs": [],
      "name": "registerCat",
      "outputs": [],
      "stateMutability": "nonpayable",
      "type": "function"
    },
    {
      "inputs": [],
      "name": "getCatCounts",
      "outputs": [
        {
          "internalType": "uint32",
          "name": "",
          "type": "uint32"
        }
      ],
      "stateMutability": "view",
      "type": "function",
      "constant": true
    },
    {
      "inputs": [],
      "name": "getMyCat",
      "outputs": [
        {
          "components": [
            {
              "internalType": "string",
              "name": "name",
              "type": "string"
            },
            {
              "internalType": "uint256",
              "name": "price",
              "type": "uint256"
            },
            {
              "internalType": "uint256",
              "name": "coolDown",
              "type": "uint256"
            },
            {
              "internalType": "uint32",
              "name": "kittyId",
              "type": "uint32"
            }
          ],
          "internalType": "struct CatBase.Cat",
          "name": "mycat",
          "type": "tuple"
        }
      ],
      "stateMutability": "view",
      "type": "function",
      "constant": true
    },
    {
      "inputs": [],
      "name": "hasCat",
      "outputs": [
        {
          "internalType": "bool",
          "name": "",
          "type": "bool"
        }
      ],
      "stateMutability": "view",
      "type": "function",
      "constant": true
    },
    {
      "inputs": [],
      "name": "feed",
      "outputs": [],
      "stateMutability": "nonpayable",
      "type": "function"
    }
  ],
  "bytecode": "0x60806040526000600655603c6007556000600860006101000a81548163ffffffff021916908363ffffffff1602179055506040518060c00160405280600062ffffff16815260200162024c4162ffffff16815260200162038d2f62ffffff16815260200162062cf662ffffff16815260200162070f7062ffffff168152602001620788f862ffffff1681525060099060066200009d92919062000525565b506040518060c00160405280600060ff168152602001600160ff168152602001600260ff168152602001600360ff168152602001600460ff168152602001600560ff16815250600a906006620000f5929190620005db565b503480156200010357600080fd5b506040516200318a3803806200318a83398181016040528101906200012991906200087f565b8181818181600390805190602001906200014592919062000632565b5080600490805190602001906200015e92919062000632565b50505033600560006101000a81548173ffffffffffffffffffffffffffffffffffffffff021916908373ffffffffffffffffffffffffffffffffffffffff16021790555062000205600560009054906101000a900473ffffffffffffffffffffffffffffffffffffffff16620001d96200039960201b60201c565b60ff16600a620001ea919062000a91565b6103e8620001f9919062000ae2565b620003a260201b60201c565b50506000600190505b60058161ffff1611620002ab5780600b600060098461ffff16815481106200023b576200023a62000b43565b5b90600052602060002090600891828204019190066004029054906101000a900463ffffffff1663ffffffff1663ffffffff16815260200190815260200160002060006101000a81548161ffff021916908361ffff1602179055508080620002a29062000b80565b9150506200020e565b50600d60405180608001604052806040518060400160405280600581526020017f4552524f52000000000000000000000000000000000000000000000000000000815250815260200160008152602001428152602001600063ffffffff16815250908060018154018082558091505060019003906000526020600020906004020160009091909190915060008201518160000190805190602001906200035392919062000632565b50602082015181600101556040820151816002015560608201518160030160006101000a81548163ffffffff021916908363ffffffff1602179055505050505062000d23565b60006012905090565b600073ffffffffffffffffffffffffffffffffffffffff168273ffffffffffffffffffffffffffffffffffffffff16141562000415576040517f08c379a00000000000000000000000000000000000000000000000000000000081526004016200040c9062000c11565b60405180910390fd5b62000429600083836200051b60201b60201c565b80600260008282546200043d919062000c33565b92505081905550806000808473ffffffffffffffffffffffffffffffffffffffff1673ffffffffffffffffffffffffffffffffffffffff168152602001908152602001600020600082825462000494919062000c33565b925050819055508173ffffffffffffffffffffffffffffffffffffffff16600073ffffffffffffffffffffffffffffffffffffffff167fddf252ad1be2c89b69c2b068fc378daa952ba7f163c4a11628f55a4df523b3ef83604051620004fb919062000ca1565b60405180910390a362000517600083836200052060201b60201c565b5050565b505050565b505050565b82805482825590600052602060002090600701600890048101928215620005c85791602002820160005b838211156200059457835183826101000a81548163ffffffff021916908362ffffff16021790555092602001926004016020816003010492830192600103026200054f565b8015620005c65782816101000a81549063ffffffff021916905560040160208160030104928301926001030262000594565b505b509050620005d79190620006c3565b5090565b8280548282559060005260206000209081019282156200061f579160200282015b828111156200061e578251829060ff16905591602001919060010190620005fc565b5b5090506200062e9190620006c3565b5090565b828054620006409062000ced565b90600052602060002090601f016020900481019282620006645760008555620006b0565b82601f106200067f57805160ff1916838001178555620006b0565b82800160010185558215620006b0579182015b82811115620006af57825182559160200191906001019062000692565b5b509050620006bf9190620006c3565b5090565b5b80821115620006de576000816000905550600101620006c4565b5090565b6000604051905090565b600080fd5b600080fd5b600080fd5b600080fd5b6000601f19601f8301169050919050565b7f4e487b7100000000000000000000000000000000000000000000000000000000600052604160045260246000fd5b6200074b8262000700565b810181811067ffffffffffffffff821117156200076d576200076c62000711565b5b80604052505050565b600062000782620006e2565b905062000790828262000740565b919050565b600067ffffffffffffffff821115620007b357620007b262000711565b5b620007be8262000700565b9050602081019050919050565b60005b83811015620007eb578082015181840152602081019050620007ce565b83811115620007fb576000848401525b50505050565b600062000818620008128462000795565b62000776565b905082815260208101848484011115620008375762000836620006fb565b5b62000844848285620007cb565b509392505050565b600082601f830112620008645762000863620006f6565b5b81516200087684826020860162000801565b91505092915050565b60008060408385031215620008995762000898620006ec565b5b600083015167ffffffffffffffff811115620008ba57620008b9620006f1565b5b620008c8858286016200084c565b925050602083015167ffffffffffffffff811115620008ec57620008eb620006f1565b5b620008fa858286016200084c565b9150509250929050565b7f4e487b7100000000000000000000000000000000000000000000000000000000600052601160045260246000fd5b60008160011c9050919050565b6000808291508390505b600185111562000992578086048111156200096a576200096962000904565b5b60018516156200097a5780820291505b80810290506200098a8562000933565b94506200094a565b94509492505050565b600082620009ad576001905062000a80565b81620009bd576000905062000a80565b8160018114620009d65760028114620009e15762000a17565b600191505062000a80565b60ff841115620009f657620009f562000904565b5b8360020a91508482111562000a105762000a0f62000904565b5b5062000a80565b5060208310610133831016604e8410600b841016171562000a515782820a90508381111562000a4b5762000a4a62000904565b5b62000a80565b62000a60848484600162000940565b9250905081840481111562000a7a5762000a7962000904565b5b81810290505b9392505050565b6000819050919050565b600062000a9e8262000a87565b915062000aab8362000a87565b925062000ada7fffffffffffffffffffffffffffffffffffffffffffffffffffffffffffffffff84846200099b565b905092915050565b600062000aef8262000a87565b915062000afc8362000a87565b9250817fffffffffffffffffffffffffffffffffffffffffffffffffffffffffffffffff048311821515161562000b385762000b3762000904565b5b828202905092915050565b7f4e487b7100000000000000000000000000000000000000000000000000000000600052603260045260246000fd5b600061ffff82169050919050565b600062000b8d8262000b72565b915061ffff82141562000ba55762000ba462000904565b5b600182019050919050565b600082825260208201905092915050565b7f45524332303a206d696e7420746f20746865207a65726f206164647265737300600082015250565b600062000bf9601f8362000bb0565b915062000c068262000bc1565b602082019050919050565b6000602082019050818103600083015262000c2c8162000bea565b9050919050565b600062000c408262000a87565b915062000c4d8362000a87565b9250827fffffffffffffffffffffffffffffffffffffffffffffffffffffffffffffffff0382111562000c855762000c8462000904565b5b828201905092915050565b62000c9b8162000a87565b82525050565b600060208201905062000cb8600083018462000c90565b92915050565b7f4e487b7100000000000000000000000000000000000000000000000000000000600052602260045260246000fd5b6000600282049050600182168062000d0657607f821691505b6020821081141562000d1d5762000d1c62000cbe565b5b50919050565b6124578062000d336000396000f3fe60806040526004361061011f5760003560e01c80638da5cb5b116100a0578063a9059cbb11610064578063a9059cbb146103ce578063cf1ecc121461040b578063dd62ed3e1461043b578063f9351a6214610478578063fe2ca31a146104a35761011f565b80638da5cb5b146102f257806395d89b411461031d5780639f800a5f14610348578063a457c2d714610366578063a87e8aad146103a35761011f565b806337a7b7d8116100e757806337a7b7d81461021f578063395093511461023657806346218cf51461027357806370a082311461028a578063893d20e8146102c75761011f565b806306fdde0314610124578063095ea7b31461014f57806318160ddd1461018c57806323b872dd146101b7578063313ce567146101f4575b600080fd5b34801561013057600080fd5b506101396104ce565b604051610146919061178d565b60405180910390f35b34801561015b57600080fd5b5061017660048036038101906101719190611848565b610560565b60405161018391906118a3565b60405180910390f35b34801561019857600080fd5b506101a161057e565b6040516101ae91906118cd565b60405180910390f35b3480156101c357600080fd5b506101de60048036038101906101d991906118e8565b610588565b6040516101eb91906118a3565b60405180910390f35b34801561020057600080fd5b50610209610680565b6040516102169190611957565b60405180910390f35b34801561022b57600080fd5b50610234610689565b005b34801561024257600080fd5b5061025d60048036038101906102589190611848565b6106e3565b60405161026a91906118a3565b60405180910390f35b34801561027f57600080fd5b5061028861078f565b005b34801561029657600080fd5b506102b160048036038101906102ac9190611972565b610a49565b6040516102be91906118cd565b60405180910390f35b3480156102d357600080fd5b506102dc610a91565b6040516102e991906119c0565b60405180910390f35b3480156102fe57600080fd5b50610307610abb565b60405161031491906119c0565b60405180910390f35b34801561032957600080fd5b50610332610ae1565b60405161033f919061178d565b60405180910390f35b610350610b73565b60405161035d91906118a3565b60405180910390f35b34801561037257600080fd5b5061038d60048036038101906103889190611848565b610be2565b60405161039a91906118a3565b60405180910390f35b3480156103af57600080fd5b506103b8610ccd565b6040516103c59190611ab6565b60405180910390f35b3480156103da57600080fd5b506103f560048036038101906103f09190611848565b610ec1565b60405161040291906118a3565b60405180910390f35b61042560048036038101906104209190611ad8565b610edf565b60405161043291906118a3565b60405180910390f35b34801561044757600080fd5b50610462600480360381019061045d9190611b05565b610fab565b60405161046f91906118cd565b60405180910390f35b34801561048457600080fd5b5061048d611032565b60405161049a91906118a3565b60405180910390f35b3480156104af57600080fd5b506104b8611049565b6040516104c59190611b54565b60405180910390f35b6060600380546104dd90611b9e565b80601f016020809104026020016040519081016040528092919081815260200182805461050990611b9e565b80156105565780601f1061052b57610100808354040283529160200191610556565b820191906000526020600020905b81548152906001019060200180831161053957829003601f168201915b5050505050905090565b600061057461056d611063565b848461106b565b6001905092915050565b6000600254905090565b6000610595848484611236565b6000600160008673ffffffffffffffffffffffffffffffffffffffff1673ffffffffffffffffffffffffffffffffffffffff16815260200190815260200160002060006105e0611063565b73ffffffffffffffffffffffffffffffffffffffff1673ffffffffffffffffffffffffffffffffffffffff16815260200190815260200160002054905082811015610660576040517f08c379a000000000000000000000000000000000000000000000000000000000815260040161065790611c42565b60405180910390fd5b6106748561066c611063565b85840361106b565b60019150509392505050565b60006012905090565b60008061069c6106976114b7565b61151a565b80925081935050507fb3ebc34654d765aa954722791d0d86612cfe8e591240fdececdf3ca8af8690063383836040516106d793929190611c71565b60405180910390a15050565b60006107856106f0611063565b8484600160006106fe611063565b73ffffffffffffffffffffffffffffffffffffffff1673ffffffffffffffffffffffffffffffffffffffff16815260200190815260200160002060008873ffffffffffffffffffffffffffffffffffffffff1673ffffffffffffffffffffffffffffffffffffffff168152602001908152602001600020546107809190611cd7565b61106b565b6001905092915050565b6000600c60003373ffffffffffffffffffffffffffffffffffffffff1673ffffffffffffffffffffffffffffffffffffffff16815260200190815260200160002060009054906101000a900463ffffffff1663ffffffff161415610a475760006107f76114b7565b9050600d60405180608001604052806040518060400160405280600481526020017f74657374000000000000000000000000000000000000000000000000000000008152508152602001600a8461ffff168154811061085957610858611d2d565b5b9060005260206000200154815260200142815260200160098461ffff168154811061088757610886611d2d565b5b90600052602060002090600891828204019190066004029054906101000a900463ffffffff1663ffffffff16815250908060018154018082558091505060019003906000526020600020906004020160009091909190915060008201518160000190805190602001906108fb929190611623565b50602082015181600101556040820151816002015560608201518160030160006101000a81548163ffffffff021916908363ffffffff16021790555050506008600081819054906101000a900463ffffffff1661095790611d5c565b91906101000a81548163ffffffff021916908363ffffffff1602179055600c60003373ffffffffffffffffffffffffffffffffffffffff1673ffffffffffffffffffffffffffffffffffffffff16815260200190815260200160002060006101000a81548163ffffffff021916908363ffffffff1602179055507f68b16d148ac718df46372e610f4807c5a5864bf28e84cab1e960120bc463077560098261ffff1681548110610a0a57610a09611d2d565b5b90600052602060002090600891828204019190066004029054906101000a900463ffffffff16604051610a3d9190611dd5565b60405180910390a1505b565b60008060008373ffffffffffffffffffffffffffffffffffffffff1673ffffffffffffffffffffffffffffffffffffffff168152602001908152602001600020549050919050565b6000600560009054906101000a900473ffffffffffffffffffffffffffffffffffffffff16905090565b600560009054906101000a900473ffffffffffffffffffffffffffffffffffffffff1681565b606060048054610af090611b9e565b80601f0160208091040260200160405190810160405280929190818152602001828054610b1c90611b9e565b8015610b695780601f10610b3e57610100808354040283529160200191610b69565b820191906000526020600020905b815481529060010190602001808311610b4c57829003601f168201915b5050505050905090565b6000610ba2600560009054906101000a900473ffffffffffffffffffffffffffffffffffffffff163334611236565b7f71217b0ac6661ea270eb8b6cbcaee0e9a1959b2d504fdf83b0deedc472456d863334604051610bd3929190611e03565b60405180910390a16001905090565b60008060016000610bf1611063565b73ffffffffffffffffffffffffffffffffffffffff1673ffffffffffffffffffffffffffffffffffffffff16815260200190815260200160002060008573ffffffffffffffffffffffffffffffffffffffff1673ffffffffffffffffffffffffffffffffffffffff16815260200190815260200160002054905082811015610cae576040517f08c379a0000000000000000000000000000000000000000000000000000000008152600401610ca590611e9e565b60405180910390fd5b610cc2610cb9611063565b8585840361106b565b600191505092915050565b610cd56116a9565b6000600c60003373ffffffffffffffffffffffffffffffffffffffff1673ffffffffffffffffffffffffffffffffffffffff16815260200190815260200160002060009054906101000a900463ffffffff1663ffffffff161415610d6e576040517f08c379a0000000000000000000000000000000000000000000000000000000008152600401610d6590611f0a565b60405180910390fd5b600d600c60003373ffffffffffffffffffffffffffffffffffffffff1673ffffffffffffffffffffffffffffffffffffffff16815260200190815260200160002060009054906101000a900463ffffffff1663ffffffff1681548110610dd757610dd6611d2d565b5b9060005260206000209060040201604051806080016040529081600082018054610e0090611b9e565b80601f0160208091040260200160405190810160405280929190818152602001828054610e2c90611b9e565b8015610e795780601f10610e4e57610100808354040283529160200191610e79565b820191906000526020600020905b815481529060010190602001808311610e5c57829003601f168201915b5050505050815260200160018201548152602001600282015481526020016003820160009054906101000a900463ffffffff1663ffffffff1663ffffffff1681525050905090565b6000610ed5610ece611063565b8484611236565b6001905092915050565b60008033905060011515610f15600560009054906101000a900473ffffffffffffffffffffffffffffffffffffffff1685610ec1565b151514610f2157600080fd5b8073ffffffffffffffffffffffffffffffffffffffff166108fc849081150290604051600060405180830381858888f19350505050158015610f67573d6000803e3d6000fd5b507f94d0a8b0f912fb8e07f67cb42b315492f67e990cb9164d9bc3d01d8048999bb78184604051610f99929190611f89565b60405180910390a16001915050919050565b6000600160008473ffffffffffffffffffffffffffffffffffffffff1673ffffffffffffffffffffffffffffffffffffffff16815260200190815260200160002060008373ffffffffffffffffffffffffffffffffffffffff1673ffffffffffffffffffffffffffffffffffffffff16815260200190815260200160002054905092915050565b60008061103d6115c2565b63ffffffff1611905090565b6000600860009054906101000a900463ffffffff16905090565b600033905090565b600073ffffffffffffffffffffffffffffffffffffffff168373ffffffffffffffffffffffffffffffffffffffff1614156110db576040517f08c379a00000000000000000000000000000000000000000000000000000000081526004016110d290612024565b60405180910390fd5b600073ffffffffffffffffffffffffffffffffffffffff168273ffffffffffffffffffffffffffffffffffffffff16141561114b576040517f08c379a0000000000000000000000000000000000000000000000000000000008152600401611142906120b6565b60405180910390fd5b80600160008573ffffffffffffffffffffffffffffffffffffffff1673ffffffffffffffffffffffffffffffffffffffff16815260200190815260200160002060008473ffffffffffffffffffffffffffffffffffffffff1673ffffffffffffffffffffffffffffffffffffffff168152602001908152602001600020819055508173ffffffffffffffffffffffffffffffffffffffff168373ffffffffffffffffffffffffffffffffffffffff167f8c5be1e5ebec7d5bd14f71427d1e84f3dd0314c0f7b2291e5b200ac8c7c3b9258360405161122991906118cd565b60405180910390a3505050565b600073ffffffffffffffffffffffffffffffffffffffff168373ffffffffffffffffffffffffffffffffffffffff1614156112a6576040517f08c379a000000000000000000000000000000000000000000000000000000000815260040161129d90612148565b60405180910390fd5b600073ffffffffffffffffffffffffffffffffffffffff168273ffffffffffffffffffffffffffffffffffffffff161415611316576040517f08c379a000000000000000000000000000000000000000000000000000000000815260040161130d906121da565b60405180910390fd5b611321838383611619565b60008060008573ffffffffffffffffffffffffffffffffffffffff1673ffffffffffffffffffffffffffffffffffffffff168152602001908152602001600020549050818110156113a7576040517f08c379a000000000000000000000000000000000000000000000000000000000815260040161139e9061226c565b60405180910390fd5b8181036000808673ffffffffffffffffffffffffffffffffffffffff1673ffffffffffffffffffffffffffffffffffffffff16815260200190815260200160002081905550816000808573ffffffffffffffffffffffffffffffffffffffff1673ffffffffffffffffffffffffffffffffffffffff168152602001908152602001600020600082825461143a9190611cd7565b925050819055508273ffffffffffffffffffffffffffffffffffffffff168473ffffffffffffffffffffffffffffffffffffffff167fddf252ad1be2c89b69c2b068fc378daa952ba7f163c4a11628f55a4df523b3ef8460405161149e91906118cd565b60405180910390a36114b184848461161e565b50505050565b60006001600542600660008154809291906114d19061228c565b91905055336040516020016114e89392919061233e565b6040516020818303038152906040528051906020012060001c61150b91906123aa565b61151591906123e9565b905090565b6000806115256115c2565b91508261ffff1690506000600d8363ffffffff168154811061154a57611549611d2d565b5b9060005260206000209060040201905060098263ffffffff168154811061157457611573611d2d565b5b90600052602060002090600891828204019190066004029054906101000a900463ffffffff168160030160006101000a81548163ffffffff021916908363ffffffff16021790555050915091565b6000600c60003373ffffffffffffffffffffffffffffffffffffffff1673ffffffffffffffffffffffffffffffffffffffff16815260200190815260200160002060009054906101000a900463ffffffff16905090565b505050565b505050565b82805461162f90611b9e565b90600052602060002090601f0160209004810192826116515760008555611698565b82601f1061166a57805160ff1916838001178555611698565b82800160010185558215611698579182015b8281111561169757825182559160200191906001019061167c565b5b5090506116a591906116d7565b5090565b6040518060800160405280606081526020016000815260200160008152602001600063ffffffff1681525090565b5b808211156116f05760008160009055506001016116d8565b5090565b600081519050919050565b600082825260208201905092915050565b60005b8381101561172e578082015181840152602081019050611713565b8381111561173d576000848401525b50505050565b6000601f19601f8301169050919050565b600061175f826116f4565b61176981856116ff565b9350611779818560208601611710565b61178281611743565b840191505092915050565b600060208201905081810360008301526117a78184611754565b905092915050565b600080fd5b600073ffffffffffffffffffffffffffffffffffffffff82169050919050565b60006117df826117b4565b9050919050565b6117ef816117d4565b81146117fa57600080fd5b50565b60008135905061180c816117e6565b92915050565b6000819050919050565b61182581611812565b811461183057600080fd5b50565b6000813590506118428161181c565b92915050565b6000806040838503121561185f5761185e6117af565b5b600061186d858286016117fd565b925050602061187e85828601611833565b9150509250929050565b60008115159050919050565b61189d81611888565b82525050565b60006020820190506118b86000830184611894565b92915050565b6118c781611812565b82525050565b60006020820190506118e260008301846118be565b92915050565b600080600060608486031215611901576119006117af565b5b600061190f868287016117fd565b9350506020611920868287016117fd565b925050604061193186828701611833565b9150509250925092565b600060ff82169050919050565b6119518161193b565b82525050565b600060208201905061196c6000830184611948565b92915050565b600060208284031215611988576119876117af565b5b6000611996848285016117fd565b91505092915050565b60006119aa826117b4565b9050919050565b6119ba8161199f565b82525050565b60006020820190506119d560008301846119b1565b92915050565b600082825260208201905092915050565b60006119f7826116f4565b611a0181856119db565b9350611a11818560208601611710565b611a1a81611743565b840191505092915050565b611a2e81611812565b82525050565b600063ffffffff82169050919050565b611a4d81611a34565b82525050565b60006080830160008301518482036000860152611a7082826119ec565b9150506020830151611a856020860182611a25565b506040830151611a986040860182611a25565b506060830151611aab6060860182611a44565b508091505092915050565b60006020820190508181036000830152611ad08184611a53565b905092915050565b600060208284031215611aee57611aed6117af565b5b6000611afc84828501611833565b91505092915050565b60008060408385031215611b1c57611b1b6117af565b5b6000611b2a858286016117fd565b9250506020611b3b858286016117fd565b9150509250929050565b611b4e81611a34565b82525050565b6000602082019050611b696000830184611b45565b92915050565b7f4e487b7100000000000000000000000000000000000000000000000000000000600052602260045260246000fd5b60006002820490506001821680611bb657607f821691505b60208210811415611bca57611bc9611b6f565b5b50919050565b7f45524332303a207472616e7366657220616d6f756e742065786365656473206160008201527f6c6c6f77616e6365000000000000000000000000000000000000000000000000602082015250565b6000611c2c6028836116ff565b9150611c3782611bd0565b604082019050919050565b60006020820190508181036000830152611c5b81611c1f565b9050919050565b611c6b816117d4565b82525050565b6000606082019050611c866000830186611c62565b611c936020830185611b45565b611ca06040830184611b45565b949350505050565b7f4e487b7100000000000000000000000000000000000000000000000000000000600052601160045260246000fd5b6000611ce282611812565b9150611ced83611812565b9250827fffffffffffffffffffffffffffffffffffffffffffffffffffffffffffffffff03821115611d2257611d21611ca8565b5b828201905092915050565b7f4e487b7100000000000000000000000000000000000000000000000000000000600052603260045260246000fd5b6000611d6782611a34565b915063ffffffff821415611d7e57611d7d611ca8565b5b600182019050919050565b7f7465737400000000000000000000000000000000000000000000000000000000600082015250565b6000611dbf6004836116ff565b9150611dca82611d89565b602082019050919050565b60006040820190508181036000830152611dee81611db2565b9050611dfd6020830184611b45565b92915050565b6000604082019050611e186000830185611c62565b611e2560208301846118be565b9392505050565b7f45524332303a2064656372656173656420616c6c6f77616e63652062656c6f7760008201527f207a65726f000000000000000000000000000000000000000000000000000000602082015250565b6000611e886025836116ff565b9150611e9382611e2c565b604082019050919050565b60006020820190508181036000830152611eb781611e7b565b9050919050565b7f7265676973746572206669727374000000000000000000000000000000000000600082015250565b6000611ef4600e836116ff565b9150611eff82611ebe565b602082019050919050565b60006020820190508181036000830152611f2381611ee7565b9050919050565b6000819050919050565b6000611f4f611f4a611f45846117b4565b611f2a565b6117b4565b9050919050565b6000611f6182611f34565b9050919050565b6000611f7382611f56565b9050919050565b611f8381611f68565b82525050565b6000604082019050611f9e6000830185611f7a565b611fab60208301846118be565b9392505050565b7f45524332303a20617070726f76652066726f6d20746865207a65726f2061646460008201527f7265737300000000000000000000000000000000000000000000000000000000602082015250565b600061200e6024836116ff565b915061201982611fb2565b604082019050919050565b6000602082019050818103600083015261203d81612001565b9050919050565b7f45524332303a20617070726f766520746f20746865207a65726f20616464726560008201527f7373000000000000000000000000000000000000000000000000000000000000602082015250565b60006120a06022836116ff565b91506120ab82612044565b604082019050919050565b600060208201905081810360008301526120cf81612093565b9050919050565b7f45524332303a207472616e736665722066726f6d20746865207a65726f20616460008201527f6472657373000000000000000000000000000000000000000000000000000000602082015250565b60006121326025836116ff565b915061213d826120d6565b604082019050919050565b6000602082019050818103600083015261216181612125565b9050919050565b7f45524332303a207472616e7366657220746f20746865207a65726f206164647260008201527f6573730000000000000000000000000000000000000000000000000000000000602082015250565b60006121c46023836116ff565b91506121cf82612168565b604082019050919050565b600060208201905081810360008301526121f3816121b7565b9050919050565b7f45524332303a207472616e7366657220616d6f756e742065786365656473206260008201527f616c616e63650000000000000000000000000000000000000000000000000000602082015250565b60006122566026836116ff565b9150612261826121fa565b604082019050919050565b6000602082019050818103600083015261228581612249565b9050919050565b600061229782611812565b91507fffffffffffffffffffffffffffffffffffffffffffffffffffffffffffffffff8214156122ca576122c9611ca8565b5b600182019050919050565b6000819050919050565b6122f06122eb82611812565b6122d5565b82525050565b60008160601b9050919050565b600061230e826122f6565b9050919050565b600061232082612303565b9050919050565b612338612333826117d4565b612315565b82525050565b600061234a82866122df565b60208201915061235a82856122df565b60208201915061236a8284612327565b601482019150819050949350505050565b7f4e487b7100000000000000000000000000000000000000000000000000000000600052601260045260246000fd5b60006123b582611812565b91506123c083611812565b9250826123d0576123cf61237b565b5b828206905092915050565b600061ffff82169050919050565b60006123f4826123db565b91506123ff836123db565b92508261ffff0382111561241657612415611ca8565b5b82820190509291505056fea2646970667358221220712d1e2d1366a837761a91620523d7cbaa584d3f8f1f65f0859e2630809c598e64736f6c634300080b0033",
  "immutableReferences": {},
  "source": "// SPDX-License-Identifier: MIT\r\npragma solidity ^0.8.0;\r\npragma experimental ABIEncoderV2;\r\n\r\nimport \"./MyToken.sol\";\r\n\r\ncontract CatBase is MyToken{\r\n\r\n    event NewCat(string name, uint32 kittyId);\r\n    event FeedCat(address feeder, uint32 beforeId, uint32 afterId);\r\n    \r\n    uint private randNonce = 0;\r\n    uint private coolDownTime = 1 minutes;\r\n    uint32 private catCounts = 0;\r\n    uint32[] private kittyIds = [0, 150593, 232751, 404726, 462704, 493816];\r\n    uint256[] private kittyPrices = [0, 1, 2, 3, 4, 5];\r\n\r\n    struct Cat {\r\n        string name;\r\n        uint256 price;\r\n        uint256 coolDown;\r\n        uint32 kittyId; //cryptokitty id\r\n    }\r\n\r\n    mapping(uint32 => uint16) internal idToIndex;\r\n    mapping(address => uint32) internal ownerToCat; // in-contract id;\r\n    Cat[] internal cats;\r\n\r\n    constructor(string memory name, string memory symbol) MyToken(name, symbol){\r\n\r\n        for(uint16 i=1;i<=5;i++){\r\n            idToIndex[kittyIds[i]] = i;\r\n        }\r\n\r\n        cats.push(Cat(\"ERROR\", 0, block.timestamp, 0));\r\n    }\r\n\r\n    function _makeRandom() internal returns(uint16){\r\n        return uint16(uint(keccak256(abi.encodePacked(block.timestamp, randNonce++, msg.sender))) % 5) + 1;\r\n    }\r\n\r\n    function _getMyCatIdx() internal view returns(uint32) {return ownerToCat[msg.sender];}\r\n\r\n\r\n    function registerCat() public {\r\n\r\n        if(ownerToCat[msg.sender] == 0){\r\n            uint16 random = _makeRandom();\r\n            cats.push(Cat(\"test\", kittyPrices[random], block.timestamp, kittyIds[random]));\r\n            ownerToCat[msg.sender] = ++catCounts;\r\n            emit NewCat(\"test\", kittyIds[random]);\r\n        }\r\n        \r\n    }\r\n\r\n    function getCatCounts() public view returns(uint32) { return catCounts; }\r\n\r\n    function getMyCat() public view returns(Cat memory mycat){\r\n        require(ownerToCat[msg.sender] != 0, \"register first\");\r\n        mycat = cats[ownerToCat[msg.sender]];\r\n    }\r\n\r\n    function hasCat() public view returns(bool){\r\n         return _getMyCatIdx() > 0;\r\n    }\r\n\r\n\r\n    function updateKittyId(uint16 _to) internal returns(uint32 beforeId, uint32 afterId){\r\n        beforeId = _getMyCatIdx();\r\n        afterId = _to;\r\n        Cat storage cat = cats[beforeId];\r\n        cat.kittyId = kittyIds[afterId];\r\n    }\r\n\r\n    function feed() public{\r\n        uint32 beforeId;\r\n        uint32 afterId;\r\n        (beforeId, afterId) = updateKittyId(_makeRandom());\r\n        emit FeedCat(msg.sender, beforeId, afterId);\r\n    }\r\n\r\n    \r\n\r\n}",
  "sourcePath": "C:\\Users\\kyoon\\Desktop\\madcamp\\madcamp-pj3\\contracts\\CatBase.sol",
  "compiler": {
    "name": "solc",
    "version": "0.8.11+commit.d7f03943.Emscripten.clang"
  },
  "schemaVersion": "3.4.4",
  "updatedAt": "2022-01-15T07:40:51.436Z",
  "networkType": "ethereum",
  "devdoc": {
    "kind": "dev",
    "methods": {
      "allowance(address,address)": {
        "details": "See {IERC20-allowance}."
      },
      "approve(address,uint256)": {
        "details": "See {IERC20-approve}. Requirements: - `spender` cannot be the zero address."
      },
      "balanceOf(address)": {
        "details": "See {IERC20-balanceOf}."
      },
      "decimals()": {
        "details": "Returns the number of decimals used to get its user representation. For example, if `decimals` equals `2`, a balance of `505` tokens should be displayed to a user as `5.05` (`505 / 10 ** 2`). Tokens usually opt for a value of 18, imitating the relationship between Ether and Wei. This is the value {ERC20} uses, unless this function is overridden; NOTE: This information is only used for _display_ purposes: it in no way affects any of the arithmetic of the contract, including {IERC20-balanceOf} and {IERC20-transfer}."
      },
      "decreaseAllowance(address,uint256)": {
        "details": "Atomically decreases the allowance granted to `spender` by the caller. This is an alternative to {approve} that can be used as a mitigation for problems described in {IERC20-approve}. Emits an {Approval} event indicating the updated allowance. Requirements: - `spender` cannot be the zero address. - `spender` must have allowance for the caller of at least `subtractedValue`."
      },
      "increaseAllowance(address,uint256)": {
        "details": "Atomically increases the allowance granted to `spender` by the caller. This is an alternative to {approve} that can be used as a mitigation for problems described in {IERC20-approve}. Emits an {Approval} event indicating the updated allowance. Requirements: - `spender` cannot be the zero address."
      },
      "name()": {
        "details": "Returns the name of the token."
      },
      "symbol()": {
        "details": "Returns the symbol of the token, usually a shorter version of the name."
      },
      "totalSupply()": {
        "details": "See {IERC20-totalSupply}."
      },
      "transfer(address,uint256)": {
        "details": "See {IERC20-transfer}. Requirements: - `recipient` cannot be the zero address. - the caller must have a balance of at least `amount`."
      },
      "transferFrom(address,address,uint256)": {
        "details": "See {IERC20-transferFrom}. Emits an {Approval} event indicating the updated allowance. This is not required by the EIP. See the note at the beginning of {ERC20}. Requirements: - `sender` and `recipient` cannot be the zero address. - `sender` must have a balance of at least `amount`. - the caller must have allowance for ``sender``'s tokens of at least `amount`."
      }
    },
    "version": 1
  },
  "userdoc": {
    "kind": "user",
    "methods": {},
    "version": 1
  }
}