{
  "contractName": "CatBase",
  "abi": [
    {
      "inputs": [
        {
          "internalType": "string",
          "name": "name",
          "type": "string"
        },
        {
          "internalType": "string",
          "name": "symbol",
          "type": "string"
        }
      ],
      "stateMutability": "nonpayable",
      "type": "constructor"
    },
    {
      "anonymous": false,
      "inputs": [
        {
          "indexed": true,
          "internalType": "address",
          "name": "owner",
          "type": "address"
        },
        {
          "indexed": true,
          "internalType": "address",
          "name": "spender",
          "type": "address"
        },
        {
          "indexed": false,
          "internalType": "uint256",
          "name": "value",
          "type": "uint256"
        }
      ],
      "name": "Approval",
      "type": "event"
    },
    {
      "anonymous": false,
      "inputs": [
        {
          "indexed": false,
          "internalType": "address",
          "name": "buyer",
          "type": "address"
        },
        {
          "indexed": false,
          "internalType": "uint256",
          "name": "cost",
          "type": "uint256"
        }
      ],
      "name": "BUY_ROD",
      "type": "event"
    },
    {
      "anonymous": false,
      "inputs": [
        {
          "indexed": false,
          "internalType": "uint32",
          "name": "fish",
          "type": "uint32"
        }
      ],
      "name": "DeleteFish",
      "type": "event"
    },
    {
      "anonymous": false,
      "inputs": [
        {
          "indexed": false,
          "internalType": "address",
          "name": "requester",
          "type": "address"
        },
        {
          "indexed": false,
          "internalType": "uint256",
          "name": "value",
          "type": "uint256"
        }
      ],
      "name": "EXCHANGE_ETH_TO_SCC",
      "type": "event"
    },
    {
      "anonymous": false,
      "inputs": [
        {
          "indexed": false,
          "internalType": "address",
          "name": "requester",
          "type": "address"
        },
        {
          "indexed": false,
          "internalType": "uint256",
          "name": "value",
          "type": "uint256"
        }
      ],
      "name": "EXCHANGE_SCC_TO_ETH",
      "type": "event"
    },
    {
      "anonymous": false,
      "inputs": [
        {
          "indexed": false,
          "internalType": "address",
          "name": "feeder",
          "type": "address"
        },
        {
          "indexed": false,
          "internalType": "string",
          "name": "beforeId",
          "type": "string"
        },
        {
          "indexed": false,
          "internalType": "string",
          "name": "afterId",
          "type": "string"
        }
      ],
      "name": "FeedCat",
      "type": "event"
    },
    {
      "anonymous": false,
      "inputs": [
        {
          "indexed": false,
          "internalType": "string",
          "name": "name",
          "type": "string"
        },
        {
          "indexed": false,
          "internalType": "string",
          "name": "kittyId",
          "type": "string"
        }
      ],
      "name": "NewCat",
      "type": "event"
    },
    {
      "anonymous": false,
      "inputs": [
        {
          "indexed": false,
          "internalType": "uint32",
          "name": "fish",
          "type": "uint32"
        }
      ],
      "name": "NewFish",
      "type": "event"
    },
    {
      "anonymous": false,
      "inputs": [
        {
          "indexed": false,
          "internalType": "address",
          "name": "fisher",
          "type": "address"
        }
      ],
      "name": "NewRod",
      "type": "event"
    },
    {
      "anonymous": false,
      "inputs": [
        {
          "indexed": true,
          "internalType": "address",
          "name": "from",
          "type": "address"
        },
        {
          "indexed": true,
          "internalType": "address",
          "name": "to",
          "type": "address"
        },
        {
          "indexed": false,
          "internalType": "uint256",
          "name": "value",
          "type": "uint256"
        }
      ],
      "name": "Transfer",
      "type": "event"
    },
    {
      "inputs": [
        {
          "internalType": "uint256",
          "name": "value",
          "type": "uint256"
        }
      ],
      "name": "SSCtoEth",
      "outputs": [
        {
          "internalType": "bool",
          "name": "",
          "type": "bool"
        }
      ],
      "stateMutability": "payable",
      "type": "function",
      "payable": true
    },
    {
      "inputs": [
        {
          "internalType": "address",
          "name": "owner",
          "type": "address"
        },
        {
          "internalType": "address",
          "name": "spender",
          "type": "address"
        }
      ],
      "name": "allowance",
      "outputs": [
        {
          "internalType": "uint256",
          "name": "",
          "type": "uint256"
        }
      ],
      "stateMutability": "view",
      "type": "function",
      "constant": true
    },
    {
      "inputs": [
        {
          "internalType": "address",
          "name": "spender",
          "type": "address"
        },
        {
          "internalType": "uint256",
          "name": "amount",
          "type": "uint256"
        }
      ],
      "name": "approve",
      "outputs": [
        {
          "internalType": "bool",
          "name": "",
          "type": "bool"
        }
      ],
      "stateMutability": "nonpayable",
      "type": "function"
    },
    {
      "inputs": [
        {
          "internalType": "address",
          "name": "account",
          "type": "address"
        }
      ],
      "name": "balanceOf",
      "outputs": [
        {
          "internalType": "uint256",
          "name": "",
          "type": "uint256"
        }
      ],
      "stateMutability": "view",
      "type": "function",
      "constant": true
    },
    {
      "inputs": [],
      "name": "decimals",
      "outputs": [
        {
          "internalType": "uint8",
          "name": "",
          "type": "uint8"
        }
      ],
      "stateMutability": "view",
      "type": "function",
      "constant": true
    },
    {
      "inputs": [
        {
          "internalType": "address",
          "name": "spender",
          "type": "address"
        },
        {
          "internalType": "uint256",
          "name": "subtractedValue",
          "type": "uint256"
        }
      ],
      "name": "decreaseAllowance",
      "outputs": [
        {
          "internalType": "bool",
          "name": "",
          "type": "bool"
        }
      ],
      "stateMutability": "nonpayable",
      "type": "function"
    },
    {
      "inputs": [],
      "name": "ethToSSC",
      "outputs": [
        {
          "internalType": "bool",
          "name": "",
          "type": "bool"
        }
      ],
      "stateMutability": "payable",
      "type": "function",
      "payable": true
    },
    {
      "inputs": [],
      "name": "getOwner",
      "outputs": [
        {
          "internalType": "address payable",
          "name": "",
          "type": "address"
        }
      ],
      "stateMutability": "view",
      "type": "function",
      "constant": true
    },
    {
      "inputs": [
        {
          "internalType": "address",
          "name": "spender",
          "type": "address"
        },
        {
          "internalType": "uint256",
          "name": "addedValue",
          "type": "uint256"
        }
      ],
      "name": "increaseAllowance",
      "outputs": [
        {
          "internalType": "bool",
          "name": "",
          "type": "bool"
        }
      ],
      "stateMutability": "nonpayable",
      "type": "function"
    },
    {
      "inputs": [],
      "name": "name",
      "outputs": [
        {
          "internalType": "string",
          "name": "",
          "type": "string"
        }
      ],
      "stateMutability": "view",
      "type": "function",
      "constant": true
    },
    {
      "inputs": [],
      "name": "owner",
      "outputs": [
        {
          "internalType": "address payable",
          "name": "",
          "type": "address"
        }
      ],
      "stateMutability": "view",
      "type": "function",
      "constant": true
    },
    {
      "inputs": [],
      "name": "symbol",
      "outputs": [
        {
          "internalType": "string",
          "name": "",
          "type": "string"
        }
      ],
      "stateMutability": "view",
      "type": "function",
      "constant": true
    },
    {
      "inputs": [],
      "name": "totalSupply",
      "outputs": [
        {
          "internalType": "uint256",
          "name": "",
          "type": "uint256"
        }
      ],
      "stateMutability": "view",
      "type": "function",
      "constant": true
    },
    {
      "inputs": [
        {
          "internalType": "address",
          "name": "recipient",
          "type": "address"
        },
        {
          "internalType": "uint256",
          "name": "amount",
          "type": "uint256"
        }
      ],
      "name": "transfer",
      "outputs": [
        {
          "internalType": "bool",
          "name": "",
          "type": "bool"
        }
      ],
      "stateMutability": "nonpayable",
      "type": "function"
    },
    {
      "inputs": [
        {
          "internalType": "address",
          "name": "sender",
          "type": "address"
        },
        {
          "internalType": "address",
          "name": "recipient",
          "type": "address"
        },
        {
          "internalType": "uint256",
          "name": "amount",
          "type": "uint256"
        }
      ],
      "name": "transferFrom",
      "outputs": [
        {
          "internalType": "bool",
          "name": "",
          "type": "bool"
        }
      ],
      "stateMutability": "nonpayable",
      "type": "function"
    },
    {
      "inputs": [
        {
          "internalType": "uint256",
          "name": "value",
          "type": "uint256"
        }
      ],
      "name": "useSSC",
      "outputs": [
        {
          "internalType": "bool",
          "name": "",
          "type": "bool"
        }
      ],
      "stateMutability": "payable",
      "type": "function",
      "payable": true
    },
    {
      "inputs": [
        {
          "internalType": "string",
          "name": "catName",
          "type": "string"
        }
      ],
      "name": "registerCat",
      "outputs": [],
      "stateMutability": "nonpayable",
      "type": "function"
    },
    {
      "inputs": [],
      "name": "getCatCounts",
      "outputs": [
        {
          "internalType": "uint32",
          "name": "",
          "type": "uint32"
        }
      ],
      "stateMutability": "view",
      "type": "function",
      "constant": true
    },
    {
      "inputs": [],
      "name": "getMyCat",
      "outputs": [
        {
          "components": [
            {
              "internalType": "string",
              "name": "name",
              "type": "string"
            },
            {
              "internalType": "uint256",
              "name": "price",
              "type": "uint256"
            },
            {
              "internalType": "uint256",
              "name": "coolDown",
              "type": "uint256"
            },
            {
              "internalType": "string",
              "name": "kittyId",
              "type": "string"
            }
          ],
          "internalType": "struct CatBase.Cat",
          "name": "mycat",
          "type": "tuple"
        }
      ],
      "stateMutability": "view",
      "type": "function",
      "constant": true
    },
    {
      "inputs": [],
      "name": "hasCat",
      "outputs": [
        {
          "internalType": "bool",
          "name": "",
          "type": "bool"
        }
      ],
      "stateMutability": "view",
      "type": "function",
      "constant": true
    },
    {
      "inputs": [],
      "name": "updateKittyId",
      "outputs": [
        {
          "internalType": "string",
          "name": "beforeId",
          "type": "string"
        },
        {
          "internalType": "string",
          "name": "afterId",
          "type": "string"
        }
      ],
      "stateMutability": "nonpayable",
      "type": "function"
    },
    {
      "inputs": [],
      "name": "feed",
      "outputs": [],
      "stateMutability": "nonpayable",
      "type": "function"
    },
    {
      "inputs": [],
      "name": "getRod",
      "outputs": [
        {
          "internalType": "uint32",
          "name": "rod",
          "type": "uint32"
        }
      ],
      "stateMutability": "view",
      "type": "function",
      "constant": true
    },
    {
      "inputs": [
        {
          "internalType": "uint32",
          "name": "probability",
          "type": "uint32"
        },
        {
          "internalType": "uint256",
          "name": "cost",
          "type": "uint256"
        }
      ],
      "name": "newRod",
      "outputs": [
        {
          "internalType": "uint32",
          "name": "rod",
          "type": "uint32"
        }
      ],
      "stateMutability": "nonpayable",
      "type": "function"
    },
    {
      "inputs": [],
      "name": "getFish",
      "outputs": [
        {
          "internalType": "uint32[]",
          "name": "fish",
          "type": "uint32[]"
        }
      ],
      "stateMutability": "view",
      "type": "function",
      "constant": true
    },
    {
      "inputs": [],
      "name": "newFish",
      "outputs": [
        {
          "internalType": "uint32",
          "name": "",
          "type": "uint32"
        }
      ],
      "stateMutability": "nonpayable",
      "type": "function"
    },
    {
      "inputs": [
        {
          "internalType": "uint32",
          "name": "index",
          "type": "uint32"
        }
      ],
      "name": "deleteFish",
      "outputs": [
        {
          "internalType": "bool",
          "name": "success",
          "type": "bool"
        }
      ],
      "stateMutability": "nonpayable",
      "type": "function"
    }
  ],
  "bytecode": "0x60806040526000600655603c6007556000600860006101000a81548163ffffffff021916908363ffffffff1602179055506040518061020001604052806040518060400160405280600181526020017f300000000000000000000000000000000000000000000000000000000000000081525081526020016040518060400160405280600a81526020017f3135303539332e7376670000000000000000000000000000000000000000000081525081526020016040518060400160405280600a81526020017f3233323735312e7376670000000000000000000000000000000000000000000081525081526020016040518060400160405280600a81526020017f3430343732362e7376670000000000000000000000000000000000000000000081525081526020016040518060400160405280600a81526020017f3436323730342e7376670000000000000000000000000000000000000000000081525081526020016040518060400160405280600a81526020017f3439333831362e7376670000000000000000000000000000000000000000000081525081526020016040518060400160405280600a81526020017f3136363437312e7376670000000000000000000000000000000000000000000081525081526020016040518060400160405280600a81526020017f3134353638362e7376670000000000000000000000000000000000000000000081525081526020016040518060400160405280600a81526020017f3133373835332e7376670000000000000000000000000000000000000000000081525081526020016040518060400160405280600a81526020017f3131373432392e7376670000000000000000000000000000000000000000000081525081526020016040518060400160405280600981526020017f39363139372e737667000000000000000000000000000000000000000000000081525081526020016040518060400160405280600b81526020017f313939343132312e706e6700000000000000000000000000000000000000000081525081526020016040518060400160405280600b81526020017f313939333630392e706e6700000000000000000000000000000000000000000081525081526020016040518060400160405280600b81526020017f323031303535312e706e6700000000000000000000000000000000000000000081525081526020016040518060400160405280600b81526020017f323030343539322e706e6700000000000000000000000000000000000000000081525081526020016040518060400160405280600b81526020017f323031303530312e706e670000000000000000000000000000000000000000008152508152506009906010620003fc929190620008f9565b50604051806102000160405280600060ff168152602001600160ff168152602001600260ff168152602001600360ff168152602001600460ff168152602001600560ff168152602001600660ff168152602001600760ff168152602001600860ff168152602001600960ff168152602001600a60ff168152602001600b60ff168152602001600c60ff168152602001600d60ff168152602001600e60ff168152602001600f60ff16815250600a906010620004b992919062000960565b506000600e55348015620004cc57600080fd5b5060405162004955380380620049558339818101604052810190620004f2919062000c72565b8181818181600390805190602001906200050e929190620009b7565b50806004908051906020019062000527929190620009b7565b50505033600560006101000a81548173ffffffffffffffffffffffffffffffffffffffff021916908373ffffffffffffffffffffffffffffffffffffffff160217905550620005ce600560009054906101000a900473ffffffffffffffffffffffffffffffffffffffff16620005a26200076d60201b60201c565b60ff16600a620005b3919062000e84565b6103e8620005c2919062000ed5565b6200077660201b60201c565b50506000600190505b600f8161ffff1611620006595780600b60098361ffff168154811062000602576200060162000f36565b5b906000526020600020016040516200061b919062001075565b908152602001604051809103902060006101000a81548161ffff021916908361ffff160217905550808062000650906200109c565b915050620005d7565b50600d60405180608001604052806040518060400160405280600581526020017f4552524f520000000000000000000000000000000000000000000000000000008152508152602001600081526020014281526020016040518060400160405280600181526020017f3000000000000000000000000000000000000000000000000000000000000000815250815250908060018154018082558091505060019003906000526020600020906004020160009091909190915060008201518160000190805190602001906200072f929190620009b7565b506020820151816001015560408201518160020155606082015181600301908051906020019062000762929190620009b7565b5050505050620011da565b60006012905090565b600073ffffffffffffffffffffffffffffffffffffffff168273ffffffffffffffffffffffffffffffffffffffff161415620007e9576040517f08c379a0000000000000000000000000000000000000000000000000000000008152600401620007e0906200112d565b60405180910390fd5b620007fd60008383620008ef60201b60201c565b80600260008282546200081191906200114f565b92505081905550806000808473ffffffffffffffffffffffffffffffffffffffff1673ffffffffffffffffffffffffffffffffffffffff16815260200190815260200160002060008282546200086891906200114f565b925050819055508173ffffffffffffffffffffffffffffffffffffffff16600073ffffffffffffffffffffffffffffffffffffffff167fddf252ad1be2c89b69c2b068fc378daa952ba7f163c4a11628f55a4df523b3ef83604051620008cf9190620011bd565b60405180910390a3620008eb60008383620008f460201b60201c565b5050565b505050565b505050565b8280548282559060005260206000209081019282156200094d579160200282015b828111156200094c5782518290805190602001906200093b929190620009b7565b50916020019190600101906200091a565b5b5090506200095c919062000a48565b5090565b828054828255906000526020600020908101928215620009a4579160200282015b82811115620009a3578251829060ff1690559160200191906001019062000981565b5b509050620009b3919062000a70565b5090565b828054620009c59062000f94565b90600052602060002090601f016020900481019282620009e9576000855562000a35565b82601f1062000a0457805160ff191683800117855562000a35565b8280016001018555821562000a35579182015b8281111562000a3457825182559160200191906001019062000a17565b5b50905062000a44919062000a70565b5090565b5b8082111562000a6c576000818162000a62919062000a8f565b5060010162000a49565b5090565b5b8082111562000a8b57600081600090555060010162000a71565b5090565b50805462000a9d9062000f94565b6000825580601f1062000ab1575062000ad2565b601f01602090049060005260206000209081019062000ad1919062000a70565b5b50565b6000604051905090565b600080fd5b600080fd5b600080fd5b600080fd5b6000601f19601f8301169050919050565b7f4e487b7100000000000000000000000000000000000000000000000000000000600052604160045260246000fd5b62000b3e8262000af3565b810181811067ffffffffffffffff8211171562000b605762000b5f62000b04565b5b80604052505050565b600062000b7562000ad5565b905062000b83828262000b33565b919050565b600067ffffffffffffffff82111562000ba65762000ba562000b04565b5b62000bb18262000af3565b9050602081019050919050565b60005b8381101562000bde57808201518184015260208101905062000bc1565b8381111562000bee576000848401525b50505050565b600062000c0b62000c058462000b88565b62000b69565b90508281526020810184848401111562000c2a5762000c2962000aee565b5b62000c3784828562000bbe565b509392505050565b600082601f83011262000c575762000c5662000ae9565b5b815162000c6984826020860162000bf4565b91505092915050565b6000806040838503121562000c8c5762000c8b62000adf565b5b600083015167ffffffffffffffff81111562000cad5762000cac62000ae4565b5b62000cbb8582860162000c3f565b925050602083015167ffffffffffffffff81111562000cdf5762000cde62000ae4565b5b62000ced8582860162000c3f565b9150509250929050565b7f4e487b7100000000000000000000000000000000000000000000000000000000600052601160045260246000fd5b60008160011c9050919050565b6000808291508390505b600185111562000d855780860481111562000d5d5762000d5c62000cf7565b5b600185161562000d6d5780820291505b808102905062000d7d8562000d26565b945062000d3d565b94509492505050565b60008262000da0576001905062000e73565b8162000db0576000905062000e73565b816001811462000dc9576002811462000dd45762000e0a565b600191505062000e73565b60ff84111562000de95762000de862000cf7565b5b8360020a91508482111562000e035762000e0262000cf7565b5b5062000e73565b5060208310610133831016604e8410600b841016171562000e445782820a90508381111562000e3e5762000e3d62000cf7565b5b62000e73565b62000e53848484600162000d33565b9250905081840481111562000e6d5762000e6c62000cf7565b5b81810290505b9392505050565b6000819050919050565b600062000e918262000e7a565b915062000e9e8362000e7a565b925062000ecd7fffffffffffffffffffffffffffffffffffffffffffffffffffffffffffffffff848462000d8e565b905092915050565b600062000ee28262000e7a565b915062000eef8362000e7a565b9250817fffffffffffffffffffffffffffffffffffffffffffffffffffffffffffffffff048311821515161562000f2b5762000f2a62000cf7565b5b828202905092915050565b7f4e487b7100000000000000000000000000000000000000000000000000000000600052603260045260246000fd5b7f4e487b7100000000000000000000000000000000000000000000000000000000600052602260045260246000fd5b6000600282049050600182168062000fad57607f821691505b6020821081141562000fc45762000fc362000f65565b5b50919050565b600081905092915050565b60008190508160005260206000209050919050565b6000815462000ff98162000f94565b62001005818662000fca565b9450600182166000811462001023576001811462001035576200106c565b60ff198316865281860193506200106c565b620010408562000fd5565b60005b83811015620010645781548189015260018201915060208101905062001043565b838801955050505b50505092915050565b600062001083828462000fea565b915081905092915050565b600061ffff82169050919050565b6000620010a9826200108e565b915061ffff821415620010c157620010c062000cf7565b5b600182019050919050565b600082825260208201905092915050565b7f45524332303a206d696e7420746f20746865207a65726f206164647265737300600082015250565b600062001115601f83620010cc565b91506200112282620010dd565b602082019050919050565b60006020820190508181036000830152620011488162001106565b9050919050565b60006200115c8262000e7a565b9150620011698362000e7a565b9250827fffffffffffffffffffffffffffffffffffffffffffffffffffffffffffffffff03821115620011a157620011a062000cf7565b5b828201905092915050565b620011b78162000e7a565b82525050565b6000602082019050620011d46000830184620011ac565b92915050565b61376b80620011ea6000396000f3fe60806040526004361061019c5760003560e01c806370a08231116100ec578063a9059cbb1161008a578063dd62ed3e11610064578063dd62ed3e146105f6578063f9351a6214610633578063fe2ca31a1461065e578063fee7ae6c146106895761019c565b8063a9059cbb1461054c578063c696280f14610589578063cf1ecc12146105c65761019c565b806395d89b41116100c657806395d89b411461049b5780639f800a5f146104c6578063a457c2d7146104e4578063a87e8aad146105215761019c565b806370a0823114610408578063893d20e8146104455780638da5cb5b146104705761019c565b8063395093511161015957806349f062af1161013357806349f062af146103565780634fa00b3e146103865780636bed2588146103b25780636efe947e146103dd5761019c565b806339509351146102b35780633f7af592146102f057806347e7f86e146103195761019c565b806306fdde03146101a1578063095ea7b3146101cc57806318160ddd1461020957806323b872dd14610234578063313ce5671461027157806337a7b7d81461029c575b600080fd5b3480156101ad57600080fd5b506101b66106b4565b6040516101c39190612569565b60405180910390f35b3480156101d857600080fd5b506101f360048036038101906101ee9190612633565b610746565b604051610200919061268e565b60405180910390f35b34801561021557600080fd5b5061021e610764565b60405161022b91906126b8565b60405180910390f35b34801561024057600080fd5b5061025b600480360381019061025691906126d3565b61076e565b604051610268919061268e565b60405180910390f35b34801561027d57600080fd5b50610286610866565b6040516102939190612742565b60405180910390f35b3480156102a857600080fd5b506102b161086f565b005b3480156102bf57600080fd5b506102da60048036038101906102d59190612633565b6108c1565b6040516102e7919061268e565b60405180910390f35b3480156102fc57600080fd5b5061031760048036038101906103129190612892565b61096d565b005b34801561032557600080fd5b50610340600480360381019061033b9190612917565b610c37565b60405161034d9190612966565b60405180910390f35b610370600480360381019061036b9190612981565b610dec565b60405161037d919061268e565b60405180910390f35b34801561039257600080fd5b5061039b610e33565b6040516103a99291906129ae565b60405180910390f35b3480156103be57600080fd5b506103c7611014565b6040516103d49190612966565b60405180910390f35b3480156103e957600080fd5b506103f261106b565b6040516103ff9190612966565b60405180910390f35b34801561041457600080fd5b5061042f600480360381019061042a91906129e5565b6112a8565b60405161043c91906126b8565b60405180910390f35b34801561045157600080fd5b5061045a6112f0565b6040516104679190612a33565b60405180910390f35b34801561047c57600080fd5b5061048561131a565b6040516104929190612a33565b60405180910390f35b3480156104a757600080fd5b506104b0611340565b6040516104bd9190612569565b60405180910390f35b6104ce6113d2565b6040516104db919061268e565b60405180910390f35b3480156104f057600080fd5b5061050b60048036038101906105069190612633565b611441565b604051610518919061268e565b60405180910390f35b34801561052d57600080fd5b5061053661152c565b6040516105439190612b11565b60405180910390f35b34801561055857600080fd5b50610573600480360381019061056e9190612633565b61178c565b604051610580919061268e565b60405180910390f35b34801561059557600080fd5b506105b060048036038101906105ab9190612b33565b6117aa565b6040516105bd919061268e565b60405180910390f35b6105e060048036038101906105db9190612981565b6118ff565b6040516105ed919061268e565b60405180910390f35b34801561060257600080fd5b5061061d60048036038101906106189190612b60565b6119cb565b60405161062a91906126b8565b60405180910390f35b34801561063f57600080fd5b50610648611a52565b604051610655919061268e565b60405180910390f35b34801561066a57600080fd5b50610673611a69565b6040516106809190612966565b60405180910390f35b34801561069557600080fd5b5061069e611a83565b6040516106ab9190612c5e565b60405180910390f35b6060600380546106c390612caf565b80601f01602080910402602001604051908101604052809291908181526020018280546106ef90612caf565b801561073c5780601f106107115761010080835404028352916020019161073c565b820191906000526020600020905b81548152906001019060200180831161071f57829003601f168201915b5050505050905090565b600061075a610753611b44565b8484611b4c565b6001905092915050565b6000600254905090565b600061077b848484611d17565b6000600160008673ffffffffffffffffffffffffffffffffffffffff1673ffffffffffffffffffffffffffffffffffffffff16815260200190815260200160002060006107c6611b44565b73ffffffffffffffffffffffffffffffffffffffff1673ffffffffffffffffffffffffffffffffffffffff16815260200190815260200160002054905082811015610846576040517f08c379a000000000000000000000000000000000000000000000000000000000815260040161083d90612d53565b60405180910390fd5b61085a85610852611b44565b858403611b4c565b60019150509392505050565b60006012905090565b60608061087a610e33565b80925081935050507ff008945aea4d8839b3b3925aab2cd4074e11704a44b721a6e0606bda7c7abfec3383836040516108b593929190612d82565b60405180910390a15050565b60006109636108ce611b44565b8484600160006108dc611b44565b73ffffffffffffffffffffffffffffffffffffffff1673ffffffffffffffffffffffffffffffffffffffff16815260200190815260200160002060008873ffffffffffffffffffffffffffffffffffffffff1673ffffffffffffffffffffffffffffffffffffffff1681526020019081526020016000205461095e9190612df6565b611b4c565b6001905092915050565b6000600c60003373ffffffffffffffffffffffffffffffffffffffff1673ffffffffffffffffffffffffffffffffffffffff16815260200190815260200160002060009054906101000a900463ffffffff1663ffffffff16146109cf57600080fd5b60006109d9611f98565b9050600d6040518060800160405280848152602001600a8461ffff1681548110610a0657610a05612e4c565b5b9060005260206000200154815260200142815260200160098461ffff1681548110610a3457610a33612e4c565b5b906000526020600020018054610a4990612caf565b80601f0160208091040260200160405190810160405280929190818152602001828054610a7590612caf565b8015610ac25780601f10610a9757610100808354040283529160200191610ac2565b820191906000526020600020905b815481529060010190602001808311610aa557829003601f168201915b505050505081525090806001815401808255809150506001900390600052602060002090600402016000909190919091506000820151816000019080519060200190610b0f9291906122cb565b5060208201518160010155604082015181600201556060820151816003019080519060200190610b409291906122cb565b5050506008600081819054906101000a900463ffffffff16610b6190612e7b565b91906101000a81548163ffffffff021916908363ffffffff1602179055600c60003373ffffffffffffffffffffffffffffffffffffffff1673ffffffffffffffffffffffffffffffffffffffff16815260200190815260200160002060006101000a81548163ffffffff021916908363ffffffff1602179055507f63b59d5161bc58dd505463db003904efeb26d8cd54933cd5407980c0c7fe014460098261ffff1681548110610c1457610c13612e4c565b5b90600052602060002001604051610c2b9190612f89565b60405180910390a15050565b600060011515610c4683610dec565b151514610c5257600080fd5b6000600f60003373ffffffffffffffffffffffffffffffffffffffff1673ffffffffffffffffffffffffffffffffffffffff16815260200190815260200160002060009054906101000a900463ffffffff1663ffffffff161415610cbd57610cb8611ffb565b610dad565b7f67cb59078af551a61734a5ff2c80f77546caa28f5357c920d420eb3dac631c4f33604051610cec9190612fbe565b60405180910390a1610cfd8361209b565b600f60003373ffffffffffffffffffffffffffffffffffffffff1673ffffffffffffffffffffffffffffffffffffffff16815260200190815260200160002060006101000a81548163ffffffff021916908363ffffffff160217905550600f60003373ffffffffffffffffffffffffffffffffffffffff1673ffffffffffffffffffffffffffffffffffffffff16815260200190815260200160002060009054906101000a900463ffffffff1690505b7f8d0f0378a9bbbcbac4ac59df3049d805d00355aaedd51035e7f1f59cc49a46bf3383604051610dde929190612fd9565b60405180910390a192915050565b600060011515610e1e600560009054906101000a900473ffffffffffffffffffffffffffffffffffffffff168461178c565b151514610e2a57600080fd5b60019050919050565b6060806000600d610e4261226a565b63ffffffff1681548110610e5957610e58612e4c565b5b90600052602060002090600402019050806003018054610e7890612caf565b80601f0160208091040260200160405190810160405280929190818152602001828054610ea490612caf565b8015610ef15780601f10610ec657610100808354040283529160200191610ef1565b820191906000526020600020905b815481529060010190602001808311610ed457829003601f168201915b5050505050925060006001600f600b86604051610f0e919061303e565b908152602001604051809103902060009054906101000a900461ffff16610f359190613092565b610f3f91906130c3565b905060098161ffff1681548110610f5957610f58612e4c565b5b9060005260206000200182600301908054610f7390612caf565b610f7e929190612351565b50816003018054610f8e90612caf565b80601f0160208091040260200160405190810160405280929190818152602001828054610fba90612caf565b80156110075780601f10610fdc57610100808354040283529160200191611007565b820191906000526020600020905b815481529060010190602001808311610fea57829003601f168201915b5050505050925050509091565b6000600f60003373ffffffffffffffffffffffffffffffffffffffff1673ffffffffffffffffffffffffffffffffffffffff16815260200190815260200160002060009054906101000a900463ffffffff16905090565b600080601060003373ffffffffffffffffffffffffffffffffffffffff1673ffffffffffffffffffffffffffffffffffffffff16815260200190815260200160002080549050141561114b576040518060c00160405280600060ff168152602001600060ff168152602001600060ff168152602001600060ff168152602001600060ff168152602001600060ff16815250601060003373ffffffffffffffffffffffffffffffffffffffff1673ffffffffffffffffffffffffffffffffffffffff1681526020019081526020016000209060066111499291906123de565b505b6000611155611f98565b90506001601060003373ffffffffffffffffffffffffffffffffffffffff1673ffffffffffffffffffffffffffffffffffffffff1681526020019081526020016000208261ffff16815481106111ae576111ad612e4c565b5b90600052602060002090600891828204019190066004029054906101000a900463ffffffff166111de91906130fb565b601060003373ffffffffffffffffffffffffffffffffffffffff1673ffffffffffffffffffffffffffffffffffffffff1681526020019081526020016000208261ffff168154811061123357611232612e4c565b5b90600052602060002090600891828204019190066004026101000a81548163ffffffff021916908363ffffffff1602179055507f266bfd31304d2f50cc9c806da0368b27568ec8bcff8c15b3be133980d86c66bc816040516112959190613170565b60405180910390a18061ffff1691505090565b60008060008373ffffffffffffffffffffffffffffffffffffffff1673ffffffffffffffffffffffffffffffffffffffff168152602001908152602001600020549050919050565b6000600560009054906101000a900473ffffffffffffffffffffffffffffffffffffffff16905090565b600560009054906101000a900473ffffffffffffffffffffffffffffffffffffffff1681565b60606004805461134f90612caf565b80601f016020809104026020016040519081016040528092919081815260200182805461137b90612caf565b80156113c85780601f1061139d576101008083540402835291602001916113c8565b820191906000526020600020905b8154815290600101906020018083116113ab57829003601f168201915b5050505050905090565b6000611401600560009054906101000a900473ffffffffffffffffffffffffffffffffffffffff163334611d17565b7f71217b0ac6661ea270eb8b6cbcaee0e9a1959b2d504fdf83b0deedc472456d863334604051611432929190612fd9565b60405180910390a16001905090565b60008060016000611450611b44565b73ffffffffffffffffffffffffffffffffffffffff1673ffffffffffffffffffffffffffffffffffffffff16815260200190815260200160002060008573ffffffffffffffffffffffffffffffffffffffff1673ffffffffffffffffffffffffffffffffffffffff1681526020019081526020016000205490508281101561150d576040517f08c379a0000000000000000000000000000000000000000000000000000000008152600401611504906131fd565b60405180910390fd5b611521611518611b44565b85858403611b4c565b600191505092915050565b61153461248b565b6000600c60003373ffffffffffffffffffffffffffffffffffffffff1673ffffffffffffffffffffffffffffffffffffffff16815260200190815260200160002060009054906101000a900463ffffffff1663ffffffff1614156115cd576040517f08c379a00000000000000000000000000000000000000000000000000000000081526004016115c490613269565b60405180910390fd5b600d600c60003373ffffffffffffffffffffffffffffffffffffffff1673ffffffffffffffffffffffffffffffffffffffff16815260200190815260200160002060009054906101000a900463ffffffff1663ffffffff168154811061163657611635612e4c565b5b906000526020600020906004020160405180608001604052908160008201805461165f90612caf565b80601f016020809104026020016040519081016040528092919081815260200182805461168b90612caf565b80156116d85780601f106116ad576101008083540402835291602001916116d8565b820191906000526020600020905b8154815290600101906020018083116116bb57829003601f168201915b50505050508152602001600182015481526020016002820154815260200160038201805461170590612caf565b80601f016020809104026020016040519081016040528092919081815260200182805461173190612caf565b801561177e5780601f106117535761010080835404028352916020019161177e565b820191906000526020600020905b81548152906001019060200180831161176157829003601f168201915b505050505081525050905090565b60006117a0611799611b44565b8484611d17565b6001905092915050565b60006001601060003373ffffffffffffffffffffffffffffffffffffffff1673ffffffffffffffffffffffffffffffffffffffff1681526020019081526020016000208363ffffffff168154811061180557611804612e4c565b5b90600052602060002090600891828204019190066004029054906101000a900463ffffffff166118359190613289565b601060003373ffffffffffffffffffffffffffffffffffffffff1673ffffffffffffffffffffffffffffffffffffffff1681526020019081526020016000208363ffffffff168154811061188c5761188b612e4c565b5b90600052602060002090600891828204019190066004026101000a81548163ffffffff021916908363ffffffff1602179055507f8eb7decf255003bd6a642be41fcea2b43d699bc543688768880b7847e3d5c680826040516118ee9190612966565b60405180910390a160019050919050565b60008033905060011515611935600560009054906101000a900473ffffffffffffffffffffffffffffffffffffffff168561178c565b15151461194157600080fd5b8073ffffffffffffffffffffffffffffffffffffffff166108fc849081150290604051600060405180830381858888f19350505050158015611987573d6000803e3d6000fd5b507f94d0a8b0f912fb8e07f67cb42b315492f67e990cb9164d9bc3d01d8048999bb781846040516119b9929190613312565b60405180910390a16001915050919050565b6000600160008473ffffffffffffffffffffffffffffffffffffffff1673ffffffffffffffffffffffffffffffffffffffff16815260200190815260200160002060008373ffffffffffffffffffffffffffffffffffffffff1673ffffffffffffffffffffffffffffffffffffffff16815260200190815260200160002054905092915050565b600080611a5d61226a565b63ffffffff1611905090565b6000600860009054906101000a900463ffffffff16905090565b6060601060003373ffffffffffffffffffffffffffffffffffffffff1673ffffffffffffffffffffffffffffffffffffffff168152602001908152602001600020805480602002602001604051908101604052809291908181526020018280548015611b3a57602002820191906000526020600020906000905b82829054906101000a900463ffffffff1663ffffffff1681526020019060040190602082600301049283019260010382029150808411611afd5790505b5050505050905090565b600033905090565b600073ffffffffffffffffffffffffffffffffffffffff168373ffffffffffffffffffffffffffffffffffffffff161415611bbc576040517f08c379a0000000000000000000000000000000000000000000000000000000008152600401611bb3906133ad565b60405180910390fd5b600073ffffffffffffffffffffffffffffffffffffffff168273ffffffffffffffffffffffffffffffffffffffff161415611c2c576040517f08c379a0000000000000000000000000000000000000000000000000000000008152600401611c239061343f565b60405180910390fd5b80600160008573ffffffffffffffffffffffffffffffffffffffff1673ffffffffffffffffffffffffffffffffffffffff16815260200190815260200160002060008473ffffffffffffffffffffffffffffffffffffffff1673ffffffffffffffffffffffffffffffffffffffff168152602001908152602001600020819055508173ffffffffffffffffffffffffffffffffffffffff168373ffffffffffffffffffffffffffffffffffffffff167f8c5be1e5ebec7d5bd14f71427d1e84f3dd0314c0f7b2291e5b200ac8c7c3b92583604051611d0a91906126b8565b60405180910390a3505050565b600073ffffffffffffffffffffffffffffffffffffffff168373ffffffffffffffffffffffffffffffffffffffff161415611d87576040517f08c379a0000000000000000000000000000000000000000000000000000000008152600401611d7e906134d1565b60405180910390fd5b600073ffffffffffffffffffffffffffffffffffffffff168273ffffffffffffffffffffffffffffffffffffffff161415611df7576040517f08c379a0000000000000000000000000000000000000000000000000000000008152600401611dee90613563565b60405180910390fd5b611e028383836122c1565b60008060008573ffffffffffffffffffffffffffffffffffffffff1673ffffffffffffffffffffffffffffffffffffffff16815260200190815260200160002054905081811015611e88576040517f08c379a0000000000000000000000000000000000000000000000000000000008152600401611e7f906135f5565b60405180910390fd5b8181036000808673ffffffffffffffffffffffffffffffffffffffff1673ffffffffffffffffffffffffffffffffffffffff16815260200190815260200160002081905550816000808573ffffffffffffffffffffffffffffffffffffffff1673ffffffffffffffffffffffffffffffffffffffff1681526020019081526020016000206000828254611f1b9190612df6565b925050819055508273ffffffffffffffffffffffffffffffffffffffff168473ffffffffffffffffffffffffffffffffffffffff167fddf252ad1be2c89b69c2b068fc378daa952ba7f163c4a11628f55a4df523b3ef84604051611f7f91906126b8565b60405180910390a3611f928484846122c6565b50505050565b6000600160054260066000815480929190611fb290613615565b9190505533604051602001611fc9939291906136c7565b6040516020818303038152906040528051906020012060001c611fec9190613704565b611ff691906130c3565b905090565b612005600061209b565b600f60003373ffffffffffffffffffffffffffffffffffffffff1673ffffffffffffffffffffffffffffffffffffffff16815260200190815260200160002060006101000a81548163ffffffff021916908363ffffffff1602179055507f67cb59078af551a61734a5ff2c80f77546caa28f5357c920d420eb3dac631c4f336040516120919190612fbe565b60405180910390a1565b6000808263ffffffff16141561210e576001600342600e60008154809291906120c390613615565b91905055336040516020016120da939291906136c7565b6040516020818303038152906040528051906020012060001c6120fd9190613704565b61210791906130fb565b9050612265565b60018263ffffffff161415612180576001600542600e600081548092919061213590613615565b919050553360405160200161214c939291906136c7565b6040516020818303038152906040528051906020012060001c61216f9190613704565b61217991906130fb565b9050612265565b60028263ffffffff1614156121f2576001600742600e60008154809291906121a790613615565b91905055336040516020016121be939291906136c7565b6040516020818303038152906040528051906020012060001c6121e19190613704565b6121eb91906130fb565b9050612265565b60038263ffffffff161415612264576003600542600e600081548092919061221990613615565b9190505533604051602001612230939291906136c7565b6040516020818303038152906040528051906020012060001c6122539190613704565b61225d91906130fb565b9050612265565b5b919050565b6000600c60003373ffffffffffffffffffffffffffffffffffffffff1673ffffffffffffffffffffffffffffffffffffffff16815260200190815260200160002060009054906101000a900463ffffffff16905090565b505050565b505050565b8280546122d790612caf565b90600052602060002090601f0160209004810192826122f95760008555612340565b82601f1061231257805160ff1916838001178555612340565b82800160010185558215612340579182015b8281111561233f578251825591602001919060010190612324565b5b50905061234d91906124b3565b5090565b82805461235d90612caf565b90600052602060002090601f01602090048101928261237f57600085556123cd565b82601f1061239057805485556123cd565b828001600101855582156123cd57600052602060002091601f016020900482015b828111156123cc5782548255916001019190600101906123b1565b5b5090506123da91906124b3565b5090565b8280548282559060005260206000209060070160089004810192821561247a5791602002820160005b8382111561244857835183826101000a81548163ffffffff021916908360ff1602179055509260200192600401602081600301049283019260010302612407565b80156124785782816101000a81549063ffffffff0219169055600401602081600301049283019260010302612448565b505b50905061248791906124b3565b5090565b6040518060800160405280606081526020016000815260200160008152602001606081525090565b5b808211156124cc5760008160009055506001016124b4565b5090565b600081519050919050565b600082825260208201905092915050565b60005b8381101561250a5780820151818401526020810190506124ef565b83811115612519576000848401525b50505050565b6000601f19601f8301169050919050565b600061253b826124d0565b61254581856124db565b93506125558185602086016124ec565b61255e8161251f565b840191505092915050565b600060208201905081810360008301526125838184612530565b905092915050565b6000604051905090565b600080fd5b600080fd5b600073ffffffffffffffffffffffffffffffffffffffff82169050919050565b60006125ca8261259f565b9050919050565b6125da816125bf565b81146125e557600080fd5b50565b6000813590506125f7816125d1565b92915050565b6000819050919050565b612610816125fd565b811461261b57600080fd5b50565b60008135905061262d81612607565b92915050565b6000806040838503121561264a57612649612595565b5b6000612658858286016125e8565b92505060206126698582860161261e565b9150509250929050565b60008115159050919050565b61268881612673565b82525050565b60006020820190506126a3600083018461267f565b92915050565b6126b2816125fd565b82525050565b60006020820190506126cd60008301846126a9565b92915050565b6000806000606084860312156126ec576126eb612595565b5b60006126fa868287016125e8565b935050602061270b868287016125e8565b925050604061271c8682870161261e565b9150509250925092565b600060ff82169050919050565b61273c81612726565b82525050565b60006020820190506127576000830184612733565b92915050565b600080fd5b600080fd5b7f4e487b7100000000000000000000000000000000000000000000000000000000600052604160045260246000fd5b61279f8261251f565b810181811067ffffffffffffffff821117156127be576127bd612767565b5b80604052505050565b60006127d161258b565b90506127dd8282612796565b919050565b600067ffffffffffffffff8211156127fd576127fc612767565b5b6128068261251f565b9050602081019050919050565b82818337600083830152505050565b6000612835612830846127e2565b6127c7565b90508281526020810184848401111561285157612850612762565b5b61285c848285612813565b509392505050565b600082601f8301126128795761287861275d565b5b8135612889848260208601612822565b91505092915050565b6000602082840312156128a8576128a7612595565b5b600082013567ffffffffffffffff8111156128c6576128c561259a565b5b6128d284828501612864565b91505092915050565b600063ffffffff82169050919050565b6128f4816128db565b81146128ff57600080fd5b50565b600081359050612911816128eb565b92915050565b6000806040838503121561292e5761292d612595565b5b600061293c85828601612902565b925050602061294d8582860161261e565b9150509250929050565b612960816128db565b82525050565b600060208201905061297b6000830184612957565b92915050565b60006020828403121561299757612996612595565b5b60006129a58482850161261e565b91505092915050565b600060408201905081810360008301526129c88185612530565b905081810360208301526129dc8184612530565b90509392505050565b6000602082840312156129fb576129fa612595565b5b6000612a09848285016125e8565b91505092915050565b6000612a1d8261259f565b9050919050565b612a2d81612a12565b82525050565b6000602082019050612a486000830184612a24565b92915050565b600082825260208201905092915050565b6000612a6a826124d0565b612a748185612a4e565b9350612a848185602086016124ec565b612a8d8161251f565b840191505092915050565b612aa1816125fd565b82525050565b60006080830160008301518482036000860152612ac48282612a5f565b9150506020830151612ad96020860182612a98565b506040830151612aec6040860182612a98565b5060608301518482036060860152612b048282612a5f565b9150508091505092915050565b60006020820190508181036000830152612b2b8184612aa7565b905092915050565b600060208284031215612b4957612b48612595565b5b6000612b5784828501612902565b91505092915050565b60008060408385031215612b7757612b76612595565b5b6000612b85858286016125e8565b9250506020612b96858286016125e8565b9150509250929050565b600081519050919050565b600082825260208201905092915050565b6000819050602082019050919050565b612bd5816128db565b82525050565b6000612be78383612bcc565b60208301905092915050565b6000602082019050919050565b6000612c0b82612ba0565b612c158185612bab565b9350612c2083612bbc565b8060005b83811015612c51578151612c388882612bdb565b9750612c4383612bf3565b925050600181019050612c24565b5085935050505092915050565b60006020820190508181036000830152612c788184612c00565b905092915050565b7f4e487b7100000000000000000000000000000000000000000000000000000000600052602260045260246000fd5b60006002820490506001821680612cc757607f821691505b60208210811415612cdb57612cda612c80565b5b50919050565b7f45524332303a207472616e7366657220616d6f756e742065786365656473206160008201527f6c6c6f77616e6365000000000000000000000000000000000000000000000000602082015250565b6000612d3d6028836124db565b9150612d4882612ce1565b604082019050919050565b60006020820190508181036000830152612d6c81612d30565b9050919050565b612d7c816125bf565b82525050565b6000606082019050612d976000830186612d73565b8181036020830152612da98185612530565b90508181036040830152612dbd8184612530565b9050949350505050565b7f4e487b7100000000000000000000000000000000000000000000000000000000600052601160045260246000fd5b6000612e01826125fd565b9150612e0c836125fd565b9250827fffffffffffffffffffffffffffffffffffffffffffffffffffffffffffffffff03821115612e4157612e40612dc7565b5b828201905092915050565b7f4e487b7100000000000000000000000000000000000000000000000000000000600052603260045260246000fd5b6000612e86826128db565b915063ffffffff821415612e9d57612e9c612dc7565b5b600182019050919050565b7f7465737400000000000000000000000000000000000000000000000000000000600082015250565b6000612ede6004836124db565b9150612ee982612ea8565b602082019050919050565b60008190508160005260206000209050919050565b60008154612f1681612caf565b612f2081866124db565b94506001821660008114612f3b5760018114612f4d57612f80565b60ff1983168652602086019350612f80565b612f5685612ef4565b60005b83811015612f7857815481890152600182019150602081019050612f59565b808801955050505b50505092915050565b60006040820190508181036000830152612fa281612ed1565b90508181036020830152612fb68184612f09565b905092915050565b6000602082019050612fd36000830184612d73565b92915050565b6000604082019050612fee6000830185612d73565b612ffb60208301846126a9565b9392505050565b600081905092915050565b6000613018826124d0565b6130228185613002565b93506130328185602086016124ec565b80840191505092915050565b600061304a828461300d565b915081905092915050565b600061ffff82169050919050565b7f4e487b7100000000000000000000000000000000000000000000000000000000600052601260045260246000fd5b600061309d82613055565b91506130a883613055565b9250826130b8576130b7613063565b5b828206905092915050565b60006130ce82613055565b91506130d983613055565b92508261ffff038211156130f0576130ef612dc7565b5b828201905092915050565b6000613106826128db565b9150613111836128db565b92508263ffffffff0382111561312a57613129612dc7565b5b828201905092915050565b6000819050919050565b600061315a61315561315084613055565b613135565b6128db565b9050919050565b61316a8161313f565b82525050565b60006020820190506131856000830184613161565b92915050565b7f45524332303a2064656372656173656420616c6c6f77616e63652062656c6f7760008201527f207a65726f000000000000000000000000000000000000000000000000000000602082015250565b60006131e76025836124db565b91506131f28261318b565b604082019050919050565b60006020820190508181036000830152613216816131da565b9050919050565b7f7265676973746572206669727374000000000000000000000000000000000000600082015250565b6000613253600e836124db565b915061325e8261321d565b602082019050919050565b6000602082019050818103600083015261328281613246565b9050919050565b6000613294826128db565b915061329f836128db565b9250828210156132b2576132b1612dc7565b5b828203905092915050565b60006132d86132d36132ce8461259f565b613135565b61259f565b9050919050565b60006132ea826132bd565b9050919050565b60006132fc826132df565b9050919050565b61330c816132f1565b82525050565b60006040820190506133276000830185613303565b61333460208301846126a9565b9392505050565b7f45524332303a20617070726f76652066726f6d20746865207a65726f2061646460008201527f7265737300000000000000000000000000000000000000000000000000000000602082015250565b60006133976024836124db565b91506133a28261333b565b604082019050919050565b600060208201905081810360008301526133c68161338a565b9050919050565b7f45524332303a20617070726f766520746f20746865207a65726f20616464726560008201527f7373000000000000000000000000000000000000000000000000000000000000602082015250565b60006134296022836124db565b9150613434826133cd565b604082019050919050565b600060208201905081810360008301526134588161341c565b9050919050565b7f45524332303a207472616e736665722066726f6d20746865207a65726f20616460008201527f6472657373000000000000000000000000000000000000000000000000000000602082015250565b60006134bb6025836124db565b91506134c68261345f565b604082019050919050565b600060208201905081810360008301526134ea816134ae565b9050919050565b7f45524332303a207472616e7366657220746f20746865207a65726f206164647260008201527f6573730000000000000000000000000000000000000000000000000000000000602082015250565b600061354d6023836124db565b9150613558826134f1565b604082019050919050565b6000602082019050818103600083015261357c81613540565b9050919050565b7f45524332303a207472616e7366657220616d6f756e742065786365656473206260008201527f616c616e63650000000000000000000000000000000000000000000000000000602082015250565b60006135df6026836124db565b91506135ea82613583565b604082019050919050565b6000602082019050818103600083015261360e816135d2565b9050919050565b6000613620826125fd565b91507fffffffffffffffffffffffffffffffffffffffffffffffffffffffffffffffff82141561365357613652612dc7565b5b600182019050919050565b6000819050919050565b613679613674826125fd565b61365e565b82525050565b60008160601b9050919050565b60006136978261367f565b9050919050565b60006136a98261368c565b9050919050565b6136c16136bc826125bf565b61369e565b82525050565b60006136d38286613668565b6020820191506136e38285613668565b6020820191506136f382846136b0565b601482019150819050949350505050565b600061370f826125fd565b915061371a836125fd565b92508261372a57613729613063565b5b82820690509291505056fea264697066735822122071819267b40b71a5329503396edfa81af25ad7bf9413fa70fd6cf428b2b4019a64736f6c634300080b0033",
  "immutableReferences": {},
  "source": "// SPDX-License-Identifier: MIT\r\npragma solidity ^0.8.0;\r\npragma experimental ABIEncoderV2;\r\n\r\nimport \"./MyToken.sol\";\r\n\r\ncontract CatBase is MyToken{\r\n\r\n    event NewCat(string name, string kittyId);\r\n    event FeedCat(address feeder, string beforeId, string afterId);\r\n    \r\n    uint private randNonce = 0;\r\n    uint private coolDownTime = 1 minutes;\r\n    uint32 private catCounts = 0;\r\n    string[] private kittyIds = [\"0\", \"150593.svg\", \"232751.svg\", \"404726.svg\", \"462704.svg\", \"493816.svg\", \"166471.svg\", \r\n    \"145686.svg\", \"137853.svg\", \"117429.svg\", \"96197.svg\", \"1994121.png\", \"1993609.png\", \"2010551.png\", \"2004592.png\", \r\n    \"2010501.png\"];\r\n    uint256[] private kittyPrices = [0, 1, 2, 3, 4, 5, 6, 7, 8, 9, 10, 11, 12, 13, 14, 15];\r\n\r\n    struct Cat {\r\n        string name;\r\n        uint256 price;\r\n        uint256 coolDown;\r\n        string kittyId; //cryptokitty id\r\n    }\r\n\r\n    mapping(string => uint16) internal idToIndex;\r\n    mapping(address => uint32) internal ownerToCat; // in-contract id;\r\n    Cat[] internal cats;\r\n\r\n    constructor(string memory name, string memory symbol) MyToken(name, symbol){\r\n\r\n        for(uint16 i=1;i<=15;i++){\r\n            idToIndex[kittyIds[i]] = i;\r\n        }\r\n\r\n        cats.push(Cat(\"ERROR\", 0, block.timestamp, \"0\"));\r\n    }\r\n\r\n    function _makeRandom() internal returns(uint16){\r\n        return uint16(uint(keccak256(abi.encodePacked(block.timestamp, randNonce++, msg.sender))) % 5) + 1;\r\n    }\r\n\r\n    function _getMyCatIdx() internal view returns(uint32) {return ownerToCat[msg.sender];}\r\n\r\n\r\n    function registerCat(string memory catName) public {\r\n        require(ownerToCat[msg.sender] == 0);\r\n        uint16 random = _makeRandom();\r\n        cats.push(Cat(catName, kittyPrices[random], block.timestamp, kittyIds[random]));\r\n        ownerToCat[msg.sender] = ++catCounts;\r\n        emit NewCat(\"test\", kittyIds[random]);\r\n        \r\n        \r\n    }\r\n\r\n    function getCatCounts() public view returns(uint32) { return catCounts; }\r\n\r\n    function getMyCat() public view returns(Cat memory mycat){\r\n        require(ownerToCat[msg.sender] != 0, \"register first\");\r\n        mycat = cats[ownerToCat[msg.sender]];\r\n    }\r\n\r\n    function hasCat() public view returns(bool){\r\n         return _getMyCatIdx() > 0;\r\n    }\r\n\r\n\r\n    function updateKittyId() public returns(string memory beforeId, string memory afterId){\r\n\r\n        Cat storage cat = cats[_getMyCatIdx()];\r\n        beforeId = cat.kittyId;\r\n        uint16 idx = (idToIndex[beforeId])%15 + 1;\r\n        cat.kittyId = kittyIds[idx];\r\n        afterId = cat.kittyId;\r\n    }\r\n\r\n    function feed() public{\r\n        string memory beforeId;\r\n        string memory afterId;\r\n        (beforeId, afterId) = updateKittyId();\r\n        emit FeedCat(msg.sender, beforeId, afterId);\r\n    }\r\n    //contract   \r\n  event NewRod(address fisher);\r\n  event BUY_ROD(address buyer, uint256 cost);\r\n\r\n  uint internal rand = 0;\r\n  \r\n  struct Rod {\r\n    uint32 rodGrade;\r\n    uint32 rodPrice;\r\n  }\r\n  function _makeRandom(uint32 index) internal returns(uint32){\r\n      if (index == 0) {\r\n        return uint32(uint(keccak256(abi.encodePacked(block.timestamp, rand++, msg.sender))) % 3) + 1;\r\n      } else if(index == 1) {\r\n        return uint32(uint(keccak256(abi.encodePacked(block.timestamp, rand++, msg.sender))) % 5) + 1;\r\n      } else if (index == 2) {\r\n        return uint32(uint(keccak256(abi.encodePacked(block.timestamp, rand++, msg.sender))) % 7) + 1;\r\n      } else if(index == 3) {\r\n        return uint32(uint(keccak256(abi.encodePacked(block.timestamp, rand++, msg.sender))) % 5) + 3;\r\n      }\r\n  }\r\n  //   \r\n  mapping (address => uint32) rodOwner;\r\n\r\n  \r\n  function _createRod() private {\r\n    rodOwner[msg.sender] = _makeRandom(0);\r\n    emit NewRod(msg.sender);\r\n  }\r\n\r\n  function getRod() public view returns(uint32 rod){\r\n    rod = rodOwner[msg.sender];\r\n  }\r\n\r\n  function newRod(uint32 probability, uint256 cost) public returns(uint32 rod) {\r\n    require(useSSC(cost) == true);\r\n\r\n    if (rodOwner[msg.sender] == 0) {\r\n      _createRod();\r\n    } else {\r\n      emit NewRod(msg.sender);\r\n      rodOwner[msg.sender] = _makeRandom(probability);\r\n      rod = rodOwner[msg.sender];\r\n    }\r\n\r\n    emit BUY_ROD(msg.sender, cost);\r\n  }\r\n  //Fish Contract \r\n  event NewFish(uint32 fish);\r\n  event DeleteFish(uint32 fish);\r\n  \r\n  mapping (address => uint32[]) fishList;\r\n\r\n  function getFish() public view returns(uint32[] memory fish) {\r\n    fish = fishList[msg.sender];\r\n  }\r\n  // function getFish() public view returns(bool) {\r\n  //   return fishList[msg.sender].length == 1;\r\n  // }\r\n\r\n  function newFish() public returns(uint32) {\r\n    if (fishList[msg.sender].length == 0) {\r\n      fishList[msg.sender] = [0,0,0,0,0,0];\r\n    }\r\n    uint16 tmpFish = _makeRandom();\r\n    fishList[msg.sender][tmpFish] = fishList[msg.sender][tmpFish]+1;\r\n    emit NewFish(tmpFish);\r\n    return tmpFish;\r\n  }\r\n\r\n  function deleteFish(uint32 index) public returns(bool success) {\r\n    fishList[msg.sender][index] = fishList[msg.sender][index] - 1;\r\n    emit DeleteFish(index);\r\n    return true;\r\n  }\r\n}",
  "sourcePath": "C:\\Users\\jhl81\\OneDrive\\project_2-2\\test\\madcamp-pj3\\contracts\\CatBase.sol",
  "compiler": {
    "name": "solc",
    "version": "0.8.11+commit.d7f03943.Emscripten.clang"
  },
  "schemaVersion": "3.4.4",
  "updatedAt": "2022-01-18T05:25:39.083Z",
  "networkType": "ethereum",
  "devdoc": {
    "kind": "dev",
    "methods": {
      "allowance(address,address)": {
        "details": "See {IERC20-allowance}."
      },
      "approve(address,uint256)": {
        "details": "See {IERC20-approve}. Requirements: - `spender` cannot be the zero address."
      },
      "balanceOf(address)": {
        "details": "See {IERC20-balanceOf}."
      },
      "decimals()": {
        "details": "Returns the number of decimals used to get its user representation. For example, if `decimals` equals `2`, a balance of `505` tokens should be displayed to a user as `5.05` (`505 / 10 ** 2`). Tokens usually opt for a value of 18, imitating the relationship between Ether and Wei. This is the value {ERC20} uses, unless this function is overridden; NOTE: This information is only used for _display_ purposes: it in no way affects any of the arithmetic of the contract, including {IERC20-balanceOf} and {IERC20-transfer}."
      },
      "decreaseAllowance(address,uint256)": {
        "details": "Atomically decreases the allowance granted to `spender` by the caller. This is an alternative to {approve} that can be used as a mitigation for problems described in {IERC20-approve}. Emits an {Approval} event indicating the updated allowance. Requirements: - `spender` cannot be the zero address. - `spender` must have allowance for the caller of at least `subtractedValue`."
      },
      "increaseAllowance(address,uint256)": {
        "details": "Atomically increases the allowance granted to `spender` by the caller. This is an alternative to {approve} that can be used as a mitigation for problems described in {IERC20-approve}. Emits an {Approval} event indicating the updated allowance. Requirements: - `spender` cannot be the zero address."
      },
      "name()": {
        "details": "Returns the name of the token."
      },
      "symbol()": {
        "details": "Returns the symbol of the token, usually a shorter version of the name."
      },
      "totalSupply()": {
        "details": "See {IERC20-totalSupply}."
      },
      "transfer(address,uint256)": {
        "details": "See {IERC20-transfer}. Requirements: - `recipient` cannot be the zero address. - the caller must have a balance of at least `amount`."
      },
      "transferFrom(address,address,uint256)": {
        "details": "See {IERC20-transferFrom}. Emits an {Approval} event indicating the updated allowance. This is not required by the EIP. See the note at the beginning of {ERC20}. Requirements: - `sender` and `recipient` cannot be the zero address. - `sender` must have a balance of at least `amount`. - the caller must have allowance for ``sender``'s tokens of at least `amount`."
      }
    },
    "version": 1
  },
  "userdoc": {
    "kind": "user",
    "methods": {},
    "version": 1
  }
}