{
  "contractName": "CatBase",
  "abi": [
    {
      "inputs": [
        {
          "internalType": "string",
          "name": "name",
          "type": "string"
        },
        {
          "internalType": "string",
          "name": "symbol",
          "type": "string"
        }
      ],
      "stateMutability": "nonpayable",
      "type": "constructor"
    },
    {
      "anonymous": false,
      "inputs": [
        {
          "indexed": true,
          "internalType": "address",
          "name": "owner",
          "type": "address"
        },
        {
          "indexed": true,
          "internalType": "address",
          "name": "spender",
          "type": "address"
        },
        {
          "indexed": false,
          "internalType": "uint256",
          "name": "value",
          "type": "uint256"
        }
      ],
      "name": "Approval",
      "type": "event"
    },
    {
      "anonymous": false,
      "inputs": [
        {
          "indexed": false,
          "internalType": "address",
          "name": "buyer",
          "type": "address"
        },
        {
          "indexed": false,
          "internalType": "uint256",
          "name": "cost",
          "type": "uint256"
        }
      ],
      "name": "BUY_ROD",
      "type": "event"
    },
    {
      "anonymous": false,
      "inputs": [
        {
          "indexed": false,
          "internalType": "uint32",
          "name": "fish",
          "type": "uint32"
        }
      ],
      "name": "DeleteFish",
      "type": "event"
    },
    {
      "anonymous": false,
      "inputs": [
        {
          "indexed": false,
          "internalType": "address",
          "name": "requester",
          "type": "address"
        },
        {
          "indexed": false,
          "internalType": "uint256",
          "name": "value",
          "type": "uint256"
        }
      ],
      "name": "EXCHANGE_ETH_TO_SCC",
      "type": "event"
    },
    {
      "anonymous": false,
      "inputs": [
        {
          "indexed": false,
          "internalType": "address",
          "name": "requester",
          "type": "address"
        },
        {
          "indexed": false,
          "internalType": "uint256",
          "name": "value",
          "type": "uint256"
        }
      ],
      "name": "EXCHANGE_SCC_TO_ETH",
      "type": "event"
    },
    {
      "anonymous": false,
      "inputs": [
        {
          "indexed": false,
          "internalType": "address",
          "name": "feeder",
          "type": "address"
        },
        {
          "indexed": false,
          "internalType": "string",
          "name": "beforeId",
          "type": "string"
        },
        {
          "indexed": false,
          "internalType": "string",
          "name": "afterId",
          "type": "string"
        }
      ],
      "name": "FeedCat",
      "type": "event"
    },
    {
      "anonymous": false,
      "inputs": [
        {
          "indexed": false,
          "internalType": "string",
          "name": "name",
          "type": "string"
        },
        {
          "indexed": false,
          "internalType": "string",
          "name": "kittyId",
          "type": "string"
        }
      ],
      "name": "NewCat",
      "type": "event"
    },
    {
      "anonymous": false,
      "inputs": [
        {
          "indexed": false,
          "internalType": "uint32",
          "name": "fish",
          "type": "uint32"
        }
      ],
      "name": "NewFish",
      "type": "event"
    },
    {
      "anonymous": false,
      "inputs": [
        {
          "indexed": false,
          "internalType": "address",
          "name": "fisher",
          "type": "address"
        }
      ],
      "name": "NewRod",
      "type": "event"
    },
    {
      "anonymous": false,
      "inputs": [
        {
          "indexed": true,
          "internalType": "address",
          "name": "from",
          "type": "address"
        },
        {
          "indexed": true,
          "internalType": "address",
          "name": "to",
          "type": "address"
        },
        {
          "indexed": false,
          "internalType": "uint256",
          "name": "value",
          "type": "uint256"
        }
      ],
      "name": "Transfer",
      "type": "event"
    },
    {
      "inputs": [
        {
          "internalType": "uint256",
          "name": "value",
          "type": "uint256"
        }
      ],
      "name": "SSCtoEth",
      "outputs": [
        {
          "internalType": "bool",
          "name": "",
          "type": "bool"
        }
      ],
      "stateMutability": "payable",
      "type": "function",
      "payable": true
    },
    {
      "inputs": [
        {
          "internalType": "address",
          "name": "owner",
          "type": "address"
        },
        {
          "internalType": "address",
          "name": "spender",
          "type": "address"
        }
      ],
      "name": "allowance",
      "outputs": [
        {
          "internalType": "uint256",
          "name": "",
          "type": "uint256"
        }
      ],
      "stateMutability": "view",
      "type": "function",
      "constant": true
    },
    {
      "inputs": [
        {
          "internalType": "address",
          "name": "spender",
          "type": "address"
        },
        {
          "internalType": "uint256",
          "name": "amount",
          "type": "uint256"
        }
      ],
      "name": "approve",
      "outputs": [
        {
          "internalType": "bool",
          "name": "",
          "type": "bool"
        }
      ],
      "stateMutability": "nonpayable",
      "type": "function"
    },
    {
      "inputs": [
        {
          "internalType": "address",
          "name": "account",
          "type": "address"
        }
      ],
      "name": "balanceOf",
      "outputs": [
        {
          "internalType": "uint256",
          "name": "",
          "type": "uint256"
        }
      ],
      "stateMutability": "view",
      "type": "function",
      "constant": true
    },
    {
      "inputs": [],
      "name": "decimals",
      "outputs": [
        {
          "internalType": "uint8",
          "name": "",
          "type": "uint8"
        }
      ],
      "stateMutability": "view",
      "type": "function",
      "constant": true
    },
    {
      "inputs": [
        {
          "internalType": "address",
          "name": "spender",
          "type": "address"
        },
        {
          "internalType": "uint256",
          "name": "subtractedValue",
          "type": "uint256"
        }
      ],
      "name": "decreaseAllowance",
      "outputs": [
        {
          "internalType": "bool",
          "name": "",
          "type": "bool"
        }
      ],
      "stateMutability": "nonpayable",
      "type": "function"
    },
    {
      "inputs": [],
      "name": "ethToSSC",
      "outputs": [
        {
          "internalType": "bool",
          "name": "",
          "type": "bool"
        }
      ],
      "stateMutability": "payable",
      "type": "function",
      "payable": true
    },
    {
      "inputs": [],
      "name": "getOwner",
      "outputs": [
        {
          "internalType": "address payable",
          "name": "",
          "type": "address"
        }
      ],
      "stateMutability": "view",
      "type": "function",
      "constant": true
    },
    {
      "inputs": [
        {
          "internalType": "uint256",
          "name": "value",
          "type": "uint256"
        }
      ],
      "name": "getSSC",
      "outputs": [
        {
          "internalType": "bool",
          "name": "",
          "type": "bool"
        }
      ],
      "stateMutability": "payable",
      "type": "function",
      "payable": true
    },
    {
      "inputs": [
        {
          "internalType": "address",
          "name": "spender",
          "type": "address"
        },
        {
          "internalType": "uint256",
          "name": "addedValue",
          "type": "uint256"
        }
      ],
      "name": "increaseAllowance",
      "outputs": [
        {
          "internalType": "bool",
          "name": "",
          "type": "bool"
        }
      ],
      "stateMutability": "nonpayable",
      "type": "function"
    },
    {
      "inputs": [],
      "name": "name",
      "outputs": [
        {
          "internalType": "string",
          "name": "",
          "type": "string"
        }
      ],
      "stateMutability": "view",
      "type": "function",
      "constant": true
    },
    {
      "inputs": [],
      "name": "owner",
      "outputs": [
        {
          "internalType": "address payable",
          "name": "",
          "type": "address"
        }
      ],
      "stateMutability": "view",
      "type": "function",
      "constant": true
    },
    {
      "inputs": [],
      "name": "symbol",
      "outputs": [
        {
          "internalType": "string",
          "name": "",
          "type": "string"
        }
      ],
      "stateMutability": "view",
      "type": "function",
      "constant": true
    },
    {
      "inputs": [],
      "name": "totalSupply",
      "outputs": [
        {
          "internalType": "uint256",
          "name": "",
          "type": "uint256"
        }
      ],
      "stateMutability": "view",
      "type": "function",
      "constant": true
    },
    {
      "inputs": [
        {
          "internalType": "address",
          "name": "recipient",
          "type": "address"
        },
        {
          "internalType": "uint256",
          "name": "amount",
          "type": "uint256"
        }
      ],
      "name": "transfer",
      "outputs": [
        {
          "internalType": "bool",
          "name": "",
          "type": "bool"
        }
      ],
      "stateMutability": "nonpayable",
      "type": "function"
    },
    {
      "inputs": [
        {
          "internalType": "address",
          "name": "sender",
          "type": "address"
        },
        {
          "internalType": "address",
          "name": "recipient",
          "type": "address"
        },
        {
          "internalType": "uint256",
          "name": "amount",
          "type": "uint256"
        }
      ],
      "name": "transferFrom",
      "outputs": [
        {
          "internalType": "bool",
          "name": "",
          "type": "bool"
        }
      ],
      "stateMutability": "nonpayable",
      "type": "function"
    },
    {
      "inputs": [
        {
          "internalType": "uint256",
          "name": "value",
          "type": "uint256"
        }
      ],
      "name": "useSSC",
      "outputs": [
        {
          "internalType": "bool",
          "name": "",
          "type": "bool"
        }
      ],
      "stateMutability": "payable",
      "type": "function",
      "payable": true
    },
    {
      "inputs": [
        {
          "internalType": "string",
          "name": "catName",
          "type": "string"
        }
      ],
      "name": "registerCat",
      "outputs": [],
      "stateMutability": "nonpayable",
      "type": "function"
    },
    {
      "inputs": [],
      "name": "getCatCounts",
      "outputs": [
        {
          "internalType": "uint32",
          "name": "",
          "type": "uint32"
        }
      ],
      "stateMutability": "view",
      "type": "function",
      "constant": true
    },
    {
      "inputs": [],
      "name": "getMyCat",
      "outputs": [
        {
          "components": [
            {
              "internalType": "string",
              "name": "name",
              "type": "string"
            },
            {
              "internalType": "uint256",
              "name": "price",
              "type": "uint256"
            },
            {
              "internalType": "uint256",
              "name": "coolDown",
              "type": "uint256"
            },
            {
              "internalType": "string",
              "name": "kittyId",
              "type": "string"
            }
          ],
          "internalType": "struct CatBase.Cat",
          "name": "mycat",
          "type": "tuple"
        }
      ],
      "stateMutability": "view",
      "type": "function",
      "constant": true
    },
    {
      "inputs": [],
      "name": "hasCat",
      "outputs": [
        {
          "internalType": "bool",
          "name": "",
          "type": "bool"
        }
      ],
      "stateMutability": "view",
      "type": "function",
      "constant": true
    },
    {
      "inputs": [],
      "name": "updateKittyId",
      "outputs": [
        {
          "internalType": "string",
          "name": "beforeId",
          "type": "string"
        },
        {
          "internalType": "string",
          "name": "afterId",
          "type": "string"
        }
      ],
      "stateMutability": "nonpayable",
      "type": "function"
    },
    {
      "inputs": [
        {
          "internalType": "uint32",
          "name": "fish",
          "type": "uint32"
        }
      ],
      "name": "feed",
      "outputs": [],
      "stateMutability": "nonpayable",
      "type": "function"
    },
    {
      "inputs": [],
      "name": "getRod",
      "outputs": [
        {
          "internalType": "uint32",
          "name": "rod",
          "type": "uint32"
        }
      ],
      "stateMutability": "view",
      "type": "function",
      "constant": true
    },
    {
      "inputs": [
        {
          "internalType": "uint32",
          "name": "probability",
          "type": "uint32"
        },
        {
          "internalType": "uint256",
          "name": "cost",
          "type": "uint256"
        }
      ],
      "name": "newRod",
      "outputs": [
        {
          "internalType": "uint32",
          "name": "rod",
          "type": "uint32"
        }
      ],
      "stateMutability": "nonpayable",
      "type": "function"
    },
    {
      "inputs": [],
      "name": "getFish",
      "outputs": [
        {
          "internalType": "uint32[]",
          "name": "fish",
          "type": "uint32[]"
        }
      ],
      "stateMutability": "view",
      "type": "function",
      "constant": true
    },
    {
      "inputs": [
        {
          "internalType": "uint32",
          "name": "newFish",
          "type": "uint32"
        }
      ],
      "name": "newFish",
      "outputs": [
        {
          "internalType": "uint32",
          "name": "",
          "type": "uint32"
        }
      ],
      "stateMutability": "nonpayable",
      "type": "function"
    },
    {
      "inputs": [
        {
          "internalType": "uint32",
          "name": "index",
          "type": "uint32"
        }
      ],
      "name": "deleteFish",
      "outputs": [
        {
          "internalType": "bool",
          "name": "success",
          "type": "bool"
        }
      ],
      "stateMutability": "nonpayable",
      "type": "function"
    }
  ],
  "bytecode": "0x60806040526000600655603c6007556000600860006101000a81548163ffffffff021916908363ffffffff1602179055506040518061020001604052806040518060400160405280600181526020017f300000000000000000000000000000000000000000000000000000000000000081525081526020016040518060400160405280600a81526020017f3135303539332e7376670000000000000000000000000000000000000000000081525081526020016040518060400160405280600a81526020017f3233323735312e7376670000000000000000000000000000000000000000000081525081526020016040518060400160405280600a81526020017f3430343732362e7376670000000000000000000000000000000000000000000081525081526020016040518060400160405280600a81526020017f3436323730342e7376670000000000000000000000000000000000000000000081525081526020016040518060400160405280600a81526020017f3439333831362e7376670000000000000000000000000000000000000000000081525081526020016040518060400160405280600a81526020017f3136363437312e7376670000000000000000000000000000000000000000000081525081526020016040518060400160405280600a81526020017f3134353638362e7376670000000000000000000000000000000000000000000081525081526020016040518060400160405280600a81526020017f3133373835332e7376670000000000000000000000000000000000000000000081525081526020016040518060400160405280600a81526020017f3131373432392e7376670000000000000000000000000000000000000000000081525081526020016040518060400160405280600981526020017f39363139372e737667000000000000000000000000000000000000000000000081525081526020016040518060400160405280600b81526020017f313939343132312e706e6700000000000000000000000000000000000000000081525081526020016040518060400160405280600b81526020017f313939333630392e706e6700000000000000000000000000000000000000000081525081526020016040518060400160405280600b81526020017f323031303535312e706e6700000000000000000000000000000000000000000081525081526020016040518060400160405280600b81526020017f323030343539322e706e6700000000000000000000000000000000000000000081525081526020016040518060400160405280600b81526020017f323031303530312e706e670000000000000000000000000000000000000000008152508152506009906010620003fc929190620008f9565b50604051806102000160405280600060ff168152602001600160ff168152602001600260ff168152602001600360ff168152602001600460ff168152602001600560ff168152602001600660ff168152602001600760ff168152602001600860ff168152602001600960ff168152602001600a60ff168152602001600b60ff168152602001600c60ff168152602001600d60ff168152602001600e60ff168152602001600f60ff16815250600a906010620004b992919062000960565b506000600e55348015620004cc57600080fd5b5060405162004bbf38038062004bbf8339818101604052810190620004f2919062000c72565b8181818181600390805190602001906200050e929190620009b7565b50806004908051906020019062000527929190620009b7565b50505033600560006101000a81548173ffffffffffffffffffffffffffffffffffffffff021916908373ffffffffffffffffffffffffffffffffffffffff160217905550620005ce600560009054906101000a900473ffffffffffffffffffffffffffffffffffffffff16620005a26200076d60201b60201c565b60ff16600a620005b3919062000e84565b6103e8620005c2919062000ed5565b6200077660201b60201c565b50506000600190505b600f8161ffff1611620006595780600b60098361ffff168154811062000602576200060162000f36565b5b906000526020600020016040516200061b919062001075565b908152602001604051809103902060006101000a81548161ffff021916908361ffff160217905550808062000650906200109c565b915050620005d7565b50600d60405180608001604052806040518060400160405280600581526020017f4552524f520000000000000000000000000000000000000000000000000000008152508152602001600081526020014281526020016040518060400160405280600181526020017f3000000000000000000000000000000000000000000000000000000000000000815250815250908060018154018082558091505060019003906000526020600020906004020160009091909190915060008201518160000190805190602001906200072f929190620009b7565b506020820151816001015560408201518160020155606082015181600301908051906020019062000762929190620009b7565b5050505050620011da565b60006012905090565b600073ffffffffffffffffffffffffffffffffffffffff168273ffffffffffffffffffffffffffffffffffffffff161415620007e9576040517f08c379a0000000000000000000000000000000000000000000000000000000008152600401620007e0906200112d565b60405180910390fd5b620007fd60008383620008ef60201b60201c565b80600260008282546200081191906200114f565b92505081905550806000808473ffffffffffffffffffffffffffffffffffffffff1673ffffffffffffffffffffffffffffffffffffffff16815260200190815260200160002060008282546200086891906200114f565b925050819055508173ffffffffffffffffffffffffffffffffffffffff16600073ffffffffffffffffffffffffffffffffffffffff167fddf252ad1be2c89b69c2b068fc378daa952ba7f163c4a11628f55a4df523b3ef83604051620008cf9190620011bd565b60405180910390a3620008eb60008383620008f460201b60201c565b5050565b505050565b505050565b8280548282559060005260206000209081019282156200094d579160200282015b828111156200094c5782518290805190602001906200093b929190620009b7565b50916020019190600101906200091a565b5b5090506200095c919062000a48565b5090565b828054828255906000526020600020908101928215620009a4579160200282015b82811115620009a3578251829060ff1690559160200191906001019062000981565b5b509050620009b3919062000a70565b5090565b828054620009c59062000f94565b90600052602060002090601f016020900481019282620009e9576000855562000a35565b82601f1062000a0457805160ff191683800117855562000a35565b8280016001018555821562000a35579182015b8281111562000a3457825182559160200191906001019062000a17565b5b50905062000a44919062000a70565b5090565b5b8082111562000a6c576000818162000a62919062000a8f565b5060010162000a49565b5090565b5b8082111562000a8b57600081600090555060010162000a71565b5090565b50805462000a9d9062000f94565b6000825580601f1062000ab1575062000ad2565b601f01602090049060005260206000209081019062000ad1919062000a70565b5b50565b6000604051905090565b600080fd5b600080fd5b600080fd5b600080fd5b6000601f19601f8301169050919050565b7f4e487b7100000000000000000000000000000000000000000000000000000000600052604160045260246000fd5b62000b3e8262000af3565b810181811067ffffffffffffffff8211171562000b605762000b5f62000b04565b5b80604052505050565b600062000b7562000ad5565b905062000b83828262000b33565b919050565b600067ffffffffffffffff82111562000ba65762000ba562000b04565b5b62000bb18262000af3565b9050602081019050919050565b60005b8381101562000bde57808201518184015260208101905062000bc1565b8381111562000bee576000848401525b50505050565b600062000c0b62000c058462000b88565b62000b69565b90508281526020810184848401111562000c2a5762000c2962000aee565b5b62000c3784828562000bbe565b509392505050565b600082601f83011262000c575762000c5662000ae9565b5b815162000c6984826020860162000bf4565b91505092915050565b6000806040838503121562000c8c5762000c8b62000adf565b5b600083015167ffffffffffffffff81111562000cad5762000cac62000ae4565b5b62000cbb8582860162000c3f565b925050602083015167ffffffffffffffff81111562000cdf5762000cde62000ae4565b5b62000ced8582860162000c3f565b9150509250929050565b7f4e487b7100000000000000000000000000000000000000000000000000000000600052601160045260246000fd5b60008160011c9050919050565b6000808291508390505b600185111562000d855780860481111562000d5d5762000d5c62000cf7565b5b600185161562000d6d5780820291505b808102905062000d7d8562000d26565b945062000d3d565b94509492505050565b60008262000da0576001905062000e73565b8162000db0576000905062000e73565b816001811462000dc9576002811462000dd45762000e0a565b600191505062000e73565b60ff84111562000de95762000de862000cf7565b5b8360020a91508482111562000e035762000e0262000cf7565b5b5062000e73565b5060208310610133831016604e8410600b841016171562000e445782820a90508381111562000e3e5762000e3d62000cf7565b5b62000e73565b62000e53848484600162000d33565b9250905081840481111562000e6d5762000e6c62000cf7565b5b81810290505b9392505050565b6000819050919050565b600062000e918262000e7a565b915062000e9e8362000e7a565b925062000ecd7fffffffffffffffffffffffffffffffffffffffffffffffffffffffffffffffff848462000d8e565b905092915050565b600062000ee28262000e7a565b915062000eef8362000e7a565b9250817fffffffffffffffffffffffffffffffffffffffffffffffffffffffffffffffff048311821515161562000f2b5762000f2a62000cf7565b5b828202905092915050565b7f4e487b7100000000000000000000000000000000000000000000000000000000600052603260045260246000fd5b7f4e487b7100000000000000000000000000000000000000000000000000000000600052602260045260246000fd5b6000600282049050600182168062000fad57607f821691505b6020821081141562000fc45762000fc362000f65565b5b50919050565b600081905092915050565b60008190508160005260206000209050919050565b6000815462000ff98162000f94565b62001005818662000fca565b9450600182166000811462001023576001811462001035576200106c565b60ff198316865281860193506200106c565b620010408562000fd5565b60005b83811015620010645781548189015260018201915060208101905062001043565b838801955050505b50505092915050565b600062001083828462000fea565b915081905092915050565b600061ffff82169050919050565b6000620010a9826200108e565b915061ffff821415620010c157620010c062000cf7565b5b600182019050919050565b600082825260208201905092915050565b7f45524332303a206d696e7420746f20746865207a65726f206164647265737300600082015250565b600062001115601f83620010cc565b91506200112282620010dd565b602082019050919050565b60006020820190508181036000830152620011488162001106565b9050919050565b60006200115c8262000e7a565b9150620011698362000e7a565b9250827fffffffffffffffffffffffffffffffffffffffffffffffffffffffffffffffff03821115620011a157620011a062000cf7565b5b828201905092915050565b620011b78162000e7a565b82525050565b6000602082019050620011d46000830184620011ac565b92915050565b6139d580620011ea6000396000f3fe6080604052600436106101b75760003560e01c8063893d20e8116100ec578063c3a7f8f21161008a578063dd62ed3e11610064578063dd62ed3e14610665578063f9351a62146106a2578063fe2ca31a146106cd578063fee7ae6c146106f8576101b7565b8063c3a7f8f2146105cf578063c696280f146105f8578063cf1ecc1214610635576101b7565b80639f800a5f116100c65780639f800a5f1461050c578063a457c2d71461052a578063a87e8aad14610567578063a9059cbb14610592576101b7565b8063893d20e81461048b5780638da5cb5b146104b657806395d89b41146104e1576101b7565b80633f7af592116101595780634fa00b3e116101335780634fa00b3e146103ba5780636bed2588146103e657806370a082311461041157806383405d401461044e576101b7565b80633f7af5921461032457806347e7f86e1461034d57806349f062af1461038a576101b7565b806323b872dd1161019557806323b872dd1461024f57806330b626061461028c578063313ce567146102bc57806339509351146102e7576101b7565b806306fdde03146101bc578063095ea7b3146101e757806318160ddd14610224575b600080fd5b3480156101c857600080fd5b506101d1610723565b6040516101de9190612647565b60405180910390f35b3480156101f357600080fd5b5061020e60048036038101906102099190612711565b6107b5565b60405161021b919061276c565b60405180910390f35b34801561023057600080fd5b506102396107d3565b6040516102469190612796565b60405180910390f35b34801561025b57600080fd5b50610276600480360381019061027191906127b1565b6107dd565b604051610283919061276c565b60405180910390f35b6102a660048036038101906102a19190612804565b6108d5565b6040516102b3919061276c565b60405180910390f35b3480156102c857600080fd5b506102d161092e565b6040516102de919061284d565b60405180910390f35b3480156102f357600080fd5b5061030e60048036038101906103099190612711565b610937565b60405161031b919061276c565b60405180910390f35b34801561033057600080fd5b5061034b6004803603810190610346919061299d565b6109e3565b005b34801561035957600080fd5b50610374600480360381019061036f9190612a22565b610cad565b6040516103819190612a71565b60405180910390f35b6103a4600480360381019061039f9190612804565b610e62565b6040516103b1919061276c565b60405180910390f35b3480156103c657600080fd5b506103cf610ea9565b6040516103dd929190612a8c565b60405180910390f35b3480156103f257600080fd5b506103fb61108a565b6040516104089190612a71565b60405180910390f35b34801561041d57600080fd5b5061043860048036038101906104339190612ac3565b6110e1565b6040516104459190612796565b60405180910390f35b34801561045a57600080fd5b5061047560048036038101906104709190612af0565b611129565b6040516104829190612a71565b60405180910390f35b34801561049757600080fd5b506104a0611361565b6040516104ad9190612b3e565b60405180910390f35b3480156104c257600080fd5b506104cb61138b565b6040516104d89190612b3e565b60405180910390f35b3480156104ed57600080fd5b506104f66113b1565b6040516105039190612647565b60405180910390f35b610514611443565b604051610521919061276c565b60405180910390f35b34801561053657600080fd5b50610551600480360381019061054c9190612711565b6114b2565b60405161055e919061276c565b60405180910390f35b34801561057357600080fd5b5061057c61159d565b6040516105899190612c1c565b60405180910390f35b34801561059e57600080fd5b506105b960048036038101906105b49190612711565b6117fd565b6040516105c6919061276c565b60405180910390f35b3480156105db57600080fd5b506105f660048036038101906105f19190612af0565b61181b565b005b34801561060457600080fd5b5061061f600480360381019061061a9190612af0565b611878565b60405161062c919061276c565b60405180910390f35b61064f600480360381019061064a9190612804565b6119dd565b60405161065c919061276c565b60405180910390f35b34801561067157600080fd5b5061068c60048036038101906106879190612c3e565b611aa9565b6040516106999190612796565b60405180910390f35b3480156106ae57600080fd5b506106b7611b30565b6040516106c4919061276c565b60405180910390f35b3480156106d957600080fd5b506106e2611b47565b6040516106ef9190612a71565b60405180910390f35b34801561070457600080fd5b5061070d611b61565b60405161071a9190612d3c565b60405180910390f35b60606003805461073290612d8d565b80601f016020809104026020016040519081016040528092919081815260200182805461075e90612d8d565b80156107ab5780601f10610780576101008083540402835291602001916107ab565b820191906000526020600020905b81548152906001019060200180831161078e57829003601f168201915b5050505050905090565b60006107c96107c2611c22565b8484611c2a565b6001905092915050565b6000600254905090565b60006107ea848484611df5565b6000600160008673ffffffffffffffffffffffffffffffffffffffff1673ffffffffffffffffffffffffffffffffffffffff1681526020019081526020016000206000610835611c22565b73ffffffffffffffffffffffffffffffffffffffff1673ffffffffffffffffffffffffffffffffffffffff168152602001908152602001600020549050828110156108b5576040517f08c379a00000000000000000000000000000000000000000000000000000000081526004016108ac90612e31565b60405180910390fd5b6108c9856108c1611c22565b858403611c2a565b60019150509392505050565b6000610925600560009054906101000a900473ffffffffffffffffffffffffffffffffffffffff163361090661092e565b60ff16600a6109159190612fb3565b856109209190612ffe565b611df5565b60019050919050565b60006012905090565b60006109d9610944611c22565b848460016000610952611c22565b73ffffffffffffffffffffffffffffffffffffffff1673ffffffffffffffffffffffffffffffffffffffff16815260200190815260200160002060008873ffffffffffffffffffffffffffffffffffffffff1673ffffffffffffffffffffffffffffffffffffffff168152602001908152602001600020546109d49190613058565b611c2a565b6001905092915050565b6000600c60003373ffffffffffffffffffffffffffffffffffffffff1673ffffffffffffffffffffffffffffffffffffffff16815260200190815260200160002060009054906101000a900463ffffffff1663ffffffff1614610a4557600080fd5b6000610a4f612076565b9050600d6040518060800160405280848152602001600a8461ffff1681548110610a7c57610a7b6130ae565b5b9060005260206000200154815260200142815260200160098461ffff1681548110610aaa57610aa96130ae565b5b906000526020600020018054610abf90612d8d565b80601f0160208091040260200160405190810160405280929190818152602001828054610aeb90612d8d565b8015610b385780601f10610b0d57610100808354040283529160200191610b38565b820191906000526020600020905b815481529060010190602001808311610b1b57829003601f168201915b505050505081525090806001815401808255809150506001900390600052602060002090600402016000909190919091506000820151816000019080519060200190610b859291906123a9565b5060208201518160010155604082015181600201556060820151816003019080519060200190610bb69291906123a9565b5050506008600081819054906101000a900463ffffffff16610bd7906130dd565b91906101000a81548163ffffffff021916908363ffffffff1602179055600c60003373ffffffffffffffffffffffffffffffffffffffff1673ffffffffffffffffffffffffffffffffffffffff16815260200190815260200160002060006101000a81548163ffffffff021916908363ffffffff1602179055507f63b59d5161bc58dd505463db003904efeb26d8cd54933cd5407980c0c7fe014460098261ffff1681548110610c8a57610c896130ae565b5b90600052602060002001604051610ca191906131eb565b60405180910390a15050565b600060011515610cbc83610e62565b151514610cc857600080fd5b6000600f60003373ffffffffffffffffffffffffffffffffffffffff1673ffffffffffffffffffffffffffffffffffffffff16815260200190815260200160002060009054906101000a900463ffffffff1663ffffffff161415610d3357610d2e6120d9565b610e23565b7f67cb59078af551a61734a5ff2c80f77546caa28f5357c920d420eb3dac631c4f33604051610d62919061322f565b60405180910390a1610d7383612179565b600f60003373ffffffffffffffffffffffffffffffffffffffff1673ffffffffffffffffffffffffffffffffffffffff16815260200190815260200160002060006101000a81548163ffffffff021916908363ffffffff160217905550600f60003373ffffffffffffffffffffffffffffffffffffffff1673ffffffffffffffffffffffffffffffffffffffff16815260200190815260200160002060009054906101000a900463ffffffff1690505b7f8d0f0378a9bbbcbac4ac59df3049d805d00355aaedd51035e7f1f59cc49a46bf3383604051610e5492919061324a565b60405180910390a192915050565b600060011515610e94600560009054906101000a900473ffffffffffffffffffffffffffffffffffffffff16846117fd565b151514610ea057600080fd5b60019050919050565b6060806000600d610eb8612348565b63ffffffff1681548110610ecf57610ece6130ae565b5b90600052602060002090600402019050806003018054610eee90612d8d565b80601f0160208091040260200160405190810160405280929190818152602001828054610f1a90612d8d565b8015610f675780601f10610f3c57610100808354040283529160200191610f67565b820191906000526020600020905b815481529060010190602001808311610f4a57829003601f168201915b5050505050925060006001600f600b86604051610f8491906132af565b908152602001604051809103902060009054906101000a900461ffff16610fab9190613303565b610fb59190613334565b905060098161ffff1681548110610fcf57610fce6130ae565b5b9060005260206000200182600301908054610fe990612d8d565b610ff492919061242f565b5081600301805461100490612d8d565b80601f016020809104026020016040519081016040528092919081815260200182805461103090612d8d565b801561107d5780601f106110525761010080835404028352916020019161107d565b820191906000526020600020905b81548152906001019060200180831161106057829003601f168201915b5050505050925050509091565b6000600f60003373ffffffffffffffffffffffffffffffffffffffff1673ffffffffffffffffffffffffffffffffffffffff16815260200190815260200160002060009054906101000a900463ffffffff16905090565b60008060008373ffffffffffffffffffffffffffffffffffffffff1673ffffffffffffffffffffffffffffffffffffffff168152602001908152602001600020549050919050565b600080601060003373ffffffffffffffffffffffffffffffffffffffff1673ffffffffffffffffffffffffffffffffffffffff168152602001908152602001600020805490501415611209576040518060c00160405280600060ff168152602001600060ff168152602001600060ff168152602001600060ff168152602001600060ff168152602001600060ff16815250601060003373ffffffffffffffffffffffffffffffffffffffff1673ffffffffffffffffffffffffffffffffffffffff1681526020019081526020016000209060066112079291906124bc565b505b60008290506001601060003373ffffffffffffffffffffffffffffffffffffffff1673ffffffffffffffffffffffffffffffffffffffff1681526020019081526020016000208263ffffffff1681548110611267576112666130ae565b5b90600052602060002090600891828204019190066004029054906101000a900463ffffffff16611297919061336c565b601060003373ffffffffffffffffffffffffffffffffffffffff1673ffffffffffffffffffffffffffffffffffffffff1681526020019081526020016000208263ffffffff16815481106112ee576112ed6130ae565b5b90600052602060002090600891828204019190066004026101000a81548163ffffffff021916908363ffffffff1602179055507f266bfd31304d2f50cc9c806da0368b27568ec8bcff8c15b3be133980d86c66bc816040516113509190612a71565b60405180910390a180915050919050565b6000600560009054906101000a900473ffffffffffffffffffffffffffffffffffffffff16905090565b600560009054906101000a900473ffffffffffffffffffffffffffffffffffffffff1681565b6060600480546113c090612d8d565b80601f01602080910402602001604051908101604052809291908181526020018280546113ec90612d8d565b80156114395780601f1061140e57610100808354040283529160200191611439565b820191906000526020600020905b81548152906001019060200180831161141c57829003601f168201915b5050505050905090565b6000611472600560009054906101000a900473ffffffffffffffffffffffffffffffffffffffff163334611df5565b7f71217b0ac6661ea270eb8b6cbcaee0e9a1959b2d504fdf83b0deedc472456d8633346040516114a392919061324a565b60405180910390a16001905090565b600080600160006114c1611c22565b73ffffffffffffffffffffffffffffffffffffffff1673ffffffffffffffffffffffffffffffffffffffff16815260200190815260200160002060008573ffffffffffffffffffffffffffffffffffffffff1673ffffffffffffffffffffffffffffffffffffffff1681526020019081526020016000205490508281101561157e576040517f08c379a000000000000000000000000000000000000000000000000000000000815260040161157590613418565b60405180910390fd5b611592611589611c22565b85858403611c2a565b600191505092915050565b6115a5612569565b6000600c60003373ffffffffffffffffffffffffffffffffffffffff1673ffffffffffffffffffffffffffffffffffffffff16815260200190815260200160002060009054906101000a900463ffffffff1663ffffffff16141561163e576040517f08c379a000000000000000000000000000000000000000000000000000000000815260040161163590613484565b60405180910390fd5b600d600c60003373ffffffffffffffffffffffffffffffffffffffff1673ffffffffffffffffffffffffffffffffffffffff16815260200190815260200160002060009054906101000a900463ffffffff1663ffffffff16815481106116a7576116a66130ae565b5b90600052602060002090600402016040518060800160405290816000820180546116d090612d8d565b80601f01602080910402602001604051908101604052809291908181526020018280546116fc90612d8d565b80156117495780601f1061171e57610100808354040283529160200191611749565b820191906000526020600020905b81548152906001019060200180831161172c57829003601f168201915b50505050508152602001600182015481526020016002820154815260200160038201805461177690612d8d565b80601f01602080910402602001604051908101604052809291908181526020018280546117a290612d8d565b80156117ef5780601f106117c4576101008083540402835291602001916117ef565b820191906000526020600020905b8154815290600101906020018083116117d257829003601f168201915b505050505081525050905090565b600061181161180a611c22565b8484611df5565b6001905092915050565b606080611826610ea9565b80925081935050507ff008945aea4d8839b3b3925aab2cd4074e11704a44b721a6e0606bda7c7abfec338383604051611861939291906134a4565b60405180910390a161187283611878565b50505050565b60006001601060003373ffffffffffffffffffffffffffffffffffffffff1673ffffffffffffffffffffffffffffffffffffffff1681526020019081526020016000208363ffffffff16815481106118d3576118d26130ae565b5b90600052602060002090600891828204019190066004029054906101000a900463ffffffff1661190391906134e9565b601060003373ffffffffffffffffffffffffffffffffffffffff1673ffffffffffffffffffffffffffffffffffffffff1681526020019081526020016000208363ffffffff168154811061195a576119596130ae565b5b90600052602060002090600891828204019190066004026101000a81548163ffffffff021916908363ffffffff1602179055507f8eb7decf255003bd6a642be41fcea2b43d699bc543688768880b7847e3d5c680826040516119bc9190612a71565b60405180910390a16119d38263ffffffff166108d5565b5060019050919050565b60008033905060011515611a13600560009054906101000a900473ffffffffffffffffffffffffffffffffffffffff16856117fd565b151514611a1f57600080fd5b8073ffffffffffffffffffffffffffffffffffffffff166108fc849081150290604051600060405180830381858888f19350505050158015611a65573d6000803e3d6000fd5b507f94d0a8b0f912fb8e07f67cb42b315492f67e990cb9164d9bc3d01d8048999bb78184604051611a9792919061357c565b60405180910390a16001915050919050565b6000600160008473ffffffffffffffffffffffffffffffffffffffff1673ffffffffffffffffffffffffffffffffffffffff16815260200190815260200160002060008373ffffffffffffffffffffffffffffffffffffffff1673ffffffffffffffffffffffffffffffffffffffff16815260200190815260200160002054905092915050565b600080611b3b612348565b63ffffffff1611905090565b6000600860009054906101000a900463ffffffff16905090565b6060601060003373ffffffffffffffffffffffffffffffffffffffff1673ffffffffffffffffffffffffffffffffffffffff168152602001908152602001600020805480602002602001604051908101604052809291908181526020018280548015611c1857602002820191906000526020600020906000905b82829054906101000a900463ffffffff1663ffffffff1681526020019060040190602082600301049283019260010382029150808411611bdb5790505b5050505050905090565b600033905090565b600073ffffffffffffffffffffffffffffffffffffffff168373ffffffffffffffffffffffffffffffffffffffff161415611c9a576040517f08c379a0000000000000000000000000000000000000000000000000000000008152600401611c9190613617565b60405180910390fd5b600073ffffffffffffffffffffffffffffffffffffffff168273ffffffffffffffffffffffffffffffffffffffff161415611d0a576040517f08c379a0000000000000000000000000000000000000000000000000000000008152600401611d01906136a9565b60405180910390fd5b80600160008573ffffffffffffffffffffffffffffffffffffffff1673ffffffffffffffffffffffffffffffffffffffff16815260200190815260200160002060008473ffffffffffffffffffffffffffffffffffffffff1673ffffffffffffffffffffffffffffffffffffffff168152602001908152602001600020819055508173ffffffffffffffffffffffffffffffffffffffff168373ffffffffffffffffffffffffffffffffffffffff167f8c5be1e5ebec7d5bd14f71427d1e84f3dd0314c0f7b2291e5b200ac8c7c3b92583604051611de89190612796565b60405180910390a3505050565b600073ffffffffffffffffffffffffffffffffffffffff168373ffffffffffffffffffffffffffffffffffffffff161415611e65576040517f08c379a0000000000000000000000000000000000000000000000000000000008152600401611e5c9061373b565b60405180910390fd5b600073ffffffffffffffffffffffffffffffffffffffff168273ffffffffffffffffffffffffffffffffffffffff161415611ed5576040517f08c379a0000000000000000000000000000000000000000000000000000000008152600401611ecc906137cd565b60405180910390fd5b611ee083838361239f565b60008060008573ffffffffffffffffffffffffffffffffffffffff1673ffffffffffffffffffffffffffffffffffffffff16815260200190815260200160002054905081811015611f66576040517f08c379a0000000000000000000000000000000000000000000000000000000008152600401611f5d9061385f565b60405180910390fd5b8181036000808673ffffffffffffffffffffffffffffffffffffffff1673ffffffffffffffffffffffffffffffffffffffff16815260200190815260200160002081905550816000808573ffffffffffffffffffffffffffffffffffffffff1673ffffffffffffffffffffffffffffffffffffffff1681526020019081526020016000206000828254611ff99190613058565b925050819055508273ffffffffffffffffffffffffffffffffffffffff168473ffffffffffffffffffffffffffffffffffffffff167fddf252ad1be2c89b69c2b068fc378daa952ba7f163c4a11628f55a4df523b3ef8460405161205d9190612796565b60405180910390a36120708484846123a4565b50505050565b60006001600542600660008154809291906120909061387f565b91905055336040516020016120a793929190613931565b6040516020818303038152906040528051906020012060001c6120ca919061396e565b6120d49190613334565b905090565b6120e36000612179565b600f60003373ffffffffffffffffffffffffffffffffffffffff1673ffffffffffffffffffffffffffffffffffffffff16815260200190815260200160002060006101000a81548163ffffffff021916908363ffffffff1602179055507f67cb59078af551a61734a5ff2c80f77546caa28f5357c920d420eb3dac631c4f3360405161216f919061322f565b60405180910390a1565b6000808263ffffffff1614156121ec576001600342600e60008154809291906121a19061387f565b91905055336040516020016121b893929190613931565b6040516020818303038152906040528051906020012060001c6121db919061396e565b6121e5919061336c565b9050612343565b60018263ffffffff16141561225e576001600542600e60008154809291906122139061387f565b919050553360405160200161222a93929190613931565b6040516020818303038152906040528051906020012060001c61224d919061396e565b612257919061336c565b9050612343565b60028263ffffffff1614156122d0576001600742600e60008154809291906122859061387f565b919050553360405160200161229c93929190613931565b6040516020818303038152906040528051906020012060001c6122bf919061396e565b6122c9919061336c565b9050612343565b60038263ffffffff161415612342576003600542600e60008154809291906122f79061387f565b919050553360405160200161230e93929190613931565b6040516020818303038152906040528051906020012060001c612331919061396e565b61233b919061336c565b9050612343565b5b919050565b6000600c60003373ffffffffffffffffffffffffffffffffffffffff1673ffffffffffffffffffffffffffffffffffffffff16815260200190815260200160002060009054906101000a900463ffffffff16905090565b505050565b505050565b8280546123b590612d8d565b90600052602060002090601f0160209004810192826123d7576000855561241e565b82601f106123f057805160ff191683800117855561241e565b8280016001018555821561241e579182015b8281111561241d578251825591602001919060010190612402565b5b50905061242b9190612591565b5090565b82805461243b90612d8d565b90600052602060002090601f01602090048101928261245d57600085556124ab565b82601f1061246e57805485556124ab565b828001600101855582156124ab57600052602060002091601f016020900482015b828111156124aa57825482559160010191906001019061248f565b5b5090506124b89190612591565b5090565b828054828255906000526020600020906007016008900481019282156125585791602002820160005b8382111561252657835183826101000a81548163ffffffff021916908360ff16021790555092602001926004016020816003010492830192600103026124e5565b80156125565782816101000a81549063ffffffff0219169055600401602081600301049283019260010302612526565b505b5090506125659190612591565b5090565b6040518060800160405280606081526020016000815260200160008152602001606081525090565b5b808211156125aa576000816000905550600101612592565b5090565b600081519050919050565b600082825260208201905092915050565b60005b838110156125e85780820151818401526020810190506125cd565b838111156125f7576000848401525b50505050565b6000601f19601f8301169050919050565b6000612619826125ae565b61262381856125b9565b93506126338185602086016125ca565b61263c816125fd565b840191505092915050565b60006020820190508181036000830152612661818461260e565b905092915050565b6000604051905090565b600080fd5b600080fd5b600073ffffffffffffffffffffffffffffffffffffffff82169050919050565b60006126a88261267d565b9050919050565b6126b88161269d565b81146126c357600080fd5b50565b6000813590506126d5816126af565b92915050565b6000819050919050565b6126ee816126db565b81146126f957600080fd5b50565b60008135905061270b816126e5565b92915050565b6000806040838503121561272857612727612673565b5b6000612736858286016126c6565b9250506020612747858286016126fc565b9150509250929050565b60008115159050919050565b61276681612751565b82525050565b6000602082019050612781600083018461275d565b92915050565b612790816126db565b82525050565b60006020820190506127ab6000830184612787565b92915050565b6000806000606084860312156127ca576127c9612673565b5b60006127d8868287016126c6565b93505060206127e9868287016126c6565b92505060406127fa868287016126fc565b9150509250925092565b60006020828403121561281a57612819612673565b5b6000612828848285016126fc565b91505092915050565b600060ff82169050919050565b61284781612831565b82525050565b6000602082019050612862600083018461283e565b92915050565b600080fd5b600080fd5b7f4e487b7100000000000000000000000000000000000000000000000000000000600052604160045260246000fd5b6128aa826125fd565b810181811067ffffffffffffffff821117156128c9576128c8612872565b5b80604052505050565b60006128dc612669565b90506128e882826128a1565b919050565b600067ffffffffffffffff82111561290857612907612872565b5b612911826125fd565b9050602081019050919050565b82818337600083830152505050565b600061294061293b846128ed565b6128d2565b90508281526020810184848401111561295c5761295b61286d565b5b61296784828561291e565b509392505050565b600082601f83011261298457612983612868565b5b813561299484826020860161292d565b91505092915050565b6000602082840312156129b3576129b2612673565b5b600082013567ffffffffffffffff8111156129d1576129d0612678565b5b6129dd8482850161296f565b91505092915050565b600063ffffffff82169050919050565b6129ff816129e6565b8114612a0a57600080fd5b50565b600081359050612a1c816129f6565b92915050565b60008060408385031215612a3957612a38612673565b5b6000612a4785828601612a0d565b9250506020612a58858286016126fc565b9150509250929050565b612a6b816129e6565b82525050565b6000602082019050612a866000830184612a62565b92915050565b60006040820190508181036000830152612aa6818561260e565b90508181036020830152612aba818461260e565b90509392505050565b600060208284031215612ad957612ad8612673565b5b6000612ae7848285016126c6565b91505092915050565b600060208284031215612b0657612b05612673565b5b6000612b1484828501612a0d565b91505092915050565b6000612b288261267d565b9050919050565b612b3881612b1d565b82525050565b6000602082019050612b536000830184612b2f565b92915050565b600082825260208201905092915050565b6000612b75826125ae565b612b7f8185612b59565b9350612b8f8185602086016125ca565b612b98816125fd565b840191505092915050565b612bac816126db565b82525050565b60006080830160008301518482036000860152612bcf8282612b6a565b9150506020830151612be46020860182612ba3565b506040830151612bf76040860182612ba3565b5060608301518482036060860152612c0f8282612b6a565b9150508091505092915050565b60006020820190508181036000830152612c368184612bb2565b905092915050565b60008060408385031215612c5557612c54612673565b5b6000612c63858286016126c6565b9250506020612c74858286016126c6565b9150509250929050565b600081519050919050565b600082825260208201905092915050565b6000819050602082019050919050565b612cb3816129e6565b82525050565b6000612cc58383612caa565b60208301905092915050565b6000602082019050919050565b6000612ce982612c7e565b612cf38185612c89565b9350612cfe83612c9a565b8060005b83811015612d2f578151612d168882612cb9565b9750612d2183612cd1565b925050600181019050612d02565b5085935050505092915050565b60006020820190508181036000830152612d568184612cde565b905092915050565b7f4e487b7100000000000000000000000000000000000000000000000000000000600052602260045260246000fd5b60006002820490506001821680612da557607f821691505b60208210811415612db957612db8612d5e565b5b50919050565b7f45524332303a207472616e7366657220616d6f756e742065786365656473206160008201527f6c6c6f77616e6365000000000000000000000000000000000000000000000000602082015250565b6000612e1b6028836125b9565b9150612e2682612dbf565b604082019050919050565b60006020820190508181036000830152612e4a81612e0e565b9050919050565b7f4e487b7100000000000000000000000000000000000000000000000000000000600052601160045260246000fd5b60008160011c9050919050565b6000808291508390505b6001851115612ed757808604811115612eb357612eb2612e51565b5b6001851615612ec25780820291505b8081029050612ed085612e80565b9450612e97565b94509492505050565b600082612ef05760019050612fac565b81612efe5760009050612fac565b8160018114612f145760028114612f1e57612f4d565b6001915050612fac565b60ff841115612f3057612f2f612e51565b5b8360020a915084821115612f4757612f46612e51565b5b50612fac565b5060208310610133831016604e8410600b8410161715612f825782820a905083811115612f7d57612f7c612e51565b5b612fac565b612f8f8484846001612e8d565b92509050818404811115612fa657612fa5612e51565b5b81810290505b9392505050565b6000612fbe826126db565b9150612fc9836126db565b9250612ff67fffffffffffffffffffffffffffffffffffffffffffffffffffffffffffffffff8484612ee0565b905092915050565b6000613009826126db565b9150613014836126db565b9250817fffffffffffffffffffffffffffffffffffffffffffffffffffffffffffffffff048311821515161561304d5761304c612e51565b5b828202905092915050565b6000613063826126db565b915061306e836126db565b9250827fffffffffffffffffffffffffffffffffffffffffffffffffffffffffffffffff038211156130a3576130a2612e51565b5b828201905092915050565b7f4e487b7100000000000000000000000000000000000000000000000000000000600052603260045260246000fd5b60006130e8826129e6565b915063ffffffff8214156130ff576130fe612e51565b5b600182019050919050565b7f7465737400000000000000000000000000000000000000000000000000000000600082015250565b60006131406004836125b9565b915061314b8261310a565b602082019050919050565b60008190508160005260206000209050919050565b6000815461317881612d8d565b61318281866125b9565b9450600182166000811461319d57600181146131af576131e2565b60ff19831686526020860193506131e2565b6131b885613156565b60005b838110156131da578154818901526001820191506020810190506131bb565b808801955050505b50505092915050565b6000604082019050818103600083015261320481613133565b90508181036020830152613218818461316b565b905092915050565b6132298161269d565b82525050565b60006020820190506132446000830184613220565b92915050565b600060408201905061325f6000830185613220565b61326c6020830184612787565b9392505050565b600081905092915050565b6000613289826125ae565b6132938185613273565b93506132a38185602086016125ca565b80840191505092915050565b60006132bb828461327e565b915081905092915050565b600061ffff82169050919050565b7f4e487b7100000000000000000000000000000000000000000000000000000000600052601260045260246000fd5b600061330e826132c6565b9150613319836132c6565b925082613329576133286132d4565b5b828206905092915050565b600061333f826132c6565b915061334a836132c6565b92508261ffff0382111561336157613360612e51565b5b828201905092915050565b6000613377826129e6565b9150613382836129e6565b92508263ffffffff0382111561339b5761339a612e51565b5b828201905092915050565b7f45524332303a2064656372656173656420616c6c6f77616e63652062656c6f7760008201527f207a65726f000000000000000000000000000000000000000000000000000000602082015250565b60006134026025836125b9565b915061340d826133a6565b604082019050919050565b60006020820190508181036000830152613431816133f5565b9050919050565b7f7265676973746572206669727374000000000000000000000000000000000000600082015250565b600061346e600e836125b9565b915061347982613438565b602082019050919050565b6000602082019050818103600083015261349d81613461565b9050919050565b60006060820190506134b96000830186613220565b81810360208301526134cb818561260e565b905081810360408301526134df818461260e565b9050949350505050565b60006134f4826129e6565b91506134ff836129e6565b92508282101561351257613511612e51565b5b828203905092915050565b6000819050919050565b600061354261353d6135388461267d565b61351d565b61267d565b9050919050565b600061355482613527565b9050919050565b600061356682613549565b9050919050565b6135768161355b565b82525050565b6000604082019050613591600083018561356d565b61359e6020830184612787565b9392505050565b7f45524332303a20617070726f76652066726f6d20746865207a65726f2061646460008201527f7265737300000000000000000000000000000000000000000000000000000000602082015250565b60006136016024836125b9565b915061360c826135a5565b604082019050919050565b60006020820190508181036000830152613630816135f4565b9050919050565b7f45524332303a20617070726f766520746f20746865207a65726f20616464726560008201527f7373000000000000000000000000000000000000000000000000000000000000602082015250565b60006136936022836125b9565b915061369e82613637565b604082019050919050565b600060208201905081810360008301526136c281613686565b9050919050565b7f45524332303a207472616e736665722066726f6d20746865207a65726f20616460008201527f6472657373000000000000000000000000000000000000000000000000000000602082015250565b60006137256025836125b9565b9150613730826136c9565b604082019050919050565b6000602082019050818103600083015261375481613718565b9050919050565b7f45524332303a207472616e7366657220746f20746865207a65726f206164647260008201527f6573730000000000000000000000000000000000000000000000000000000000602082015250565b60006137b76023836125b9565b91506137c28261375b565b604082019050919050565b600060208201905081810360008301526137e6816137aa565b9050919050565b7f45524332303a207472616e7366657220616d6f756e742065786365656473206260008201527f616c616e63650000000000000000000000000000000000000000000000000000602082015250565b60006138496026836125b9565b9150613854826137ed565b604082019050919050565b600060208201905081810360008301526138788161383c565b9050919050565b600061388a826126db565b91507fffffffffffffffffffffffffffffffffffffffffffffffffffffffffffffffff8214156138bd576138bc612e51565b5b600182019050919050565b6000819050919050565b6138e36138de826126db565b6138c8565b82525050565b60008160601b9050919050565b6000613901826138e9565b9050919050565b6000613913826138f6565b9050919050565b61392b6139268261269d565b613908565b82525050565b600061393d82866138d2565b60208201915061394d82856138d2565b60208201915061395d828461391a565b601482019150819050949350505050565b6000613979826126db565b9150613984836126db565b925082613994576139936132d4565b5b82820690509291505056fea2646970667358221220020f8900be132a516b88630ce0afbd96c27dd5d3ef5f820ac7f923f1fbdaed5f64736f6c634300080b0033",
  "immutableReferences": {},
  "source": "// SPDX-License-Identifier: MIT\r\npragma solidity ^0.8.0;\r\npragma experimental ABIEncoderV2;\r\n\r\nimport \"./MyToken.sol\";\r\n\r\ncontract CatBase is MyToken{\r\n\r\n    event NewCat(string name, string kittyId);\r\n    event FeedCat(address feeder, string beforeId, string afterId);\r\n    \r\n    uint private randNonce = 0;\r\n    uint private coolDownTime = 1 minutes;\r\n    uint32 private catCounts = 0;\r\n    string[] private kittyIds = [\"0\", \"150593.svg\", \"232751.svg\", \"404726.svg\", \"462704.svg\", \"493816.svg\", \"166471.svg\", \r\n    \"145686.svg\", \"137853.svg\", \"117429.svg\", \"96197.svg\", \"1994121.png\", \"1993609.png\", \"2010551.png\", \"2004592.png\", \r\n    \"2010501.png\"];\r\n    uint256[] private kittyPrices = [0, 1, 2, 3, 4, 5, 6, 7, 8, 9, 10, 11, 12, 13, 14, 15];\r\n\r\n    struct Cat {\r\n        string name;\r\n        uint256 price;\r\n        uint256 coolDown;\r\n        string kittyId; //cryptokitty id\r\n    }\r\n\r\n    mapping(string => uint16) internal idToIndex;\r\n    mapping(address => uint32) internal ownerToCat; // in-contract id;\r\n    Cat[] internal cats;\r\n\r\n    constructor(string memory name, string memory symbol) MyToken(name, symbol){\r\n\r\n        for(uint16 i=1;i<=15;i++){\r\n            idToIndex[kittyIds[i]] = i;\r\n        }\r\n\r\n        cats.push(Cat(\"ERROR\", 0, block.timestamp, \"0\"));\r\n    }\r\n\r\n    function _makeRandom() internal returns(uint16){\r\n        return uint16(uint(keccak256(abi.encodePacked(block.timestamp, randNonce++, msg.sender))) % 5) + 1;\r\n    }\r\n\r\n    function _getMyCatIdx() internal view returns(uint32) {return ownerToCat[msg.sender];}\r\n\r\n\r\n    function registerCat(string memory catName) public {\r\n        require(ownerToCat[msg.sender] == 0);\r\n        uint16 random = _makeRandom();\r\n        cats.push(Cat(catName, kittyPrices[random], block.timestamp, kittyIds[random]));\r\n        ownerToCat[msg.sender] = ++catCounts;\r\n        emit NewCat(\"test\", kittyIds[random]);\r\n        \r\n        \r\n    }\r\n\r\n    function getCatCounts() public view returns(uint32) { return catCounts; }\r\n\r\n    function getMyCat() public view returns(Cat memory mycat){\r\n        require(ownerToCat[msg.sender] != 0, \"register first\");\r\n        mycat = cats[ownerToCat[msg.sender]];\r\n    }\r\n\r\n    function hasCat() public view returns(bool){\r\n         return _getMyCatIdx() > 0;\r\n    }\r\n\r\n\r\n    function updateKittyId() public returns(string memory beforeId, string memory afterId){\r\n\r\n        Cat storage cat = cats[_getMyCatIdx()];\r\n        beforeId = cat.kittyId;\r\n        uint16 idx = (idToIndex[beforeId])%15 + 1;\r\n        cat.kittyId = kittyIds[idx];\r\n        afterId = cat.kittyId;\r\n    }\r\n\r\n    function feed(uint32 fish) public{\r\n        string memory beforeId;\r\n        string memory afterId;\r\n        (beforeId, afterId) = updateKittyId();\r\n        emit FeedCat(msg.sender, beforeId, afterId);\r\n        deleteFish(fish);\r\n    }\r\n    //contract   \r\n  event NewRod(address fisher);\r\n  event BUY_ROD(address buyer, uint256 cost);\r\n\r\n  uint internal rand = 0;\r\n  \r\n  struct Rod {\r\n    uint32 rodGrade;\r\n    uint32 rodPrice;\r\n  }\r\n  function _makeRandom(uint32 index) internal returns(uint32){\r\n      if (index == 0) {\r\n        return uint32(uint(keccak256(abi.encodePacked(block.timestamp, rand++, msg.sender))) % 3) + 1;\r\n      } else if(index == 1) {\r\n        return uint32(uint(keccak256(abi.encodePacked(block.timestamp, rand++, msg.sender))) % 5) + 1;\r\n      } else if (index == 2) {\r\n        return uint32(uint(keccak256(abi.encodePacked(block.timestamp, rand++, msg.sender))) % 7) + 1;\r\n      } else if(index == 3) {\r\n        return uint32(uint(keccak256(abi.encodePacked(block.timestamp, rand++, msg.sender))) % 5) + 3;\r\n      }\r\n  }\r\n  //   \r\n  mapping (address => uint32) rodOwner;\r\n\r\n  \r\n  function _createRod() private {\r\n    rodOwner[msg.sender] = _makeRandom(0);\r\n    emit NewRod(msg.sender);\r\n  }\r\n\r\n  function getRod() public view returns(uint32 rod){\r\n    rod = rodOwner[msg.sender];\r\n  }\r\n\r\n  function newRod(uint32 probability, uint256 cost) public returns(uint32 rod) {\r\n    require(useSSC(cost) == true);\r\n\r\n    if (rodOwner[msg.sender] == 0) {\r\n      _createRod();\r\n    } else {\r\n      emit NewRod(msg.sender);\r\n      rodOwner[msg.sender] = _makeRandom(probability);\r\n      rod = rodOwner[msg.sender];\r\n    }\r\n\r\n    emit BUY_ROD(msg.sender, cost);\r\n  }\r\n  //Fish Contract \r\n  event NewFish(uint32 fish);\r\n  event DeleteFish(uint32 fish);\r\n  \r\n  mapping (address => uint32[]) fishList;\r\n\r\n  function getFish() public view returns(uint32[] memory fish) {\r\n    fish = fishList[msg.sender];\r\n  }\r\n\r\n  function newFish(uint32 newFish) public returns(uint32) {\r\n    if (fishList[msg.sender].length == 0) {\r\n      fishList[msg.sender] = [0,0,0,0,0,0];\r\n    }\r\n    uint32 tmpFish = newFish;\r\n    fishList[msg.sender][tmpFish] = fishList[msg.sender][tmpFish]+1;\r\n    emit NewFish(tmpFish);\r\n    return tmpFish;\r\n  }\r\n\r\n  function deleteFish(uint32 index) public returns(bool success) {\r\n    fishList[msg.sender][index] = fishList[msg.sender][index] - 1;\r\n    emit DeleteFish(index);\r\n    getSSC(index);\r\n    return true;\r\n  }\r\n}",
  "sourcePath": "C:\\Users\\jhl81\\OneDrive\\project_2-2\\test\\madcamp-pj3\\contracts\\CatBase.sol",
  "compiler": {
    "name": "solc",
    "version": "0.8.11+commit.d7f03943.Emscripten.clang"
  },
  "schemaVersion": "3.4.4",
  "updatedAt": "2022-01-18T07:42:33.387Z",
  "networkType": "ethereum",
  "devdoc": {
    "kind": "dev",
    "methods": {
      "allowance(address,address)": {
        "details": "See {IERC20-allowance}."
      },
      "approve(address,uint256)": {
        "details": "See {IERC20-approve}. Requirements: - `spender` cannot be the zero address."
      },
      "balanceOf(address)": {
        "details": "See {IERC20-balanceOf}."
      },
      "decimals()": {
        "details": "Returns the number of decimals used to get its user representation. For example, if `decimals` equals `2`, a balance of `505` tokens should be displayed to a user as `5.05` (`505 / 10 ** 2`). Tokens usually opt for a value of 18, imitating the relationship between Ether and Wei. This is the value {ERC20} uses, unless this function is overridden; NOTE: This information is only used for _display_ purposes: it in no way affects any of the arithmetic of the contract, including {IERC20-balanceOf} and {IERC20-transfer}."
      },
      "decreaseAllowance(address,uint256)": {
        "details": "Atomically decreases the allowance granted to `spender` by the caller. This is an alternative to {approve} that can be used as a mitigation for problems described in {IERC20-approve}. Emits an {Approval} event indicating the updated allowance. Requirements: - `spender` cannot be the zero address. - `spender` must have allowance for the caller of at least `subtractedValue`."
      },
      "increaseAllowance(address,uint256)": {
        "details": "Atomically increases the allowance granted to `spender` by the caller. This is an alternative to {approve} that can be used as a mitigation for problems described in {IERC20-approve}. Emits an {Approval} event indicating the updated allowance. Requirements: - `spender` cannot be the zero address."
      },
      "name()": {
        "details": "Returns the name of the token."
      },
      "symbol()": {
        "details": "Returns the symbol of the token, usually a shorter version of the name."
      },
      "totalSupply()": {
        "details": "See {IERC20-totalSupply}."
      },
      "transfer(address,uint256)": {
        "details": "See {IERC20-transfer}. Requirements: - `recipient` cannot be the zero address. - the caller must have a balance of at least `amount`."
      },
      "transferFrom(address,address,uint256)": {
        "details": "See {IERC20-transferFrom}. Emits an {Approval} event indicating the updated allowance. This is not required by the EIP. See the note at the beginning of {ERC20}. Requirements: - `sender` and `recipient` cannot be the zero address. - `sender` must have a balance of at least `amount`. - the caller must have allowance for ``sender``'s tokens of at least `amount`."
      }
    },
    "version": 1
  },
  "userdoc": {
    "kind": "user",
    "methods": {},
    "version": 1
  }
}