{
  "contractName": "CatBase",
  "abi": [
    {
      "inputs": [
        {
          "internalType": "string",
          "name": "name",
          "type": "string"
        },
        {
          "internalType": "string",
          "name": "symbol",
          "type": "string"
        }
      ],
      "stateMutability": "nonpayable",
      "type": "constructor"
    },
    {
      "anonymous": false,
      "inputs": [
        {
          "indexed": true,
          "internalType": "address",
          "name": "owner",
          "type": "address"
        },
        {
          "indexed": true,
          "internalType": "address",
          "name": "spender",
          "type": "address"
        },
        {
          "indexed": false,
          "internalType": "uint256",
          "name": "value",
          "type": "uint256"
        }
      ],
      "name": "Approval",
      "type": "event"
    },
    {
      "anonymous": false,
      "inputs": [
        {
          "indexed": false,
          "internalType": "address",
          "name": "buyer",
          "type": "address"
        },
        {
          "indexed": false,
          "internalType": "uint256",
          "name": "cost",
          "type": "uint256"
        }
      ],
      "name": "BUY_ROD",
      "type": "event"
    },
    {
      "anonymous": false,
      "inputs": [
        {
          "indexed": false,
          "internalType": "address",
          "name": "requester",
          "type": "address"
        },
        {
          "indexed": false,
          "internalType": "uint256",
          "name": "value",
          "type": "uint256"
        }
      ],
      "name": "EXCHANGE_ETH_TO_SCC",
      "type": "event"
    },
    {
      "anonymous": false,
      "inputs": [
        {
          "indexed": false,
          "internalType": "address",
          "name": "requester",
          "type": "address"
        },
        {
          "indexed": false,
          "internalType": "uint256",
          "name": "value",
          "type": "uint256"
        }
      ],
      "name": "EXCHANGE_SCC_TO_ETH",
      "type": "event"
    },
    {
      "anonymous": false,
      "inputs": [
        {
          "indexed": false,
          "internalType": "address",
          "name": "feeder",
          "type": "address"
        },
        {
          "indexed": false,
          "internalType": "uint32",
          "name": "beforeId",
          "type": "uint32"
        },
        {
          "indexed": false,
          "internalType": "uint32",
          "name": "afterId",
          "type": "uint32"
        }
      ],
      "name": "FeedCat",
      "type": "event"
    },
    {
      "anonymous": false,
      "inputs": [
        {
          "indexed": false,
          "internalType": "string",
          "name": "name",
          "type": "string"
        },
        {
          "indexed": false,
          "internalType": "uint32",
          "name": "kittyId",
          "type": "uint32"
        }
      ],
      "name": "NewCat",
      "type": "event"
    },
    {
      "anonymous": false,
      "inputs": [
        {
          "indexed": false,
          "internalType": "address",
          "name": "fisher",
          "type": "address"
        }
      ],
      "name": "NewRod",
      "type": "event"
    },
    {
      "anonymous": false,
      "inputs": [
        {
          "indexed": true,
          "internalType": "address",
          "name": "from",
          "type": "address"
        },
        {
          "indexed": true,
          "internalType": "address",
          "name": "to",
          "type": "address"
        },
        {
          "indexed": false,
          "internalType": "uint256",
          "name": "value",
          "type": "uint256"
        }
      ],
      "name": "Transfer",
      "type": "event"
    },
    {
      "inputs": [
        {
          "internalType": "uint256",
          "name": "value",
          "type": "uint256"
        }
      ],
      "name": "SSCtoEth",
      "outputs": [
        {
          "internalType": "bool",
          "name": "",
          "type": "bool"
        }
      ],
      "stateMutability": "payable",
      "type": "function",
      "payable": true
    },
    {
      "inputs": [
        {
          "internalType": "address",
          "name": "owner",
          "type": "address"
        },
        {
          "internalType": "address",
          "name": "spender",
          "type": "address"
        }
      ],
      "name": "allowance",
      "outputs": [
        {
          "internalType": "uint256",
          "name": "",
          "type": "uint256"
        }
      ],
      "stateMutability": "view",
      "type": "function",
      "constant": true
    },
    {
      "inputs": [
        {
          "internalType": "address",
          "name": "spender",
          "type": "address"
        },
        {
          "internalType": "uint256",
          "name": "amount",
          "type": "uint256"
        }
      ],
      "name": "approve",
      "outputs": [
        {
          "internalType": "bool",
          "name": "",
          "type": "bool"
        }
      ],
      "stateMutability": "nonpayable",
      "type": "function"
    },
    {
      "inputs": [
        {
          "internalType": "address",
          "name": "account",
          "type": "address"
        }
      ],
      "name": "balanceOf",
      "outputs": [
        {
          "internalType": "uint256",
          "name": "",
          "type": "uint256"
        }
      ],
      "stateMutability": "view",
      "type": "function",
      "constant": true
    },
    {
      "inputs": [],
      "name": "decimals",
      "outputs": [
        {
          "internalType": "uint8",
          "name": "",
          "type": "uint8"
        }
      ],
      "stateMutability": "view",
      "type": "function",
      "constant": true
    },
    {
      "inputs": [
        {
          "internalType": "address",
          "name": "spender",
          "type": "address"
        },
        {
          "internalType": "uint256",
          "name": "subtractedValue",
          "type": "uint256"
        }
      ],
      "name": "decreaseAllowance",
      "outputs": [
        {
          "internalType": "bool",
          "name": "",
          "type": "bool"
        }
      ],
      "stateMutability": "nonpayable",
      "type": "function"
    },
    {
      "inputs": [],
      "name": "ethToSSC",
      "outputs": [
        {
          "internalType": "bool",
          "name": "",
          "type": "bool"
        }
      ],
      "stateMutability": "payable",
      "type": "function",
      "payable": true
    },
    {
      "inputs": [],
      "name": "getOwner",
      "outputs": [
        {
          "internalType": "address payable",
          "name": "",
          "type": "address"
        }
      ],
      "stateMutability": "view",
      "type": "function",
      "constant": true
    },
    {
      "inputs": [
        {
          "internalType": "address",
          "name": "spender",
          "type": "address"
        },
        {
          "internalType": "uint256",
          "name": "addedValue",
          "type": "uint256"
        }
      ],
      "name": "increaseAllowance",
      "outputs": [
        {
          "internalType": "bool",
          "name": "",
          "type": "bool"
        }
      ],
      "stateMutability": "nonpayable",
      "type": "function"
    },
    {
      "inputs": [],
      "name": "name",
      "outputs": [
        {
          "internalType": "string",
          "name": "",
          "type": "string"
        }
      ],
      "stateMutability": "view",
      "type": "function",
      "constant": true
    },
    {
      "inputs": [],
      "name": "owner",
      "outputs": [
        {
          "internalType": "address payable",
          "name": "",
          "type": "address"
        }
      ],
      "stateMutability": "view",
      "type": "function",
      "constant": true
    },
    {
      "inputs": [],
      "name": "symbol",
      "outputs": [
        {
          "internalType": "string",
          "name": "",
          "type": "string"
        }
      ],
      "stateMutability": "view",
      "type": "function",
      "constant": true
    },
    {
      "inputs": [],
      "name": "totalSupply",
      "outputs": [
        {
          "internalType": "uint256",
          "name": "",
          "type": "uint256"
        }
      ],
      "stateMutability": "view",
      "type": "function",
      "constant": true
    },
    {
      "inputs": [
        {
          "internalType": "address",
          "name": "recipient",
          "type": "address"
        },
        {
          "internalType": "uint256",
          "name": "amount",
          "type": "uint256"
        }
      ],
      "name": "transfer",
      "outputs": [
        {
          "internalType": "bool",
          "name": "",
          "type": "bool"
        }
      ],
      "stateMutability": "nonpayable",
      "type": "function"
    },
    {
      "inputs": [
        {
          "internalType": "address",
          "name": "sender",
          "type": "address"
        },
        {
          "internalType": "address",
          "name": "recipient",
          "type": "address"
        },
        {
          "internalType": "uint256",
          "name": "amount",
          "type": "uint256"
        }
      ],
      "name": "transferFrom",
      "outputs": [
        {
          "internalType": "bool",
          "name": "",
          "type": "bool"
        }
      ],
      "stateMutability": "nonpayable",
      "type": "function"
    },
    {
      "inputs": [
        {
          "internalType": "uint256",
          "name": "value",
          "type": "uint256"
        }
      ],
      "name": "useSSC",
      "outputs": [
        {
          "internalType": "bool",
          "name": "",
          "type": "bool"
        }
      ],
      "stateMutability": "payable",
      "type": "function",
      "payable": true
    },
    {
      "inputs": [],
      "name": "registerCat",
      "outputs": [],
      "stateMutability": "nonpayable",
      "type": "function"
    },
    {
      "inputs": [],
      "name": "getCatCounts",
      "outputs": [
        {
          "internalType": "uint32",
          "name": "",
          "type": "uint32"
        }
      ],
      "stateMutability": "view",
      "type": "function",
      "constant": true
    },
    {
      "inputs": [],
      "name": "getMyCat",
      "outputs": [
        {
          "components": [
            {
              "internalType": "string",
              "name": "name",
              "type": "string"
            },
            {
              "internalType": "uint256",
              "name": "price",
              "type": "uint256"
            },
            {
              "internalType": "uint256",
              "name": "coolDown",
              "type": "uint256"
            },
            {
              "internalType": "uint32",
              "name": "kittyId",
              "type": "uint32"
            }
          ],
          "internalType": "struct CatBase.Cat",
          "name": "mycat",
          "type": "tuple"
        }
      ],
      "stateMutability": "view",
      "type": "function",
      "constant": true
    },
    {
      "inputs": [],
      "name": "hasCat",
      "outputs": [
        {
          "internalType": "bool",
          "name": "",
          "type": "bool"
        }
      ],
      "stateMutability": "view",
      "type": "function",
      "constant": true
    },
    {
      "inputs": [],
      "name": "feed",
      "outputs": [],
      "stateMutability": "nonpayable",
      "type": "function"
    },
    {
      "inputs": [],
      "name": "getRod",
      "outputs": [
        {
          "internalType": "uint32",
          "name": "rod",
          "type": "uint32"
        }
      ],
      "stateMutability": "view",
      "type": "function",
      "constant": true
    },
    {
      "inputs": [
        {
          "internalType": "uint32",
          "name": "probability",
          "type": "uint32"
        },
        {
          "internalType": "uint256",
          "name": "cost",
          "type": "uint256"
        }
      ],
      "name": "newRod",
      "outputs": [
        {
          "internalType": "uint32",
          "name": "rod",
          "type": "uint32"
        }
      ],
      "stateMutability": "nonpayable",
      "type": "function"
    }
  ],
  "bytecode": "0x60806040526000600655603c6007556000600860006101000a81548163ffffffff021916908363ffffffff1602179055506040518060c00160405280600062ffffff16815260200162024c4162ffffff16815260200162038d2f62ffffff16815260200162062cf662ffffff16815260200162070f7062ffffff168152602001620788f862ffffff1681525060099060066200009d9291906200052a565b506040518060c00160405280600060ff168152602001600160ff168152602001600260ff168152602001600360ff168152602001600460ff168152602001600560ff16815250600a906006620000f5929190620005e0565b506000600e553480156200010857600080fd5b50604051620037ed380380620037ed83398181016040528101906200012e919062000884565b8181818181600390805190602001906200014a92919062000637565b5080600490805190602001906200016392919062000637565b50505033600560006101000a81548173ffffffffffffffffffffffffffffffffffffffff021916908373ffffffffffffffffffffffffffffffffffffffff1602179055506200020a600560009054906101000a900473ffffffffffffffffffffffffffffffffffffffff16620001de6200039e60201b60201c565b60ff16600a620001ef919062000a96565b6103e8620001fe919062000ae7565b620003a760201b60201c565b50506000600190505b60058161ffff1611620002b05780600b600060098461ffff168154811062000240576200023f62000b48565b5b90600052602060002090600891828204019190066004029054906101000a900463ffffffff1663ffffffff1663ffffffff16815260200190815260200160002060006101000a81548161ffff021916908361ffff1602179055508080620002a79062000b85565b91505062000213565b50600d60405180608001604052806040518060400160405280600581526020017f4552524f52000000000000000000000000000000000000000000000000000000815250815260200160008152602001428152602001600063ffffffff16815250908060018154018082558091505060019003906000526020600020906004020160009091909190915060008201518160000190805190602001906200035892919062000637565b50602082015181600101556040820151816002015560608201518160030160006101000a81548163ffffffff021916908363ffffffff1602179055505050505062000d28565b60006012905090565b600073ffffffffffffffffffffffffffffffffffffffff168273ffffffffffffffffffffffffffffffffffffffff1614156200041a576040517f08c379a0000000000000000000000000000000000000000000000000000000008152600401620004119062000c16565b60405180910390fd5b6200042e600083836200052060201b60201c565b806002600082825462000442919062000c38565b92505081905550806000808473ffffffffffffffffffffffffffffffffffffffff1673ffffffffffffffffffffffffffffffffffffffff168152602001908152602001600020600082825462000499919062000c38565b925050819055508173ffffffffffffffffffffffffffffffffffffffff16600073ffffffffffffffffffffffffffffffffffffffff167fddf252ad1be2c89b69c2b068fc378daa952ba7f163c4a11628f55a4df523b3ef8360405162000500919062000ca6565b60405180910390a36200051c600083836200052560201b60201c565b5050565b505050565b505050565b82805482825590600052602060002090600701600890048101928215620005cd5791602002820160005b838211156200059957835183826101000a81548163ffffffff021916908362ffffff160217905550926020019260040160208160030104928301926001030262000554565b8015620005cb5782816101000a81549063ffffffff021916905560040160208160030104928301926001030262000599565b505b509050620005dc9190620006c8565b5090565b82805482825590600052602060002090810192821562000624579160200282015b8281111562000623578251829060ff1690559160200191906001019062000601565b5b509050620006339190620006c8565b5090565b828054620006459062000cf2565b90600052602060002090601f016020900481019282620006695760008555620006b5565b82601f106200068457805160ff1916838001178555620006b5565b82800160010185558215620006b5579182015b82811115620006b457825182559160200191906001019062000697565b5b509050620006c49190620006c8565b5090565b5b80821115620006e3576000816000905550600101620006c9565b5090565b6000604051905090565b600080fd5b600080fd5b600080fd5b600080fd5b6000601f19601f8301169050919050565b7f4e487b7100000000000000000000000000000000000000000000000000000000600052604160045260246000fd5b620007508262000705565b810181811067ffffffffffffffff8211171562000772576200077162000716565b5b80604052505050565b600062000787620006e7565b905062000795828262000745565b919050565b600067ffffffffffffffff821115620007b857620007b762000716565b5b620007c38262000705565b9050602081019050919050565b60005b83811015620007f0578082015181840152602081019050620007d3565b8381111562000800576000848401525b50505050565b60006200081d62000817846200079a565b6200077b565b9050828152602081018484840111156200083c576200083b62000700565b5b62000849848285620007d0565b509392505050565b600082601f830112620008695762000868620006fb565b5b81516200087b84826020860162000806565b91505092915050565b600080604083850312156200089e576200089d620006f1565b5b600083015167ffffffffffffffff811115620008bf57620008be620006f6565b5b620008cd8582860162000851565b925050602083015167ffffffffffffffff811115620008f157620008f0620006f6565b5b620008ff8582860162000851565b9150509250929050565b7f4e487b7100000000000000000000000000000000000000000000000000000000600052601160045260246000fd5b60008160011c9050919050565b6000808291508390505b600185111562000997578086048111156200096f576200096e62000909565b5b60018516156200097f5780820291505b80810290506200098f8562000938565b94506200094f565b94509492505050565b600082620009b2576001905062000a85565b81620009c2576000905062000a85565b8160018114620009db5760028114620009e65762000a1c565b600191505062000a85565b60ff841115620009fb57620009fa62000909565b5b8360020a91508482111562000a155762000a1462000909565b5b5062000a85565b5060208310610133831016604e8410600b841016171562000a565782820a90508381111562000a505762000a4f62000909565b5b62000a85565b62000a65848484600162000945565b9250905081840481111562000a7f5762000a7e62000909565b5b81810290505b9392505050565b6000819050919050565b600062000aa38262000a8c565b915062000ab08362000a8c565b925062000adf7fffffffffffffffffffffffffffffffffffffffffffffffffffffffffffffffff8484620009a0565b905092915050565b600062000af48262000a8c565b915062000b018362000a8c565b9250817fffffffffffffffffffffffffffffffffffffffffffffffffffffffffffffffff048311821515161562000b3d5762000b3c62000909565b5b828202905092915050565b7f4e487b7100000000000000000000000000000000000000000000000000000000600052603260045260246000fd5b600061ffff82169050919050565b600062000b928262000b77565b915061ffff82141562000baa5762000ba962000909565b5b600182019050919050565b600082825260208201905092915050565b7f45524332303a206d696e7420746f20746865207a65726f206164647265737300600082015250565b600062000bfe601f8362000bb5565b915062000c0b8262000bc6565b602082019050919050565b6000602082019050818103600083015262000c318162000bef565b9050919050565b600062000c458262000a8c565b915062000c528362000a8c565b9250827fffffffffffffffffffffffffffffffffffffffffffffffffffffffffffffffff0382111562000c8a5762000c8962000909565b5b828201905092915050565b62000ca08162000a8c565b82525050565b600060208201905062000cbd600083018462000c95565b92915050565b7f4e487b7100000000000000000000000000000000000000000000000000000000600052602260045260246000fd5b6000600282049050600182168062000d0b57607f821691505b6020821081141562000d225762000d2162000cc3565b5b50919050565b612ab58062000d386000396000f3fe6080604052600436106101405760003560e01c806370a08231116100b6578063a87e8aad1161006f578063a87e8aad1461045c578063a9059cbb14610487578063cf1ecc12146104c4578063dd62ed3e146104f4578063f9351a6214610531578063fe2ca31a1461055c57610140565b806370a0823114610343578063893d20e8146103805780638da5cb5b146103ab57806395d89b41146103d65780639f800a5f14610401578063a457c2d71461041f57610140565b806337a7b7d81161010857806337a7b7d814610240578063395093511461025757806346218cf51461029457806347e7f86e146102ab57806349f062af146102e85780636bed25881461031857610140565b806306fdde0314610145578063095ea7b31461017057806318160ddd146101ad57806323b872dd146101d8578063313ce56714610215575b600080fd5b34801561015157600080fd5b5061015a610587565b6040516101679190611d2a565b60405180910390f35b34801561017c57600080fd5b5061019760048036038101906101929190611de5565b610619565b6040516101a49190611e40565b60405180910390f35b3480156101b957600080fd5b506101c2610637565b6040516101cf9190611e6a565b60405180910390f35b3480156101e457600080fd5b506101ff60048036038101906101fa9190611e85565b610641565b60405161020c9190611e40565b60405180910390f35b34801561022157600080fd5b5061022a610739565b6040516102379190611ef4565b60405180910390f35b34801561024c57600080fd5b50610255610742565b005b34801561026357600080fd5b5061027e60048036038101906102799190611de5565b61079c565b60405161028b9190611e40565b60405180910390f35b3480156102a057600080fd5b506102a9610848565b005b3480156102b757600080fd5b506102d260048036038101906102cd9190611f4b565b610b02565b6040516102df9190611f9a565b60405180910390f35b61030260048036038101906102fd9190611fb5565b610cb7565b60405161030f9190611e40565b60405180910390f35b34801561032457600080fd5b5061032d610cfe565b60405161033a9190611f9a565b60405180910390f35b34801561034f57600080fd5b5061036a60048036038101906103659190611fe2565b610d55565b6040516103779190611e6a565b60405180910390f35b34801561038c57600080fd5b50610395610d9d565b6040516103a29190612030565b60405180910390f35b3480156103b757600080fd5b506103c0610dc7565b6040516103cd9190612030565b60405180910390f35b3480156103e257600080fd5b506103eb610ded565b6040516103f89190611d2a565b60405180910390f35b610409610e7f565b6040516104169190611e40565b60405180910390f35b34801561042b57600080fd5b5061044660048036038101906104419190611de5565b610eee565b6040516104539190611e40565b60405180910390f35b34801561046857600080fd5b50610471610fd9565b60405161047e9190612116565b60405180910390f35b34801561049357600080fd5b506104ae60048036038101906104a99190611de5565b6111cd565b6040516104bb9190611e40565b60405180910390f35b6104de60048036038101906104d99190611fb5565b6111eb565b6040516104eb9190611e40565b60405180910390f35b34801561050057600080fd5b5061051b60048036038101906105169190612138565b6112b7565b6040516105289190611e6a565b60405180910390f35b34801561053d57600080fd5b5061054661133e565b6040516105539190611e40565b60405180910390f35b34801561056857600080fd5b50610571611355565b60405161057e9190611f9a565b60405180910390f35b606060038054610596906121a7565b80601f01602080910402602001604051908101604052809291908181526020018280546105c2906121a7565b801561060f5780601f106105e45761010080835404028352916020019161060f565b820191906000526020600020905b8154815290600101906020018083116105f257829003601f168201915b5050505050905090565b600061062d61062661136f565b8484611377565b6001905092915050565b6000600254905090565b600061064e848484611542565b6000600160008673ffffffffffffffffffffffffffffffffffffffff1673ffffffffffffffffffffffffffffffffffffffff168152602001908152602001600020600061069961136f565b73ffffffffffffffffffffffffffffffffffffffff1673ffffffffffffffffffffffffffffffffffffffff16815260200190815260200160002054905082811015610719576040517f08c379a00000000000000000000000000000000000000000000000000000000081526004016107109061224b565b60405180910390fd5b61072d8561072561136f565b858403611377565b60019150509392505050565b60006012905090565b6000806107556107506117c3565b611826565b80925081935050507fb3ebc34654d765aa954722791d0d86612cfe8e591240fdececdf3ca8af8690063383836040516107909392919061227a565b60405180910390a15050565b600061083e6107a961136f565b8484600160006107b761136f565b73ffffffffffffffffffffffffffffffffffffffff1673ffffffffffffffffffffffffffffffffffffffff16815260200190815260200160002060008873ffffffffffffffffffffffffffffffffffffffff1673ffffffffffffffffffffffffffffffffffffffff1681526020019081526020016000205461083991906122e0565b611377565b6001905092915050565b6000600c60003373ffffffffffffffffffffffffffffffffffffffff1673ffffffffffffffffffffffffffffffffffffffff16815260200190815260200160002060009054906101000a900463ffffffff1663ffffffff161415610b005760006108b06117c3565b9050600d60405180608001604052806040518060400160405280600481526020017f74657374000000000000000000000000000000000000000000000000000000008152508152602001600a8461ffff168154811061091257610911612336565b5b9060005260206000200154815260200142815260200160098461ffff16815481106109405761093f612336565b5b90600052602060002090600891828204019190066004029054906101000a900463ffffffff1663ffffffff16815250908060018154018082558091505060019003906000526020600020906004020160009091909190915060008201518160000190805190602001906109b4929190611bc0565b50602082015181600101556040820151816002015560608201518160030160006101000a81548163ffffffff021916908363ffffffff16021790555050506008600081819054906101000a900463ffffffff16610a1090612365565b91906101000a81548163ffffffff021916908363ffffffff1602179055600c60003373ffffffffffffffffffffffffffffffffffffffff1673ffffffffffffffffffffffffffffffffffffffff16815260200190815260200160002060006101000a81548163ffffffff021916908363ffffffff1602179055507f68b16d148ac718df46372e610f4807c5a5864bf28e84cab1e960120bc463077560098261ffff1681548110610ac357610ac2612336565b5b90600052602060002090600891828204019190066004029054906101000a900463ffffffff16604051610af691906123de565b60405180910390a1505b565b600060011515610b1183610cb7565b151514610b1d57600080fd5b6000600f60003373ffffffffffffffffffffffffffffffffffffffff1673ffffffffffffffffffffffffffffffffffffffff16815260200190815260200160002060009054906101000a900463ffffffff1663ffffffff161415610b8857610b836118f0565b610c78565b7f67cb59078af551a61734a5ff2c80f77546caa28f5357c920d420eb3dac631c4f33604051610bb7919061240c565b60405180910390a1610bc883611990565b600f60003373ffffffffffffffffffffffffffffffffffffffff1673ffffffffffffffffffffffffffffffffffffffff16815260200190815260200160002060006101000a81548163ffffffff021916908363ffffffff160217905550600f60003373ffffffffffffffffffffffffffffffffffffffff1673ffffffffffffffffffffffffffffffffffffffff16815260200190815260200160002060009054906101000a900463ffffffff1690505b7f8d0f0378a9bbbcbac4ac59df3049d805d00355aaedd51035e7f1f59cc49a46bf3383604051610ca9929190612427565b60405180910390a192915050565b600060011515610ce9600560009054906101000a900473ffffffffffffffffffffffffffffffffffffffff16846111cd565b151514610cf557600080fd5b60019050919050565b6000600f60003373ffffffffffffffffffffffffffffffffffffffff1673ffffffffffffffffffffffffffffffffffffffff16815260200190815260200160002060009054906101000a900463ffffffff16905090565b60008060008373ffffffffffffffffffffffffffffffffffffffff1673ffffffffffffffffffffffffffffffffffffffff168152602001908152602001600020549050919050565b6000600560009054906101000a900473ffffffffffffffffffffffffffffffffffffffff16905090565b600560009054906101000a900473ffffffffffffffffffffffffffffffffffffffff1681565b606060048054610dfc906121a7565b80601f0160208091040260200160405190810160405280929190818152602001828054610e28906121a7565b8015610e755780601f10610e4a57610100808354040283529160200191610e75565b820191906000526020600020905b815481529060010190602001808311610e5857829003601f168201915b5050505050905090565b6000610eae600560009054906101000a900473ffffffffffffffffffffffffffffffffffffffff163334611542565b7f71217b0ac6661ea270eb8b6cbcaee0e9a1959b2d504fdf83b0deedc472456d863334604051610edf929190612427565b60405180910390a16001905090565b60008060016000610efd61136f565b73ffffffffffffffffffffffffffffffffffffffff1673ffffffffffffffffffffffffffffffffffffffff16815260200190815260200160002060008573ffffffffffffffffffffffffffffffffffffffff1673ffffffffffffffffffffffffffffffffffffffff16815260200190815260200160002054905082811015610fba576040517f08c379a0000000000000000000000000000000000000000000000000000000008152600401610fb1906124c2565b60405180910390fd5b610fce610fc561136f565b85858403611377565b600191505092915050565b610fe1611c46565b6000600c60003373ffffffffffffffffffffffffffffffffffffffff1673ffffffffffffffffffffffffffffffffffffffff16815260200190815260200160002060009054906101000a900463ffffffff1663ffffffff16141561107a576040517f08c379a00000000000000000000000000000000000000000000000000000000081526004016110719061252e565b60405180910390fd5b600d600c60003373ffffffffffffffffffffffffffffffffffffffff1673ffffffffffffffffffffffffffffffffffffffff16815260200190815260200160002060009054906101000a900463ffffffff1663ffffffff16815481106110e3576110e2612336565b5b906000526020600020906004020160405180608001604052908160008201805461110c906121a7565b80601f0160208091040260200160405190810160405280929190818152602001828054611138906121a7565b80156111855780601f1061115a57610100808354040283529160200191611185565b820191906000526020600020905b81548152906001019060200180831161116857829003601f168201915b5050505050815260200160018201548152602001600282015481526020016003820160009054906101000a900463ffffffff1663ffffffff1663ffffffff1681525050905090565b60006111e16111da61136f565b8484611542565b6001905092915050565b60008033905060011515611221600560009054906101000a900473ffffffffffffffffffffffffffffffffffffffff16856111cd565b15151461122d57600080fd5b8073ffffffffffffffffffffffffffffffffffffffff166108fc849081150290604051600060405180830381858888f19350505050158015611273573d6000803e3d6000fd5b507f94d0a8b0f912fb8e07f67cb42b315492f67e990cb9164d9bc3d01d8048999bb781846040516112a59291906125ad565b60405180910390a16001915050919050565b6000600160008473ffffffffffffffffffffffffffffffffffffffff1673ffffffffffffffffffffffffffffffffffffffff16815260200190815260200160002060008373ffffffffffffffffffffffffffffffffffffffff1673ffffffffffffffffffffffffffffffffffffffff16815260200190815260200160002054905092915050565b600080611349611b5f565b63ffffffff1611905090565b6000600860009054906101000a900463ffffffff16905090565b600033905090565b600073ffffffffffffffffffffffffffffffffffffffff168373ffffffffffffffffffffffffffffffffffffffff1614156113e7576040517f08c379a00000000000000000000000000000000000000000000000000000000081526004016113de90612648565b60405180910390fd5b600073ffffffffffffffffffffffffffffffffffffffff168273ffffffffffffffffffffffffffffffffffffffff161415611457576040517f08c379a000000000000000000000000000000000000000000000000000000000815260040161144e906126da565b60405180910390fd5b80600160008573ffffffffffffffffffffffffffffffffffffffff1673ffffffffffffffffffffffffffffffffffffffff16815260200190815260200160002060008473ffffffffffffffffffffffffffffffffffffffff1673ffffffffffffffffffffffffffffffffffffffff168152602001908152602001600020819055508173ffffffffffffffffffffffffffffffffffffffff168373ffffffffffffffffffffffffffffffffffffffff167f8c5be1e5ebec7d5bd14f71427d1e84f3dd0314c0f7b2291e5b200ac8c7c3b925836040516115359190611e6a565b60405180910390a3505050565b600073ffffffffffffffffffffffffffffffffffffffff168373ffffffffffffffffffffffffffffffffffffffff1614156115b2576040517f08c379a00000000000000000000000000000000000000000000000000000000081526004016115a99061276c565b60405180910390fd5b600073ffffffffffffffffffffffffffffffffffffffff168273ffffffffffffffffffffffffffffffffffffffff161415611622576040517f08c379a0000000000000000000000000000000000000000000000000000000008152600401611619906127fe565b60405180910390fd5b61162d838383611bb6565b60008060008573ffffffffffffffffffffffffffffffffffffffff1673ffffffffffffffffffffffffffffffffffffffff168152602001908152602001600020549050818110156116b3576040517f08c379a00000000000000000000000000000000000000000000000000000000081526004016116aa90612890565b60405180910390fd5b8181036000808673ffffffffffffffffffffffffffffffffffffffff1673ffffffffffffffffffffffffffffffffffffffff16815260200190815260200160002081905550816000808573ffffffffffffffffffffffffffffffffffffffff1673ffffffffffffffffffffffffffffffffffffffff168152602001908152602001600020600082825461174691906122e0565b925050819055508273ffffffffffffffffffffffffffffffffffffffff168473ffffffffffffffffffffffffffffffffffffffff167fddf252ad1be2c89b69c2b068fc378daa952ba7f163c4a11628f55a4df523b3ef846040516117aa9190611e6a565b60405180910390a36117bd848484611bbb565b50505050565b60006001600542600660008154809291906117dd906128b0565b91905055336040516020016117f493929190612962565b6040516020818303038152906040528051906020012060001c61181791906129ce565b6118219190612a0d565b905090565b6000806000600d611835611b5f565b63ffffffff168154811061184c5761184b612336565b5b906000526020600020906004020190508060030160009054906101000a900463ffffffff16925060098461ffff168154811061188b5761188a612336565b5b90600052602060002090600891828204019190066004029054906101000a900463ffffffff168160030160006101000a81548163ffffffff021916908363ffffffff1602179055508060030160009054906101000a900463ffffffff16915050915091565b6118fa6000611990565b600f60003373ffffffffffffffffffffffffffffffffffffffff1673ffffffffffffffffffffffffffffffffffffffff16815260200190815260200160002060006101000a81548163ffffffff021916908363ffffffff1602179055507f67cb59078af551a61734a5ff2c80f77546caa28f5357c920d420eb3dac631c4f33604051611986919061240c565b60405180910390a1565b6000808263ffffffff161415611a03576001600342600e60008154809291906119b8906128b0565b91905055336040516020016119cf93929190612962565b6040516020818303038152906040528051906020012060001c6119f291906129ce565b6119fc9190612a45565b9050611b5a565b60018263ffffffff161415611a75576001600542600e6000815480929190611a2a906128b0565b9190505533604051602001611a4193929190612962565b6040516020818303038152906040528051906020012060001c611a6491906129ce565b611a6e9190612a45565b9050611b5a565b60028263ffffffff161415611ae7576001600742600e6000815480929190611a9c906128b0565b9190505533604051602001611ab393929190612962565b6040516020818303038152906040528051906020012060001c611ad691906129ce565b611ae09190612a45565b9050611b5a565b60038263ffffffff161415611b59576003600542600e6000815480929190611b0e906128b0565b9190505533604051602001611b2593929190612962565b6040516020818303038152906040528051906020012060001c611b4891906129ce565b611b529190612a45565b9050611b5a565b5b919050565b6000600c60003373ffffffffffffffffffffffffffffffffffffffff1673ffffffffffffffffffffffffffffffffffffffff16815260200190815260200160002060009054906101000a900463ffffffff16905090565b505050565b505050565b828054611bcc906121a7565b90600052602060002090601f016020900481019282611bee5760008555611c35565b82601f10611c0757805160ff1916838001178555611c35565b82800160010185558215611c35579182015b82811115611c34578251825591602001919060010190611c19565b5b509050611c429190611c74565b5090565b6040518060800160405280606081526020016000815260200160008152602001600063ffffffff1681525090565b5b80821115611c8d576000816000905550600101611c75565b5090565b600081519050919050565b600082825260208201905092915050565b60005b83811015611ccb578082015181840152602081019050611cb0565b83811115611cda576000848401525b50505050565b6000601f19601f8301169050919050565b6000611cfc82611c91565b611d068185611c9c565b9350611d16818560208601611cad565b611d1f81611ce0565b840191505092915050565b60006020820190508181036000830152611d448184611cf1565b905092915050565b600080fd5b600073ffffffffffffffffffffffffffffffffffffffff82169050919050565b6000611d7c82611d51565b9050919050565b611d8c81611d71565b8114611d9757600080fd5b50565b600081359050611da981611d83565b92915050565b6000819050919050565b611dc281611daf565b8114611dcd57600080fd5b50565b600081359050611ddf81611db9565b92915050565b60008060408385031215611dfc57611dfb611d4c565b5b6000611e0a85828601611d9a565b9250506020611e1b85828601611dd0565b9150509250929050565b60008115159050919050565b611e3a81611e25565b82525050565b6000602082019050611e556000830184611e31565b92915050565b611e6481611daf565b82525050565b6000602082019050611e7f6000830184611e5b565b92915050565b600080600060608486031215611e9e57611e9d611d4c565b5b6000611eac86828701611d9a565b9350506020611ebd86828701611d9a565b9250506040611ece86828701611dd0565b9150509250925092565b600060ff82169050919050565b611eee81611ed8565b82525050565b6000602082019050611f096000830184611ee5565b92915050565b600063ffffffff82169050919050565b611f2881611f0f565b8114611f3357600080fd5b50565b600081359050611f4581611f1f565b92915050565b60008060408385031215611f6257611f61611d4c565b5b6000611f7085828601611f36565b9250506020611f8185828601611dd0565b9150509250929050565b611f9481611f0f565b82525050565b6000602082019050611faf6000830184611f8b565b92915050565b600060208284031215611fcb57611fca611d4c565b5b6000611fd984828501611dd0565b91505092915050565b600060208284031215611ff857611ff7611d4c565b5b600061200684828501611d9a565b91505092915050565b600061201a82611d51565b9050919050565b61202a8161200f565b82525050565b60006020820190506120456000830184612021565b92915050565b600082825260208201905092915050565b600061206782611c91565b612071818561204b565b9350612081818560208601611cad565b61208a81611ce0565b840191505092915050565b61209e81611daf565b82525050565b6120ad81611f0f565b82525050565b600060808301600083015184820360008601526120d0828261205c565b91505060208301516120e56020860182612095565b5060408301516120f86040860182612095565b50606083015161210b60608601826120a4565b508091505092915050565b6000602082019050818103600083015261213081846120b3565b905092915050565b6000806040838503121561214f5761214e611d4c565b5b600061215d85828601611d9a565b925050602061216e85828601611d9a565b9150509250929050565b7f4e487b7100000000000000000000000000000000000000000000000000000000600052602260045260246000fd5b600060028204905060018216806121bf57607f821691505b602082108114156121d3576121d2612178565b5b50919050565b7f45524332303a207472616e7366657220616d6f756e742065786365656473206160008201527f6c6c6f77616e6365000000000000000000000000000000000000000000000000602082015250565b6000612235602883611c9c565b9150612240826121d9565b604082019050919050565b6000602082019050818103600083015261226481612228565b9050919050565b61227481611d71565b82525050565b600060608201905061228f600083018661226b565b61229c6020830185611f8b565b6122a96040830184611f8b565b949350505050565b7f4e487b7100000000000000000000000000000000000000000000000000000000600052601160045260246000fd5b60006122eb82611daf565b91506122f683611daf565b9250827fffffffffffffffffffffffffffffffffffffffffffffffffffffffffffffffff0382111561232b5761232a6122b1565b5b828201905092915050565b7f4e487b7100000000000000000000000000000000000000000000000000000000600052603260045260246000fd5b600061237082611f0f565b915063ffffffff821415612387576123866122b1565b5b600182019050919050565b7f7465737400000000000000000000000000000000000000000000000000000000600082015250565b60006123c8600483611c9c565b91506123d382612392565b602082019050919050565b600060408201905081810360008301526123f7816123bb565b90506124066020830184611f8b565b92915050565b6000602082019050612421600083018461226b565b92915050565b600060408201905061243c600083018561226b565b6124496020830184611e5b565b9392505050565b7f45524332303a2064656372656173656420616c6c6f77616e63652062656c6f7760008201527f207a65726f000000000000000000000000000000000000000000000000000000602082015250565b60006124ac602583611c9c565b91506124b782612450565b604082019050919050565b600060208201905081810360008301526124db8161249f565b9050919050565b7f7265676973746572206669727374000000000000000000000000000000000000600082015250565b6000612518600e83611c9c565b9150612523826124e2565b602082019050919050565b600060208201905081810360008301526125478161250b565b9050919050565b6000819050919050565b600061257361256e61256984611d51565b61254e565b611d51565b9050919050565b600061258582612558565b9050919050565b60006125978261257a565b9050919050565b6125a78161258c565b82525050565b60006040820190506125c2600083018561259e565b6125cf6020830184611e5b565b9392505050565b7f45524332303a20617070726f76652066726f6d20746865207a65726f2061646460008201527f7265737300000000000000000000000000000000000000000000000000000000602082015250565b6000612632602483611c9c565b915061263d826125d6565b604082019050919050565b6000602082019050818103600083015261266181612625565b9050919050565b7f45524332303a20617070726f766520746f20746865207a65726f20616464726560008201527f7373000000000000000000000000000000000000000000000000000000000000602082015250565b60006126c4602283611c9c565b91506126cf82612668565b604082019050919050565b600060208201905081810360008301526126f3816126b7565b9050919050565b7f45524332303a207472616e736665722066726f6d20746865207a65726f20616460008201527f6472657373000000000000000000000000000000000000000000000000000000602082015250565b6000612756602583611c9c565b9150612761826126fa565b604082019050919050565b6000602082019050818103600083015261278581612749565b9050919050565b7f45524332303a207472616e7366657220746f20746865207a65726f206164647260008201527f6573730000000000000000000000000000000000000000000000000000000000602082015250565b60006127e8602383611c9c565b91506127f38261278c565b604082019050919050565b60006020820190508181036000830152612817816127db565b9050919050565b7f45524332303a207472616e7366657220616d6f756e742065786365656473206260008201527f616c616e63650000000000000000000000000000000000000000000000000000602082015250565b600061287a602683611c9c565b91506128858261281e565b604082019050919050565b600060208201905081810360008301526128a98161286d565b9050919050565b60006128bb82611daf565b91507fffffffffffffffffffffffffffffffffffffffffffffffffffffffffffffffff8214156128ee576128ed6122b1565b5b600182019050919050565b6000819050919050565b61291461290f82611daf565b6128f9565b82525050565b60008160601b9050919050565b60006129328261291a565b9050919050565b600061294482612927565b9050919050565b61295c61295782611d71565b612939565b82525050565b600061296e8286612903565b60208201915061297e8285612903565b60208201915061298e828461294b565b601482019150819050949350505050565b7f4e487b7100000000000000000000000000000000000000000000000000000000600052601260045260246000fd5b60006129d982611daf565b91506129e483611daf565b9250826129f4576129f361299f565b5b828206905092915050565b600061ffff82169050919050565b6000612a18826129ff565b9150612a23836129ff565b92508261ffff03821115612a3a57612a396122b1565b5b828201905092915050565b6000612a5082611f0f565b9150612a5b83611f0f565b92508263ffffffff03821115612a7457612a736122b1565b5b82820190509291505056fea26469706673582212203ed9118188e9c37af9f43314554f4bfb3aaa3bffcc0c853d00c978c344c1fd3064736f6c634300080b0033",
  "immutableReferences": {},
  "source": "// SPDX-License-Identifier: MIT\r\npragma solidity ^0.8.0;\r\npragma experimental ABIEncoderV2;\r\n\r\nimport \"./MyToken.sol\";\r\n\r\ncontract CatBase is MyToken{\r\n\r\n    event NewCat(string name, uint32 kittyId);\r\n    event FeedCat(address feeder, uint32 beforeId, uint32 afterId);\r\n    \r\n    uint private randNonce = 0;\r\n    uint private coolDownTime = 1 minutes;\r\n    uint32 private catCounts = 0;\r\n    uint32[] private kittyIds = [0, 150593, 232751, 404726, 462704, 493816];\r\n    uint256[] private kittyPrices = [0, 1, 2, 3, 4, 5];\r\n\r\n    struct Cat {\r\n        string name;\r\n        uint256 price;\r\n        uint256 coolDown;\r\n        uint32 kittyId; //cryptokitty id\r\n    }\r\n\r\n    mapping(uint32 => uint16) internal idToIndex;\r\n    mapping(address => uint32) internal ownerToCat; // in-contract id;\r\n    Cat[] internal cats;\r\n\r\n    constructor(string memory name, string memory symbol) MyToken(name, symbol){\r\n\r\n        for(uint16 i=1;i<=5;i++){\r\n            idToIndex[kittyIds[i]] = i;\r\n        }\r\n\r\n        cats.push(Cat(\"ERROR\", 0, block.timestamp, 0));\r\n    }\r\n\r\n    function _makeRandom() internal returns(uint16){\r\n        return uint16(uint(keccak256(abi.encodePacked(block.timestamp, randNonce++, msg.sender))) % 5) + 1;\r\n    }\r\n\r\n    function _getMyCatIdx() internal view returns(uint32) {return ownerToCat[msg.sender];}\r\n\r\n\r\n    function registerCat() public {\r\n\r\n        if(ownerToCat[msg.sender] == 0){\r\n            uint16 random = _makeRandom();\r\n            cats.push(Cat(\"test\", kittyPrices[random], block.timestamp, kittyIds[random]));\r\n            ownerToCat[msg.sender] = ++catCounts;\r\n            emit NewCat(\"test\", kittyIds[random]);\r\n        }\r\n        \r\n    }\r\n\r\n    function getCatCounts() public view returns(uint32) { return catCounts; }\r\n\r\n    function getMyCat() public view returns(Cat memory mycat){\r\n        require(ownerToCat[msg.sender] != 0, \"register first\");\r\n        mycat = cats[ownerToCat[msg.sender]];\r\n    }\r\n\r\n    function hasCat() public view returns(bool){\r\n         return _getMyCatIdx() > 0;\r\n    }\r\n\r\n\r\n    function updateKittyId(uint16 _to) internal returns(uint32 beforeId, uint32 afterId){\r\n\r\n        Cat storage cat = cats[_getMyCatIdx()];\r\n        beforeId = cat.kittyId;\r\n        cat.kittyId = kittyIds[_to];\r\n        afterId = cat.kittyId;\r\n    }\r\n\r\n    function feed() public{\r\n        uint32 beforeId;\r\n        uint32 afterId;\r\n        (beforeId, afterId) = updateKittyId(_makeRandom());\r\n        emit FeedCat(msg.sender, beforeId, afterId);\r\n    }\r\n    //contract   \r\n  event NewRod(address fisher);\r\n  event BUY_ROD(address buyer, uint256 cost);\r\n\r\n  uint internal rand = 0;\r\n  \r\n  struct Rod {\r\n    uint32 rodGrade;\r\n    uint32 rodPrice;\r\n  }\r\n  function _makeRandom(uint32 index) internal returns(uint32){\r\n      if (index == 0) {\r\n        return uint32(uint(keccak256(abi.encodePacked(block.timestamp, rand++, msg.sender))) % 3) + 1;\r\n      } else if(index == 1) {\r\n        return uint32(uint(keccak256(abi.encodePacked(block.timestamp, rand++, msg.sender))) % 5) + 1;\r\n      } else if (index == 2) {\r\n        return uint32(uint(keccak256(abi.encodePacked(block.timestamp, rand++, msg.sender))) % 7) + 1;\r\n      } else if(index == 3) {\r\n        return uint32(uint(keccak256(abi.encodePacked(block.timestamp, rand++, msg.sender))) % 5) + 3;\r\n      }\r\n  }\r\n  //   \r\n  mapping (address => uint32) rodOwner;\r\n\r\n  \r\n  function _createRod() private {\r\n    rodOwner[msg.sender] = _makeRandom(0);\r\n    emit NewRod(msg.sender);\r\n  }\r\n\r\n  function getRod() public view returns(uint32 rod){\r\n    rod = rodOwner[msg.sender];\r\n  }\r\n\r\n  function newRod(uint32 probability, uint256 cost) public returns(uint32 rod) {\r\n    require(useSSC(cost) == true);\r\n\r\n    if (rodOwner[msg.sender] == 0) {\r\n      _createRod();\r\n    } else {\r\n      emit NewRod(msg.sender);\r\n      rodOwner[msg.sender] = _makeRandom(probability);\r\n      rod = rodOwner[msg.sender];\r\n    }\r\n\r\n    emit BUY_ROD(msg.sender, cost);\r\n  }\r\n\r\n}",
  "sourcePath": "C:\\Users\\jhl81\\OneDrive\\project_2-2\\test\\madcamp-pj3\\contracts\\CatBase.sol",
  "compiler": {
    "name": "solc",
    "version": "0.8.11+commit.d7f03943.Emscripten.clang"
  },
  "schemaVersion": "3.4.4",
  "updatedAt": "2022-01-17T08:17:30.476Z",
  "networkType": "ethereum",
  "devdoc": {
    "kind": "dev",
    "methods": {
      "allowance(address,address)": {
        "details": "See {IERC20-allowance}."
      },
      "approve(address,uint256)": {
        "details": "See {IERC20-approve}. Requirements: - `spender` cannot be the zero address."
      },
      "balanceOf(address)": {
        "details": "See {IERC20-balanceOf}."
      },
      "decimals()": {
        "details": "Returns the number of decimals used to get its user representation. For example, if `decimals` equals `2`, a balance of `505` tokens should be displayed to a user as `5.05` (`505 / 10 ** 2`). Tokens usually opt for a value of 18, imitating the relationship between Ether and Wei. This is the value {ERC20} uses, unless this function is overridden; NOTE: This information is only used for _display_ purposes: it in no way affects any of the arithmetic of the contract, including {IERC20-balanceOf} and {IERC20-transfer}."
      },
      "decreaseAllowance(address,uint256)": {
        "details": "Atomically decreases the allowance granted to `spender` by the caller. This is an alternative to {approve} that can be used as a mitigation for problems described in {IERC20-approve}. Emits an {Approval} event indicating the updated allowance. Requirements: - `spender` cannot be the zero address. - `spender` must have allowance for the caller of at least `subtractedValue`."
      },
      "increaseAllowance(address,uint256)": {
        "details": "Atomically increases the allowance granted to `spender` by the caller. This is an alternative to {approve} that can be used as a mitigation for problems described in {IERC20-approve}. Emits an {Approval} event indicating the updated allowance. Requirements: - `spender` cannot be the zero address."
      },
      "name()": {
        "details": "Returns the name of the token."
      },
      "symbol()": {
        "details": "Returns the symbol of the token, usually a shorter version of the name."
      },
      "totalSupply()": {
        "details": "See {IERC20-totalSupply}."
      },
      "transfer(address,uint256)": {
        "details": "See {IERC20-transfer}. Requirements: - `recipient` cannot be the zero address. - the caller must have a balance of at least `amount`."
      },
      "transferFrom(address,address,uint256)": {
        "details": "See {IERC20-transferFrom}. Emits an {Approval} event indicating the updated allowance. This is not required by the EIP. See the note at the beginning of {ERC20}. Requirements: - `sender` and `recipient` cannot be the zero address. - `sender` must have a balance of at least `amount`. - the caller must have allowance for ``sender``'s tokens of at least `amount`."
      }
    },
    "version": 1
  },
  "userdoc": {
    "kind": "user",
    "methods": {},
    "version": 1
  }
}