{
  "contractName": "CatBase",
  "abi": [
    {
      "inputs": [
        {
          "internalType": "string",
          "name": "name",
          "type": "string"
        },
        {
          "internalType": "string",
          "name": "symbol",
          "type": "string"
        }
      ],
      "stateMutability": "nonpayable",
      "type": "constructor"
    },
    {
      "anonymous": false,
      "inputs": [
        {
          "indexed": true,
          "internalType": "address",
          "name": "owner",
          "type": "address"
        },
        {
          "indexed": true,
          "internalType": "address",
          "name": "spender",
          "type": "address"
        },
        {
          "indexed": false,
          "internalType": "uint256",
          "name": "value",
          "type": "uint256"
        }
      ],
      "name": "Approval",
      "type": "event"
    },
    {
      "anonymous": false,
      "inputs": [
        {
          "indexed": false,
          "internalType": "address",
          "name": "buyer",
          "type": "address"
        },
        {
          "indexed": false,
          "internalType": "uint256",
          "name": "cost",
          "type": "uint256"
        }
      ],
      "name": "BUY_ROD",
      "type": "event"
    },
    {
      "anonymous": false,
      "inputs": [
        {
          "indexed": false,
          "internalType": "uint32",
          "name": "fish",
          "type": "uint32"
        }
      ],
      "name": "DeleteFish",
      "type": "event"
    },
    {
      "anonymous": false,
      "inputs": [
        {
          "indexed": false,
          "internalType": "address",
          "name": "requester",
          "type": "address"
        },
        {
          "indexed": false,
          "internalType": "uint256",
          "name": "value",
          "type": "uint256"
        }
      ],
      "name": "EXCHANGE_ETH_TO_SCC",
      "type": "event"
    },
    {
      "anonymous": false,
      "inputs": [
        {
          "indexed": false,
          "internalType": "address",
          "name": "requester",
          "type": "address"
        },
        {
          "indexed": false,
          "internalType": "uint256",
          "name": "value",
          "type": "uint256"
        }
      ],
      "name": "EXCHANGE_SCC_TO_ETH",
      "type": "event"
    },
    {
      "anonymous": false,
      "inputs": [
        {
          "indexed": false,
          "internalType": "address",
          "name": "feeder",
          "type": "address"
        },
        {
          "indexed": false,
          "internalType": "string",
          "name": "beforeId",
          "type": "string"
        },
        {
          "indexed": false,
          "internalType": "string",
          "name": "afterId",
          "type": "string"
        }
      ],
      "name": "FeedCat",
      "type": "event"
    },
    {
      "anonymous": false,
      "inputs": [
        {
          "indexed": false,
          "internalType": "string",
          "name": "name",
          "type": "string"
        },
        {
          "indexed": false,
          "internalType": "string",
          "name": "kittyId",
          "type": "string"
        }
      ],
      "name": "NewCat",
      "type": "event"
    },
    {
      "anonymous": false,
      "inputs": [
        {
          "indexed": false,
          "internalType": "uint32",
          "name": "fish",
          "type": "uint32"
        }
      ],
      "name": "NewFish",
      "type": "event"
    },
    {
      "anonymous": false,
      "inputs": [
        {
          "indexed": false,
          "internalType": "address",
          "name": "fisher",
          "type": "address"
        }
      ],
      "name": "NewRod",
      "type": "event"
    },
    {
      "anonymous": false,
      "inputs": [
        {
          "indexed": true,
          "internalType": "address",
          "name": "from",
          "type": "address"
        },
        {
          "indexed": true,
          "internalType": "address",
          "name": "to",
          "type": "address"
        },
        {
          "indexed": false,
          "internalType": "uint256",
          "name": "value",
          "type": "uint256"
        }
      ],
      "name": "Transfer",
      "type": "event"
    },
    {
      "inputs": [
        {
          "internalType": "uint256",
          "name": "value",
          "type": "uint256"
        }
      ],
      "name": "SSCtoEth",
      "outputs": [
        {
          "internalType": "bool",
          "name": "",
          "type": "bool"
        }
      ],
      "stateMutability": "payable",
      "type": "function"
    },
    {
      "inputs": [
        {
          "internalType": "address",
          "name": "owner",
          "type": "address"
        },
        {
          "internalType": "address",
          "name": "spender",
          "type": "address"
        }
      ],
      "name": "allowance",
      "outputs": [
        {
          "internalType": "uint256",
          "name": "",
          "type": "uint256"
        }
      ],
      "stateMutability": "view",
      "type": "function"
    },
    {
      "inputs": [
        {
          "internalType": "address",
          "name": "spender",
          "type": "address"
        },
        {
          "internalType": "uint256",
          "name": "amount",
          "type": "uint256"
        }
      ],
      "name": "approve",
      "outputs": [
        {
          "internalType": "bool",
          "name": "",
          "type": "bool"
        }
      ],
      "stateMutability": "nonpayable",
      "type": "function"
    },
    {
      "inputs": [
        {
          "internalType": "address",
          "name": "account",
          "type": "address"
        }
      ],
      "name": "balanceOf",
      "outputs": [
        {
          "internalType": "uint256",
          "name": "",
          "type": "uint256"
        }
      ],
      "stateMutability": "view",
      "type": "function"
    },
    {
      "inputs": [],
      "name": "decimals",
      "outputs": [
        {
          "internalType": "uint8",
          "name": "",
          "type": "uint8"
        }
      ],
      "stateMutability": "view",
      "type": "function"
    },
    {
      "inputs": [
        {
          "internalType": "address",
          "name": "spender",
          "type": "address"
        },
        {
          "internalType": "uint256",
          "name": "subtractedValue",
          "type": "uint256"
        }
      ],
      "name": "decreaseAllowance",
      "outputs": [
        {
          "internalType": "bool",
          "name": "",
          "type": "bool"
        }
      ],
      "stateMutability": "nonpayable",
      "type": "function"
    },
    {
      "inputs": [],
      "name": "ethToSSC",
      "outputs": [
        {
          "internalType": "bool",
          "name": "",
          "type": "bool"
        }
      ],
      "stateMutability": "payable",
      "type": "function"
    },
    {
      "inputs": [],
      "name": "getOwner",
      "outputs": [
        {
          "internalType": "address payable",
          "name": "",
          "type": "address"
        }
      ],
      "stateMutability": "view",
      "type": "function"
    },
    {
      "inputs": [
        {
          "internalType": "address",
          "name": "spender",
          "type": "address"
        },
        {
          "internalType": "uint256",
          "name": "addedValue",
          "type": "uint256"
        }
      ],
      "name": "increaseAllowance",
      "outputs": [
        {
          "internalType": "bool",
          "name": "",
          "type": "bool"
        }
      ],
      "stateMutability": "nonpayable",
      "type": "function"
    },
    {
      "inputs": [],
      "name": "name",
      "outputs": [
        {
          "internalType": "string",
          "name": "",
          "type": "string"
        }
      ],
      "stateMutability": "view",
      "type": "function"
    },
    {
      "inputs": [],
      "name": "owner",
      "outputs": [
        {
          "internalType": "address payable",
          "name": "",
          "type": "address"
        }
      ],
      "stateMutability": "view",
      "type": "function"
    },
    {
      "inputs": [],
      "name": "symbol",
      "outputs": [
        {
          "internalType": "string",
          "name": "",
          "type": "string"
        }
      ],
      "stateMutability": "view",
      "type": "function"
    },
    {
      "inputs": [],
      "name": "totalSupply",
      "outputs": [
        {
          "internalType": "uint256",
          "name": "",
          "type": "uint256"
        }
      ],
      "stateMutability": "view",
      "type": "function"
    },
    {
      "inputs": [
        {
          "internalType": "address",
          "name": "recipient",
          "type": "address"
        },
        {
          "internalType": "uint256",
          "name": "amount",
          "type": "uint256"
        }
      ],
      "name": "transfer",
      "outputs": [
        {
          "internalType": "bool",
          "name": "",
          "type": "bool"
        }
      ],
      "stateMutability": "nonpayable",
      "type": "function"
    },
    {
      "inputs": [
        {
          "internalType": "address",
          "name": "sender",
          "type": "address"
        },
        {
          "internalType": "address",
          "name": "recipient",
          "type": "address"
        },
        {
          "internalType": "uint256",
          "name": "amount",
          "type": "uint256"
        }
      ],
      "name": "transferFrom",
      "outputs": [
        {
          "internalType": "bool",
          "name": "",
          "type": "bool"
        }
      ],
      "stateMutability": "nonpayable",
      "type": "function"
    },
    {
      "inputs": [
        {
          "internalType": "uint256",
          "name": "value",
          "type": "uint256"
        }
      ],
      "name": "useSSC",
      "outputs": [
        {
          "internalType": "bool",
          "name": "",
          "type": "bool"
        }
      ],
      "stateMutability": "payable",
      "type": "function"
    },
    {
      "inputs": [
        {
          "internalType": "string",
          "name": "catName",
          "type": "string"
        }
      ],
      "name": "registerCat",
      "outputs": [],
      "stateMutability": "nonpayable",
      "type": "function"
    },
    {
      "inputs": [],
      "name": "getCatCounts",
      "outputs": [
        {
          "internalType": "uint32",
          "name": "",
          "type": "uint32"
        }
      ],
      "stateMutability": "view",
      "type": "function"
    },
    {
      "inputs": [],
      "name": "getMyCat",
      "outputs": [
        {
          "components": [
            {
              "internalType": "string",
              "name": "name",
              "type": "string"
            },
            {
              "internalType": "uint256",
              "name": "price",
              "type": "uint256"
            },
            {
              "internalType": "uint256",
              "name": "coolDown",
              "type": "uint256"
            },
            {
              "internalType": "string",
              "name": "kittyId",
              "type": "string"
            }
          ],
          "internalType": "struct CatBase.Cat",
          "name": "mycat",
          "type": "tuple"
        }
      ],
      "stateMutability": "view",
      "type": "function"
    },
    {
      "inputs": [],
      "name": "hasCat",
      "outputs": [
        {
          "internalType": "bool",
          "name": "",
          "type": "bool"
        }
      ],
      "stateMutability": "view",
      "type": "function"
    },
    {
      "inputs": [],
      "name": "updateKittyId",
      "outputs": [
        {
          "internalType": "string",
          "name": "beforeId",
          "type": "string"
        },
        {
          "internalType": "string",
          "name": "afterId",
          "type": "string"
        }
      ],
      "stateMutability": "nonpayable",
      "type": "function"
    },
    {
      "inputs": [],
      "name": "update",
      "outputs": [
        {
          "internalType": "uint16",
          "name": "idx",
          "type": "uint16"
        }
      ],
      "stateMutability": "nonpayable",
      "type": "function"
    },
    {
      "inputs": [],
      "name": "feed",
      "outputs": [],
      "stateMutability": "nonpayable",
      "type": "function"
    },
    {
      "inputs": [],
      "name": "getRod",
      "outputs": [
        {
          "internalType": "uint32",
          "name": "rod",
          "type": "uint32"
        }
      ],
      "stateMutability": "view",
      "type": "function"
    },
    {
      "inputs": [
        {
          "internalType": "uint32",
          "name": "probability",
          "type": "uint32"
        },
        {
          "internalType": "uint256",
          "name": "cost",
          "type": "uint256"
        }
      ],
      "name": "newRod",
      "outputs": [
        {
          "internalType": "uint32",
          "name": "rod",
          "type": "uint32"
        }
      ],
      "stateMutability": "nonpayable",
      "type": "function"
    },
    {
      "inputs": [],
      "name": "getFish",
      "outputs": [
        {
          "internalType": "uint32[]",
          "name": "fish",
          "type": "uint32[]"
        }
      ],
      "stateMutability": "view",
      "type": "function"
    },
    {
      "inputs": [],
      "name": "newFish",
      "outputs": [
        {
          "internalType": "uint32",
          "name": "",
          "type": "uint32"
        }
      ],
      "stateMutability": "nonpayable",
      "type": "function"
    },
    {
      "inputs": [
        {
          "internalType": "uint32",
          "name": "index",
          "type": "uint32"
        }
      ],
      "name": "deleteFish",
      "outputs": [
        {
          "internalType": "bool",
          "name": "success",
          "type": "bool"
        }
      ],
      "stateMutability": "nonpayable",
      "type": "function"
    }
  ],
  "bytecode": "0x60806040526000600655603c6007556000600860006101000a81548163ffffffff021916908363ffffffff1602179055506040518061020001604052806040518060400160405280600181526020017f300000000000000000000000000000000000000000000000000000000000000081525081526020016040518060400160405280600a81526020017f3135303539332e7376670000000000000000000000000000000000000000000081525081526020016040518060400160405280600a81526020017f3233323735312e7376670000000000000000000000000000000000000000000081525081526020016040518060400160405280600a81526020017f3430343732362e7376670000000000000000000000000000000000000000000081525081526020016040518060400160405280600a81526020017f3436323730342e7376670000000000000000000000000000000000000000000081525081526020016040518060400160405280600a81526020017f3439333831362e7376670000000000000000000000000000000000000000000081525081526020016040518060400160405280600a81526020017f3136363437312e7376670000000000000000000000000000000000000000000081525081526020016040518060400160405280600a81526020017f3134353638362e7376670000000000000000000000000000000000000000000081525081526020016040518060400160405280600a81526020017f3133373835332e7376670000000000000000000000000000000000000000000081525081526020016040518060400160405280600a81526020017f3131373432392e7376670000000000000000000000000000000000000000000081525081526020016040518060400160405280600981526020017f39363139372e737667000000000000000000000000000000000000000000000081525081526020016040518060400160405280600b81526020017f313939343132312e706e6700000000000000000000000000000000000000000081525081526020016040518060400160405280600b81526020017f313939333630392e706e6700000000000000000000000000000000000000000081525081526020016040518060400160405280600b81526020017f323031303535312e706e6700000000000000000000000000000000000000000081525081526020016040518060400160405280600b81526020017f323030343539322e706e6700000000000000000000000000000000000000000081525081526020016040518060400160405280600b81526020017f323031303530312e706e670000000000000000000000000000000000000000008152508152506009906010620003fc929190620008f9565b50604051806102000160405280600060ff168152602001600160ff168152602001600260ff168152602001600360ff168152602001600460ff168152602001600560ff168152602001600660ff168152602001600760ff168152602001600860ff168152602001600960ff168152602001600a60ff168152602001600b60ff168152602001600c60ff168152602001600d60ff168152602001600e60ff168152602001600f60ff16815250600a906010620004b992919062000960565b506000600e55348015620004cc57600080fd5b5060405162004b1138038062004b118339818101604052810190620004f2919062000c72565b8181818181600390805190602001906200050e929190620009b7565b50806004908051906020019062000527929190620009b7565b50505033600560006101000a81548173ffffffffffffffffffffffffffffffffffffffff021916908373ffffffffffffffffffffffffffffffffffffffff160217905550620005ce600560009054906101000a900473ffffffffffffffffffffffffffffffffffffffff16620005a26200076d60201b60201c565b60ff16600a620005b3919062000e84565b6103e8620005c2919062000ed5565b6200077660201b60201c565b50506000600190505b60058161ffff1611620006595780600b60098361ffff168154811062000602576200060162000f36565b5b906000526020600020016040516200061b919062001075565b908152602001604051809103902060006101000a81548161ffff021916908361ffff160217905550808062000650906200109c565b915050620005d7565b50600d60405180608001604052806040518060400160405280600581526020017f4552524f520000000000000000000000000000000000000000000000000000008152508152602001600081526020014281526020016040518060400160405280600181526020017f3000000000000000000000000000000000000000000000000000000000000000815250815250908060018154018082558091505060019003906000526020600020906004020160009091909190915060008201518160000190805190602001906200072f929190620009b7565b506020820151816001015560408201518160020155606082015181600301908051906020019062000762929190620009b7565b5050505050620011da565b60006012905090565b600073ffffffffffffffffffffffffffffffffffffffff168273ffffffffffffffffffffffffffffffffffffffff161415620007e9576040517f08c379a0000000000000000000000000000000000000000000000000000000008152600401620007e0906200112d565b60405180910390fd5b620007fd60008383620008ef60201b60201c565b80600260008282546200081191906200114f565b92505081905550806000808473ffffffffffffffffffffffffffffffffffffffff1673ffffffffffffffffffffffffffffffffffffffff16815260200190815260200160002060008282546200086891906200114f565b925050819055508173ffffffffffffffffffffffffffffffffffffffff16600073ffffffffffffffffffffffffffffffffffffffff167fddf252ad1be2c89b69c2b068fc378daa952ba7f163c4a11628f55a4df523b3ef83604051620008cf9190620011bd565b60405180910390a3620008eb60008383620008f460201b60201c565b5050565b505050565b505050565b8280548282559060005260206000209081019282156200094d579160200282015b828111156200094c5782518290805190602001906200093b929190620009b7565b50916020019190600101906200091a565b5b5090506200095c919062000a48565b5090565b828054828255906000526020600020908101928215620009a4579160200282015b82811115620009a3578251829060ff1690559160200191906001019062000981565b5b509050620009b3919062000a70565b5090565b828054620009c59062000f94565b90600052602060002090601f016020900481019282620009e9576000855562000a35565b82601f1062000a0457805160ff191683800117855562000a35565b8280016001018555821562000a35579182015b8281111562000a3457825182559160200191906001019062000a17565b5b50905062000a44919062000a70565b5090565b5b8082111562000a6c576000818162000a62919062000a8f565b5060010162000a49565b5090565b5b8082111562000a8b57600081600090555060010162000a71565b5090565b50805462000a9d9062000f94565b6000825580601f1062000ab1575062000ad2565b601f01602090049060005260206000209081019062000ad1919062000a70565b5b50565b6000604051905090565b600080fd5b600080fd5b600080fd5b600080fd5b6000601f19601f8301169050919050565b7f4e487b7100000000000000000000000000000000000000000000000000000000600052604160045260246000fd5b62000b3e8262000af3565b810181811067ffffffffffffffff8211171562000b605762000b5f62000b04565b5b80604052505050565b600062000b7562000ad5565b905062000b83828262000b33565b919050565b600067ffffffffffffffff82111562000ba65762000ba562000b04565b5b62000bb18262000af3565b9050602081019050919050565b60005b8381101562000bde57808201518184015260208101905062000bc1565b8381111562000bee576000848401525b50505050565b600062000c0b62000c058462000b88565b62000b69565b90508281526020810184848401111562000c2a5762000c2962000aee565b5b62000c3784828562000bbe565b509392505050565b600082601f83011262000c575762000c5662000ae9565b5b815162000c6984826020860162000bf4565b91505092915050565b6000806040838503121562000c8c5762000c8b62000adf565b5b600083015167ffffffffffffffff81111562000cad5762000cac62000ae4565b5b62000cbb8582860162000c3f565b925050602083015167ffffffffffffffff81111562000cdf5762000cde62000ae4565b5b62000ced8582860162000c3f565b9150509250929050565b7f4e487b7100000000000000000000000000000000000000000000000000000000600052601160045260246000fd5b60008160011c9050919050565b6000808291508390505b600185111562000d855780860481111562000d5d5762000d5c62000cf7565b5b600185161562000d6d5780820291505b808102905062000d7d8562000d26565b945062000d3d565b94509492505050565b60008262000da0576001905062000e73565b8162000db0576000905062000e73565b816001811462000dc9576002811462000dd45762000e0a565b600191505062000e73565b60ff84111562000de95762000de862000cf7565b5b8360020a91508482111562000e035762000e0262000cf7565b5b5062000e73565b5060208310610133831016604e8410600b841016171562000e445782820a90508381111562000e3e5762000e3d62000cf7565b5b62000e73565b62000e53848484600162000d33565b9250905081840481111562000e6d5762000e6c62000cf7565b5b81810290505b9392505050565b6000819050919050565b600062000e918262000e7a565b915062000e9e8362000e7a565b925062000ecd7fffffffffffffffffffffffffffffffffffffffffffffffffffffffffffffffff848462000d8e565b905092915050565b600062000ee28262000e7a565b915062000eef8362000e7a565b9250817fffffffffffffffffffffffffffffffffffffffffffffffffffffffffffffffff048311821515161562000f2b5762000f2a62000cf7565b5b828202905092915050565b7f4e487b7100000000000000000000000000000000000000000000000000000000600052603260045260246000fd5b7f4e487b7100000000000000000000000000000000000000000000000000000000600052602260045260246000fd5b6000600282049050600182168062000fad57607f821691505b6020821081141562000fc45762000fc362000f65565b5b50919050565b600081905092915050565b60008190508160005260206000209050919050565b6000815462000ff98162000f94565b62001005818662000fca565b9450600182166000811462001023576001811462001035576200106c565b60ff198316865281860193506200106c565b620010408562000fd5565b60005b83811015620010645781548189015260018201915060208101905062001043565b838801955050505b50505092915050565b600062001083828462000fea565b915081905092915050565b600061ffff82169050919050565b6000620010a9826200108e565b915061ffff821415620010c157620010c062000cf7565b5b600182019050919050565b600082825260208201905092915050565b7f45524332303a206d696e7420746f20746865207a65726f206164647265737300600082015250565b600062001115601f83620010cc565b91506200112282620010dd565b602082019050919050565b60006020820190508181036000830152620011488162001106565b9050919050565b60006200115c8262000e7a565b9150620011698362000e7a565b9250827fffffffffffffffffffffffffffffffffffffffffffffffffffffffffffffffff03821115620011a157620011a062000cf7565b5b828201905092915050565b620011b78162000e7a565b82525050565b6000602082019050620011d46000830184620011ac565b92915050565b61392780620011ea6000396000f3fe6080604052600436106101b75760003560e01c8063893d20e8116100ec578063a9059cbb1161008a578063dd62ed3e11610064578063dd62ed3e1461063c578063f9351a6214610679578063fe2ca31a146106a4578063fee7ae6c146106cf576101b7565b8063a9059cbb14610592578063c696280f146105cf578063cf1ecc121461060c576101b7565b80639f800a5f116100c65780639f800a5f146104e1578063a2e62045146104ff578063a457c2d71461052a578063a87e8aad14610567576101b7565b8063893d20e8146104605780638da5cb5b1461048b57806395d89b41146104b6576101b7565b80633f7af592116101595780634fa00b3e116101335780634fa00b3e146103a15780636bed2588146103cd5780636efe947e146103f857806370a0823114610423576101b7565b80633f7af5921461030b57806347e7f86e1461033457806349f062af14610371576101b7565b806323b872dd1161019557806323b872dd1461024f578063313ce5671461028c57806337a7b7d8146102b757806339509351146102ce576101b7565b806306fdde03146101bc578063095ea7b3146101e757806318160ddd14610224575b600080fd5b3480156101c857600080fd5b506101d16106fa565b6040516101de91906126fb565b60405180910390f35b3480156101f357600080fd5b5061020e600480360381019061020991906127c5565b61078c565b60405161021b9190612820565b60405180910390f35b34801561023057600080fd5b506102396107aa565b604051610246919061284a565b60405180910390f35b34801561025b57600080fd5b5061027660048036038101906102719190612865565b6107b4565b6040516102839190612820565b60405180910390f35b34801561029857600080fd5b506102a16108ac565b6040516102ae91906128d4565b60405180910390f35b3480156102c357600080fd5b506102cc6108b5565b005b3480156102da57600080fd5b506102f560048036038101906102f091906127c5565b610907565b6040516103029190612820565b60405180910390f35b34801561031757600080fd5b50610332600480360381019061032d9190612a24565b6109b3565b005b34801561034057600080fd5b5061035b60048036038101906103569190612aa9565b610c7a565b6040516103689190612af8565b60405180910390f35b61038b60048036038101906103869190612b13565b610e2f565b6040516103989190612820565b60405180910390f35b3480156103ad57600080fd5b506103b6610e76565b6040516103c4929190612b40565b60405180910390f35b3480156103d957600080fd5b506103e2611057565b6040516103ef9190612af8565b60405180910390f35b34801561040457600080fd5b5061040d6110ae565b60405161041a9190612af8565b60405180910390f35b34801561042f57600080fd5b5061044a60048036038101906104459190612b77565b6112eb565b604051610457919061284a565b60405180910390f35b34801561046c57600080fd5b50610475611333565b6040516104829190612bc5565b60405180910390f35b34801561049757600080fd5b506104a061135d565b6040516104ad9190612bc5565b60405180910390f35b3480156104c257600080fd5b506104cb611383565b6040516104d891906126fb565b60405180910390f35b6104e9611415565b6040516104f69190612820565b60405180910390f35b34801561050b57600080fd5b50610514611484565b6040516105219190612bfd565b60405180910390f35b34801561053657600080fd5b50610551600480360381019061054c91906127c5565b6115d3565b60405161055e9190612820565b60405180910390f35b34801561057357600080fd5b5061057c6116be565b6040516105899190612cdb565b60405180910390f35b34801561059e57600080fd5b506105b960048036038101906105b491906127c5565b61191e565b6040516105c69190612820565b60405180910390f35b3480156105db57600080fd5b506105f660048036038101906105f19190612cfd565b61193c565b6040516106039190612820565b60405180910390f35b61062660048036038101906106219190612b13565b611a91565b6040516106339190612820565b60405180910390f35b34801561064857600080fd5b50610663600480360381019061065e9190612d2a565b611b5d565b604051610670919061284a565b60405180910390f35b34801561068557600080fd5b5061068e611be4565b60405161069b9190612820565b60405180910390f35b3480156106b057600080fd5b506106b9611bfb565b6040516106c69190612af8565b60405180910390f35b3480156106db57600080fd5b506106e4611c15565b6040516106f19190612e28565b60405180910390f35b60606003805461070990612e79565b80601f016020809104026020016040519081016040528092919081815260200182805461073590612e79565b80156107825780601f1061075757610100808354040283529160200191610782565b820191906000526020600020905b81548152906001019060200180831161076557829003601f168201915b5050505050905090565b60006107a0610799611cd6565b8484611cde565b6001905092915050565b6000600254905090565b60006107c1848484611ea9565b6000600160008673ffffffffffffffffffffffffffffffffffffffff1673ffffffffffffffffffffffffffffffffffffffff168152602001908152602001600020600061080c611cd6565b73ffffffffffffffffffffffffffffffffffffffff1673ffffffffffffffffffffffffffffffffffffffff1681526020019081526020016000205490508281101561088c576040517f08c379a000000000000000000000000000000000000000000000000000000000815260040161088390612f1d565b60405180910390fd5b6108a085610898611cd6565b858403611cde565b60019150509392505050565b60006012905090565b6060806108c0610e76565b80925081935050507ff008945aea4d8839b3b3925aab2cd4074e11704a44b721a6e0606bda7c7abfec3383836040516108fb93929190612f4c565b60405180910390a15050565b60006109a9610914611cd6565b848460016000610922611cd6565b73ffffffffffffffffffffffffffffffffffffffff1673ffffffffffffffffffffffffffffffffffffffff16815260200190815260200160002060008873ffffffffffffffffffffffffffffffffffffffff1673ffffffffffffffffffffffffffffffffffffffff168152602001908152602001600020546109a49190612fc0565b611cde565b6001905092915050565b6000600c60003373ffffffffffffffffffffffffffffffffffffffff1673ffffffffffffffffffffffffffffffffffffffff16815260200190815260200160002060009054906101000a900463ffffffff1663ffffffff161415610c77576000610a1b61212a565b9050600d6040518060800160405280848152602001600a8461ffff1681548110610a4857610a47613016565b5b9060005260206000200154815260200142815260200160098461ffff1681548110610a7657610a75613016565b5b906000526020600020018054610a8b90612e79565b80601f0160208091040260200160405190810160405280929190818152602001828054610ab790612e79565b8015610b045780601f10610ad957610100808354040283529160200191610b04565b820191906000526020600020905b815481529060010190602001808311610ae757829003601f168201915b505050505081525090806001815401808255809150506001900390600052602060002090600402016000909190919091506000820151816000019080519060200190610b5192919061245d565b5060208201518160010155604082015181600201556060820151816003019080519060200190610b8292919061245d565b5050506008600081819054906101000a900463ffffffff16610ba390613045565b91906101000a81548163ffffffff021916908363ffffffff1602179055600c60003373ffffffffffffffffffffffffffffffffffffffff1673ffffffffffffffffffffffffffffffffffffffff16815260200190815260200160002060006101000a81548163ffffffff021916908363ffffffff1602179055507f63b59d5161bc58dd505463db003904efeb26d8cd54933cd5407980c0c7fe014460098261ffff1681548110610c5657610c55613016565b5b90600052602060002001604051610c6d9190613153565b60405180910390a1505b50565b600060011515610c8983610e2f565b151514610c9557600080fd5b6000600f60003373ffffffffffffffffffffffffffffffffffffffff1673ffffffffffffffffffffffffffffffffffffffff16815260200190815260200160002060009054906101000a900463ffffffff1663ffffffff161415610d0057610cfb61218d565b610df0565b7f67cb59078af551a61734a5ff2c80f77546caa28f5357c920d420eb3dac631c4f33604051610d2f9190613188565b60405180910390a1610d408361222d565b600f60003373ffffffffffffffffffffffffffffffffffffffff1673ffffffffffffffffffffffffffffffffffffffff16815260200190815260200160002060006101000a81548163ffffffff021916908363ffffffff160217905550600f60003373ffffffffffffffffffffffffffffffffffffffff1673ffffffffffffffffffffffffffffffffffffffff16815260200190815260200160002060009054906101000a900463ffffffff1690505b7f8d0f0378a9bbbcbac4ac59df3049d805d00355aaedd51035e7f1f59cc49a46bf3383604051610e219291906131a3565b60405180910390a192915050565b600060011515610e61600560009054906101000a900473ffffffffffffffffffffffffffffffffffffffff168461191e565b151514610e6d57600080fd5b60019050919050565b6060806000600d610e856123fc565b63ffffffff1681548110610e9c57610e9b613016565b5b90600052602060002090600402019050806003018054610ebb90612e79565b80601f0160208091040260200160405190810160405280929190818152602001828054610ee790612e79565b8015610f345780601f10610f0957610100808354040283529160200191610f34565b820191906000526020600020905b815481529060010190602001808311610f1757829003601f168201915b5050505050925060006001600f600b86604051610f519190613208565b908152602001604051809103902060009054906101000a900461ffff16610f78919061324e565b610f82919061327f565b905060098161ffff1681548110610f9c57610f9b613016565b5b9060005260206000200182600301908054610fb690612e79565b610fc19291906124e3565b50816003018054610fd190612e79565b80601f0160208091040260200160405190810160405280929190818152602001828054610ffd90612e79565b801561104a5780601f1061101f5761010080835404028352916020019161104a565b820191906000526020600020905b81548152906001019060200180831161102d57829003601f168201915b5050505050925050509091565b6000600f60003373ffffffffffffffffffffffffffffffffffffffff1673ffffffffffffffffffffffffffffffffffffffff16815260200190815260200160002060009054906101000a900463ffffffff16905090565b600080601060003373ffffffffffffffffffffffffffffffffffffffff1673ffffffffffffffffffffffffffffffffffffffff16815260200190815260200160002080549050141561118e576040518060c00160405280600060ff168152602001600060ff168152602001600060ff168152602001600060ff168152602001600060ff168152602001600060ff16815250601060003373ffffffffffffffffffffffffffffffffffffffff1673ffffffffffffffffffffffffffffffffffffffff16815260200190815260200160002090600661118c929190612570565b505b600061119861212a565b90506001601060003373ffffffffffffffffffffffffffffffffffffffff1673ffffffffffffffffffffffffffffffffffffffff1681526020019081526020016000208261ffff16815481106111f1576111f0613016565b5b90600052602060002090600891828204019190066004029054906101000a900463ffffffff1661122191906132b7565b601060003373ffffffffffffffffffffffffffffffffffffffff1673ffffffffffffffffffffffffffffffffffffffff1681526020019081526020016000208261ffff168154811061127657611275613016565b5b90600052602060002090600891828204019190066004026101000a81548163ffffffff021916908363ffffffff1602179055507f266bfd31304d2f50cc9c806da0368b27568ec8bcff8c15b3be133980d86c66bc816040516112d8919061332c565b60405180910390a18061ffff1691505090565b60008060008373ffffffffffffffffffffffffffffffffffffffff1673ffffffffffffffffffffffffffffffffffffffff168152602001908152602001600020549050919050565b6000600560009054906101000a900473ffffffffffffffffffffffffffffffffffffffff16905090565b600560009054906101000a900473ffffffffffffffffffffffffffffffffffffffff1681565b60606004805461139290612e79565b80601f01602080910402602001604051908101604052809291908181526020018280546113be90612e79565b801561140b5780601f106113e05761010080835404028352916020019161140b565b820191906000526020600020905b8154815290600101906020018083116113ee57829003601f168201915b5050505050905090565b6000611444600560009054906101000a900473ffffffffffffffffffffffffffffffffffffffff163334611ea9565b7f71217b0ac6661ea270eb8b6cbcaee0e9a1959b2d504fdf83b0deedc472456d8633346040516114759291906131a3565b60405180910390a16001905090565b600080600d6114916123fc565b63ffffffff16815481106114a8576114a7613016565b5b9060005260206000209060040201905060008160030180546114c990612e79565b80601f01602080910402602001604051908101604052809291908181526020018280546114f590612e79565b80156115425780601f1061151757610100808354040283529160200191611542565b820191906000526020600020905b81548152906001019060200180831161152557829003601f168201915b505050505090506001600f600b8360405161155d9190613208565b908152602001604051809103902060009054906101000a900461ffff16611584919061324e565b61158e919061327f565b925060098361ffff16815481106115a8576115a7613016565b5b90600052602060002001826003019080546115c290612e79565b6115cd9291906124e3565b50505090565b600080600160006115e2611cd6565b73ffffffffffffffffffffffffffffffffffffffff1673ffffffffffffffffffffffffffffffffffffffff16815260200190815260200160002060008573ffffffffffffffffffffffffffffffffffffffff1673ffffffffffffffffffffffffffffffffffffffff1681526020019081526020016000205490508281101561169f576040517f08c379a0000000000000000000000000000000000000000000000000000000008152600401611696906133b9565b60405180910390fd5b6116b36116aa611cd6565b85858403611cde565b600191505092915050565b6116c661261d565b6000600c60003373ffffffffffffffffffffffffffffffffffffffff1673ffffffffffffffffffffffffffffffffffffffff16815260200190815260200160002060009054906101000a900463ffffffff1663ffffffff16141561175f576040517f08c379a000000000000000000000000000000000000000000000000000000000815260040161175690613425565b60405180910390fd5b600d600c60003373ffffffffffffffffffffffffffffffffffffffff1673ffffffffffffffffffffffffffffffffffffffff16815260200190815260200160002060009054906101000a900463ffffffff1663ffffffff16815481106117c8576117c7613016565b5b90600052602060002090600402016040518060800160405290816000820180546117f190612e79565b80601f016020809104026020016040519081016040528092919081815260200182805461181d90612e79565b801561186a5780601f1061183f5761010080835404028352916020019161186a565b820191906000526020600020905b81548152906001019060200180831161184d57829003601f168201915b50505050508152602001600182015481526020016002820154815260200160038201805461189790612e79565b80601f01602080910402602001604051908101604052809291908181526020018280546118c390612e79565b80156119105780601f106118e557610100808354040283529160200191611910565b820191906000526020600020905b8154815290600101906020018083116118f357829003601f168201915b505050505081525050905090565b600061193261192b611cd6565b8484611ea9565b6001905092915050565b60006001601060003373ffffffffffffffffffffffffffffffffffffffff1673ffffffffffffffffffffffffffffffffffffffff1681526020019081526020016000208363ffffffff168154811061199757611996613016565b5b90600052602060002090600891828204019190066004029054906101000a900463ffffffff166119c79190613445565b601060003373ffffffffffffffffffffffffffffffffffffffff1673ffffffffffffffffffffffffffffffffffffffff1681526020019081526020016000208363ffffffff1681548110611a1e57611a1d613016565b5b90600052602060002090600891828204019190066004026101000a81548163ffffffff021916908363ffffffff1602179055507f8eb7decf255003bd6a642be41fcea2b43d699bc543688768880b7847e3d5c68082604051611a809190612af8565b60405180910390a160019050919050565b60008033905060011515611ac7600560009054906101000a900473ffffffffffffffffffffffffffffffffffffffff168561191e565b151514611ad357600080fd5b8073ffffffffffffffffffffffffffffffffffffffff166108fc849081150290604051600060405180830381858888f19350505050158015611b19573d6000803e3d6000fd5b507f94d0a8b0f912fb8e07f67cb42b315492f67e990cb9164d9bc3d01d8048999bb78184604051611b4b9291906134ce565b60405180910390a16001915050919050565b6000600160008473ffffffffffffffffffffffffffffffffffffffff1673ffffffffffffffffffffffffffffffffffffffff16815260200190815260200160002060008373ffffffffffffffffffffffffffffffffffffffff1673ffffffffffffffffffffffffffffffffffffffff16815260200190815260200160002054905092915050565b600080611bef6123fc565b63ffffffff1611905090565b6000600860009054906101000a900463ffffffff16905090565b6060601060003373ffffffffffffffffffffffffffffffffffffffff1673ffffffffffffffffffffffffffffffffffffffff168152602001908152602001600020805480602002602001604051908101604052809291908181526020018280548015611ccc57602002820191906000526020600020906000905b82829054906101000a900463ffffffff1663ffffffff1681526020019060040190602082600301049283019260010382029150808411611c8f5790505b5050505050905090565b600033905090565b600073ffffffffffffffffffffffffffffffffffffffff168373ffffffffffffffffffffffffffffffffffffffff161415611d4e576040517f08c379a0000000000000000000000000000000000000000000000000000000008152600401611d4590613569565b60405180910390fd5b600073ffffffffffffffffffffffffffffffffffffffff168273ffffffffffffffffffffffffffffffffffffffff161415611dbe576040517f08c379a0000000000000000000000000000000000000000000000000000000008152600401611db5906135fb565b60405180910390fd5b80600160008573ffffffffffffffffffffffffffffffffffffffff1673ffffffffffffffffffffffffffffffffffffffff16815260200190815260200160002060008473ffffffffffffffffffffffffffffffffffffffff1673ffffffffffffffffffffffffffffffffffffffff168152602001908152602001600020819055508173ffffffffffffffffffffffffffffffffffffffff168373ffffffffffffffffffffffffffffffffffffffff167f8c5be1e5ebec7d5bd14f71427d1e84f3dd0314c0f7b2291e5b200ac8c7c3b92583604051611e9c919061284a565b60405180910390a3505050565b600073ffffffffffffffffffffffffffffffffffffffff168373ffffffffffffffffffffffffffffffffffffffff161415611f19576040517f08c379a0000000000000000000000000000000000000000000000000000000008152600401611f109061368d565b60405180910390fd5b600073ffffffffffffffffffffffffffffffffffffffff168273ffffffffffffffffffffffffffffffffffffffff161415611f89576040517f08c379a0000000000000000000000000000000000000000000000000000000008152600401611f809061371f565b60405180910390fd5b611f94838383612453565b60008060008573ffffffffffffffffffffffffffffffffffffffff1673ffffffffffffffffffffffffffffffffffffffff1681526020019081526020016000205490508181101561201a576040517f08c379a0000000000000000000000000000000000000000000000000000000008152600401612011906137b1565b60405180910390fd5b8181036000808673ffffffffffffffffffffffffffffffffffffffff1673ffffffffffffffffffffffffffffffffffffffff16815260200190815260200160002081905550816000808573ffffffffffffffffffffffffffffffffffffffff1673ffffffffffffffffffffffffffffffffffffffff16815260200190815260200160002060008282546120ad9190612fc0565b925050819055508273ffffffffffffffffffffffffffffffffffffffff168473ffffffffffffffffffffffffffffffffffffffff167fddf252ad1be2c89b69c2b068fc378daa952ba7f163c4a11628f55a4df523b3ef84604051612111919061284a565b60405180910390a3612124848484612458565b50505050565b6000600160054260066000815480929190612144906137d1565b919050553360405160200161215b93929190613883565b6040516020818303038152906040528051906020012060001c61217e91906138c0565b612188919061327f565b905090565b612197600061222d565b600f60003373ffffffffffffffffffffffffffffffffffffffff1673ffffffffffffffffffffffffffffffffffffffff16815260200190815260200160002060006101000a81548163ffffffff021916908363ffffffff1602179055507f67cb59078af551a61734a5ff2c80f77546caa28f5357c920d420eb3dac631c4f336040516122239190613188565b60405180910390a1565b6000808263ffffffff1614156122a0576001600342600e6000815480929190612255906137d1565b919050553360405160200161226c93929190613883565b6040516020818303038152906040528051906020012060001c61228f91906138c0565b61229991906132b7565b90506123f7565b60018263ffffffff161415612312576001600542600e60008154809291906122c7906137d1565b91905055336040516020016122de93929190613883565b6040516020818303038152906040528051906020012060001c61230191906138c0565b61230b91906132b7565b90506123f7565b60028263ffffffff161415612384576001600742600e6000815480929190612339906137d1565b919050553360405160200161235093929190613883565b6040516020818303038152906040528051906020012060001c61237391906138c0565b61237d91906132b7565b90506123f7565b60038263ffffffff1614156123f6576003600542600e60008154809291906123ab906137d1565b91905055336040516020016123c293929190613883565b6040516020818303038152906040528051906020012060001c6123e591906138c0565b6123ef91906132b7565b90506123f7565b5b919050565b6000600c60003373ffffffffffffffffffffffffffffffffffffffff1673ffffffffffffffffffffffffffffffffffffffff16815260200190815260200160002060009054906101000a900463ffffffff16905090565b505050565b505050565b82805461246990612e79565b90600052602060002090601f01602090048101928261248b57600085556124d2565b82601f106124a457805160ff19168380011785556124d2565b828001600101855582156124d2579182015b828111156124d15782518255916020019190600101906124b6565b5b5090506124df9190612645565b5090565b8280546124ef90612e79565b90600052602060002090601f016020900481019282612511576000855561255f565b82601f10612522578054855561255f565b8280016001018555821561255f57600052602060002091601f016020900482015b8281111561255e578254825591600101919060010190612543565b5b50905061256c9190612645565b5090565b8280548282559060005260206000209060070160089004810192821561260c5791602002820160005b838211156125da57835183826101000a81548163ffffffff021916908360ff1602179055509260200192600401602081600301049283019260010302612599565b801561260a5782816101000a81549063ffffffff02191690556004016020816003010492830192600103026125da565b505b5090506126199190612645565b5090565b6040518060800160405280606081526020016000815260200160008152602001606081525090565b5b8082111561265e576000816000905550600101612646565b5090565b600081519050919050565b600082825260208201905092915050565b60005b8381101561269c578082015181840152602081019050612681565b838111156126ab576000848401525b50505050565b6000601f19601f8301169050919050565b60006126cd82612662565b6126d7818561266d565b93506126e781856020860161267e565b6126f0816126b1565b840191505092915050565b6000602082019050818103600083015261271581846126c2565b905092915050565b6000604051905090565b600080fd5b600080fd5b600073ffffffffffffffffffffffffffffffffffffffff82169050919050565b600061275c82612731565b9050919050565b61276c81612751565b811461277757600080fd5b50565b60008135905061278981612763565b92915050565b6000819050919050565b6127a28161278f565b81146127ad57600080fd5b50565b6000813590506127bf81612799565b92915050565b600080604083850312156127dc576127db612727565b5b60006127ea8582860161277a565b92505060206127fb858286016127b0565b9150509250929050565b60008115159050919050565b61281a81612805565b82525050565b60006020820190506128356000830184612811565b92915050565b6128448161278f565b82525050565b600060208201905061285f600083018461283b565b92915050565b60008060006060848603121561287e5761287d612727565b5b600061288c8682870161277a565b935050602061289d8682870161277a565b92505060406128ae868287016127b0565b9150509250925092565b600060ff82169050919050565b6128ce816128b8565b82525050565b60006020820190506128e960008301846128c5565b92915050565b600080fd5b600080fd5b7f4e487b7100000000000000000000000000000000000000000000000000000000600052604160045260246000fd5b612931826126b1565b810181811067ffffffffffffffff821117156129505761294f6128f9565b5b80604052505050565b600061296361271d565b905061296f8282612928565b919050565b600067ffffffffffffffff82111561298f5761298e6128f9565b5b612998826126b1565b9050602081019050919050565b82818337600083830152505050565b60006129c76129c284612974565b612959565b9050828152602081018484840111156129e3576129e26128f4565b5b6129ee8482856129a5565b509392505050565b600082601f830112612a0b57612a0a6128ef565b5b8135612a1b8482602086016129b4565b91505092915050565b600060208284031215612a3a57612a39612727565b5b600082013567ffffffffffffffff811115612a5857612a5761272c565b5b612a64848285016129f6565b91505092915050565b600063ffffffff82169050919050565b612a8681612a6d565b8114612a9157600080fd5b50565b600081359050612aa381612a7d565b92915050565b60008060408385031215612ac057612abf612727565b5b6000612ace85828601612a94565b9250506020612adf858286016127b0565b9150509250929050565b612af281612a6d565b82525050565b6000602082019050612b0d6000830184612ae9565b92915050565b600060208284031215612b2957612b28612727565b5b6000612b37848285016127b0565b91505092915050565b60006040820190508181036000830152612b5a81856126c2565b90508181036020830152612b6e81846126c2565b90509392505050565b600060208284031215612b8d57612b8c612727565b5b6000612b9b8482850161277a565b91505092915050565b6000612baf82612731565b9050919050565b612bbf81612ba4565b82525050565b6000602082019050612bda6000830184612bb6565b92915050565b600061ffff82169050919050565b612bf781612be0565b82525050565b6000602082019050612c126000830184612bee565b92915050565b600082825260208201905092915050565b6000612c3482612662565b612c3e8185612c18565b9350612c4e81856020860161267e565b612c57816126b1565b840191505092915050565b612c6b8161278f565b82525050565b60006080830160008301518482036000860152612c8e8282612c29565b9150506020830151612ca36020860182612c62565b506040830151612cb66040860182612c62565b5060608301518482036060860152612cce8282612c29565b9150508091505092915050565b60006020820190508181036000830152612cf58184612c71565b905092915050565b600060208284031215612d1357612d12612727565b5b6000612d2184828501612a94565b91505092915050565b60008060408385031215612d4157612d40612727565b5b6000612d4f8582860161277a565b9250506020612d608582860161277a565b9150509250929050565b600081519050919050565b600082825260208201905092915050565b6000819050602082019050919050565b612d9f81612a6d565b82525050565b6000612db18383612d96565b60208301905092915050565b6000602082019050919050565b6000612dd582612d6a565b612ddf8185612d75565b9350612dea83612d86565b8060005b83811015612e1b578151612e028882612da5565b9750612e0d83612dbd565b925050600181019050612dee565b5085935050505092915050565b60006020820190508181036000830152612e428184612dca565b905092915050565b7f4e487b7100000000000000000000000000000000000000000000000000000000600052602260045260246000fd5b60006002820490506001821680612e9157607f821691505b60208210811415612ea557612ea4612e4a565b5b50919050565b7f45524332303a207472616e7366657220616d6f756e742065786365656473206160008201527f6c6c6f77616e6365000000000000000000000000000000000000000000000000602082015250565b6000612f0760288361266d565b9150612f1282612eab565b604082019050919050565b60006020820190508181036000830152612f3681612efa565b9050919050565b612f4681612751565b82525050565b6000606082019050612f616000830186612f3d565b8181036020830152612f7381856126c2565b90508181036040830152612f8781846126c2565b9050949350505050565b7f4e487b7100000000000000000000000000000000000000000000000000000000600052601160045260246000fd5b6000612fcb8261278f565b9150612fd68361278f565b9250827fffffffffffffffffffffffffffffffffffffffffffffffffffffffffffffffff0382111561300b5761300a612f91565b5b828201905092915050565b7f4e487b7100000000000000000000000000000000000000000000000000000000600052603260045260246000fd5b600061305082612a6d565b915063ffffffff82141561306757613066612f91565b5b600182019050919050565b7f7465737400000000000000000000000000000000000000000000000000000000600082015250565b60006130a860048361266d565b91506130b382613072565b602082019050919050565b60008190508160005260206000209050919050565b600081546130e081612e79565b6130ea818661266d565b9450600182166000811461310557600181146131175761314a565b60ff198316865260208601935061314a565b613120856130be565b60005b8381101561314257815481890152600182019150602081019050613123565b808801955050505b50505092915050565b6000604082019050818103600083015261316c8161309b565b9050818103602083015261318081846130d3565b905092915050565b600060208201905061319d6000830184612f3d565b92915050565b60006040820190506131b86000830185612f3d565b6131c5602083018461283b565b9392505050565b600081905092915050565b60006131e282612662565b6131ec81856131cc565b93506131fc81856020860161267e565b80840191505092915050565b600061321482846131d7565b915081905092915050565b7f4e487b7100000000000000000000000000000000000000000000000000000000600052601260045260246000fd5b600061325982612be0565b915061326483612be0565b9250826132745761327361321f565b5b828206905092915050565b600061328a82612be0565b915061329583612be0565b92508261ffff038211156132ac576132ab612f91565b5b828201905092915050565b60006132c282612a6d565b91506132cd83612a6d565b92508263ffffffff038211156132e6576132e5612f91565b5b828201905092915050565b6000819050919050565b600061331661331161330c84612be0565b6132f1565b612a6d565b9050919050565b613326816132fb565b82525050565b6000602082019050613341600083018461331d565b92915050565b7f45524332303a2064656372656173656420616c6c6f77616e63652062656c6f7760008201527f207a65726f000000000000000000000000000000000000000000000000000000602082015250565b60006133a360258361266d565b91506133ae82613347565b604082019050919050565b600060208201905081810360008301526133d281613396565b9050919050565b7f7265676973746572206669727374000000000000000000000000000000000000600082015250565b600061340f600e8361266d565b915061341a826133d9565b602082019050919050565b6000602082019050818103600083015261343e81613402565b9050919050565b600061345082612a6d565b915061345b83612a6d565b92508282101561346e5761346d612f91565b5b828203905092915050565b600061349461348f61348a84612731565b6132f1565b612731565b9050919050565b60006134a682613479565b9050919050565b60006134b88261349b565b9050919050565b6134c8816134ad565b82525050565b60006040820190506134e360008301856134bf565b6134f0602083018461283b565b9392505050565b7f45524332303a20617070726f76652066726f6d20746865207a65726f2061646460008201527f7265737300000000000000000000000000000000000000000000000000000000602082015250565b600061355360248361266d565b915061355e826134f7565b604082019050919050565b6000602082019050818103600083015261358281613546565b9050919050565b7f45524332303a20617070726f766520746f20746865207a65726f20616464726560008201527f7373000000000000000000000000000000000000000000000000000000000000602082015250565b60006135e560228361266d565b91506135f082613589565b604082019050919050565b60006020820190508181036000830152613614816135d8565b9050919050565b7f45524332303a207472616e736665722066726f6d20746865207a65726f20616460008201527f6472657373000000000000000000000000000000000000000000000000000000602082015250565b600061367760258361266d565b91506136828261361b565b604082019050919050565b600060208201905081810360008301526136a68161366a565b9050919050565b7f45524332303a207472616e7366657220746f20746865207a65726f206164647260008201527f6573730000000000000000000000000000000000000000000000000000000000602082015250565b600061370960238361266d565b9150613714826136ad565b604082019050919050565b60006020820190508181036000830152613738816136fc565b9050919050565b7f45524332303a207472616e7366657220616d6f756e742065786365656473206260008201527f616c616e63650000000000000000000000000000000000000000000000000000602082015250565b600061379b60268361266d565b91506137a68261373f565b604082019050919050565b600060208201905081810360008301526137ca8161378e565b9050919050565b60006137dc8261278f565b91507fffffffffffffffffffffffffffffffffffffffffffffffffffffffffffffffff82141561380f5761380e612f91565b5b600182019050919050565b6000819050919050565b6138356138308261278f565b61381a565b82525050565b60008160601b9050919050565b60006138538261383b565b9050919050565b600061386582613848565b9050919050565b61387d61387882612751565b61385a565b82525050565b600061388f8286613824565b60208201915061389f8285613824565b6020820191506138af828461386c565b601482019150819050949350505050565b60006138cb8261278f565b91506138d68361278f565b9250826138e6576138e561321f565b5b82820690509291505056fea26469706673582212207125b8be58bcabdf64beca5759a51fd0fe313d9d4d1126215da7690745d1ba8664736f6c634300080b0033",
  "immutableReferences": {},
  "source": "// SPDX-License-Identifier: MIT\r\npragma solidity ^0.8.0;\r\npragma experimental ABIEncoderV2;\r\n\r\nimport \"./MyToken.sol\";\r\n\r\ncontract CatBase is MyToken{\r\n\r\n    event NewCat(string name, string kittyId);\r\n    event FeedCat(address feeder, string beforeId, string afterId);\r\n    \r\n    uint private randNonce = 0;\r\n    uint private coolDownTime = 1 minutes;\r\n    uint32 private catCounts = 0;\r\n    string[] private kittyIds = [\"0\", \"150593.svg\", \"232751.svg\", \"404726.svg\", \"462704.svg\", \"493816.svg\", \"166471.svg\", \r\n    \"145686.svg\", \"137853.svg\", \"117429.svg\", \"96197.svg\", \"1994121.png\", \"1993609.png\", \"2010551.png\", \"2004592.png\", \r\n    \"2010501.png\"];\r\n    uint256[] private kittyPrices = [0, 1, 2, 3, 4, 5, 6, 7, 8, 9, 10, 11, 12, 13, 14, 15];\r\n\r\n    struct Cat {\r\n        string name;\r\n        uint256 price;\r\n        uint256 coolDown;\r\n        string kittyId; //cryptokitty id\r\n    }\r\n\r\n    mapping(string => uint16) internal idToIndex;\r\n    mapping(address => uint32) internal ownerToCat; // in-contract id;\r\n    Cat[] internal cats;\r\n\r\n    constructor(string memory name, string memory symbol) MyToken(name, symbol){\r\n\r\n        for(uint16 i=1;i<=5;i++){\r\n            idToIndex[kittyIds[i]] = i;\r\n        }\r\n\r\n        cats.push(Cat(\"ERROR\", 0, block.timestamp, \"0\"));\r\n    }\r\n\r\n    function _makeRandom() internal returns(uint16){\r\n        return uint16(uint(keccak256(abi.encodePacked(block.timestamp, randNonce++, msg.sender))) % 5) + 1;\r\n    }\r\n\r\n    function _getMyCatIdx() internal view returns(uint32) {return ownerToCat[msg.sender];}\r\n\r\n\r\n    function registerCat(string memory catName) public {\r\n\r\n        if(ownerToCat[msg.sender] == 0){\r\n            uint16 random = _makeRandom();\r\n            cats.push(Cat(catName, kittyPrices[random], block.timestamp, kittyIds[random]));\r\n            ownerToCat[msg.sender] = ++catCounts;\r\n            emit NewCat(\"test\", kittyIds[random]);\r\n        }\r\n        \r\n    }\r\n\r\n    function getCatCounts() public view returns(uint32) { return catCounts; }\r\n\r\n    function getMyCat() public view returns(Cat memory mycat){\r\n        require(ownerToCat[msg.sender] != 0, \"register first\");\r\n        mycat = cats[ownerToCat[msg.sender]];\r\n    }\r\n\r\n    function hasCat() public view returns(bool){\r\n         return _getMyCatIdx() > 0;\r\n    }\r\n\r\n\r\n    function updateKittyId() public returns(string memory beforeId, string memory afterId){\r\n\r\n        Cat storage cat = cats[_getMyCatIdx()];\r\n        beforeId = cat.kittyId;\r\n        uint16 idx = (idToIndex[beforeId])%15 + 1;\r\n        cat.kittyId = kittyIds[idx];\r\n        afterId = cat.kittyId;\r\n    }\r\n\r\n    function update() public returns(uint16 idx){\r\n        Cat storage cat = cats[_getMyCatIdx()];\r\n        string memory beforeId = cat.kittyId;\r\n        idx = (idToIndex[beforeId])%15 + 1;\r\n        cat.kittyId = kittyIds[idx];\r\n    }\r\n\r\n    function feed() public{\r\n        string memory beforeId;\r\n        string memory afterId;\r\n        (beforeId, afterId) = updateKittyId();\r\n        emit FeedCat(msg.sender, beforeId, afterId);\r\n    }\r\n    //contract   \r\n  event NewRod(address fisher);\r\n  event BUY_ROD(address buyer, uint256 cost);\r\n\r\n  uint internal rand = 0;\r\n  \r\n  struct Rod {\r\n    uint32 rodGrade;\r\n    uint32 rodPrice;\r\n  }\r\n  function _makeRandom(uint32 index) internal returns(uint32){\r\n      if (index == 0) {\r\n        return uint32(uint(keccak256(abi.encodePacked(block.timestamp, rand++, msg.sender))) % 3) + 1;\r\n      } else if(index == 1) {\r\n        return uint32(uint(keccak256(abi.encodePacked(block.timestamp, rand++, msg.sender))) % 5) + 1;\r\n      } else if (index == 2) {\r\n        return uint32(uint(keccak256(abi.encodePacked(block.timestamp, rand++, msg.sender))) % 7) + 1;\r\n      } else if(index == 3) {\r\n        return uint32(uint(keccak256(abi.encodePacked(block.timestamp, rand++, msg.sender))) % 5) + 3;\r\n      }\r\n  }\r\n  //   \r\n  mapping (address => uint32) rodOwner;\r\n\r\n  \r\n  function _createRod() private {\r\n    rodOwner[msg.sender] = _makeRandom(0);\r\n    emit NewRod(msg.sender);\r\n  }\r\n\r\n  function getRod() public view returns(uint32 rod){\r\n    rod = rodOwner[msg.sender];\r\n  }\r\n\r\n  function newRod(uint32 probability, uint256 cost) public returns(uint32 rod) {\r\n    require(useSSC(cost) == true);\r\n\r\n    if (rodOwner[msg.sender] == 0) {\r\n      _createRod();\r\n    } else {\r\n      emit NewRod(msg.sender);\r\n      rodOwner[msg.sender] = _makeRandom(probability);\r\n      rod = rodOwner[msg.sender];\r\n    }\r\n\r\n    emit BUY_ROD(msg.sender, cost);\r\n  }\r\n  //Fish Contract \r\n  event NewFish(uint32 fish);\r\n  event DeleteFish(uint32 fish);\r\n  \r\n  mapping (address => uint32[]) fishList;\r\n\r\n  function getFish() public view returns(uint32[] memory fish) {\r\n    fish = fishList[msg.sender];\r\n  }\r\n  // function getFish() public view returns(bool) {\r\n  //   return fishList[msg.sender].length == 1;\r\n  // }\r\n\r\n  function newFish() public returns(uint32) {\r\n    if (fishList[msg.sender].length == 0) {\r\n      fishList[msg.sender] = [0,0,0,0,0,0];\r\n    }\r\n    uint16 tmpFish = _makeRandom();\r\n    fishList[msg.sender][tmpFish] = fishList[msg.sender][tmpFish]+1;\r\n    emit NewFish(tmpFish);\r\n    return tmpFish;\r\n  }\r\n\r\n  function deleteFish(uint32 index) public returns(bool success) {\r\n    fishList[msg.sender][index] = fishList[msg.sender][index] - 1;\r\n    emit DeleteFish(index);\r\n    return true;\r\n  }\r\n}",
  "sourcePath": "C:\\Users\\kyoon\\Desktop\\madcamp\\madcamp-pj3-1\\contracts\\CatBase.sol",
  "compiler": {
    "name": "solc",
    "version": "0.8.11+commit.d7f03943.Emscripten.clang"
  },
  "schemaVersion": "3.4.4",
  "updatedAt": "2022-01-18T05:06:51.803Z",
  "devdoc": {
    "kind": "dev",
    "methods": {
      "allowance(address,address)": {
        "details": "See {IERC20-allowance}."
      },
      "approve(address,uint256)": {
        "details": "See {IERC20-approve}. Requirements: - `spender` cannot be the zero address."
      },
      "balanceOf(address)": {
        "details": "See {IERC20-balanceOf}."
      },
      "decimals()": {
        "details": "Returns the number of decimals used to get its user representation. For example, if `decimals` equals `2`, a balance of `505` tokens should be displayed to a user as `5.05` (`505 / 10 ** 2`). Tokens usually opt for a value of 18, imitating the relationship between Ether and Wei. This is the value {ERC20} uses, unless this function is overridden; NOTE: This information is only used for _display_ purposes: it in no way affects any of the arithmetic of the contract, including {IERC20-balanceOf} and {IERC20-transfer}."
      },
      "decreaseAllowance(address,uint256)": {
        "details": "Atomically decreases the allowance granted to `spender` by the caller. This is an alternative to {approve} that can be used as a mitigation for problems described in {IERC20-approve}. Emits an {Approval} event indicating the updated allowance. Requirements: - `spender` cannot be the zero address. - `spender` must have allowance for the caller of at least `subtractedValue`."
      },
      "increaseAllowance(address,uint256)": {
        "details": "Atomically increases the allowance granted to `spender` by the caller. This is an alternative to {approve} that can be used as a mitigation for problems described in {IERC20-approve}. Emits an {Approval} event indicating the updated allowance. Requirements: - `spender` cannot be the zero address."
      },
      "name()": {
        "details": "Returns the name of the token."
      },
      "symbol()": {
        "details": "Returns the symbol of the token, usually a shorter version of the name."
      },
      "totalSupply()": {
        "details": "See {IERC20-totalSupply}."
      },
      "transfer(address,uint256)": {
        "details": "See {IERC20-transfer}. Requirements: - `recipient` cannot be the zero address. - the caller must have a balance of at least `amount`."
      },
      "transferFrom(address,address,uint256)": {
        "details": "See {IERC20-transferFrom}. Emits an {Approval} event indicating the updated allowance. This is not required by the EIP. See the note at the beginning of {ERC20}. Requirements: - `sender` and `recipient` cannot be the zero address. - `sender` must have a balance of at least `amount`. - the caller must have allowance for ``sender``'s tokens of at least `amount`."
      }
    },
    "version": 1
  },
  "userdoc": {
    "kind": "user",
    "methods": {},
    "version": 1
  }
}