{
  "contractName": "CatBase",
  "abi": [
    {
      "inputs": [
        {
          "internalType": "string",
          "name": "name",
          "type": "string"
        },
        {
          "internalType": "string",
          "name": "symbol",
          "type": "string"
        }
      ],
      "stateMutability": "nonpayable",
      "type": "constructor"
    },
    {
      "anonymous": false,
      "inputs": [
        {
          "indexed": true,
          "internalType": "address",
          "name": "owner",
          "type": "address"
        },
        {
          "indexed": true,
          "internalType": "address",
          "name": "spender",
          "type": "address"
        },
        {
          "indexed": false,
          "internalType": "uint256",
          "name": "value",
          "type": "uint256"
        }
      ],
      "name": "Approval",
      "type": "event"
    },
    {
      "anonymous": false,
      "inputs": [
        {
          "indexed": false,
          "internalType": "address",
          "name": "buyer",
          "type": "address"
        },
        {
          "indexed": false,
          "internalType": "uint256",
          "name": "cost",
          "type": "uint256"
        }
      ],
      "name": "BUY_ROD",
      "type": "event"
    },
    {
      "anonymous": false,
      "inputs": [
        {
          "indexed": false,
          "internalType": "uint32",
          "name": "fish",
          "type": "uint32"
        }
      ],
      "name": "DeleteFish",
      "type": "event"
    },
    {
      "anonymous": false,
      "inputs": [
        {
          "indexed": false,
          "internalType": "address",
          "name": "requester",
          "type": "address"
        },
        {
          "indexed": false,
          "internalType": "uint256",
          "name": "value",
          "type": "uint256"
        }
      ],
      "name": "EXCHANGE_ETH_TO_SCC",
      "type": "event"
    },
    {
      "anonymous": false,
      "inputs": [
        {
          "indexed": false,
          "internalType": "address",
          "name": "requester",
          "type": "address"
        },
        {
          "indexed": false,
          "internalType": "uint256",
          "name": "value",
          "type": "uint256"
        }
      ],
      "name": "EXCHANGE_SCC_TO_ETH",
      "type": "event"
    },
    {
      "anonymous": false,
      "inputs": [
        {
          "indexed": false,
          "internalType": "address",
          "name": "feeder",
          "type": "address"
        },
        {
          "indexed": false,
          "internalType": "string",
          "name": "beforeId",
          "type": "string"
        },
        {
          "indexed": false,
          "internalType": "string",
          "name": "afterId",
          "type": "string"
        }
      ],
      "name": "FeedCat",
      "type": "event"
    },
    {
      "anonymous": false,
      "inputs": [
        {
          "indexed": false,
          "internalType": "string",
          "name": "name",
          "type": "string"
        },
        {
          "indexed": false,
          "internalType": "string",
          "name": "kittyId",
          "type": "string"
        }
      ],
      "name": "NewCat",
      "type": "event"
    },
    {
      "anonymous": false,
      "inputs": [
        {
          "indexed": false,
          "internalType": "uint32",
          "name": "fish",
          "type": "uint32"
        }
      ],
      "name": "NewFish",
      "type": "event"
    },
    {
      "anonymous": false,
      "inputs": [
        {
          "indexed": false,
          "internalType": "address",
          "name": "fisher",
          "type": "address"
        }
      ],
      "name": "NewRod",
      "type": "event"
    },
    {
      "anonymous": false,
      "inputs": [
        {
          "indexed": true,
          "internalType": "address",
          "name": "from",
          "type": "address"
        },
        {
          "indexed": true,
          "internalType": "address",
          "name": "to",
          "type": "address"
        },
        {
          "indexed": false,
          "internalType": "uint256",
          "name": "value",
          "type": "uint256"
        }
      ],
      "name": "Transfer",
      "type": "event"
    },
    {
      "inputs": [
        {
          "internalType": "uint256",
          "name": "value",
          "type": "uint256"
        }
      ],
      "name": "SSCtoEth",
      "outputs": [
        {
          "internalType": "bool",
          "name": "",
          "type": "bool"
        }
      ],
      "stateMutability": "payable",
      "type": "function"
    },
    {
      "inputs": [
        {
          "internalType": "address",
          "name": "owner",
          "type": "address"
        },
        {
          "internalType": "address",
          "name": "spender",
          "type": "address"
        }
      ],
      "name": "allowance",
      "outputs": [
        {
          "internalType": "uint256",
          "name": "",
          "type": "uint256"
        }
      ],
      "stateMutability": "view",
      "type": "function"
    },
    {
      "inputs": [
        {
          "internalType": "address",
          "name": "spender",
          "type": "address"
        },
        {
          "internalType": "uint256",
          "name": "amount",
          "type": "uint256"
        }
      ],
      "name": "approve",
      "outputs": [
        {
          "internalType": "bool",
          "name": "",
          "type": "bool"
        }
      ],
      "stateMutability": "nonpayable",
      "type": "function"
    },
    {
      "inputs": [
        {
          "internalType": "address",
          "name": "account",
          "type": "address"
        }
      ],
      "name": "balanceOf",
      "outputs": [
        {
          "internalType": "uint256",
          "name": "",
          "type": "uint256"
        }
      ],
      "stateMutability": "view",
      "type": "function"
    },
    {
      "inputs": [],
      "name": "decimals",
      "outputs": [
        {
          "internalType": "uint8",
          "name": "",
          "type": "uint8"
        }
      ],
      "stateMutability": "view",
      "type": "function"
    },
    {
      "inputs": [
        {
          "internalType": "address",
          "name": "spender",
          "type": "address"
        },
        {
          "internalType": "uint256",
          "name": "subtractedValue",
          "type": "uint256"
        }
      ],
      "name": "decreaseAllowance",
      "outputs": [
        {
          "internalType": "bool",
          "name": "",
          "type": "bool"
        }
      ],
      "stateMutability": "nonpayable",
      "type": "function"
    },
    {
      "inputs": [],
      "name": "ethToSSC",
      "outputs": [
        {
          "internalType": "bool",
          "name": "",
          "type": "bool"
        }
      ],
      "stateMutability": "payable",
      "type": "function"
    },
    {
      "inputs": [],
      "name": "getOwner",
      "outputs": [
        {
          "internalType": "address payable",
          "name": "",
          "type": "address"
        }
      ],
      "stateMutability": "view",
      "type": "function"
    },
    {
      "inputs": [
        {
          "internalType": "address",
          "name": "spender",
          "type": "address"
        },
        {
          "internalType": "uint256",
          "name": "addedValue",
          "type": "uint256"
        }
      ],
      "name": "increaseAllowance",
      "outputs": [
        {
          "internalType": "bool",
          "name": "",
          "type": "bool"
        }
      ],
      "stateMutability": "nonpayable",
      "type": "function"
    },
    {
      "inputs": [],
      "name": "name",
      "outputs": [
        {
          "internalType": "string",
          "name": "",
          "type": "string"
        }
      ],
      "stateMutability": "view",
      "type": "function"
    },
    {
      "inputs": [],
      "name": "owner",
      "outputs": [
        {
          "internalType": "address payable",
          "name": "",
          "type": "address"
        }
      ],
      "stateMutability": "view",
      "type": "function"
    },
    {
      "inputs": [],
      "name": "symbol",
      "outputs": [
        {
          "internalType": "string",
          "name": "",
          "type": "string"
        }
      ],
      "stateMutability": "view",
      "type": "function"
    },
    {
      "inputs": [],
      "name": "totalSupply",
      "outputs": [
        {
          "internalType": "uint256",
          "name": "",
          "type": "uint256"
        }
      ],
      "stateMutability": "view",
      "type": "function"
    },
    {
      "inputs": [
        {
          "internalType": "address",
          "name": "recipient",
          "type": "address"
        },
        {
          "internalType": "uint256",
          "name": "amount",
          "type": "uint256"
        }
      ],
      "name": "transfer",
      "outputs": [
        {
          "internalType": "bool",
          "name": "",
          "type": "bool"
        }
      ],
      "stateMutability": "nonpayable",
      "type": "function"
    },
    {
      "inputs": [
        {
          "internalType": "address",
          "name": "sender",
          "type": "address"
        },
        {
          "internalType": "address",
          "name": "recipient",
          "type": "address"
        },
        {
          "internalType": "uint256",
          "name": "amount",
          "type": "uint256"
        }
      ],
      "name": "transferFrom",
      "outputs": [
        {
          "internalType": "bool",
          "name": "",
          "type": "bool"
        }
      ],
      "stateMutability": "nonpayable",
      "type": "function"
    },
    {
      "inputs": [
        {
          "internalType": "uint256",
          "name": "value",
          "type": "uint256"
        }
      ],
      "name": "useSSC",
      "outputs": [
        {
          "internalType": "bool",
          "name": "",
          "type": "bool"
        }
      ],
      "stateMutability": "payable",
      "type": "function"
    },
    {
      "inputs": [
        {
          "internalType": "string",
          "name": "catName",
          "type": "string"
        }
      ],
      "name": "registerCat",
      "outputs": [],
      "stateMutability": "nonpayable",
      "type": "function"
    },
    {
      "inputs": [],
      "name": "getCatCounts",
      "outputs": [
        {
          "internalType": "uint32",
          "name": "",
          "type": "uint32"
        }
      ],
      "stateMutability": "view",
      "type": "function"
    },
    {
      "inputs": [],
      "name": "getMyCat",
      "outputs": [
        {
          "components": [
            {
              "internalType": "string",
              "name": "name",
              "type": "string"
            },
            {
              "internalType": "uint256",
              "name": "price",
              "type": "uint256"
            },
            {
              "internalType": "uint256",
              "name": "coolDown",
              "type": "uint256"
            },
            {
              "internalType": "string",
              "name": "kittyId",
              "type": "string"
            }
          ],
          "internalType": "struct CatBase.Cat",
          "name": "mycat",
          "type": "tuple"
        }
      ],
      "stateMutability": "view",
      "type": "function"
    },
    {
      "inputs": [],
      "name": "hasCat",
      "outputs": [
        {
          "internalType": "bool",
          "name": "",
          "type": "bool"
        }
      ],
      "stateMutability": "view",
      "type": "function"
    },
    {
      "inputs": [],
      "name": "feed",
      "outputs": [],
      "stateMutability": "nonpayable",
      "type": "function"
    },
    {
      "inputs": [],
      "name": "getRod",
      "outputs": [
        {
          "internalType": "uint32",
          "name": "rod",
          "type": "uint32"
        }
      ],
      "stateMutability": "view",
      "type": "function"
    },
    {
      "inputs": [
        {
          "internalType": "uint32",
          "name": "probability",
          "type": "uint32"
        },
        {
          "internalType": "uint256",
          "name": "cost",
          "type": "uint256"
        }
      ],
      "name": "newRod",
      "outputs": [
        {
          "internalType": "uint32",
          "name": "rod",
          "type": "uint32"
        }
      ],
      "stateMutability": "nonpayable",
      "type": "function"
    },
    {
      "inputs": [],
      "name": "getFish",
      "outputs": [
        {
          "internalType": "uint32[]",
          "name": "fish",
          "type": "uint32[]"
        }
      ],
      "stateMutability": "view",
      "type": "function"
    },
    {
      "inputs": [],
      "name": "newFish",
      "outputs": [
        {
          "internalType": "uint32",
          "name": "",
          "type": "uint32"
        }
      ],
      "stateMutability": "nonpayable",
      "type": "function"
    },
    {
      "inputs": [
        {
          "internalType": "uint32",
          "name": "index",
          "type": "uint32"
        }
      ],
      "name": "deleteFish",
      "outputs": [
        {
          "internalType": "bool",
          "name": "success",
          "type": "bool"
        }
      ],
      "stateMutability": "nonpayable",
      "type": "function"
    }
  ],
  "bytecode": "0x60806040526000600655603c6007556000600860006101000a81548163ffffffff021916908363ffffffff1602179055506040518060c001604052806040518060400160405280600181526020017f300000000000000000000000000000000000000000000000000000000000000081525081526020016040518060400160405280600a81526020017f3135303539332e7376670000000000000000000000000000000000000000000081525081526020016040518060400160405280600a81526020017f3233323735312e7376670000000000000000000000000000000000000000000081525081526020016040518060400160405280600a81526020017f3430343732362e7376670000000000000000000000000000000000000000000081525081526020016040518060400160405280600a81526020017f3436323730342e7376670000000000000000000000000000000000000000000081525081526020016040518060400160405280600a81526020017f3439333831362e737667000000000000000000000000000000000000000000008152508152506009906006620001ad92919062000645565b506040518060c00160405280600060ff168152602001600160ff168152602001600260ff168152602001600360ff168152602001600460ff168152602001600560ff16815250600a90600662000205929190620006ac565b506000600e553480156200021857600080fd5b506040516200455b3803806200455b83398181016040528101906200023e9190620009be565b8181818181600390805190602001906200025a92919062000703565b5080600490805190602001906200027392919062000703565b50505033600560006101000a81548173ffffffffffffffffffffffffffffffffffffffff021916908373ffffffffffffffffffffffffffffffffffffffff1602179055506200031a600560009054906101000a900473ffffffffffffffffffffffffffffffffffffffff16620002ee620004b960201b60201c565b60ff16600a620002ff919062000bd0565b6103e86200030e919062000c21565b620004c260201b60201c565b50506000600190505b60058161ffff1611620003a55780600b60098361ffff16815481106200034e576200034d62000c82565b5b9060005260206000200160405162000367919062000dc1565b908152602001604051809103902060006101000a81548161ffff021916908361ffff16021790555080806200039c9062000de8565b91505062000323565b50600d60405180608001604052806040518060400160405280600581526020017f4552524f520000000000000000000000000000000000000000000000000000008152508152602001600081526020014281526020016040518060400160405280600181526020017f3000000000000000000000000000000000000000000000000000000000000000815250815250908060018154018082558091505060019003906000526020600020906004020160009091909190915060008201518160000190805190602001906200047b92919062000703565b5060208201518160010155604082015181600201556060820151816003019080519060200190620004ae92919062000703565b505050505062000f26565b60006012905090565b600073ffffffffffffffffffffffffffffffffffffffff168273ffffffffffffffffffffffffffffffffffffffff16141562000535576040517f08c379a00000000000000000000000000000000000000000000000000000000081526004016200052c9062000e79565b60405180910390fd5b62000549600083836200063b60201b60201c565b80600260008282546200055d919062000e9b565b92505081905550806000808473ffffffffffffffffffffffffffffffffffffffff1673ffffffffffffffffffffffffffffffffffffffff1681526020019081526020016000206000828254620005b4919062000e9b565b925050819055508173ffffffffffffffffffffffffffffffffffffffff16600073ffffffffffffffffffffffffffffffffffffffff167fddf252ad1be2c89b69c2b068fc378daa952ba7f163c4a11628f55a4df523b3ef836040516200061b919062000f09565b60405180910390a362000637600083836200064060201b60201c565b5050565b505050565b505050565b82805482825590600052602060002090810192821562000699579160200282015b82811115620006985782518290805190602001906200068792919062000703565b509160200191906001019062000666565b5b509050620006a8919062000794565b5090565b828054828255906000526020600020908101928215620006f0579160200282015b82811115620006ef578251829060ff16905591602001919060010190620006cd565b5b509050620006ff9190620007bc565b5090565b828054620007119062000ce0565b90600052602060002090601f01602090048101928262000735576000855562000781565b82601f106200075057805160ff191683800117855562000781565b8280016001018555821562000781579182015b828111156200078057825182559160200191906001019062000763565b5b509050620007909190620007bc565b5090565b5b80821115620007b85760008181620007ae9190620007db565b5060010162000795565b5090565b5b80821115620007d7576000816000905550600101620007bd565b5090565b508054620007e99062000ce0565b6000825580601f10620007fd57506200081e565b601f0160209004906000526020600020908101906200081d9190620007bc565b5b50565b6000604051905090565b600080fd5b600080fd5b600080fd5b600080fd5b6000601f19601f8301169050919050565b7f4e487b7100000000000000000000000000000000000000000000000000000000600052604160045260246000fd5b6200088a826200083f565b810181811067ffffffffffffffff82111715620008ac57620008ab62000850565b5b80604052505050565b6000620008c162000821565b9050620008cf82826200087f565b919050565b600067ffffffffffffffff821115620008f257620008f162000850565b5b620008fd826200083f565b9050602081019050919050565b60005b838110156200092a5780820151818401526020810190506200090d565b838111156200093a576000848401525b50505050565b6000620009576200095184620008d4565b620008b5565b9050828152602081018484840111156200097657620009756200083a565b5b620009838482856200090a565b509392505050565b600082601f830112620009a357620009a262000835565b5b8151620009b584826020860162000940565b91505092915050565b60008060408385031215620009d857620009d76200082b565b5b600083015167ffffffffffffffff811115620009f957620009f862000830565b5b62000a07858286016200098b565b925050602083015167ffffffffffffffff81111562000a2b5762000a2a62000830565b5b62000a39858286016200098b565b9150509250929050565b7f4e487b7100000000000000000000000000000000000000000000000000000000600052601160045260246000fd5b60008160011c9050919050565b6000808291508390505b600185111562000ad15780860481111562000aa95762000aa862000a43565b5b600185161562000ab95780820291505b808102905062000ac98562000a72565b945062000a89565b94509492505050565b60008262000aec576001905062000bbf565b8162000afc576000905062000bbf565b816001811462000b15576002811462000b205762000b56565b600191505062000bbf565b60ff84111562000b355762000b3462000a43565b5b8360020a91508482111562000b4f5762000b4e62000a43565b5b5062000bbf565b5060208310610133831016604e8410600b841016171562000b905782820a90508381111562000b8a5762000b8962000a43565b5b62000bbf565b62000b9f848484600162000a7f565b9250905081840481111562000bb95762000bb862000a43565b5b81810290505b9392505050565b6000819050919050565b600062000bdd8262000bc6565b915062000bea8362000bc6565b925062000c197fffffffffffffffffffffffffffffffffffffffffffffffffffffffffffffffff848462000ada565b905092915050565b600062000c2e8262000bc6565b915062000c3b8362000bc6565b9250817fffffffffffffffffffffffffffffffffffffffffffffffffffffffffffffffff048311821515161562000c775762000c7662000a43565b5b828202905092915050565b7f4e487b7100000000000000000000000000000000000000000000000000000000600052603260045260246000fd5b7f4e487b7100000000000000000000000000000000000000000000000000000000600052602260045260246000fd5b6000600282049050600182168062000cf957607f821691505b6020821081141562000d105762000d0f62000cb1565b5b50919050565b600081905092915050565b60008190508160005260206000209050919050565b6000815462000d458162000ce0565b62000d51818662000d16565b9450600182166000811462000d6f576001811462000d815762000db8565b60ff1983168652818601935062000db8565b62000d8c8562000d21565b60005b8381101562000db05781548189015260018201915060208101905062000d8f565b838801955050505b50505092915050565b600062000dcf828462000d36565b915081905092915050565b600061ffff82169050919050565b600062000df58262000dda565b915061ffff82141562000e0d5762000e0c62000a43565b5b600182019050919050565b600082825260208201905092915050565b7f45524332303a206d696e7420746f20746865207a65726f206164647265737300600082015250565b600062000e61601f8362000e18565b915062000e6e8262000e29565b602082019050919050565b6000602082019050818103600083015262000e948162000e52565b9050919050565b600062000ea88262000bc6565b915062000eb58362000bc6565b9250827fffffffffffffffffffffffffffffffffffffffffffffffffffffffffffffffff0382111562000eed5762000eec62000a43565b5b828201905092915050565b62000f038162000bc6565b82525050565b600060208201905062000f20600083018462000ef8565b92915050565b6136258062000f366000396000f3fe6080604052600436106101815760003560e01c8063893d20e8116100d1578063a9059cbb1161008a578063dd62ed3e11610064578063dd62ed3e146105af578063f9351a62146105ec578063fe2ca31a14610617578063fee7ae6c1461064257610181565b8063a9059cbb14610505578063c696280f14610542578063cf1ecc121461057f57610181565b8063893d20e8146103fe5780638da5cb5b1461042957806395d89b41146104545780639f800a5f1461047f578063a457c2d71461049d578063a87e8aad146104da57610181565b8063395093511161013e57806349f062af1161011857806349f062af1461033b5780636bed25881461036b5780636efe947e1461039657806370a08231146103c157610181565b806339509351146102985780633f7af592146102d557806347e7f86e146102fe57610181565b806306fdde0314610186578063095ea7b3146101b157806318160ddd146101ee57806323b872dd14610219578063313ce5671461025657806337a7b7d814610281575b600080fd5b34801561019257600080fd5b5061019b61066d565b6040516101a891906124de565b60405180910390f35b3480156101bd57600080fd5b506101d860048036038101906101d391906125a8565b6106ff565b6040516101e59190612603565b60405180910390f35b3480156101fa57600080fd5b5061020361071d565b604051610210919061262d565b60405180910390f35b34801561022557600080fd5b50610240600480360381019061023b9190612648565b610727565b60405161024d9190612603565b60405180910390f35b34801561026257600080fd5b5061026b61081f565b60405161027891906126b7565b60405180910390f35b34801561028d57600080fd5b50610296610828565b005b3480156102a457600080fd5b506102bf60048036038101906102ba91906125a8565b610882565b6040516102cc9190612603565b60405180910390f35b3480156102e157600080fd5b506102fc60048036038101906102f79190612807565b61092e565b005b34801561030a57600080fd5b506103256004803603810190610320919061288c565b610bf5565b60405161033291906128db565b60405180910390f35b610355600480360381019061035091906128f6565b610daa565b6040516103629190612603565b60405180910390f35b34801561037757600080fd5b50610380610df1565b60405161038d91906128db565b60405180910390f35b3480156103a257600080fd5b506103ab610e48565b6040516103b891906128db565b60405180910390f35b3480156103cd57600080fd5b506103e860048036038101906103e39190612923565b611085565b6040516103f5919061262d565b60405180910390f35b34801561040a57600080fd5b506104136110cd565b6040516104209190612971565b60405180910390f35b34801561043557600080fd5b5061043e6110f7565b60405161044b9190612971565b60405180910390f35b34801561046057600080fd5b5061046961111d565b60405161047691906124de565b60405180910390f35b6104876111af565b6040516104949190612603565b60405180910390f35b3480156104a957600080fd5b506104c460048036038101906104bf91906125a8565b61121e565b6040516104d19190612603565b60405180910390f35b3480156104e657600080fd5b506104ef611309565b6040516104fc9190612a4f565b60405180910390f35b34801561051157600080fd5b5061052c600480360381019061052791906125a8565b611569565b6040516105399190612603565b60405180910390f35b34801561054e57600080fd5b5061056960048036038101906105649190612a71565b611587565b6040516105769190612603565b60405180910390f35b610599600480360381019061059491906128f6565b6116dc565b6040516105a69190612603565b60405180910390f35b3480156105bb57600080fd5b506105d660048036038101906105d19190612a9e565b6117a8565b6040516105e3919061262d565b60405180910390f35b3480156105f857600080fd5b5061060161182f565b60405161060e9190612603565b60405180910390f35b34801561062357600080fd5b5061062c611846565b60405161063991906128db565b60405180910390f35b34801561064e57600080fd5b50610657611860565b6040516106649190612b9c565b60405180910390f35b60606003805461067c90612bed565b80601f01602080910402602001604051908101604052809291908181526020018280546106a890612bed565b80156106f55780601f106106ca576101008083540402835291602001916106f5565b820191906000526020600020905b8154815290600101906020018083116106d857829003601f168201915b5050505050905090565b600061071361070c611921565b8484611929565b6001905092915050565b6000600254905090565b6000610734848484611af4565b6000600160008673ffffffffffffffffffffffffffffffffffffffff1673ffffffffffffffffffffffffffffffffffffffff168152602001908152602001600020600061077f611921565b73ffffffffffffffffffffffffffffffffffffffff1673ffffffffffffffffffffffffffffffffffffffff168152602001908152602001600020549050828110156107ff576040517f08c379a00000000000000000000000000000000000000000000000000000000081526004016107f690612c91565b60405180910390fd5b6108138561080b611921565b858403611929565b60019150509392505050565b60006012905090565b60608061083b610836611d75565b611dd8565b80925081935050507ff008945aea4d8839b3b3925aab2cd4074e11704a44b721a6e0606bda7c7abfec33838360405161087693929190612cc0565b60405180910390a15050565b600061092461088f611921565b84846001600061089d611921565b73ffffffffffffffffffffffffffffffffffffffff1673ffffffffffffffffffffffffffffffffffffffff16815260200190815260200160002060008873ffffffffffffffffffffffffffffffffffffffff1673ffffffffffffffffffffffffffffffffffffffff1681526020019081526020016000205461091f9190612d34565b611929565b6001905092915050565b6000600c60003373ffffffffffffffffffffffffffffffffffffffff1673ffffffffffffffffffffffffffffffffffffffff16815260200190815260200160002060009054906101000a900463ffffffff1663ffffffff161415610bf2576000610996611d75565b9050600d6040518060800160405280848152602001600a8461ffff16815481106109c3576109c2612d8a565b5b9060005260206000200154815260200142815260200160098461ffff16815481106109f1576109f0612d8a565b5b906000526020600020018054610a0690612bed565b80601f0160208091040260200160405190810160405280929190818152602001828054610a3290612bed565b8015610a7f5780601f10610a5457610100808354040283529160200191610a7f565b820191906000526020600020905b815481529060010190602001808311610a6257829003601f168201915b505050505081525090806001815401808255809150506001900390600052602060002090600402016000909190919091506000820151816000019080519060200190610acc929190612240565b5060208201518160010155604082015181600201556060820151816003019080519060200190610afd929190612240565b5050506008600081819054906101000a900463ffffffff16610b1e90612db9565b91906101000a81548163ffffffff021916908363ffffffff1602179055600c60003373ffffffffffffffffffffffffffffffffffffffff1673ffffffffffffffffffffffffffffffffffffffff16815260200190815260200160002060006101000a81548163ffffffff021916908363ffffffff1602179055507f63b59d5161bc58dd505463db003904efeb26d8cd54933cd5407980c0c7fe014460098261ffff1681548110610bd157610bd0612d8a565b5b90600052602060002001604051610be89190612ec7565b60405180910390a1505b50565b600060011515610c0483610daa565b151514610c1057600080fd5b6000600f60003373ffffffffffffffffffffffffffffffffffffffff1673ffffffffffffffffffffffffffffffffffffffff16815260200190815260200160002060009054906101000a900463ffffffff1663ffffffff161415610c7b57610c76611f70565b610d6b565b7f67cb59078af551a61734a5ff2c80f77546caa28f5357c920d420eb3dac631c4f33604051610caa9190612efc565b60405180910390a1610cbb83612010565b600f60003373ffffffffffffffffffffffffffffffffffffffff1673ffffffffffffffffffffffffffffffffffffffff16815260200190815260200160002060006101000a81548163ffffffff021916908363ffffffff160217905550600f60003373ffffffffffffffffffffffffffffffffffffffff1673ffffffffffffffffffffffffffffffffffffffff16815260200190815260200160002060009054906101000a900463ffffffff1690505b7f8d0f0378a9bbbcbac4ac59df3049d805d00355aaedd51035e7f1f59cc49a46bf3383604051610d9c929190612f17565b60405180910390a192915050565b600060011515610ddc600560009054906101000a900473ffffffffffffffffffffffffffffffffffffffff1684611569565b151514610de857600080fd5b60019050919050565b6000600f60003373ffffffffffffffffffffffffffffffffffffffff1673ffffffffffffffffffffffffffffffffffffffff16815260200190815260200160002060009054906101000a900463ffffffff16905090565b600080601060003373ffffffffffffffffffffffffffffffffffffffff1673ffffffffffffffffffffffffffffffffffffffff168152602001908152602001600020805490501415610f28576040518060c00160405280600060ff168152602001600060ff168152602001600060ff168152602001600060ff168152602001600060ff168152602001600060ff16815250601060003373ffffffffffffffffffffffffffffffffffffffff1673ffffffffffffffffffffffffffffffffffffffff168152602001908152602001600020906006610f269291906122c6565b505b6000610f32611d75565b90506001601060003373ffffffffffffffffffffffffffffffffffffffff1673ffffffffffffffffffffffffffffffffffffffff1681526020019081526020016000208261ffff1681548110610f8b57610f8a612d8a565b5b90600052602060002090600891828204019190066004029054906101000a900463ffffffff16610fbb9190612f40565b601060003373ffffffffffffffffffffffffffffffffffffffff1673ffffffffffffffffffffffffffffffffffffffff1681526020019081526020016000208261ffff16815481106110105761100f612d8a565b5b90600052602060002090600891828204019190066004026101000a81548163ffffffff021916908363ffffffff1602179055507f266bfd31304d2f50cc9c806da0368b27568ec8bcff8c15b3be133980d86c66bc816040516110729190612fc3565b60405180910390a18061ffff1691505090565b60008060008373ffffffffffffffffffffffffffffffffffffffff1673ffffffffffffffffffffffffffffffffffffffff168152602001908152602001600020549050919050565b6000600560009054906101000a900473ffffffffffffffffffffffffffffffffffffffff16905090565b600560009054906101000a900473ffffffffffffffffffffffffffffffffffffffff1681565b60606004805461112c90612bed565b80601f016020809104026020016040519081016040528092919081815260200182805461115890612bed565b80156111a55780601f1061117a576101008083540402835291602001916111a5565b820191906000526020600020905b81548152906001019060200180831161118857829003601f168201915b5050505050905090565b60006111de600560009054906101000a900473ffffffffffffffffffffffffffffffffffffffff163334611af4565b7f71217b0ac6661ea270eb8b6cbcaee0e9a1959b2d504fdf83b0deedc472456d86333460405161120f929190612f17565b60405180910390a16001905090565b6000806001600061122d611921565b73ffffffffffffffffffffffffffffffffffffffff1673ffffffffffffffffffffffffffffffffffffffff16815260200190815260200160002060008573ffffffffffffffffffffffffffffffffffffffff1673ffffffffffffffffffffffffffffffffffffffff168152602001908152602001600020549050828110156112ea576040517f08c379a00000000000000000000000000000000000000000000000000000000081526004016112e190613050565b60405180910390fd5b6112fe6112f5611921565b85858403611929565b600191505092915050565b611311612373565b6000600c60003373ffffffffffffffffffffffffffffffffffffffff1673ffffffffffffffffffffffffffffffffffffffff16815260200190815260200160002060009054906101000a900463ffffffff1663ffffffff1614156113aa576040517f08c379a00000000000000000000000000000000000000000000000000000000081526004016113a1906130bc565b60405180910390fd5b600d600c60003373ffffffffffffffffffffffffffffffffffffffff1673ffffffffffffffffffffffffffffffffffffffff16815260200190815260200160002060009054906101000a900463ffffffff1663ffffffff168154811061141357611412612d8a565b5b906000526020600020906004020160405180608001604052908160008201805461143c90612bed565b80601f016020809104026020016040519081016040528092919081815260200182805461146890612bed565b80156114b55780601f1061148a576101008083540402835291602001916114b5565b820191906000526020600020905b81548152906001019060200180831161149857829003601f168201915b5050505050815260200160018201548152602001600282015481526020016003820180546114e290612bed565b80601f016020809104026020016040519081016040528092919081815260200182805461150e90612bed565b801561155b5780601f106115305761010080835404028352916020019161155b565b820191906000526020600020905b81548152906001019060200180831161153e57829003601f168201915b505050505081525050905090565b600061157d611576611921565b8484611af4565b6001905092915050565b60006001601060003373ffffffffffffffffffffffffffffffffffffffff1673ffffffffffffffffffffffffffffffffffffffff1681526020019081526020016000208363ffffffff16815481106115e2576115e1612d8a565b5b90600052602060002090600891828204019190066004029054906101000a900463ffffffff1661161291906130dc565b601060003373ffffffffffffffffffffffffffffffffffffffff1673ffffffffffffffffffffffffffffffffffffffff1681526020019081526020016000208363ffffffff168154811061166957611668612d8a565b5b90600052602060002090600891828204019190066004026101000a81548163ffffffff021916908363ffffffff1602179055507f8eb7decf255003bd6a642be41fcea2b43d699bc543688768880b7847e3d5c680826040516116cb91906128db565b60405180910390a160019050919050565b60008033905060011515611712600560009054906101000a900473ffffffffffffffffffffffffffffffffffffffff1685611569565b15151461171e57600080fd5b8073ffffffffffffffffffffffffffffffffffffffff166108fc849081150290604051600060405180830381858888f19350505050158015611764573d6000803e3d6000fd5b507f94d0a8b0f912fb8e07f67cb42b315492f67e990cb9164d9bc3d01d8048999bb78184604051611796929190613165565b60405180910390a16001915050919050565b6000600160008473ffffffffffffffffffffffffffffffffffffffff1673ffffffffffffffffffffffffffffffffffffffff16815260200190815260200160002060008373ffffffffffffffffffffffffffffffffffffffff1673ffffffffffffffffffffffffffffffffffffffff16815260200190815260200160002054905092915050565b60008061183a6121df565b63ffffffff1611905090565b6000600860009054906101000a900463ffffffff16905090565b6060601060003373ffffffffffffffffffffffffffffffffffffffff1673ffffffffffffffffffffffffffffffffffffffff16815260200190815260200160002080548060200260200160405190810160405280929190818152602001828054801561191757602002820191906000526020600020906000905b82829054906101000a900463ffffffff1663ffffffff16815260200190600401906020826003010492830192600103820291508084116118da5790505b5050505050905090565b600033905090565b600073ffffffffffffffffffffffffffffffffffffffff168373ffffffffffffffffffffffffffffffffffffffff161415611999576040517f08c379a000000000000000000000000000000000000000000000000000000000815260040161199090613200565b60405180910390fd5b600073ffffffffffffffffffffffffffffffffffffffff168273ffffffffffffffffffffffffffffffffffffffff161415611a09576040517f08c379a0000000000000000000000000000000000000000000000000000000008152600401611a0090613292565b60405180910390fd5b80600160008573ffffffffffffffffffffffffffffffffffffffff1673ffffffffffffffffffffffffffffffffffffffff16815260200190815260200160002060008473ffffffffffffffffffffffffffffffffffffffff1673ffffffffffffffffffffffffffffffffffffffff168152602001908152602001600020819055508173ffffffffffffffffffffffffffffffffffffffff168373ffffffffffffffffffffffffffffffffffffffff167f8c5be1e5ebec7d5bd14f71427d1e84f3dd0314c0f7b2291e5b200ac8c7c3b92583604051611ae7919061262d565b60405180910390a3505050565b600073ffffffffffffffffffffffffffffffffffffffff168373ffffffffffffffffffffffffffffffffffffffff161415611b64576040517f08c379a0000000000000000000000000000000000000000000000000000000008152600401611b5b90613324565b60405180910390fd5b600073ffffffffffffffffffffffffffffffffffffffff168273ffffffffffffffffffffffffffffffffffffffff161415611bd4576040517f08c379a0000000000000000000000000000000000000000000000000000000008152600401611bcb906133b6565b60405180910390fd5b611bdf838383612236565b60008060008573ffffffffffffffffffffffffffffffffffffffff1673ffffffffffffffffffffffffffffffffffffffff16815260200190815260200160002054905081811015611c65576040517f08c379a0000000000000000000000000000000000000000000000000000000008152600401611c5c90613448565b60405180910390fd5b8181036000808673ffffffffffffffffffffffffffffffffffffffff1673ffffffffffffffffffffffffffffffffffffffff16815260200190815260200160002081905550816000808573ffffffffffffffffffffffffffffffffffffffff1673ffffffffffffffffffffffffffffffffffffffff1681526020019081526020016000206000828254611cf89190612d34565b925050819055508273ffffffffffffffffffffffffffffffffffffffff168473ffffffffffffffffffffffffffffffffffffffff167fddf252ad1be2c89b69c2b068fc378daa952ba7f163c4a11628f55a4df523b3ef84604051611d5c919061262d565b60405180910390a3611d6f84848461223b565b50505050565b6000600160054260066000815480929190611d8f90613468565b9190505533604051602001611da69392919061351a565b6040516020818303038152906040528051906020012060001c611dc99190613586565b611dd391906135b7565b905090565b6060806000600d611de76121df565b63ffffffff1681548110611dfe57611dfd612d8a565b5b90600052602060002090600402019050806003018054611e1d90612bed565b80601f0160208091040260200160405190810160405280929190818152602001828054611e4990612bed565b8015611e965780601f10611e6b57610100808354040283529160200191611e96565b820191906000526020600020905b815481529060010190602001808311611e7957829003601f168201915b5050505050925060098461ffff1681548110611eb557611eb4612d8a565b5b9060005260206000200181600301908054611ecf90612bed565b611eda92919061239b565b50806003018054611eea90612bed565b80601f0160208091040260200160405190810160405280929190818152602001828054611f1690612bed565b8015611f635780601f10611f3857610100808354040283529160200191611f63565b820191906000526020600020905b815481529060010190602001808311611f4657829003601f168201915b5050505050915050915091565b611f7a6000612010565b600f60003373ffffffffffffffffffffffffffffffffffffffff1673ffffffffffffffffffffffffffffffffffffffff16815260200190815260200160002060006101000a81548163ffffffff021916908363ffffffff1602179055507f67cb59078af551a61734a5ff2c80f77546caa28f5357c920d420eb3dac631c4f336040516120069190612efc565b60405180910390a1565b6000808263ffffffff161415612083576001600342600e600081548092919061203890613468565b919050553360405160200161204f9392919061351a565b6040516020818303038152906040528051906020012060001c6120729190613586565b61207c9190612f40565b90506121da565b60018263ffffffff1614156120f5576001600542600e60008154809291906120aa90613468565b91905055336040516020016120c19392919061351a565b6040516020818303038152906040528051906020012060001c6120e49190613586565b6120ee9190612f40565b90506121da565b60028263ffffffff161415612167576001600742600e600081548092919061211c90613468565b91905055336040516020016121339392919061351a565b6040516020818303038152906040528051906020012060001c6121569190613586565b6121609190612f40565b90506121da565b60038263ffffffff1614156121d9576003600542600e600081548092919061218e90613468565b91905055336040516020016121a59392919061351a565b6040516020818303038152906040528051906020012060001c6121c89190613586565b6121d29190612f40565b90506121da565b5b919050565b6000600c60003373ffffffffffffffffffffffffffffffffffffffff1673ffffffffffffffffffffffffffffffffffffffff16815260200190815260200160002060009054906101000a900463ffffffff16905090565b505050565b505050565b82805461224c90612bed565b90600052602060002090601f01602090048101928261226e57600085556122b5565b82601f1061228757805160ff19168380011785556122b5565b828001600101855582156122b5579182015b828111156122b4578251825591602001919060010190612299565b5b5090506122c29190612428565b5090565b828054828255906000526020600020906007016008900481019282156123625791602002820160005b8382111561233057835183826101000a81548163ffffffff021916908360ff16021790555092602001926004016020816003010492830192600103026122ef565b80156123605782816101000a81549063ffffffff0219169055600401602081600301049283019260010302612330565b505b50905061236f9190612428565b5090565b6040518060800160405280606081526020016000815260200160008152602001606081525090565b8280546123a790612bed565b90600052602060002090601f0160209004810192826123c95760008555612417565b82601f106123da5780548555612417565b8280016001018555821561241757600052602060002091601f016020900482015b828111156124165782548255916001019190600101906123fb565b5b5090506124249190612428565b5090565b5b80821115612441576000816000905550600101612429565b5090565b600081519050919050565b600082825260208201905092915050565b60005b8381101561247f578082015181840152602081019050612464565b8381111561248e576000848401525b50505050565b6000601f19601f8301169050919050565b60006124b082612445565b6124ba8185612450565b93506124ca818560208601612461565b6124d381612494565b840191505092915050565b600060208201905081810360008301526124f881846124a5565b905092915050565b6000604051905090565b600080fd5b600080fd5b600073ffffffffffffffffffffffffffffffffffffffff82169050919050565b600061253f82612514565b9050919050565b61254f81612534565b811461255a57600080fd5b50565b60008135905061256c81612546565b92915050565b6000819050919050565b61258581612572565b811461259057600080fd5b50565b6000813590506125a28161257c565b92915050565b600080604083850312156125bf576125be61250a565b5b60006125cd8582860161255d565b92505060206125de85828601612593565b9150509250929050565b60008115159050919050565b6125fd816125e8565b82525050565b600060208201905061261860008301846125f4565b92915050565b61262781612572565b82525050565b6000602082019050612642600083018461261e565b92915050565b6000806000606084860312156126615761266061250a565b5b600061266f8682870161255d565b93505060206126808682870161255d565b925050604061269186828701612593565b9150509250925092565b600060ff82169050919050565b6126b18161269b565b82525050565b60006020820190506126cc60008301846126a8565b92915050565b600080fd5b600080fd5b7f4e487b7100000000000000000000000000000000000000000000000000000000600052604160045260246000fd5b61271482612494565b810181811067ffffffffffffffff82111715612733576127326126dc565b5b80604052505050565b6000612746612500565b9050612752828261270b565b919050565b600067ffffffffffffffff821115612772576127716126dc565b5b61277b82612494565b9050602081019050919050565b82818337600083830152505050565b60006127aa6127a584612757565b61273c565b9050828152602081018484840111156127c6576127c56126d7565b5b6127d1848285612788565b509392505050565b600082601f8301126127ee576127ed6126d2565b5b81356127fe848260208601612797565b91505092915050565b60006020828403121561281d5761281c61250a565b5b600082013567ffffffffffffffff81111561283b5761283a61250f565b5b612847848285016127d9565b91505092915050565b600063ffffffff82169050919050565b61286981612850565b811461287457600080fd5b50565b60008135905061288681612860565b92915050565b600080604083850312156128a3576128a261250a565b5b60006128b185828601612877565b92505060206128c285828601612593565b9150509250929050565b6128d581612850565b82525050565b60006020820190506128f060008301846128cc565b92915050565b60006020828403121561290c5761290b61250a565b5b600061291a84828501612593565b91505092915050565b6000602082840312156129395761293861250a565b5b60006129478482850161255d565b91505092915050565b600061295b82612514565b9050919050565b61296b81612950565b82525050565b60006020820190506129866000830184612962565b92915050565b600082825260208201905092915050565b60006129a882612445565b6129b2818561298c565b93506129c2818560208601612461565b6129cb81612494565b840191505092915050565b6129df81612572565b82525050565b60006080830160008301518482036000860152612a02828261299d565b9150506020830151612a1760208601826129d6565b506040830151612a2a60408601826129d6565b5060608301518482036060860152612a42828261299d565b9150508091505092915050565b60006020820190508181036000830152612a6981846129e5565b905092915050565b600060208284031215612a8757612a8661250a565b5b6000612a9584828501612877565b91505092915050565b60008060408385031215612ab557612ab461250a565b5b6000612ac38582860161255d565b9250506020612ad48582860161255d565b9150509250929050565b600081519050919050565b600082825260208201905092915050565b6000819050602082019050919050565b612b1381612850565b82525050565b6000612b258383612b0a565b60208301905092915050565b6000602082019050919050565b6000612b4982612ade565b612b538185612ae9565b9350612b5e83612afa565b8060005b83811015612b8f578151612b768882612b19565b9750612b8183612b31565b925050600181019050612b62565b5085935050505092915050565b60006020820190508181036000830152612bb68184612b3e565b905092915050565b7f4e487b7100000000000000000000000000000000000000000000000000000000600052602260045260246000fd5b60006002820490506001821680612c0557607f821691505b60208210811415612c1957612c18612bbe565b5b50919050565b7f45524332303a207472616e7366657220616d6f756e742065786365656473206160008201527f6c6c6f77616e6365000000000000000000000000000000000000000000000000602082015250565b6000612c7b602883612450565b9150612c8682612c1f565b604082019050919050565b60006020820190508181036000830152612caa81612c6e565b9050919050565b612cba81612534565b82525050565b6000606082019050612cd56000830186612cb1565b8181036020830152612ce781856124a5565b90508181036040830152612cfb81846124a5565b9050949350505050565b7f4e487b7100000000000000000000000000000000000000000000000000000000600052601160045260246000fd5b6000612d3f82612572565b9150612d4a83612572565b9250827fffffffffffffffffffffffffffffffffffffffffffffffffffffffffffffffff03821115612d7f57612d7e612d05565b5b828201905092915050565b7f4e487b7100000000000000000000000000000000000000000000000000000000600052603260045260246000fd5b6000612dc482612850565b915063ffffffff821415612ddb57612dda612d05565b5b600182019050919050565b7f7465737400000000000000000000000000000000000000000000000000000000600082015250565b6000612e1c600483612450565b9150612e2782612de6565b602082019050919050565b60008190508160005260206000209050919050565b60008154612e5481612bed565b612e5e8186612450565b94506001821660008114612e795760018114612e8b57612ebe565b60ff1983168652602086019350612ebe565b612e9485612e32565b60005b83811015612eb657815481890152600182019150602081019050612e97565b808801955050505b50505092915050565b60006040820190508181036000830152612ee081612e0f565b90508181036020830152612ef48184612e47565b905092915050565b6000602082019050612f116000830184612cb1565b92915050565b6000604082019050612f2c6000830185612cb1565b612f39602083018461261e565b9392505050565b6000612f4b82612850565b9150612f5683612850565b92508263ffffffff03821115612f6f57612f6e612d05565b5b828201905092915050565b600061ffff82169050919050565b6000819050919050565b6000612fad612fa8612fa384612f7a565b612f88565b612850565b9050919050565b612fbd81612f92565b82525050565b6000602082019050612fd86000830184612fb4565b92915050565b7f45524332303a2064656372656173656420616c6c6f77616e63652062656c6f7760008201527f207a65726f000000000000000000000000000000000000000000000000000000602082015250565b600061303a602583612450565b915061304582612fde565b604082019050919050565b600060208201905081810360008301526130698161302d565b9050919050565b7f7265676973746572206669727374000000000000000000000000000000000000600082015250565b60006130a6600e83612450565b91506130b182613070565b602082019050919050565b600060208201905081810360008301526130d581613099565b9050919050565b60006130e782612850565b91506130f283612850565b92508282101561310557613104612d05565b5b828203905092915050565b600061312b61312661312184612514565b612f88565b612514565b9050919050565b600061313d82613110565b9050919050565b600061314f82613132565b9050919050565b61315f81613144565b82525050565b600060408201905061317a6000830185613156565b613187602083018461261e565b9392505050565b7f45524332303a20617070726f76652066726f6d20746865207a65726f2061646460008201527f7265737300000000000000000000000000000000000000000000000000000000602082015250565b60006131ea602483612450565b91506131f58261318e565b604082019050919050565b60006020820190508181036000830152613219816131dd565b9050919050565b7f45524332303a20617070726f766520746f20746865207a65726f20616464726560008201527f7373000000000000000000000000000000000000000000000000000000000000602082015250565b600061327c602283612450565b915061328782613220565b604082019050919050565b600060208201905081810360008301526132ab8161326f565b9050919050565b7f45524332303a207472616e736665722066726f6d20746865207a65726f20616460008201527f6472657373000000000000000000000000000000000000000000000000000000602082015250565b600061330e602583612450565b9150613319826132b2565b604082019050919050565b6000602082019050818103600083015261333d81613301565b9050919050565b7f45524332303a207472616e7366657220746f20746865207a65726f206164647260008201527f6573730000000000000000000000000000000000000000000000000000000000602082015250565b60006133a0602383612450565b91506133ab82613344565b604082019050919050565b600060208201905081810360008301526133cf81613393565b9050919050565b7f45524332303a207472616e7366657220616d6f756e742065786365656473206260008201527f616c616e63650000000000000000000000000000000000000000000000000000602082015250565b6000613432602683612450565b915061343d826133d6565b604082019050919050565b6000602082019050818103600083015261346181613425565b9050919050565b600061347382612572565b91507fffffffffffffffffffffffffffffffffffffffffffffffffffffffffffffffff8214156134a6576134a5612d05565b5b600182019050919050565b6000819050919050565b6134cc6134c782612572565b6134b1565b82525050565b60008160601b9050919050565b60006134ea826134d2565b9050919050565b60006134fc826134df565b9050919050565b61351461350f82612534565b6134f1565b82525050565b600061352682866134bb565b60208201915061353682856134bb565b6020820191506135468284613503565b601482019150819050949350505050565b7f4e487b7100000000000000000000000000000000000000000000000000000000600052601260045260246000fd5b600061359182612572565b915061359c83612572565b9250826135ac576135ab613557565b5b828206905092915050565b60006135c282612f7a565b91506135cd83612f7a565b92508261ffff038211156135e4576135e3612d05565b5b82820190509291505056fea2646970667358221220d870906debf4ef89d01cd3d0208de0eaf3aca9a32a824fd4580083f9a2d82faa64736f6c634300080b0033",
  "immutableReferences": {},
  "source": "// SPDX-License-Identifier: MIT\r\npragma solidity ^0.8.0;\r\npragma experimental ABIEncoderV2;\r\n\r\nimport \"./MyToken.sol\";\r\n\r\ncontract CatBase is MyToken{\r\n\r\n    event NewCat(string name, string kittyId);\r\n    event FeedCat(address feeder, string beforeId, string afterId);\r\n    \r\n    uint private randNonce = 0;\r\n    uint private coolDownTime = 1 minutes;\r\n    uint32 private catCounts = 0;\r\n    string[] private kittyIds = [\"0\", \"150593.svg\", \"232751.svg\", \"404726.svg\", \"462704.svg\", \"493816.svg\"];\r\n    uint256[] private kittyPrices = [0, 1, 2, 3, 4, 5];\r\n\r\n    struct Cat {\r\n        string name;\r\n        uint256 price;\r\n        uint256 coolDown;\r\n        string kittyId; //cryptokitty id\r\n    }\r\n\r\n    mapping(string => uint16) internal idToIndex;\r\n    mapping(address => uint32) internal ownerToCat; // in-contract id;\r\n    Cat[] internal cats;\r\n\r\n    constructor(string memory name, string memory symbol) MyToken(name, symbol){\r\n\r\n        for(uint16 i=1;i<=5;i++){\r\n            idToIndex[kittyIds[i]] = i;\r\n        }\r\n\r\n        cats.push(Cat(\"ERROR\", 0, block.timestamp, \"0\"));\r\n    }\r\n\r\n    function _makeRandom() internal returns(uint16){\r\n        return uint16(uint(keccak256(abi.encodePacked(block.timestamp, randNonce++, msg.sender))) % 5) + 1;\r\n    }\r\n\r\n    function _getMyCatIdx() internal view returns(uint32) {return ownerToCat[msg.sender];}\r\n\r\n\r\n    function registerCat(string memory catName) public {\r\n\r\n        if(ownerToCat[msg.sender] == 0){\r\n            uint16 random = _makeRandom();\r\n            cats.push(Cat(catName, kittyPrices[random], block.timestamp, kittyIds[random]));\r\n            ownerToCat[msg.sender] = ++catCounts;\r\n            emit NewCat(\"test\", kittyIds[random]);\r\n        }\r\n        \r\n    }\r\n\r\n    function getCatCounts() public view returns(uint32) { return catCounts; }\r\n\r\n    function getMyCat() public view returns(Cat memory mycat){\r\n        require(ownerToCat[msg.sender] != 0, \"register first\");\r\n        mycat = cats[ownerToCat[msg.sender]];\r\n    }\r\n\r\n    function hasCat() public view returns(bool){\r\n         return _getMyCatIdx() > 0;\r\n    }\r\n\r\n\r\n    function updateKittyId(uint16 _to) internal returns(string memory beforeId, string memory afterId){\r\n\r\n        Cat storage cat = cats[_getMyCatIdx()];\r\n        beforeId = cat.kittyId;\r\n        cat.kittyId = kittyIds[_to];\r\n        afterId = cat.kittyId;\r\n    }\r\n\r\n    function feed() public{\r\n        string memory beforeId;\r\n        string memory afterId;\r\n        (beforeId, afterId) = updateKittyId(_makeRandom());\r\n        emit FeedCat(msg.sender, beforeId, afterId);\r\n    }\r\n    //contract   \r\n  event NewRod(address fisher);\r\n  event BUY_ROD(address buyer, uint256 cost);\r\n\r\n  uint internal rand = 0;\r\n  \r\n  struct Rod {\r\n    uint32 rodGrade;\r\n    uint32 rodPrice;\r\n  }\r\n  function _makeRandom(uint32 index) internal returns(uint32){\r\n      if (index == 0) {\r\n        return uint32(uint(keccak256(abi.encodePacked(block.timestamp, rand++, msg.sender))) % 3) + 1;\r\n      } else if(index == 1) {\r\n        return uint32(uint(keccak256(abi.encodePacked(block.timestamp, rand++, msg.sender))) % 5) + 1;\r\n      } else if (index == 2) {\r\n        return uint32(uint(keccak256(abi.encodePacked(block.timestamp, rand++, msg.sender))) % 7) + 1;\r\n      } else if(index == 3) {\r\n        return uint32(uint(keccak256(abi.encodePacked(block.timestamp, rand++, msg.sender))) % 5) + 3;\r\n      }\r\n  }\r\n  //   \r\n  mapping (address => uint32) rodOwner;\r\n\r\n  \r\n  function _createRod() private {\r\n    rodOwner[msg.sender] = _makeRandom(0);\r\n    emit NewRod(msg.sender);\r\n  }\r\n\r\n  function getRod() public view returns(uint32 rod){\r\n    rod = rodOwner[msg.sender];\r\n  }\r\n\r\n  function newRod(uint32 probability, uint256 cost) public returns(uint32 rod) {\r\n    require(useSSC(cost) == true);\r\n\r\n    if (rodOwner[msg.sender] == 0) {\r\n      _createRod();\r\n    } else {\r\n      emit NewRod(msg.sender);\r\n      rodOwner[msg.sender] = _makeRandom(probability);\r\n      rod = rodOwner[msg.sender];\r\n    }\r\n\r\n    emit BUY_ROD(msg.sender, cost);\r\n  }\r\n  //Fish Contract \r\n  event NewFish(uint32 fish);\r\n  event DeleteFish(uint32 fish);\r\n  \r\n  mapping (address => uint32[]) fishList;\r\n\r\n  function getFish() public view returns(uint32[] memory fish) {\r\n    fish = fishList[msg.sender];\r\n  }\r\n  // function getFish() public view returns(bool) {\r\n  //   return fishList[msg.sender].length == 1;\r\n  // }\r\n\r\n  function newFish() public returns(uint32) {\r\n    if (fishList[msg.sender].length == 0) {\r\n      fishList[msg.sender] = [0,0,0,0,0,0];\r\n    }\r\n    uint16 tmpFish = _makeRandom();\r\n    fishList[msg.sender][tmpFish] = fishList[msg.sender][tmpFish]+1;\r\n    emit NewFish(tmpFish);\r\n    return tmpFish;\r\n  }\r\n\r\n  function deleteFish(uint32 index) public returns(bool success) {\r\n    fishList[msg.sender][index] = fishList[msg.sender][index] - 1;\r\n    emit DeleteFish(index);\r\n    return true;\r\n  }\r\n}",
  "sourcePath": "C:\\Users\\jhl81\\OneDrive\\project_2-2\\test\\madcamp-pj3\\contracts\\CatBase.sol",
  "compiler": {
    "name": "solc",
    "version": "0.8.11+commit.d7f03943.Emscripten.clang"
  },
  "schemaVersion": "3.4.4",
  "updatedAt": "2022-01-17T19:27:39.881Z",
  "devdoc": {
    "kind": "dev",
    "methods": {
      "allowance(address,address)": {
        "details": "See {IERC20-allowance}."
      },
      "approve(address,uint256)": {
        "details": "See {IERC20-approve}. Requirements: - `spender` cannot be the zero address."
      },
      "balanceOf(address)": {
        "details": "See {IERC20-balanceOf}."
      },
      "decimals()": {
        "details": "Returns the number of decimals used to get its user representation. For example, if `decimals` equals `2`, a balance of `505` tokens should be displayed to a user as `5.05` (`505 / 10 ** 2`). Tokens usually opt for a value of 18, imitating the relationship between Ether and Wei. This is the value {ERC20} uses, unless this function is overridden; NOTE: This information is only used for _display_ purposes: it in no way affects any of the arithmetic of the contract, including {IERC20-balanceOf} and {IERC20-transfer}."
      },
      "decreaseAllowance(address,uint256)": {
        "details": "Atomically decreases the allowance granted to `spender` by the caller. This is an alternative to {approve} that can be used as a mitigation for problems described in {IERC20-approve}. Emits an {Approval} event indicating the updated allowance. Requirements: - `spender` cannot be the zero address. - `spender` must have allowance for the caller of at least `subtractedValue`."
      },
      "increaseAllowance(address,uint256)": {
        "details": "Atomically increases the allowance granted to `spender` by the caller. This is an alternative to {approve} that can be used as a mitigation for problems described in {IERC20-approve}. Emits an {Approval} event indicating the updated allowance. Requirements: - `spender` cannot be the zero address."
      },
      "name()": {
        "details": "Returns the name of the token."
      },
      "symbol()": {
        "details": "Returns the symbol of the token, usually a shorter version of the name."
      },
      "totalSupply()": {
        "details": "See {IERC20-totalSupply}."
      },
      "transfer(address,uint256)": {
        "details": "See {IERC20-transfer}. Requirements: - `recipient` cannot be the zero address. - the caller must have a balance of at least `amount`."
      },
      "transferFrom(address,address,uint256)": {
        "details": "See {IERC20-transferFrom}. Emits an {Approval} event indicating the updated allowance. This is not required by the EIP. See the note at the beginning of {ERC20}. Requirements: - `sender` and `recipient` cannot be the zero address. - `sender` must have a balance of at least `amount`. - the caller must have allowance for ``sender``'s tokens of at least `amount`."
      }
    },
    "version": 1
  },
  "userdoc": {
    "kind": "user",
    "methods": {},
    "version": 1
  }
}