{
  "contractName": "MyToken",
  "abi": [
    {
      "inputs": [
        {
          "internalType": "string",
          "name": "name",
          "type": "string"
        },
        {
          "internalType": "string",
          "name": "symbol",
          "type": "string"
        }
      ],
      "stateMutability": "nonpayable",
      "type": "constructor"
    },
    {
      "anonymous": false,
      "inputs": [
        {
          "indexed": true,
          "internalType": "address",
          "name": "owner",
          "type": "address"
        },
        {
          "indexed": true,
          "internalType": "address",
          "name": "spender",
          "type": "address"
        },
        {
          "indexed": false,
          "internalType": "uint256",
          "name": "value",
          "type": "uint256"
        }
      ],
      "name": "Approval",
      "type": "event"
    },
    {
      "anonymous": false,
      "inputs": [
        {
          "indexed": false,
          "internalType": "address",
          "name": "requester",
          "type": "address"
        },
        {
          "indexed": false,
          "internalType": "uint256",
          "name": "value",
          "type": "uint256"
        }
      ],
      "name": "EXCHANGE_ETH_TO_SCC",
      "type": "event"
    },
    {
      "anonymous": false,
      "inputs": [
        {
          "indexed": false,
          "internalType": "address",
          "name": "requester",
          "type": "address"
        },
        {
          "indexed": false,
          "internalType": "uint256",
          "name": "value",
          "type": "uint256"
        }
      ],
      "name": "EXCHANGE_SCC_TO_ETH",
      "type": "event"
    },
    {
      "anonymous": false,
      "inputs": [
        {
          "indexed": true,
          "internalType": "address",
          "name": "from",
          "type": "address"
        },
        {
          "indexed": true,
          "internalType": "address",
          "name": "to",
          "type": "address"
        },
        {
          "indexed": false,
          "internalType": "uint256",
          "name": "value",
          "type": "uint256"
        }
      ],
      "name": "Transfer",
      "type": "event"
    },
    {
      "inputs": [
        {
          "internalType": "address",
          "name": "owner",
          "type": "address"
        },
        {
          "internalType": "address",
          "name": "spender",
          "type": "address"
        }
      ],
      "name": "allowance",
      "outputs": [
        {
          "internalType": "uint256",
          "name": "",
          "type": "uint256"
        }
      ],
      "stateMutability": "view",
      "type": "function"
    },
    {
      "inputs": [
        {
          "internalType": "address",
          "name": "spender",
          "type": "address"
        },
        {
          "internalType": "uint256",
          "name": "amount",
          "type": "uint256"
        }
      ],
      "name": "approve",
      "outputs": [
        {
          "internalType": "bool",
          "name": "",
          "type": "bool"
        }
      ],
      "stateMutability": "nonpayable",
      "type": "function"
    },
    {
      "inputs": [
        {
          "internalType": "address",
          "name": "account",
          "type": "address"
        }
      ],
      "name": "balanceOf",
      "outputs": [
        {
          "internalType": "uint256",
          "name": "",
          "type": "uint256"
        }
      ],
      "stateMutability": "view",
      "type": "function"
    },
    {
      "inputs": [],
      "name": "decimals",
      "outputs": [
        {
          "internalType": "uint8",
          "name": "",
          "type": "uint8"
        }
      ],
      "stateMutability": "view",
      "type": "function"
    },
    {
      "inputs": [
        {
          "internalType": "address",
          "name": "spender",
          "type": "address"
        },
        {
          "internalType": "uint256",
          "name": "subtractedValue",
          "type": "uint256"
        }
      ],
      "name": "decreaseAllowance",
      "outputs": [
        {
          "internalType": "bool",
          "name": "",
          "type": "bool"
        }
      ],
      "stateMutability": "nonpayable",
      "type": "function"
    },
    {
      "inputs": [
        {
          "internalType": "address",
          "name": "spender",
          "type": "address"
        },
        {
          "internalType": "uint256",
          "name": "addedValue",
          "type": "uint256"
        }
      ],
      "name": "increaseAllowance",
      "outputs": [
        {
          "internalType": "bool",
          "name": "",
          "type": "bool"
        }
      ],
      "stateMutability": "nonpayable",
      "type": "function"
    },
    {
      "inputs": [],
      "name": "name",
      "outputs": [
        {
          "internalType": "string",
          "name": "",
          "type": "string"
        }
      ],
      "stateMutability": "view",
      "type": "function"
    },
    {
      "inputs": [],
      "name": "owner",
      "outputs": [
        {
          "internalType": "address payable",
          "name": "",
          "type": "address"
        }
      ],
      "stateMutability": "view",
      "type": "function"
    },
    {
      "inputs": [],
      "name": "symbol",
      "outputs": [
        {
          "internalType": "string",
          "name": "",
          "type": "string"
        }
      ],
      "stateMutability": "view",
      "type": "function"
    },
    {
      "inputs": [],
      "name": "totalSupply",
      "outputs": [
        {
          "internalType": "uint256",
          "name": "",
          "type": "uint256"
        }
      ],
      "stateMutability": "view",
      "type": "function"
    },
    {
      "inputs": [
        {
          "internalType": "address",
          "name": "recipient",
          "type": "address"
        },
        {
          "internalType": "uint256",
          "name": "amount",
          "type": "uint256"
        }
      ],
      "name": "transfer",
      "outputs": [
        {
          "internalType": "bool",
          "name": "",
          "type": "bool"
        }
      ],
      "stateMutability": "nonpayable",
      "type": "function"
    },
    {
      "inputs": [
        {
          "internalType": "address",
          "name": "sender",
          "type": "address"
        },
        {
          "internalType": "address",
          "name": "recipient",
          "type": "address"
        },
        {
          "internalType": "uint256",
          "name": "amount",
          "type": "uint256"
        }
      ],
      "name": "transferFrom",
      "outputs": [
        {
          "internalType": "bool",
          "name": "",
          "type": "bool"
        }
      ],
      "stateMutability": "nonpayable",
      "type": "function"
    },
    {
      "inputs": [],
      "name": "getOwner",
      "outputs": [
        {
          "internalType": "address payable",
          "name": "",
          "type": "address"
        }
      ],
      "stateMutability": "view",
      "type": "function"
    },
    {
      "inputs": [],
      "name": "ethToSSC",
      "outputs": [
        {
          "internalType": "bool",
          "name": "",
          "type": "bool"
        }
      ],
      "stateMutability": "payable",
      "type": "function"
    },
    {
      "inputs": [
        {
          "internalType": "uint256",
          "name": "value",
          "type": "uint256"
        }
      ],
      "name": "SSCtoEth",
      "outputs": [
        {
          "internalType": "bool",
          "name": "",
          "type": "bool"
        }
      ],
      "stateMutability": "payable",
      "type": "function"
    },
    {
      "inputs": [
        {
          "internalType": "uint256",
          "name": "value",
          "type": "uint256"
        }
      ],
      "name": "useSSC",
      "outputs": [
        {
          "internalType": "bool",
          "name": "",
          "type": "bool"
        }
      ],
      "stateMutability": "payable",
      "type": "function"
    },
    {
      "inputs": [
        {
          "internalType": "uint256",
          "name": "value",
          "type": "uint256"
        }
      ],
      "name": "getSSC",
      "outputs": [
        {
          "internalType": "bool",
          "name": "",
          "type": "bool"
        }
      ],
      "stateMutability": "payable",
      "type": "function"
    }
  ],
  "bytecode": "0x60806040523480156200001157600080fd5b50604051620023f7380380620023f78339818101604052810190620000379190620004f2565b8181816003908051906020019062000051929190620002a5565b5080600490805190602001906200006a929190620002a5565b50505033600560006101000a81548173ffffffffffffffffffffffffffffffffffffffff021916908373ffffffffffffffffffffffffffffffffffffffff16021790555062000111600560009054906101000a900473ffffffffffffffffffffffffffffffffffffffff16620000e56200011960201b60201c565b60ff16600a620000f6919062000704565b6103e862000105919062000755565b6200012260201b60201c565b505062000929565b60006012905090565b600073ffffffffffffffffffffffffffffffffffffffff168273ffffffffffffffffffffffffffffffffffffffff16141562000195576040517f08c379a00000000000000000000000000000000000000000000000000000000081526004016200018c9062000817565b60405180910390fd5b620001a9600083836200029b60201b60201c565b8060026000828254620001bd919062000839565b92505081905550806000808473ffffffffffffffffffffffffffffffffffffffff1673ffffffffffffffffffffffffffffffffffffffff168152602001908152602001600020600082825462000214919062000839565b925050819055508173ffffffffffffffffffffffffffffffffffffffff16600073ffffffffffffffffffffffffffffffffffffffff167fddf252ad1be2c89b69c2b068fc378daa952ba7f163c4a11628f55a4df523b3ef836040516200027b9190620008a7565b60405180910390a36200029760008383620002a060201b60201c565b5050565b505050565b505050565b828054620002b390620008f3565b90600052602060002090601f016020900481019282620002d7576000855562000323565b82601f10620002f257805160ff191683800117855562000323565b8280016001018555821562000323579182015b828111156200032257825182559160200191906001019062000305565b5b50905062000332919062000336565b5090565b5b808211156200035157600081600090555060010162000337565b5090565b6000604051905090565b600080fd5b600080fd5b600080fd5b600080fd5b6000601f19601f8301169050919050565b7f4e487b7100000000000000000000000000000000000000000000000000000000600052604160045260246000fd5b620003be8262000373565b810181811067ffffffffffffffff82111715620003e057620003df62000384565b5b80604052505050565b6000620003f562000355565b9050620004038282620003b3565b919050565b600067ffffffffffffffff82111562000426576200042562000384565b5b620004318262000373565b9050602081019050919050565b60005b838110156200045e57808201518184015260208101905062000441565b838111156200046e576000848401525b50505050565b60006200048b620004858462000408565b620003e9565b905082815260208101848484011115620004aa57620004a96200036e565b5b620004b78482856200043e565b509392505050565b600082601f830112620004d757620004d662000369565b5b8151620004e984826020860162000474565b91505092915050565b600080604083850312156200050c576200050b6200035f565b5b600083015167ffffffffffffffff8111156200052d576200052c62000364565b5b6200053b85828601620004bf565b925050602083015167ffffffffffffffff8111156200055f576200055e62000364565b5b6200056d85828601620004bf565b9150509250929050565b7f4e487b7100000000000000000000000000000000000000000000000000000000600052601160045260246000fd5b60008160011c9050919050565b6000808291508390505b60018511156200060557808604811115620005dd57620005dc62000577565b5b6001851615620005ed5780820291505b8081029050620005fd85620005a6565b9450620005bd565b94509492505050565b600082620006205760019050620006f3565b81620006305760009050620006f3565b816001811462000649576002811462000654576200068a565b6001915050620006f3565b60ff84111562000669576200066862000577565b5b8360020a91508482111562000683576200068262000577565b5b50620006f3565b5060208310610133831016604e8410600b8410161715620006c45782820a905083811115620006be57620006bd62000577565b5b620006f3565b620006d38484846001620005b3565b92509050818404811115620006ed57620006ec62000577565b5b81810290505b9392505050565b6000819050919050565b60006200071182620006fa565b91506200071e83620006fa565b92506200074d7fffffffffffffffffffffffffffffffffffffffffffffffffffffffffffffffff84846200060e565b905092915050565b60006200076282620006fa565b91506200076f83620006fa565b9250817fffffffffffffffffffffffffffffffffffffffffffffffffffffffffffffffff0483118215151615620007ab57620007aa62000577565b5b828202905092915050565b600082825260208201905092915050565b7f45524332303a206d696e7420746f20746865207a65726f206164647265737300600082015250565b6000620007ff601f83620007b6565b91506200080c82620007c7565b602082019050919050565b600060208201905081810360008301526200083281620007f0565b9050919050565b60006200084682620006fa565b91506200085383620006fa565b9250827fffffffffffffffffffffffffffffffffffffffffffffffffffffffffffffffff038211156200088b576200088a62000577565b5b828201905092915050565b620008a181620006fa565b82525050565b6000602082019050620008be600083018462000896565b92915050565b7f4e487b7100000000000000000000000000000000000000000000000000000000600052602260045260246000fd5b600060028204905060018216806200090c57607f821691505b60208210811415620009235762000922620008c4565b5b50919050565b611abe80620009396000396000f3fe6080604052600436106100fe5760003560e01c806370a08231116100955780639f800a5f116100645780639f800a5f14610359578063a457c2d714610377578063a9059cbb146103b4578063cf1ecc12146103f1578063dd62ed3e14610421576100fe565b806370a082311461029b578063893d20e8146102d85780638da5cb5b1461030357806395d89b411461032e576100fe565b806330b62606116100d157806330b62606146101d3578063313ce56714610203578063395093511461022e57806349f062af1461026b576100fe565b806306fdde0314610103578063095ea7b31461012e57806318160ddd1461016b57806323b872dd14610196575b600080fd5b34801561010f57600080fd5b5061011861045e565b6040516101259190611051565b60405180910390f35b34801561013a57600080fd5b506101556004803603810190610150919061110c565b6104f0565b6040516101629190611167565b60405180910390f35b34801561017757600080fd5b5061018061050e565b60405161018d9190611191565b60405180910390f35b3480156101a257600080fd5b506101bd60048036038101906101b891906111ac565b610518565b6040516101ca9190611167565b60405180910390f35b6101ed60048036038101906101e891906111ff565b610610565b6040516101fa9190611167565b60405180910390f35b34801561020f57600080fd5b50610218610669565b6040516102259190611248565b60405180910390f35b34801561023a57600080fd5b506102556004803603810190610250919061110c565b610672565b6040516102629190611167565b60405180910390f35b610285600480360381019061028091906111ff565b61071e565b6040516102929190611167565b60405180910390f35b3480156102a757600080fd5b506102c260048036038101906102bd9190611263565b610765565b6040516102cf9190611191565b60405180910390f35b3480156102e457600080fd5b506102ed6107ad565b6040516102fa91906112b1565b60405180910390f35b34801561030f57600080fd5b506103186107d7565b60405161032591906112b1565b60405180910390f35b34801561033a57600080fd5b506103436107fd565b6040516103509190611051565b60405180910390f35b61036161088f565b60405161036e9190611167565b60405180910390f35b34801561038357600080fd5b5061039e6004803603810190610399919061110c565b6108fe565b6040516103ab9190611167565b60405180910390f35b3480156103c057600080fd5b506103db60048036038101906103d6919061110c565b6109e9565b6040516103e89190611167565b60405180910390f35b61040b600480360381019061040691906111ff565b610a07565b6040516104189190611167565b60405180910390f35b34801561042d57600080fd5b50610448600480360381019061044391906112cc565b610ad3565b6040516104559190611191565b60405180910390f35b60606003805461046d9061133b565b80601f01602080910402602001604051908101604052809291908181526020018280546104999061133b565b80156104e65780601f106104bb576101008083540402835291602001916104e6565b820191906000526020600020905b8154815290600101906020018083116104c957829003601f168201915b5050505050905090565b60006105046104fd610b5a565b8484610b62565b6001905092915050565b6000600254905090565b6000610525848484610d2d565b6000600160008673ffffffffffffffffffffffffffffffffffffffff1673ffffffffffffffffffffffffffffffffffffffff1681526020019081526020016000206000610570610b5a565b73ffffffffffffffffffffffffffffffffffffffff1673ffffffffffffffffffffffffffffffffffffffff168152602001908152602001600020549050828110156105f0576040517f08c379a00000000000000000000000000000000000000000000000000000000081526004016105e7906113df565b60405180910390fd5b610604856105fc610b5a565b858403610b62565b60019150509392505050565b6000610660600560009054906101000a900473ffffffffffffffffffffffffffffffffffffffff1633610641610669565b60ff16600a6106509190611561565b8561065b91906115ac565b610d2d565b60019050919050565b60006012905090565b600061071461067f610b5a565b84846001600061068d610b5a565b73ffffffffffffffffffffffffffffffffffffffff1673ffffffffffffffffffffffffffffffffffffffff16815260200190815260200160002060008873ffffffffffffffffffffffffffffffffffffffff1673ffffffffffffffffffffffffffffffffffffffff1681526020019081526020016000205461070f9190611606565b610b62565b6001905092915050565b600060011515610750600560009054906101000a900473ffffffffffffffffffffffffffffffffffffffff16846109e9565b15151461075c57600080fd5b60019050919050565b60008060008373ffffffffffffffffffffffffffffffffffffffff1673ffffffffffffffffffffffffffffffffffffffff168152602001908152602001600020549050919050565b6000600560009054906101000a900473ffffffffffffffffffffffffffffffffffffffff16905090565b600560009054906101000a900473ffffffffffffffffffffffffffffffffffffffff1681565b60606004805461080c9061133b565b80601f01602080910402602001604051908101604052809291908181526020018280546108389061133b565b80156108855780601f1061085a57610100808354040283529160200191610885565b820191906000526020600020905b81548152906001019060200180831161086857829003601f168201915b5050505050905090565b60006108be600560009054906101000a900473ffffffffffffffffffffffffffffffffffffffff163334610d2d565b7f71217b0ac6661ea270eb8b6cbcaee0e9a1959b2d504fdf83b0deedc472456d8633346040516108ef92919061166b565b60405180910390a16001905090565b6000806001600061090d610b5a565b73ffffffffffffffffffffffffffffffffffffffff1673ffffffffffffffffffffffffffffffffffffffff16815260200190815260200160002060008573ffffffffffffffffffffffffffffffffffffffff1673ffffffffffffffffffffffffffffffffffffffff168152602001908152602001600020549050828110156109ca576040517f08c379a00000000000000000000000000000000000000000000000000000000081526004016109c190611706565b60405180910390fd5b6109de6109d5610b5a565b85858403610b62565b600191505092915050565b60006109fd6109f6610b5a565b8484610d2d565b6001905092915050565b60008033905060011515610a3d600560009054906101000a900473ffffffffffffffffffffffffffffffffffffffff16856109e9565b151514610a4957600080fd5b8073ffffffffffffffffffffffffffffffffffffffff166108fc849081150290604051600060405180830381858888f19350505050158015610a8f573d6000803e3d6000fd5b507f94d0a8b0f912fb8e07f67cb42b315492f67e990cb9164d9bc3d01d8048999bb78184604051610ac1929190611785565b60405180910390a16001915050919050565b6000600160008473ffffffffffffffffffffffffffffffffffffffff1673ffffffffffffffffffffffffffffffffffffffff16815260200190815260200160002060008373ffffffffffffffffffffffffffffffffffffffff1673ffffffffffffffffffffffffffffffffffffffff16815260200190815260200160002054905092915050565b600033905090565b600073ffffffffffffffffffffffffffffffffffffffff168373ffffffffffffffffffffffffffffffffffffffff161415610bd2576040517f08c379a0000000000000000000000000000000000000000000000000000000008152600401610bc990611820565b60405180910390fd5b600073ffffffffffffffffffffffffffffffffffffffff168273ffffffffffffffffffffffffffffffffffffffff161415610c42576040517f08c379a0000000000000000000000000000000000000000000000000000000008152600401610c39906118b2565b60405180910390fd5b80600160008573ffffffffffffffffffffffffffffffffffffffff1673ffffffffffffffffffffffffffffffffffffffff16815260200190815260200160002060008473ffffffffffffffffffffffffffffffffffffffff1673ffffffffffffffffffffffffffffffffffffffff168152602001908152602001600020819055508173ffffffffffffffffffffffffffffffffffffffff168373ffffffffffffffffffffffffffffffffffffffff167f8c5be1e5ebec7d5bd14f71427d1e84f3dd0314c0f7b2291e5b200ac8c7c3b92583604051610d209190611191565b60405180910390a3505050565b600073ffffffffffffffffffffffffffffffffffffffff168373ffffffffffffffffffffffffffffffffffffffff161415610d9d576040517f08c379a0000000000000000000000000000000000000000000000000000000008152600401610d9490611944565b60405180910390fd5b600073ffffffffffffffffffffffffffffffffffffffff168273ffffffffffffffffffffffffffffffffffffffff161415610e0d576040517f08c379a0000000000000000000000000000000000000000000000000000000008152600401610e04906119d6565b60405180910390fd5b610e18838383610fae565b60008060008573ffffffffffffffffffffffffffffffffffffffff1673ffffffffffffffffffffffffffffffffffffffff16815260200190815260200160002054905081811015610e9e576040517f08c379a0000000000000000000000000000000000000000000000000000000008152600401610e9590611a68565b60405180910390fd5b8181036000808673ffffffffffffffffffffffffffffffffffffffff1673ffffffffffffffffffffffffffffffffffffffff16815260200190815260200160002081905550816000808573ffffffffffffffffffffffffffffffffffffffff1673ffffffffffffffffffffffffffffffffffffffff1681526020019081526020016000206000828254610f319190611606565b925050819055508273ffffffffffffffffffffffffffffffffffffffff168473ffffffffffffffffffffffffffffffffffffffff167fddf252ad1be2c89b69c2b068fc378daa952ba7f163c4a11628f55a4df523b3ef84604051610f959190611191565b60405180910390a3610fa8848484610fb3565b50505050565b505050565b505050565b600081519050919050565b600082825260208201905092915050565b60005b83811015610ff2578082015181840152602081019050610fd7565b83811115611001576000848401525b50505050565b6000601f19601f8301169050919050565b600061102382610fb8565b61102d8185610fc3565b935061103d818560208601610fd4565b61104681611007565b840191505092915050565b6000602082019050818103600083015261106b8184611018565b905092915050565b600080fd5b600073ffffffffffffffffffffffffffffffffffffffff82169050919050565b60006110a382611078565b9050919050565b6110b381611098565b81146110be57600080fd5b50565b6000813590506110d0816110aa565b92915050565b6000819050919050565b6110e9816110d6565b81146110f457600080fd5b50565b600081359050611106816110e0565b92915050565b6000806040838503121561112357611122611073565b5b6000611131858286016110c1565b9250506020611142858286016110f7565b9150509250929050565b60008115159050919050565b6111618161114c565b82525050565b600060208201905061117c6000830184611158565b92915050565b61118b816110d6565b82525050565b60006020820190506111a66000830184611182565b92915050565b6000806000606084860312156111c5576111c4611073565b5b60006111d3868287016110c1565b93505060206111e4868287016110c1565b92505060406111f5868287016110f7565b9150509250925092565b60006020828403121561121557611214611073565b5b6000611223848285016110f7565b91505092915050565b600060ff82169050919050565b6112428161122c565b82525050565b600060208201905061125d6000830184611239565b92915050565b60006020828403121561127957611278611073565b5b6000611287848285016110c1565b91505092915050565b600061129b82611078565b9050919050565b6112ab81611290565b82525050565b60006020820190506112c660008301846112a2565b92915050565b600080604083850312156112e3576112e2611073565b5b60006112f1858286016110c1565b9250506020611302858286016110c1565b9150509250929050565b7f4e487b7100000000000000000000000000000000000000000000000000000000600052602260045260246000fd5b6000600282049050600182168061135357607f821691505b602082108114156113675761136661130c565b5b50919050565b7f45524332303a207472616e7366657220616d6f756e742065786365656473206160008201527f6c6c6f77616e6365000000000000000000000000000000000000000000000000602082015250565b60006113c9602883610fc3565b91506113d48261136d565b604082019050919050565b600060208201905081810360008301526113f8816113bc565b9050919050565b7f4e487b7100000000000000000000000000000000000000000000000000000000600052601160045260246000fd5b60008160011c9050919050565b6000808291508390505b600185111561148557808604811115611461576114606113ff565b5b60018516156114705780820291505b808102905061147e8561142e565b9450611445565b94509492505050565b60008261149e576001905061155a565b816114ac576000905061155a565b81600181146114c257600281146114cc576114fb565b600191505061155a565b60ff8411156114de576114dd6113ff565b5b8360020a9150848211156114f5576114f46113ff565b5b5061155a565b5060208310610133831016604e8410600b84101617156115305782820a90508381111561152b5761152a6113ff565b5b61155a565b61153d848484600161143b565b92509050818404811115611554576115536113ff565b5b81810290505b9392505050565b600061156c826110d6565b9150611577836110d6565b92506115a47fffffffffffffffffffffffffffffffffffffffffffffffffffffffffffffffff848461148e565b905092915050565b60006115b7826110d6565b91506115c2836110d6565b9250817fffffffffffffffffffffffffffffffffffffffffffffffffffffffffffffffff04831182151516156115fb576115fa6113ff565b5b828202905092915050565b6000611611826110d6565b915061161c836110d6565b9250827fffffffffffffffffffffffffffffffffffffffffffffffffffffffffffffffff03821115611651576116506113ff565b5b828201905092915050565b61166581611098565b82525050565b6000604082019050611680600083018561165c565b61168d6020830184611182565b9392505050565b7f45524332303a2064656372656173656420616c6c6f77616e63652062656c6f7760008201527f207a65726f000000000000000000000000000000000000000000000000000000602082015250565b60006116f0602583610fc3565b91506116fb82611694565b604082019050919050565b6000602082019050818103600083015261171f816116e3565b9050919050565b6000819050919050565b600061174b61174661174184611078565b611726565b611078565b9050919050565b600061175d82611730565b9050919050565b600061176f82611752565b9050919050565b61177f81611764565b82525050565b600060408201905061179a6000830185611776565b6117a76020830184611182565b9392505050565b7f45524332303a20617070726f76652066726f6d20746865207a65726f2061646460008201527f7265737300000000000000000000000000000000000000000000000000000000602082015250565b600061180a602483610fc3565b9150611815826117ae565b604082019050919050565b60006020820190508181036000830152611839816117fd565b9050919050565b7f45524332303a20617070726f766520746f20746865207a65726f20616464726560008201527f7373000000000000000000000000000000000000000000000000000000000000602082015250565b600061189c602283610fc3565b91506118a782611840565b604082019050919050565b600060208201905081810360008301526118cb8161188f565b9050919050565b7f45524332303a207472616e736665722066726f6d20746865207a65726f20616460008201527f6472657373000000000000000000000000000000000000000000000000000000602082015250565b600061192e602583610fc3565b9150611939826118d2565b604082019050919050565b6000602082019050818103600083015261195d81611921565b9050919050565b7f45524332303a207472616e7366657220746f20746865207a65726f206164647260008201527f6573730000000000000000000000000000000000000000000000000000000000602082015250565b60006119c0602383610fc3565b91506119cb82611964565b604082019050919050565b600060208201905081810360008301526119ef816119b3565b9050919050565b7f45524332303a207472616e7366657220616d6f756e742065786365656473206260008201527f616c616e63650000000000000000000000000000000000000000000000000000602082015250565b6000611a52602683610fc3565b9150611a5d826119f6565b604082019050919050565b60006020820190508181036000830152611a8181611a45565b905091905056fea264697066735822122006c1b77d9f58e184598c1d9e82df4264749b58ce976f9c2da997d58ccab56e0564736f6c634300080b0033",
  "immutableReferences": {},
  "source": "// SPDX-License-Identifier: MIT\r\npragma solidity ^0.8.0; \r\n\r\nimport \"openzeppelin-solidity/contracts/token/erc20/erc20.sol\";\r\n\r\ncontract MyToken is ERC20{ \r\n\r\n    address payable public owner;\r\n\r\n    event EXCHANGE_ETH_TO_SCC(address requester, uint256 value);\r\n    event EXCHANGE_SCC_TO_ETH(address requester, uint256 value);\r\n\r\n    constructor(string memory name, string memory symbol) ERC20(name,symbol){\r\n         // mint 1000 token \r\n         owner = payable(msg.sender);\r\n         _mint(owner, 1000*10**uint(decimals())); \r\n         \r\n        } \r\n\r\n    function getOwner() public view returns (address payable) {\r\n        return owner;\r\n    }\r\n\r\n    function ethToSSC() public payable returns (bool){\r\n        // user send ETH && owner send SSC\r\n        _transfer(owner, msg.sender, msg.value);\r\n        emit EXCHANGE_ETH_TO_SCC(msg.sender, msg.value);\r\n        return true;\r\n    }\r\n\r\n    function SSCtoEth(uint256 value) public payable returns (bool){\r\n        // user send SSC && owner send ETH\r\n        address payable user = payable(msg.sender);\r\n        require(transfer(owner, value) == true);\r\n        user.transfer(value);\r\n        emit EXCHANGE_SCC_TO_ETH(user, value);\r\n        return true;\r\n    }\r\n\r\n    function useSSC(uint256 value) public payable returns (bool) {\r\n        require(transfer(owner, value) == true);\r\n        //address payable user = payable(msg.sender);\r\n        return true;\r\n    }\r\n\r\n    function getSSC(uint256 value) public payable returns (bool) {\r\n        //address payable user = payable(msg.sender);\r\n         _transfer(owner, msg.sender, value*10**uint(decimals()));\r\n        return true;\r\n    }\r\n}",
  "sourcePath": "C:\\Users\\jhl81\\OneDrive\\project_2-2\\test\\madcamp-pj3\\contracts\\MyToken.sol",
  "compiler": {
    "name": "solc",
    "version": "0.8.11+commit.d7f03943.Emscripten.clang"
  },
  "schemaVersion": "3.4.4",
  "updatedAt": "2022-01-18T07:42:15.350Z",
  "devdoc": {
    "kind": "dev",
    "methods": {
      "allowance(address,address)": {
        "details": "See {IERC20-allowance}."
      },
      "approve(address,uint256)": {
        "details": "See {IERC20-approve}. Requirements: - `spender` cannot be the zero address."
      },
      "balanceOf(address)": {
        "details": "See {IERC20-balanceOf}."
      },
      "decimals()": {
        "details": "Returns the number of decimals used to get its user representation. For example, if `decimals` equals `2`, a balance of `505` tokens should be displayed to a user as `5.05` (`505 / 10 ** 2`). Tokens usually opt for a value of 18, imitating the relationship between Ether and Wei. This is the value {ERC20} uses, unless this function is overridden; NOTE: This information is only used for _display_ purposes: it in no way affects any of the arithmetic of the contract, including {IERC20-balanceOf} and {IERC20-transfer}."
      },
      "decreaseAllowance(address,uint256)": {
        "details": "Atomically decreases the allowance granted to `spender` by the caller. This is an alternative to {approve} that can be used as a mitigation for problems described in {IERC20-approve}. Emits an {Approval} event indicating the updated allowance. Requirements: - `spender` cannot be the zero address. - `spender` must have allowance for the caller of at least `subtractedValue`."
      },
      "increaseAllowance(address,uint256)": {
        "details": "Atomically increases the allowance granted to `spender` by the caller. This is an alternative to {approve} that can be used as a mitigation for problems described in {IERC20-approve}. Emits an {Approval} event indicating the updated allowance. Requirements: - `spender` cannot be the zero address."
      },
      "name()": {
        "details": "Returns the name of the token."
      },
      "symbol()": {
        "details": "Returns the symbol of the token, usually a shorter version of the name."
      },
      "totalSupply()": {
        "details": "See {IERC20-totalSupply}."
      },
      "transfer(address,uint256)": {
        "details": "See {IERC20-transfer}. Requirements: - `recipient` cannot be the zero address. - the caller must have a balance of at least `amount`."
      },
      "transferFrom(address,address,uint256)": {
        "details": "See {IERC20-transferFrom}. Emits an {Approval} event indicating the updated allowance. This is not required by the EIP. See the note at the beginning of {ERC20}. Requirements: - `sender` and `recipient` cannot be the zero address. - `sender` must have a balance of at least `amount`. - the caller must have allowance for ``sender``'s tokens of at least `amount`."
      }
    },
    "version": 1
  },
  "userdoc": {
    "kind": "user",
    "methods": {},
    "version": 1
  }
}