{
  "contractName": "MyToken",
  "abi": [
    {
      "inputs": [
        {
          "internalType": "string",
          "name": "name",
          "type": "string"
        },
        {
          "internalType": "string",
          "name": "symbol",
          "type": "string"
        }
      ],
      "stateMutability": "nonpayable",
      "type": "constructor"
    },
    {
      "anonymous": false,
      "inputs": [
        {
          "indexed": true,
          "internalType": "address",
          "name": "owner",
          "type": "address"
        },
        {
          "indexed": true,
          "internalType": "address",
          "name": "spender",
          "type": "address"
        },
        {
          "indexed": false,
          "internalType": "uint256",
          "name": "value",
          "type": "uint256"
        }
      ],
      "name": "Approval",
      "type": "event"
    },
    {
      "anonymous": false,
      "inputs": [
        {
          "indexed": false,
          "internalType": "address",
          "name": "requester",
          "type": "address"
        },
        {
          "indexed": false,
          "internalType": "uint256",
          "name": "value",
          "type": "uint256"
        }
      ],
      "name": "EXCHANGE_ETH_TO_SCC",
      "type": "event"
    },
    {
      "anonymous": false,
      "inputs": [
        {
          "indexed": false,
          "internalType": "address",
          "name": "requester",
          "type": "address"
        },
        {
          "indexed": false,
          "internalType": "uint256",
          "name": "value",
          "type": "uint256"
        }
      ],
      "name": "EXCHANGE_SCC_TO_ETH",
      "type": "event"
    },
    {
      "anonymous": false,
      "inputs": [
        {
          "indexed": true,
          "internalType": "address",
          "name": "from",
          "type": "address"
        },
        {
          "indexed": true,
          "internalType": "address",
          "name": "to",
          "type": "address"
        },
        {
          "indexed": false,
          "internalType": "uint256",
          "name": "value",
          "type": "uint256"
        }
      ],
      "name": "Transfer",
      "type": "event"
    },
    {
      "inputs": [
        {
          "internalType": "address",
          "name": "owner",
          "type": "address"
        },
        {
          "internalType": "address",
          "name": "spender",
          "type": "address"
        }
      ],
      "name": "allowance",
      "outputs": [
        {
          "internalType": "uint256",
          "name": "",
          "type": "uint256"
        }
      ],
      "stateMutability": "view",
      "type": "function"
    },
    {
      "inputs": [
        {
          "internalType": "address",
          "name": "spender",
          "type": "address"
        },
        {
          "internalType": "uint256",
          "name": "amount",
          "type": "uint256"
        }
      ],
      "name": "approve",
      "outputs": [
        {
          "internalType": "bool",
          "name": "",
          "type": "bool"
        }
      ],
      "stateMutability": "nonpayable",
      "type": "function"
    },
    {
      "inputs": [
        {
          "internalType": "address",
          "name": "account",
          "type": "address"
        }
      ],
      "name": "balanceOf",
      "outputs": [
        {
          "internalType": "uint256",
          "name": "",
          "type": "uint256"
        }
      ],
      "stateMutability": "view",
      "type": "function"
    },
    {
      "inputs": [],
      "name": "decimals",
      "outputs": [
        {
          "internalType": "uint8",
          "name": "",
          "type": "uint8"
        }
      ],
      "stateMutability": "view",
      "type": "function"
    },
    {
      "inputs": [
        {
          "internalType": "address",
          "name": "spender",
          "type": "address"
        },
        {
          "internalType": "uint256",
          "name": "subtractedValue",
          "type": "uint256"
        }
      ],
      "name": "decreaseAllowance",
      "outputs": [
        {
          "internalType": "bool",
          "name": "",
          "type": "bool"
        }
      ],
      "stateMutability": "nonpayable",
      "type": "function"
    },
    {
      "inputs": [
        {
          "internalType": "address",
          "name": "spender",
          "type": "address"
        },
        {
          "internalType": "uint256",
          "name": "addedValue",
          "type": "uint256"
        }
      ],
      "name": "increaseAllowance",
      "outputs": [
        {
          "internalType": "bool",
          "name": "",
          "type": "bool"
        }
      ],
      "stateMutability": "nonpayable",
      "type": "function"
    },
    {
      "inputs": [],
      "name": "name",
      "outputs": [
        {
          "internalType": "string",
          "name": "",
          "type": "string"
        }
      ],
      "stateMutability": "view",
      "type": "function"
    },
    {
      "inputs": [],
      "name": "owner",
      "outputs": [
        {
          "internalType": "address payable",
          "name": "",
          "type": "address"
        }
      ],
      "stateMutability": "view",
      "type": "function"
    },
    {
      "inputs": [],
      "name": "symbol",
      "outputs": [
        {
          "internalType": "string",
          "name": "",
          "type": "string"
        }
      ],
      "stateMutability": "view",
      "type": "function"
    },
    {
      "inputs": [],
      "name": "totalSupply",
      "outputs": [
        {
          "internalType": "uint256",
          "name": "",
          "type": "uint256"
        }
      ],
      "stateMutability": "view",
      "type": "function"
    },
    {
      "inputs": [
        {
          "internalType": "address",
          "name": "recipient",
          "type": "address"
        },
        {
          "internalType": "uint256",
          "name": "amount",
          "type": "uint256"
        }
      ],
      "name": "transfer",
      "outputs": [
        {
          "internalType": "bool",
          "name": "",
          "type": "bool"
        }
      ],
      "stateMutability": "nonpayable",
      "type": "function"
    },
    {
      "inputs": [
        {
          "internalType": "address",
          "name": "sender",
          "type": "address"
        },
        {
          "internalType": "address",
          "name": "recipient",
          "type": "address"
        },
        {
          "internalType": "uint256",
          "name": "amount",
          "type": "uint256"
        }
      ],
      "name": "transferFrom",
      "outputs": [
        {
          "internalType": "bool",
          "name": "",
          "type": "bool"
        }
      ],
      "stateMutability": "nonpayable",
      "type": "function"
    },
    {
      "inputs": [],
      "name": "getOwner",
      "outputs": [
        {
          "internalType": "address payable",
          "name": "",
          "type": "address"
        }
      ],
      "stateMutability": "view",
      "type": "function"
    },
    {
      "inputs": [],
      "name": "ethToSSC",
      "outputs": [
        {
          "internalType": "bool",
          "name": "",
          "type": "bool"
        }
      ],
      "stateMutability": "payable",
      "type": "function"
    },
    {
      "inputs": [
        {
          "internalType": "uint256",
          "name": "value",
          "type": "uint256"
        }
      ],
      "name": "SSCtoEth",
      "outputs": [
        {
          "internalType": "bool",
          "name": "",
          "type": "bool"
        }
      ],
      "stateMutability": "payable",
      "type": "function"
    },
    {
      "inputs": [
        {
          "internalType": "uint256",
          "name": "value",
          "type": "uint256"
        }
      ],
      "name": "useSSC",
      "outputs": [
        {
          "internalType": "bool",
          "name": "",
          "type": "bool"
        }
      ],
      "stateMutability": "payable",
      "type": "function"
    }
  ],
  "bytecode": "0x60806040523480156200001157600080fd5b506040516200218b3803806200218b8339818101604052810190620000379190620004f2565b8181816003908051906020019062000051929190620002a5565b5080600490805190602001906200006a929190620002a5565b50505033600560006101000a81548173ffffffffffffffffffffffffffffffffffffffff021916908373ffffffffffffffffffffffffffffffffffffffff16021790555062000111600560009054906101000a900473ffffffffffffffffffffffffffffffffffffffff16620000e56200011960201b60201c565b60ff16600a620000f6919062000704565b6103e862000105919062000755565b6200012260201b60201c565b505062000929565b60006012905090565b600073ffffffffffffffffffffffffffffffffffffffff168273ffffffffffffffffffffffffffffffffffffffff16141562000195576040517f08c379a00000000000000000000000000000000000000000000000000000000081526004016200018c9062000817565b60405180910390fd5b620001a9600083836200029b60201b60201c565b8060026000828254620001bd919062000839565b92505081905550806000808473ffffffffffffffffffffffffffffffffffffffff1673ffffffffffffffffffffffffffffffffffffffff168152602001908152602001600020600082825462000214919062000839565b925050819055508173ffffffffffffffffffffffffffffffffffffffff16600073ffffffffffffffffffffffffffffffffffffffff167fddf252ad1be2c89b69c2b068fc378daa952ba7f163c4a11628f55a4df523b3ef836040516200027b9190620008a7565b60405180910390a36200029760008383620002a060201b60201c565b5050565b505050565b505050565b828054620002b390620008f3565b90600052602060002090601f016020900481019282620002d7576000855562000323565b82601f10620002f257805160ff191683800117855562000323565b8280016001018555821562000323579182015b828111156200032257825182559160200191906001019062000305565b5b50905062000332919062000336565b5090565b5b808211156200035157600081600090555060010162000337565b5090565b6000604051905090565b600080fd5b600080fd5b600080fd5b600080fd5b6000601f19601f8301169050919050565b7f4e487b7100000000000000000000000000000000000000000000000000000000600052604160045260246000fd5b620003be8262000373565b810181811067ffffffffffffffff82111715620003e057620003df62000384565b5b80604052505050565b6000620003f562000355565b9050620004038282620003b3565b919050565b600067ffffffffffffffff82111562000426576200042562000384565b5b620004318262000373565b9050602081019050919050565b60005b838110156200045e57808201518184015260208101905062000441565b838111156200046e576000848401525b50505050565b60006200048b620004858462000408565b620003e9565b905082815260208101848484011115620004aa57620004a96200036e565b5b620004b78482856200043e565b509392505050565b600082601f830112620004d757620004d662000369565b5b8151620004e984826020860162000474565b91505092915050565b600080604083850312156200050c576200050b6200035f565b5b600083015167ffffffffffffffff8111156200052d576200052c62000364565b5b6200053b85828601620004bf565b925050602083015167ffffffffffffffff8111156200055f576200055e62000364565b5b6200056d85828601620004bf565b9150509250929050565b7f4e487b7100000000000000000000000000000000000000000000000000000000600052601160045260246000fd5b60008160011c9050919050565b6000808291508390505b60018511156200060557808604811115620005dd57620005dc62000577565b5b6001851615620005ed5780820291505b8081029050620005fd85620005a6565b9450620005bd565b94509492505050565b600082620006205760019050620006f3565b81620006305760009050620006f3565b816001811462000649576002811462000654576200068a565b6001915050620006f3565b60ff84111562000669576200066862000577565b5b8360020a91508482111562000683576200068262000577565b5b50620006f3565b5060208310610133831016604e8410600b8410161715620006c45782820a905083811115620006be57620006bd62000577565b5b620006f3565b620006d38484846001620005b3565b92509050818404811115620006ed57620006ec62000577565b5b81810290505b9392505050565b6000819050919050565b60006200071182620006fa565b91506200071e83620006fa565b92506200074d7fffffffffffffffffffffffffffffffffffffffffffffffffffffffffffffffff84846200060e565b905092915050565b60006200076282620006fa565b91506200076f83620006fa565b9250817fffffffffffffffffffffffffffffffffffffffffffffffffffffffffffffffff0483118215151615620007ab57620007aa62000577565b5b828202905092915050565b600082825260208201905092915050565b7f45524332303a206d696e7420746f20746865207a65726f206164647265737300600082015250565b6000620007ff601f83620007b6565b91506200080c82620007c7565b602082019050919050565b600060208201905081810360008301526200083281620007f0565b9050919050565b60006200084682620006fa565b91506200085383620006fa565b9250827fffffffffffffffffffffffffffffffffffffffffffffffffffffffffffffffff038211156200088b576200088a62000577565b5b828201905092915050565b620008a181620006fa565b82525050565b6000602082019050620008be600083018462000896565b92915050565b7f4e487b7100000000000000000000000000000000000000000000000000000000600052602260045260246000fd5b600060028204905060018216806200090c57607f821691505b60208210811415620009235762000922620008c4565b5b50919050565b61185280620009396000396000f3fe6080604052600436106100f35760003560e01c8063893d20e81161008a578063a457c2d711610059578063a457c2d71461033c578063a9059cbb14610379578063cf1ecc12146103b6578063dd62ed3e146103e6576100f3565b8063893d20e81461029d5780638da5cb5b146102c857806395d89b41146102f35780639f800a5f1461031e576100f3565b8063313ce567116100c6578063313ce567146101c857806339509351146101f357806349f062af1461023057806370a0823114610260576100f3565b806306fdde03146100f8578063095ea7b31461012357806318160ddd1461016057806323b872dd1461018b575b600080fd5b34801561010457600080fd5b5061010d610423565b60405161011a9190610fbd565b60405180910390f35b34801561012f57600080fd5b5061014a60048036038101906101459190611078565b6104b5565b60405161015791906110d3565b60405180910390f35b34801561016c57600080fd5b506101756104d3565b60405161018291906110fd565b60405180910390f35b34801561019757600080fd5b506101b260048036038101906101ad9190611118565b6104dd565b6040516101bf91906110d3565b60405180910390f35b3480156101d457600080fd5b506101dd6105d5565b6040516101ea9190611187565b60405180910390f35b3480156101ff57600080fd5b5061021a60048036038101906102159190611078565b6105de565b60405161022791906110d3565b60405180910390f35b61024a600480360381019061024591906111a2565b61068a565b60405161025791906110d3565b60405180910390f35b34801561026c57600080fd5b50610287600480360381019061028291906111cf565b6106d1565b60405161029491906110fd565b60405180910390f35b3480156102a957600080fd5b506102b2610719565b6040516102bf919061121d565b60405180910390f35b3480156102d457600080fd5b506102dd610743565b6040516102ea919061121d565b60405180910390f35b3480156102ff57600080fd5b50610308610769565b6040516103159190610fbd565b60405180910390f35b6103266107fb565b60405161033391906110d3565b60405180910390f35b34801561034857600080fd5b50610363600480360381019061035e9190611078565b61086a565b60405161037091906110d3565b60405180910390f35b34801561038557600080fd5b506103a0600480360381019061039b9190611078565b610955565b6040516103ad91906110d3565b60405180910390f35b6103d060048036038101906103cb91906111a2565b610973565b6040516103dd91906110d3565b60405180910390f35b3480156103f257600080fd5b5061040d60048036038101906104089190611238565b610a3f565b60405161041a91906110fd565b60405180910390f35b606060038054610432906112a7565b80601f016020809104026020016040519081016040528092919081815260200182805461045e906112a7565b80156104ab5780601f10610480576101008083540402835291602001916104ab565b820191906000526020600020905b81548152906001019060200180831161048e57829003601f168201915b5050505050905090565b60006104c96104c2610ac6565b8484610ace565b6001905092915050565b6000600254905090565b60006104ea848484610c99565b6000600160008673ffffffffffffffffffffffffffffffffffffffff1673ffffffffffffffffffffffffffffffffffffffff1681526020019081526020016000206000610535610ac6565b73ffffffffffffffffffffffffffffffffffffffff1673ffffffffffffffffffffffffffffffffffffffff168152602001908152602001600020549050828110156105b5576040517f08c379a00000000000000000000000000000000000000000000000000000000081526004016105ac9061134b565b60405180910390fd5b6105c9856105c1610ac6565b858403610ace565b60019150509392505050565b60006012905090565b60006106806105eb610ac6565b8484600160006105f9610ac6565b73ffffffffffffffffffffffffffffffffffffffff1673ffffffffffffffffffffffffffffffffffffffff16815260200190815260200160002060008873ffffffffffffffffffffffffffffffffffffffff1673ffffffffffffffffffffffffffffffffffffffff1681526020019081526020016000205461067b919061139a565b610ace565b6001905092915050565b6000600115156106bc600560009054906101000a900473ffffffffffffffffffffffffffffffffffffffff1684610955565b1515146106c857600080fd5b60019050919050565b60008060008373ffffffffffffffffffffffffffffffffffffffff1673ffffffffffffffffffffffffffffffffffffffff168152602001908152602001600020549050919050565b6000600560009054906101000a900473ffffffffffffffffffffffffffffffffffffffff16905090565b600560009054906101000a900473ffffffffffffffffffffffffffffffffffffffff1681565b606060048054610778906112a7565b80601f01602080910402602001604051908101604052809291908181526020018280546107a4906112a7565b80156107f15780601f106107c6576101008083540402835291602001916107f1565b820191906000526020600020905b8154815290600101906020018083116107d457829003601f168201915b5050505050905090565b600061082a600560009054906101000a900473ffffffffffffffffffffffffffffffffffffffff163334610c99565b7f71217b0ac6661ea270eb8b6cbcaee0e9a1959b2d504fdf83b0deedc472456d86333460405161085b9291906113ff565b60405180910390a16001905090565b60008060016000610879610ac6565b73ffffffffffffffffffffffffffffffffffffffff1673ffffffffffffffffffffffffffffffffffffffff16815260200190815260200160002060008573ffffffffffffffffffffffffffffffffffffffff1673ffffffffffffffffffffffffffffffffffffffff16815260200190815260200160002054905082811015610936576040517f08c379a000000000000000000000000000000000000000000000000000000000815260040161092d9061149a565b60405180910390fd5b61094a610941610ac6565b85858403610ace565b600191505092915050565b6000610969610962610ac6565b8484610c99565b6001905092915050565b600080339050600115156109a9600560009054906101000a900473ffffffffffffffffffffffffffffffffffffffff1685610955565b1515146109b557600080fd5b8073ffffffffffffffffffffffffffffffffffffffff166108fc849081150290604051600060405180830381858888f193505050501580156109fb573d6000803e3d6000fd5b507f94d0a8b0f912fb8e07f67cb42b315492f67e990cb9164d9bc3d01d8048999bb78184604051610a2d929190611519565b60405180910390a16001915050919050565b6000600160008473ffffffffffffffffffffffffffffffffffffffff1673ffffffffffffffffffffffffffffffffffffffff16815260200190815260200160002060008373ffffffffffffffffffffffffffffffffffffffff1673ffffffffffffffffffffffffffffffffffffffff16815260200190815260200160002054905092915050565b600033905090565b600073ffffffffffffffffffffffffffffffffffffffff168373ffffffffffffffffffffffffffffffffffffffff161415610b3e576040517f08c379a0000000000000000000000000000000000000000000000000000000008152600401610b35906115b4565b60405180910390fd5b600073ffffffffffffffffffffffffffffffffffffffff168273ffffffffffffffffffffffffffffffffffffffff161415610bae576040517f08c379a0000000000000000000000000000000000000000000000000000000008152600401610ba590611646565b60405180910390fd5b80600160008573ffffffffffffffffffffffffffffffffffffffff1673ffffffffffffffffffffffffffffffffffffffff16815260200190815260200160002060008473ffffffffffffffffffffffffffffffffffffffff1673ffffffffffffffffffffffffffffffffffffffff168152602001908152602001600020819055508173ffffffffffffffffffffffffffffffffffffffff168373ffffffffffffffffffffffffffffffffffffffff167f8c5be1e5ebec7d5bd14f71427d1e84f3dd0314c0f7b2291e5b200ac8c7c3b92583604051610c8c91906110fd565b60405180910390a3505050565b600073ffffffffffffffffffffffffffffffffffffffff168373ffffffffffffffffffffffffffffffffffffffff161415610d09576040517f08c379a0000000000000000000000000000000000000000000000000000000008152600401610d00906116d8565b60405180910390fd5b600073ffffffffffffffffffffffffffffffffffffffff168273ffffffffffffffffffffffffffffffffffffffff161415610d79576040517f08c379a0000000000000000000000000000000000000000000000000000000008152600401610d709061176a565b60405180910390fd5b610d84838383610f1a565b60008060008573ffffffffffffffffffffffffffffffffffffffff1673ffffffffffffffffffffffffffffffffffffffff16815260200190815260200160002054905081811015610e0a576040517f08c379a0000000000000000000000000000000000000000000000000000000008152600401610e01906117fc565b60405180910390fd5b8181036000808673ffffffffffffffffffffffffffffffffffffffff1673ffffffffffffffffffffffffffffffffffffffff16815260200190815260200160002081905550816000808573ffffffffffffffffffffffffffffffffffffffff1673ffffffffffffffffffffffffffffffffffffffff1681526020019081526020016000206000828254610e9d919061139a565b925050819055508273ffffffffffffffffffffffffffffffffffffffff168473ffffffffffffffffffffffffffffffffffffffff167fddf252ad1be2c89b69c2b068fc378daa952ba7f163c4a11628f55a4df523b3ef84604051610f0191906110fd565b60405180910390a3610f14848484610f1f565b50505050565b505050565b505050565b600081519050919050565b600082825260208201905092915050565b60005b83811015610f5e578082015181840152602081019050610f43565b83811115610f6d576000848401525b50505050565b6000601f19601f8301169050919050565b6000610f8f82610f24565b610f998185610f2f565b9350610fa9818560208601610f40565b610fb281610f73565b840191505092915050565b60006020820190508181036000830152610fd78184610f84565b905092915050565b600080fd5b600073ffffffffffffffffffffffffffffffffffffffff82169050919050565b600061100f82610fe4565b9050919050565b61101f81611004565b811461102a57600080fd5b50565b60008135905061103c81611016565b92915050565b6000819050919050565b61105581611042565b811461106057600080fd5b50565b6000813590506110728161104c565b92915050565b6000806040838503121561108f5761108e610fdf565b5b600061109d8582860161102d565b92505060206110ae85828601611063565b9150509250929050565b60008115159050919050565b6110cd816110b8565b82525050565b60006020820190506110e860008301846110c4565b92915050565b6110f781611042565b82525050565b600060208201905061111260008301846110ee565b92915050565b60008060006060848603121561113157611130610fdf565b5b600061113f8682870161102d565b93505060206111508682870161102d565b925050604061116186828701611063565b9150509250925092565b600060ff82169050919050565b6111818161116b565b82525050565b600060208201905061119c6000830184611178565b92915050565b6000602082840312156111b8576111b7610fdf565b5b60006111c684828501611063565b91505092915050565b6000602082840312156111e5576111e4610fdf565b5b60006111f38482850161102d565b91505092915050565b600061120782610fe4565b9050919050565b611217816111fc565b82525050565b6000602082019050611232600083018461120e565b92915050565b6000806040838503121561124f5761124e610fdf565b5b600061125d8582860161102d565b925050602061126e8582860161102d565b9150509250929050565b7f4e487b7100000000000000000000000000000000000000000000000000000000600052602260045260246000fd5b600060028204905060018216806112bf57607f821691505b602082108114156112d3576112d2611278565b5b50919050565b7f45524332303a207472616e7366657220616d6f756e742065786365656473206160008201527f6c6c6f77616e6365000000000000000000000000000000000000000000000000602082015250565b6000611335602883610f2f565b9150611340826112d9565b604082019050919050565b6000602082019050818103600083015261136481611328565b9050919050565b7f4e487b7100000000000000000000000000000000000000000000000000000000600052601160045260246000fd5b60006113a582611042565b91506113b083611042565b9250827fffffffffffffffffffffffffffffffffffffffffffffffffffffffffffffffff038211156113e5576113e461136b565b5b828201905092915050565b6113f981611004565b82525050565b600060408201905061141460008301856113f0565b61142160208301846110ee565b9392505050565b7f45524332303a2064656372656173656420616c6c6f77616e63652062656c6f7760008201527f207a65726f000000000000000000000000000000000000000000000000000000602082015250565b6000611484602583610f2f565b915061148f82611428565b604082019050919050565b600060208201905081810360008301526114b381611477565b9050919050565b6000819050919050565b60006114df6114da6114d584610fe4565b6114ba565b610fe4565b9050919050565b60006114f1826114c4565b9050919050565b6000611503826114e6565b9050919050565b611513816114f8565b82525050565b600060408201905061152e600083018561150a565b61153b60208301846110ee565b9392505050565b7f45524332303a20617070726f76652066726f6d20746865207a65726f2061646460008201527f7265737300000000000000000000000000000000000000000000000000000000602082015250565b600061159e602483610f2f565b91506115a982611542565b604082019050919050565b600060208201905081810360008301526115cd81611591565b9050919050565b7f45524332303a20617070726f766520746f20746865207a65726f20616464726560008201527f7373000000000000000000000000000000000000000000000000000000000000602082015250565b6000611630602283610f2f565b915061163b826115d4565b604082019050919050565b6000602082019050818103600083015261165f81611623565b9050919050565b7f45524332303a207472616e736665722066726f6d20746865207a65726f20616460008201527f6472657373000000000000000000000000000000000000000000000000000000602082015250565b60006116c2602583610f2f565b91506116cd82611666565b604082019050919050565b600060208201905081810360008301526116f1816116b5565b9050919050565b7f45524332303a207472616e7366657220746f20746865207a65726f206164647260008201527f6573730000000000000000000000000000000000000000000000000000000000602082015250565b6000611754602383610f2f565b915061175f826116f8565b604082019050919050565b6000602082019050818103600083015261178381611747565b9050919050565b7f45524332303a207472616e7366657220616d6f756e742065786365656473206260008201527f616c616e63650000000000000000000000000000000000000000000000000000602082015250565b60006117e6602683610f2f565b91506117f18261178a565b604082019050919050565b60006020820190508181036000830152611815816117d9565b905091905056fea2646970667358221220a05dc5087d7bbd6ff9b3c24e764464c16930d2c3819bd4eb677100187ccbbeb964736f6c634300080b0033",
  "immutableReferences": {},
  "source": "// SPDX-License-Identifier: MIT\r\npragma solidity ^0.8.0; \r\n\r\nimport \"openzeppelin-solidity/contracts/token/erc20/erc20.sol\";\r\n\r\ncontract MyToken is ERC20{ \r\n\r\n    address payable public owner;\r\n\r\n    event EXCHANGE_ETH_TO_SCC(address requester, uint256 value);\r\n    event EXCHANGE_SCC_TO_ETH(address requester, uint256 value);\r\n\r\n    constructor(string memory name, string memory symbol) ERC20(name,symbol){\r\n         // mint 1000 token \r\n         owner = payable(msg.sender);\r\n         _mint(owner, 1000*10**uint(decimals())); \r\n         \r\n        } \r\n\r\n    function getOwner() public view returns (address payable) {\r\n        return owner;\r\n    }\r\n\r\n    function ethToSSC() public payable returns (bool){\r\n        // user send ETH && owner send SSC\r\n        _transfer(owner, msg.sender, msg.value);\r\n        emit EXCHANGE_ETH_TO_SCC(msg.sender, msg.value);\r\n        return true;\r\n    }\r\n\r\n\r\n    function SSCtoEth(uint256 value) public payable returns (bool){\r\n        // user send SSC && owner send ETH\r\n        address payable user = payable(msg.sender);\r\n        require(transfer(owner, value) == true);\r\n        user.transfer(value);\r\n        emit EXCHANGE_SCC_TO_ETH(user, value);\r\n\r\n        return true;\r\n    }\r\n\r\n    function useSSC(uint256 value) public payable returns (bool) {\r\n        require(transfer(owner, value) == true);\r\n        //address payable user = payable(msg.sender);\r\n        \r\n        return true;\r\n    }\r\n}",
  "sourcePath": "C:\\Users\\jhl81\\OneDrive\\project_2-2\\test\\madcamp-pj3\\contracts\\MyToken.sol",
  "compiler": {
    "name": "solc",
    "version": "0.8.11+commit.d7f03943.Emscripten.clang"
  },
  "schemaVersion": "3.4.4",
  "updatedAt": "2022-01-17T19:27:39.909Z",
  "devdoc": {
    "kind": "dev",
    "methods": {
      "allowance(address,address)": {
        "details": "See {IERC20-allowance}."
      },
      "approve(address,uint256)": {
        "details": "See {IERC20-approve}. Requirements: - `spender` cannot be the zero address."
      },
      "balanceOf(address)": {
        "details": "See {IERC20-balanceOf}."
      },
      "decimals()": {
        "details": "Returns the number of decimals used to get its user representation. For example, if `decimals` equals `2`, a balance of `505` tokens should be displayed to a user as `5.05` (`505 / 10 ** 2`). Tokens usually opt for a value of 18, imitating the relationship between Ether and Wei. This is the value {ERC20} uses, unless this function is overridden; NOTE: This information is only used for _display_ purposes: it in no way affects any of the arithmetic of the contract, including {IERC20-balanceOf} and {IERC20-transfer}."
      },
      "decreaseAllowance(address,uint256)": {
        "details": "Atomically decreases the allowance granted to `spender` by the caller. This is an alternative to {approve} that can be used as a mitigation for problems described in {IERC20-approve}. Emits an {Approval} event indicating the updated allowance. Requirements: - `spender` cannot be the zero address. - `spender` must have allowance for the caller of at least `subtractedValue`."
      },
      "increaseAllowance(address,uint256)": {
        "details": "Atomically increases the allowance granted to `spender` by the caller. This is an alternative to {approve} that can be used as a mitigation for problems described in {IERC20-approve}. Emits an {Approval} event indicating the updated allowance. Requirements: - `spender` cannot be the zero address."
      },
      "name()": {
        "details": "Returns the name of the token."
      },
      "symbol()": {
        "details": "Returns the symbol of the token, usually a shorter version of the name."
      },
      "totalSupply()": {
        "details": "See {IERC20-totalSupply}."
      },
      "transfer(address,uint256)": {
        "details": "See {IERC20-transfer}. Requirements: - `recipient` cannot be the zero address. - the caller must have a balance of at least `amount`."
      },
      "transferFrom(address,address,uint256)": {
        "details": "See {IERC20-transferFrom}. Emits an {Approval} event indicating the updated allowance. This is not required by the EIP. See the note at the beginning of {ERC20}. Requirements: - `sender` and `recipient` cannot be the zero address. - `sender` must have a balance of at least `amount`. - the caller must have allowance for ``sender``'s tokens of at least `amount`."
      }
    },
    "version": 1
  },
  "userdoc": {
    "kind": "user",
    "methods": {},
    "version": 1
  }
}