{
  "contractName": "CatBase",
  "abi": [
    {
      "inputs": [],
      "payable": false,
      "stateMutability": "nonpayable",
      "type": "constructor"
    },
    {
      "anonymous": false,
      "inputs": [
        {
          "indexed": false,
          "internalType": "string",
          "name": "name",
          "type": "string"
        },
        {
          "indexed": false,
          "internalType": "uint32",
          "name": "kittyId",
          "type": "uint32"
        }
      ],
      "name": "NewCat",
      "type": "event"
    },
    {
      "constant": false,
      "inputs": [],
      "name": "registerCat",
      "outputs": [],
      "payable": false,
      "stateMutability": "nonpayable",
      "type": "function"
    },
    {
      "constant": true,
      "inputs": [],
      "name": "getCatCounts",
      "outputs": [
        {
          "internalType": "uint32",
          "name": "",
          "type": "uint32"
        }
      ],
      "payable": false,
      "stateMutability": "view",
      "type": "function"
    },
    {
      "constant": true,
      "inputs": [],
      "name": "getMyCat",
      "outputs": [
        {
          "components": [
            {
              "internalType": "string",
              "name": "name",
              "type": "string"
            },
            {
              "internalType": "uint256",
              "name": "price",
              "type": "uint256"
            },
            {
              "internalType": "uint256",
              "name": "coolDown",
              "type": "uint256"
            },
            {
              "internalType": "uint32",
              "name": "kittyId",
              "type": "uint32"
            }
          ],
          "internalType": "struct CatBase.Cat",
          "name": "mycat",
          "type": "tuple"
        }
      ],
      "payable": false,
      "stateMutability": "view",
      "type": "function"
    },
    {
      "constant": true,
      "inputs": [],
      "name": "hasCat",
      "outputs": [
        {
          "internalType": "bool",
          "name": "",
          "type": "bool"
        }
      ],
      "payable": false,
      "stateMutability": "view",
      "type": "function"
    }
  ],
  "bytecode": "0x608060405260008055603c6001556000600260006101000a81548163ffffffff021916908363ffffffff1602179055506040518060c00160405280600062ffffff16815260200162024c4162ffffff16815260200162038d2f62ffffff16815260200162062cf662ffffff16815260200162070f7062ffffff168152602001620788f862ffffff1681525060039060066200009c92919062000285565b506040518060c00160405280600060ff168152602001600160ff168152602001600260ff168152602001600360ff168152602001600460ff168152602001600560ff168152506004906006620000f49291906200033b565b503480156200010257600080fd5b506000600190505b60058161ffff16116200019657806005600060038461ffff16815481106200012e57fe5b90600052602060002090600891828204019190066004029054906101000a900463ffffffff1663ffffffff1663ffffffff16815260200190815260200160002060006101000a81548161ffff021916908361ffff16021790555080806001019150506200010a565b50600760405180608001604052806040518060400160405280600581526020017f4552524f52000000000000000000000000000000000000000000000000000000815250815260200160008152602001428152602001600063ffffffff168152509080600181540180825580915050906001820390600052602060002090600402016000909192909190915060008201518160000190805190602001906200024092919062000392565b50602082015181600101556040820151816002015560608201518160030160006101000a81548163ffffffff021916908363ffffffff16021790555050505062000477565b82805482825590600052602060002090600701600890048101928215620003285791602002820160005b83821115620002f457835183826101000a81548163ffffffff021916908362ffffff1602179055509260200192600401602081600301049283019260010302620002af565b8015620003265782816101000a81549063ffffffff0219169055600401602081600301049283019260010302620002f4565b505b50905062000337919062000419565b5090565b8280548282559060005260206000209081019282156200037f579160200282015b828111156200037e578251829060ff169055916020019190600101906200035c565b5b5090506200038e91906200044f565b5090565b828054600181600116156101000203166002900490600052602060002090601f016020900481019282601f10620003d557805160ff191683800117855562000406565b8280016001018555821562000406579182015b8281111562000405578251825591602001919060010190620003e8565b5b5090506200041591906200044f565b5090565b6200044c91905b808211156200044857600081816101000a81549063ffffffff02191690555060010162000420565b5090565b90565b6200047491905b808211156200047057600081600090555060010162000456565b5090565b90565b610ab080620004876000396000f3fe608060405234801561001057600080fd5b506004361061004c5760003560e01c806346218cf514610051578063a87e8aad1461005b578063f9351a6214610079578063fe2ca31a14610097575b600080fd5b6100596100b5565b005b610063610357565b604051610070919061092c565b60405180910390f35b610081610554565b60405161008e91906108c3565b60405180910390f35b61009f610565565b6040516100ac919061094e565b60405180910390f35b6000600660003373ffffffffffffffffffffffffffffffffffffffff1673ffffffffffffffffffffffffffffffffffffffff16815260200190815260200160002060009054906101000a900463ffffffff1663ffffffff16141561035557600061011d61057f565b9050600760405180608001604052806040518060400160405280600481526020017f7465737400000000000000000000000000000000000000000000000000000000815250815260200160048461ffff168154811061017857fe5b9060005260206000200154815260200142815260200160038461ffff168154811061019f57fe5b90600052602060002090600891828204019190066004029054906101000a900463ffffffff1663ffffffff1681525090806001815401808255809150509060018203906000526020600020906004020160009091929091909150600082015181600001908051906020019061021592919061062d565b50602082015181600101556040820151816002015560608201518160030160006101000a81548163ffffffff021916908363ffffffff1602179055505050506002600081819054906101000a900463ffffffff1660010191906101000a81548163ffffffff021916908363ffffffff1602179055600660003373ffffffffffffffffffffffffffffffffffffffff1673ffffffffffffffffffffffffffffffffffffffff16815260200190815260200160002060006101000a81548163ffffffff021916908363ffffffff1602179055507f68b16d148ac718df46372e610f4807c5a5864bf28e84cab1e960120bc463077560038261ffff168154811061031857fe5b90600052602060002090600891828204019190066004029054906101000a900463ffffffff1660405161034b91906108fe565b60405180910390a1505b565b61035f6106ad565b6000600660003373ffffffffffffffffffffffffffffffffffffffff1673ffffffffffffffffffffffffffffffffffffffff16815260200190815260200160002060009054906101000a900463ffffffff1663ffffffff1614156103f8576040517f08c379a00000000000000000000000000000000000000000000000000000000081526004016103ef906108de565b60405180910390fd5b6007600660003373ffffffffffffffffffffffffffffffffffffffff1673ffffffffffffffffffffffffffffffffffffffff16815260200190815260200160002060009054906101000a900463ffffffff1663ffffffff168154811061045a57fe5b9060005260206000209060040201604051806080016040529081600082018054600181600116156101000203166002900480601f01602080910402602001604051908101604052809291908181526020018280546001816001161561010002031660029004801561050c5780601f106104e15761010080835404028352916020019161050c565b820191906000526020600020905b8154815290600101906020018083116104ef57829003601f168201915b5050505050815260200160018201548152602001600282015481526020016003820160009054906101000a900463ffffffff1663ffffffff1663ffffffff1681525050905090565b60008061055f6105d0565b11905090565b6000600260009054906101000a900463ffffffff16905090565b6000600160054260008081548092919060010191905055336040516020016105a993929190610886565b6040516020818303038152906040528051906020012060001c816105c957fe5b0601905090565b6000600660003373ffffffffffffffffffffffffffffffffffffffff1673ffffffffffffffffffffffffffffffffffffffff16815260200190815260200160002060009054906101000a900463ffffffff1663ffffffff16905090565b828054600181600116156101000203166002900490600052602060002090601f016020900481019282601f1061066e57805160ff191683800117855561069c565b8280016001018555821561069c579182015b8281111561069b578251825591602001919060010190610680565b5b5090506106a991906106db565b5090565b6040518060800160405280606081526020016000815260200160008152602001600063ffffffff1681525090565b6106fd91905b808211156106f95760008160009055506001016106e1565b5090565b90565b61071161070c82610996565b610a21565b82525050565b610720816109a8565b82525050565b600061073182610969565b61073b8185610974565b935061074b8185602086016109ee565b61075481610a4f565b840191505092915050565b600061076c600e83610985565b91507f72656769737465722066697273740000000000000000000000000000000000006000830152602082019050919050565b60006107ac600483610985565b91507f74657374000000000000000000000000000000000000000000000000000000006000830152602082019050919050565b600060808301600083015184820360008601526107fc8282610726565b91505060208301516108116020860182610842565b5060408301516108246040860182610842565b5060608301516108376060860182610868565b508091505092915050565b61084b816109d4565b82525050565b61086261085d826109d4565b610a45565b82525050565b610871816109de565b82525050565b610880816109de565b82525050565b60006108928286610851565b6020820191506108a28285610851565b6020820191506108b28284610700565b601482019150819050949350505050565b60006020820190506108d86000830184610717565b92915050565b600060208201905081810360008301526108f78161075f565b9050919050565b600060408201905081810360008301526109178161079f565b90506109266020830184610877565b92915050565b6000602082019050818103600083015261094681846107df565b905092915050565b60006020820190506109636000830184610877565b92915050565b600081519050919050565b600082825260208201905092915050565b600082825260208201905092915050565b60006109a1826109b4565b9050919050565b60008115159050919050565b600073ffffffffffffffffffffffffffffffffffffffff82169050919050565b6000819050919050565b600063ffffffff82169050919050565b60005b83811015610a0c5780820151818401526020810190506109f1565b83811115610a1b576000848401525b50505050565b6000610a2c82610a33565b9050919050565b6000610a3e82610a60565b9050919050565b6000819050919050565b6000601f19601f8301169050919050565b60008160601b905091905056fea365627a7a72315820de099834a5c2752eac7926d0cd5c026927b8dc0653bf65f2068a087db38bb4206c6578706572696d656e74616cf564736f6c63430005100040",
  "source": "// SPDX-License-Identifier: MIT\r\npragma solidity >=0.5.16;\r\npragma experimental ABIEncoderV2;\r\n\r\ncontract CatBase {\r\n\r\n    event NewCat(string name, uint32 kittyId);\r\n\r\n    uint private randNonce = 0;\r\n    uint private coolDownTime = 1 minutes;\r\n    uint32 private catCounts = 0;\r\n    uint32[] private kittyIds = [0, 150593, 232751, 404726, 462704, 493816];\r\n    uint256[] private kittyPrices = [0, 1, 2, 3, 4, 5];\r\n\r\n    struct Cat {\r\n        string name;\r\n        uint256 price;\r\n        uint256 coolDown;\r\n        uint32 kittyId; //cryptokitty id\r\n    }\r\n\r\n    mapping(uint32 => uint16) internal idToIndex;\r\n    mapping(address => uint32) internal ownerToCat; // in-contract id;\r\n    Cat[] internal cats;\r\n\r\n    constructor() public{\r\n        for(uint16 i=1;i<=5;i++){\r\n            idToIndex[kittyIds[i]] = i;\r\n        }\r\n        cats.push(Cat(\"ERROR\", 0, block.timestamp, 0));\r\n    }\r\n\r\n    function _makeRandom() internal returns(uint16){\r\n        return uint16(uint(keccak256(abi.encodePacked(block.timestamp, randNonce++, msg.sender))) % 5) + 1;\r\n    }\r\n\r\n    function _getMyCatIdx() internal view returns(uint) {return ownerToCat[msg.sender];}\r\n\r\n\r\n    function registerCat() public {\r\n\r\n        if(ownerToCat[msg.sender] == 0){\r\n            uint16 random = _makeRandom();\r\n            cats.push(Cat(\"test\", kittyPrices[random], block.timestamp, kittyIds[random]));\r\n            ownerToCat[msg.sender] = ++catCounts;\r\n            emit NewCat(\"test\", kittyIds[random]);\r\n        }\r\n        \r\n    }\r\n\r\n    function getCatCounts() public view returns(uint32) { return catCounts; }\r\n\r\n    function getMyCat() public view returns(Cat memory mycat){\r\n        require(ownerToCat[msg.sender] != 0, \"register first\");\r\n        mycat = cats[ownerToCat[msg.sender]];\r\n    }\r\n\r\n    function hasCat() public view returns(bool){\r\n         return _getMyCatIdx() > 0;\r\n    }\r\n\r\n\r\n    function updateKittyId(uint16 _to) internal{\r\n        Cat storage cat = cats[_getMyCatIdx()];\r\n        cat.kittyId = kittyIds[_to];\r\n    }\r\n\r\n}",
  "sourcePath": "C:\\Users\\kyoon\\Desktop\\madcamp\\madcamp-pj3\\contracts\\CatBase.sol",
  "compiler": {
    "name": "solc",
    "version": "0.5.16+commit.9c3226ce.Emscripten.clang"
  },
  "schemaVersion": "3.4.4",
  "updatedAt": "2022-01-14T06:42:00.615Z",
  "devdoc": {
    "methods": {}
  },
  "userdoc": {
    "methods": {}
  }
}