{
  "contractName": "CatFeed",
  "abi": [
    {
      "anonymous": false,
      "inputs": [
        {
          "indexed": false,
          "internalType": "address",
          "name": "feeder",
          "type": "address"
        }
      ],
      "name": "FeedCat",
      "type": "event"
    },
    {
      "anonymous": false,
      "inputs": [
        {
          "indexed": false,
          "internalType": "string",
          "name": "name",
          "type": "string"
        },
        {
          "indexed": false,
          "internalType": "uint32",
          "name": "kittyId",
          "type": "uint32"
        }
      ],
      "name": "NewCat",
      "type": "event"
    },
    {
      "constant": true,
      "inputs": [],
      "name": "getCatCounts",
      "outputs": [
        {
          "internalType": "uint32",
          "name": "",
          "type": "uint32"
        }
      ],
      "payable": false,
      "stateMutability": "view",
      "type": "function"
    },
    {
      "constant": true,
      "inputs": [],
      "name": "getMyCat",
      "outputs": [
        {
          "components": [
            {
              "internalType": "string",
              "name": "name",
              "type": "string"
            },
            {
              "internalType": "uint256",
              "name": "price",
              "type": "uint256"
            },
            {
              "internalType": "uint256",
              "name": "coolDown",
              "type": "uint256"
            },
            {
              "internalType": "uint32",
              "name": "kittyId",
              "type": "uint32"
            }
          ],
          "internalType": "struct CatBase.Cat",
          "name": "mycat",
          "type": "tuple"
        }
      ],
      "payable": false,
      "stateMutability": "view",
      "type": "function"
    },
    {
      "constant": true,
      "inputs": [],
      "name": "hasCat",
      "outputs": [
        {
          "internalType": "bool",
          "name": "",
          "type": "bool"
        }
      ],
      "payable": false,
      "stateMutability": "view",
      "type": "function"
    },
    {
      "constant": false,
      "inputs": [],
      "name": "registerCat",
      "outputs": [],
      "payable": false,
      "stateMutability": "nonpayable",
      "type": "function"
    },
    {
      "constant": false,
      "inputs": [],
      "name": "feed",
      "outputs": [],
      "payable": false,
      "stateMutability": "nonpayable",
      "type": "function"
    }
  ],
  "bytecode": "0x608060405260008055603c6001556000600260006101000a81548163ffffffff021916908363ffffffff1602179055506040518060c00160405280600062ffffff16815260200162024c4162ffffff16815260200162038d2f62ffffff16815260200162062cf662ffffff16815260200162070f7062ffffff168152602001620788f862ffffff1681525060039060066200009c92919062000277565b506040518060c00160405280600060ff168152602001600160ff168152602001600260ff168152602001600360ff168152602001600460ff168152602001600560ff168152506004906006620000f49291906200032d565b506000600190505b60058161ffff16116200018857806005600060038461ffff16815481106200012057fe5b90600052602060002090600891828204019190066004029054906101000a900463ffffffff1663ffffffff1663ffffffff16815260200190815260200160002060006101000a81548161ffff021916908361ffff1602179055508080600101915050620000fc565b50600760405180608001604052806040518060400160405280600581526020017f4552524f52000000000000000000000000000000000000000000000000000000815250815260200160008152602001428152602001600063ffffffff168152509080600181540180825580915050906001820390600052602060002090600402016000909192909190915060008201518160000190805190602001906200023292919062000384565b50602082015181600101556040820151816002015560608201518160030160006101000a81548163ffffffff021916908363ffffffff16021790555050505062000469565b828054828255906000526020600020906007016008900481019282156200031a5791602002820160005b83821115620002e657835183826101000a81548163ffffffff021916908362ffffff1602179055509260200192600401602081600301049283019260010302620002a1565b8015620003185782816101000a81549063ffffffff0219169055600401602081600301049283019260010302620002e6565b505b5090506200032991906200040b565b5090565b82805482825590600052602060002090810192821562000371579160200282015b8281111562000370578251829060ff169055916020019190600101906200034e565b5b50905062000380919062000441565b5090565b828054600181600116156101000203166002900490600052602060002090601f016020900481019282601f10620003c757805160ff1916838001178555620003f8565b82800160010185558215620003f8579182015b82811115620003f7578251825591602001919060010190620003da565b5b50905062000407919062000441565b5090565b6200043e91905b808211156200043a57600081816101000a81549063ffffffff02191690555060010162000412565b5090565b90565b6200046691905b808211156200046257600081600090555060010162000448565b5090565b90565b610bf180620004796000396000f3fe608060405234801561001057600080fd5b50600436106100575760003560e01c806337a7b7d81461005c57806346218cf514610066578063a87e8aad14610070578063f9351a621461008e578063fe2ca31a146100ac575b600080fd5b6100646100ca565b005b61006e610113565b005b6100786103b5565b6040516100859190610a37565b60405180910390f35b6100966105b2565b6040516100a391906109ce565b60405180910390f35b6100b46105c3565b6040516100c19190610a59565b60405180910390f35b6100da6100d56105dd565b61062e565b7f3e80ee9a9ddebeb64c8c65bbd90993118b9d0b898c5b51673b330753535752a33360405161010991906109b3565b60405180910390a1565b6000600660003373ffffffffffffffffffffffffffffffffffffffff1673ffffffffffffffffffffffffffffffffffffffff16815260200190815260200160002060009054906101000a900463ffffffff1663ffffffff1614156103b357600061017b6105dd565b9050600760405180608001604052806040518060400160405280600481526020017f7465737400000000000000000000000000000000000000000000000000000000815250815260200160048461ffff16815481106101d657fe5b9060005260206000200154815260200142815260200160038461ffff16815481106101fd57fe5b90600052602060002090600891828204019190066004029054906101000a900463ffffffff1663ffffffff1681525090806001815401808255809150509060018203906000526020600020906004020160009091929091909150600082015181600001908051906020019061027392919061070e565b50602082015181600101556040820151816002015560608201518160030160006101000a81548163ffffffff021916908363ffffffff1602179055505050506002600081819054906101000a900463ffffffff1660010191906101000a81548163ffffffff021916908363ffffffff1602179055600660003373ffffffffffffffffffffffffffffffffffffffff1673ffffffffffffffffffffffffffffffffffffffff16815260200190815260200160002060006101000a81548163ffffffff021916908363ffffffff1602179055507f68b16d148ac718df46372e610f4807c5a5864bf28e84cab1e960120bc463077560038261ffff168154811061037657fe5b90600052602060002090600891828204019190066004029054906101000a900463ffffffff166040516103a99190610a09565b60405180910390a1505b565b6103bd61078e565b6000600660003373ffffffffffffffffffffffffffffffffffffffff1673ffffffffffffffffffffffffffffffffffffffff16815260200190815260200160002060009054906101000a900463ffffffff1663ffffffff161415610456576040517f08c379a000000000000000000000000000000000000000000000000000000000815260040161044d906109e9565b60405180910390fd5b6007600660003373ffffffffffffffffffffffffffffffffffffffff1673ffffffffffffffffffffffffffffffffffffffff16815260200190815260200160002060009054906101000a900463ffffffff1663ffffffff16815481106104b857fe5b9060005260206000209060040201604051806080016040529081600082018054600181600116156101000203166002900480601f01602080910402602001604051908101604052809291908181526020018280546001816001161561010002031660029004801561056a5780601f1061053f5761010080835404028352916020019161056a565b820191906000526020600020905b81548152906001019060200180831161054d57829003601f168201915b5050505050815260200160018201548152602001600282015481526020016003820160009054906101000a900463ffffffff1663ffffffff1663ffffffff1681525050905090565b6000806105bd6106b1565b11905090565b6000600260009054906101000a900463ffffffff16905090565b60006001600542600080815480929190600101919050553360405160200161060793929190610976565b6040516020818303038152906040528051906020012060001c8161062757fe5b0601905090565b6000600761063a6106b1565b8154811061064457fe5b9060005260206000209060040201905060038261ffff168154811061066557fe5b90600052602060002090600891828204019190066004029054906101000a900463ffffffff168160030160006101000a81548163ffffffff021916908363ffffffff1602179055505050565b6000600660003373ffffffffffffffffffffffffffffffffffffffff1673ffffffffffffffffffffffffffffffffffffffff16815260200190815260200160002060009054906101000a900463ffffffff1663ffffffff16905090565b828054600181600116156101000203166002900490600052602060002090601f016020900481019282601f1061074f57805160ff191683800117855561077d565b8280016001018555821561077d579182015b8281111561077c578251825591602001919060010190610761565b5b50905061078a91906107bc565b5090565b6040518060800160405280606081526020016000815260200160008152602001600063ffffffff1681525090565b6107de91905b808211156107da5760008160009055506001016107c2565b5090565b90565b6107ea81610af9565b82525050565b6108016107fc82610aa1565b610b62565b82525050565b61081081610ab3565b82525050565b600061082182610a74565b61082b8185610a7f565b935061083b818560208601610b2f565b61084481610b90565b840191505092915050565b600061085c600e83610a90565b91507f72656769737465722066697273740000000000000000000000000000000000006000830152602082019050919050565b600061089c600483610a90565b91507f74657374000000000000000000000000000000000000000000000000000000006000830152602082019050919050565b600060808301600083015184820360008601526108ec8282610816565b91505060208301516109016020860182610932565b5060408301516109146040860182610932565b5060608301516109276060860182610958565b508091505092915050565b61093b81610adf565b82525050565b61095261094d82610adf565b610b86565b82525050565b61096181610ae9565b82525050565b61097081610ae9565b82525050565b60006109828286610941565b6020820191506109928285610941565b6020820191506109a282846107f0565b601482019150819050949350505050565b60006020820190506109c860008301846107e1565b92915050565b60006020820190506109e36000830184610807565b92915050565b60006020820190508181036000830152610a028161084f565b9050919050565b60006040820190508181036000830152610a228161088f565b9050610a316020830184610967565b92915050565b60006020820190508181036000830152610a5181846108cf565b905092915050565b6000602082019050610a6e6000830184610967565b92915050565b600081519050919050565b600082825260208201905092915050565b600082825260208201905092915050565b6000610aac82610abf565b9050919050565b60008115159050919050565b600073ffffffffffffffffffffffffffffffffffffffff82169050919050565b6000819050919050565b600063ffffffff82169050919050565b6000610b0482610b0b565b9050919050565b6000610b1682610b1d565b9050919050565b6000610b2882610abf565b9050919050565b60005b83811015610b4d578082015181840152602081019050610b32565b83811115610b5c576000848401525b50505050565b6000610b6d82610b74565b9050919050565b6000610b7f82610ba1565b9050919050565b6000819050919050565b6000601f19601f8301169050919050565b60008160601b905091905056fea365627a7a72315820adc9451058370504e4c563a664474eeb2218ef868b6aff670449432b6b8aa8356c6578706572696d656e74616cf564736f6c63430005100040",
  "source": "// SPDX-License-Identifier: MIT\r\npragma solidity >=0.5.16;\r\npragma experimental ABIEncoderV2;\r\n\r\nimport \"./CatBase.sol\";\r\n\r\ncontract CatFeed is CatBase{\r\n\r\n\r\n    event FeedCat(address feeder);\r\n\r\n    function feed() public{\r\n        updateKittyId(_makeRandom());\r\n        emit FeedCat(msg.sender);\r\n    }\r\n\r\n\r\n\r\n}",
  "sourcePath": "C:\\Users\\kyoon\\Desktop\\madcamp\\truffle-react\\contracts\\CatFeed.sol",
  "compiler": {
    "name": "solc",
    "version": "0.5.16+commit.9c3226ce.Emscripten.clang"
  },
  "schemaVersion": "3.4.4",
  "updatedAt": "2022-01-14T04:30:11.302Z",
  "networkType": "ethereum",
  "devdoc": {
    "methods": {}
  },
  "userdoc": {
    "methods": {}
  }
}